{
  "contracts/MasterChefHermesV2.sol": {
    "MasterChefHermesV2": {
      "abi": [
        {
          "inputs": [
            {
              "internalType": "contract IHermesToken",
              "name": "_hermes",
              "type": "address"
            },
            {
              "internalType": "address",
              "name": "_devAddr",
              "type": "address"
            },
            {
              "internalType": "address",
              "name": "_treasuryAddr",
              "type": "address"
            },
            {
              "internalType": "address",
              "name": "_investorAddr",
              "type": "address"
            },
            {
              "internalType": "uint256",
              "name": "_hermesPerSec",
              "type": "uint256"
            },
            {
              "internalType": "uint256",
              "name": "_startTimestamp",
              "type": "uint256"
            },
            {
              "internalType": "uint256",
              "name": "_devPercent",
              "type": "uint256"
            },
            {
              "internalType": "uint256",
              "name": "_treasuryPercent",
              "type": "uint256"
            },
            {
              "internalType": "uint256",
              "name": "_investorPercent",
              "type": "uint256"
            }
          ],
          "stateMutability": "nonpayable",
          "type": "constructor"
        },
        {
          "anonymous": false,
          "inputs": [
            {
              "indexed": true,
              "internalType": "uint256",
              "name": "pid",
              "type": "uint256"
            },
            {
              "indexed": false,
              "internalType": "uint256",
              "name": "allocPoint",
              "type": "uint256"
            },
            {
              "indexed": true,
              "internalType": "contract IERC20",
              "name": "lpToken",
              "type": "address"
            },
            {
              "indexed": true,
              "internalType": "contract IRewarder",
              "name": "rewarder",
              "type": "address"
            }
          ],
          "name": "Add",
          "type": "event"
        },
        {
          "anonymous": false,
          "inputs": [
            {
              "indexed": true,
              "internalType": "address",
              "name": "user",
              "type": "address"
            },
            {
              "indexed": true,
              "internalType": "uint256",
              "name": "pid",
              "type": "uint256"
            },
            {
              "indexed": false,
              "internalType": "uint256",
              "name": "amount",
              "type": "uint256"
            }
          ],
          "name": "Deposit",
          "type": "event"
        },
        {
          "anonymous": false,
          "inputs": [
            {
              "indexed": true,
              "internalType": "address",
              "name": "user",
              "type": "address"
            },
            {
              "indexed": true,
              "internalType": "uint256",
              "name": "pid",
              "type": "uint256"
            },
            {
              "indexed": false,
              "internalType": "uint256",
              "name": "amount",
              "type": "uint256"
            }
          ],
          "name": "EmergencyWithdraw",
          "type": "event"
        },
        {
          "anonymous": false,
          "inputs": [
            {
              "indexed": true,
              "internalType": "address",
              "name": "user",
              "type": "address"
            },
            {
              "indexed": true,
              "internalType": "uint256",
              "name": "pid",
              "type": "uint256"
            },
            {
              "indexed": false,
              "internalType": "uint256",
              "name": "amount",
              "type": "uint256"
            }
          ],
          "name": "Harvest",
          "type": "event"
        },
        {
          "anonymous": false,
          "inputs": [
            {
              "indexed": true,
              "internalType": "uint256[]",
              "name": "_blockEnds",
              "type": "uint256[]"
            }
          ],
          "name": "OnBlockDeltaEndStageChanged",
          "type": "event"
        },
        {
          "anonymous": false,
          "inputs": [
            {
              "indexed": true,
              "internalType": "uint256[]",
              "name": "_blockStarts",
              "type": "uint256[]"
            }
          ],
          "name": "OnBlockDeltaStartStageChanged",
          "type": "event"
        },
        {
          "anonymous": false,
          "inputs": [
            {
              "indexed": true,
              "internalType": "uint256[]",
              "name": "_devFees",
              "type": "uint256[]"
            }
          ],
          "name": "OnDevFeeStageChanged",
          "type": "event"
        },
        {
          "anonymous": false,
          "inputs": [
            {
              "indexed": true,
              "internalType": "uint256",
              "name": "_newPercent",
              "type": "uint256"
            }
          ],
          "name": "OnDevPercentChanged",
          "type": "event"
        },
        {
          "anonymous": false,
          "inputs": [
            {
              "indexed": true,
              "internalType": "address",
              "name": "_investorAddr",
              "type": "address"
            }
          ],
          "name": "OnInvestorAddrChanged",
          "type": "event"
        },
        {
          "anonymous": false,
          "inputs": [
            {
              "indexed": true,
              "internalType": "uint256",
              "name": "_newInvestorPercent",
              "type": "uint256"
            }
          ],
          "name": "OnInvestorPercentChanged",
          "type": "event"
        },
        {
          "anonymous": false,
          "inputs": [
            {
              "indexed": true,
              "internalType": "address",
              "name": "_treasuryAddr",
              "type": "address"
            }
          ],
          "name": "OnTreasuryAddrChanged",
          "type": "event"
        },
        {
          "anonymous": false,
          "inputs": [
            {
              "indexed": true,
              "internalType": "uint256",
              "name": "_newPercent",
              "type": "uint256"
            }
          ],
          "name": "OnTreasuryPercentChanged",
          "type": "event"
        },
        {
          "anonymous": false,
          "inputs": [
            {
              "indexed": true,
              "internalType": "uint256[]",
              "name": "_userFees",
              "type": "uint256[]"
            }
          ],
          "name": "OnUserFeeStageChanged",
          "type": "event"
        },
        {
          "anonymous": false,
          "inputs": [
            {
              "indexed": true,
              "internalType": "address",
              "name": "previousOwner",
              "type": "address"
            },
            {
              "indexed": true,
              "internalType": "address",
              "name": "newOwner",
              "type": "address"
            }
          ],
          "name": "OwnershipTransferred",
          "type": "event"
        },
        {
          "anonymous": false,
          "inputs": [
            {
              "indexed": true,
              "internalType": "uint256",
              "name": "pid",
              "type": "uint256"
            },
            {
              "indexed": false,
              "internalType": "uint256",
              "name": "allocPoint",
              "type": "uint256"
            },
            {
              "indexed": true,
              "internalType": "contract IRewarder",
              "name": "rewarder",
              "type": "address"
            },
            {
              "indexed": false,
              "internalType": "bool",
              "name": "overwrite",
              "type": "bool"
            }
          ],
          "name": "Set",
          "type": "event"
        },
        {
          "anonymous": false,
          "inputs": [
            {
              "indexed": true,
              "internalType": "address",
              "name": "oldAddress",
              "type": "address"
            },
            {
              "indexed": true,
              "internalType": "address",
              "name": "newAddress",
              "type": "address"
            }
          ],
          "name": "SetDevAddress",
          "type": "event"
        },
        {
          "anonymous": false,
          "inputs": [
            {
              "indexed": true,
              "internalType": "address",
              "name": "user",
              "type": "address"
            },
            {
              "indexed": false,
              "internalType": "uint256",
              "name": "_hermesPerSec",
              "type": "uint256"
            }
          ],
          "name": "UpdateEmissionRate",
          "type": "event"
        },
        {
          "anonymous": false,
          "inputs": [
            {
              "indexed": true,
              "internalType": "uint256",
              "name": "pid",
              "type": "uint256"
            },
            {
              "indexed": false,
              "internalType": "uint256",
              "name": "lastRewardTimestamp",
              "type": "uint256"
            },
            {
              "indexed": false,
              "internalType": "uint256",
              "name": "lpSupply",
              "type": "uint256"
            },
            {
              "indexed": false,
              "internalType": "uint256",
              "name": "accHermesPerShare",
              "type": "uint256"
            }
          ],
          "name": "UpdatePool",
          "type": "event"
        },
        {
          "anonymous": false,
          "inputs": [
            {
              "indexed": true,
              "internalType": "address",
              "name": "user",
              "type": "address"
            },
            {
              "indexed": true,
              "internalType": "uint256",
              "name": "pid",
              "type": "uint256"
            },
            {
              "indexed": false,
              "internalType": "uint256",
              "name": "amount",
              "type": "uint256"
            }
          ],
          "name": "Withdraw",
          "type": "event"
        },
        {
          "anonymous": false,
          "inputs": [
            {
              "indexed": false,
              "internalType": "address",
              "name": "to",
              "type": "address"
            },
            {
              "indexed": false,
              "internalType": "uint256",
              "name": "request",
              "type": "uint256"
            },
            {
              "indexed": false,
              "internalType": "uint256",
              "name": "sent",
              "type": "uint256"
            }
          ],
          "name": "hermesTransfer",
          "type": "event"
        },
        {
          "inputs": [
            {
              "internalType": "uint256",
              "name": "_allocPoint",
              "type": "uint256"
            },
            {
              "internalType": "contract IERC20",
              "name": "_lpToken",
              "type": "address"
            },
            {
              "internalType": "contract IRewarder",
              "name": "_rewarder",
              "type": "address"
            }
          ],
          "name": "add",
          "outputs": [],
          "stateMutability": "nonpayable",
          "type": "function"
        },
        {
          "inputs": [
            {
              "internalType": "uint256",
              "name": "",
              "type": "uint256"
            }
          ],
          "name": "blockDeltaEndStage",
          "outputs": [
            {
              "internalType": "uint256",
              "name": "",
              "type": "uint256"
            }
          ],
          "stateMutability": "view",
          "type": "function"
        },
        {
          "inputs": [
            {
              "internalType": "uint256",
              "name": "",
              "type": "uint256"
            }
          ],
          "name": "blockDeltaStartStage",
          "outputs": [
            {
              "internalType": "uint256",
              "name": "",
              "type": "uint256"
            }
          ],
          "stateMutability": "view",
          "type": "function"
        },
        {
          "inputs": [
            {
              "internalType": "uint256",
              "name": "_pid",
              "type": "uint256"
            },
            {
              "internalType": "uint256",
              "name": "_amount",
              "type": "uint256"
            }
          ],
          "name": "deposit",
          "outputs": [],
          "stateMutability": "nonpayable",
          "type": "function"
        },
        {
          "inputs": [
            {
              "internalType": "address",
              "name": "_devAddr",
              "type": "address"
            }
          ],
          "name": "dev",
          "outputs": [],
          "stateMutability": "nonpayable",
          "type": "function"
        },
        {
          "inputs": [],
          "name": "devAddr",
          "outputs": [
            {
              "internalType": "address",
              "name": "",
              "type": "address"
            }
          ],
          "stateMutability": "view",
          "type": "function"
        },
        {
          "inputs": [
            {
              "internalType": "uint256",
              "name": "",
              "type": "uint256"
            }
          ],
          "name": "devFeeStage",
          "outputs": [
            {
              "internalType": "uint256",
              "name": "",
              "type": "uint256"
            }
          ],
          "stateMutability": "view",
          "type": "function"
        },
        {
          "inputs": [],
          "name": "devPercent",
          "outputs": [
            {
              "internalType": "uint256",
              "name": "",
              "type": "uint256"
            }
          ],
          "stateMutability": "view",
          "type": "function"
        },
        {
          "inputs": [
            {
              "internalType": "uint256",
              "name": "_pid",
              "type": "uint256"
            }
          ],
          "name": "emergencyWithdraw",
          "outputs": [],
          "stateMutability": "nonpayable",
          "type": "function"
        },
        {
          "inputs": [],
          "name": "hermes",
          "outputs": [
            {
              "internalType": "contract IHermesToken",
              "name": "",
              "type": "address"
            }
          ],
          "stateMutability": "view",
          "type": "function"
        },
        {
          "inputs": [],
          "name": "hermesPerSec",
          "outputs": [
            {
              "internalType": "uint256",
              "name": "",
              "type": "uint256"
            }
          ],
          "stateMutability": "view",
          "type": "function"
        },
        {
          "inputs": [],
          "name": "investorAddr",
          "outputs": [
            {
              "internalType": "address",
              "name": "",
              "type": "address"
            }
          ],
          "stateMutability": "view",
          "type": "function"
        },
        {
          "inputs": [],
          "name": "investorPercent",
          "outputs": [
            {
              "internalType": "uint256",
              "name": "",
              "type": "uint256"
            }
          ],
          "stateMutability": "view",
          "type": "function"
        },
        {
          "inputs": [],
          "name": "massUpdatePools",
          "outputs": [],
          "stateMutability": "nonpayable",
          "type": "function"
        },
        {
          "inputs": [],
          "name": "owner",
          "outputs": [
            {
              "internalType": "address",
              "name": "",
              "type": "address"
            }
          ],
          "stateMutability": "view",
          "type": "function"
        },
        {
          "inputs": [
            {
              "internalType": "uint256",
              "name": "_pid",
              "type": "uint256"
            },
            {
              "internalType": "address",
              "name": "_user",
              "type": "address"
            }
          ],
          "name": "pendingTokens",
          "outputs": [
            {
              "internalType": "uint256",
              "name": "pendingHermes",
              "type": "uint256"
            },
            {
              "internalType": "address",
              "name": "bonusTokenAddress",
              "type": "address"
            },
            {
              "internalType": "string",
              "name": "bonusTokenSymbol",
              "type": "string"
            },
            {
              "internalType": "uint256",
              "name": "pendingBonusToken",
              "type": "uint256"
            }
          ],
          "stateMutability": "view",
          "type": "function"
        },
        {
          "inputs": [
            {
              "internalType": "uint256",
              "name": "",
              "type": "uint256"
            }
          ],
          "name": "poolInfo",
          "outputs": [
            {
              "internalType": "contract IERC20",
              "name": "lpToken",
              "type": "address"
            },
            {
              "internalType": "uint256",
              "name": "allocPoint",
              "type": "uint256"
            },
            {
              "internalType": "uint256",
              "name": "lastRewardTimestamp",
              "type": "uint256"
            },
            {
              "internalType": "uint256",
              "name": "accHermesPerShare",
              "type": "uint256"
            },
            {
              "internalType": "contract IRewarder",
              "name": "rewarder",
              "type": "address"
            }
          ],
          "stateMutability": "view",
          "type": "function"
        },
        {
          "inputs": [],
          "name": "poolLength",
          "outputs": [
            {
              "internalType": "uint256",
              "name": "",
              "type": "uint256"
            }
          ],
          "stateMutability": "view",
          "type": "function"
        },
        {
          "inputs": [],
          "name": "renounceOwnership",
          "outputs": [],
          "stateMutability": "nonpayable",
          "type": "function"
        },
        {
          "inputs": [
            {
              "internalType": "uint256",
              "name": "_pid",
              "type": "uint256"
            }
          ],
          "name": "rewarderBonusTokenInfo",
          "outputs": [
            {
              "internalType": "address",
              "name": "bonusTokenAddress",
              "type": "address"
            },
            {
              "internalType": "string",
              "name": "bonusTokenSymbol",
              "type": "string"
            }
          ],
          "stateMutability": "view",
          "type": "function"
        },
        {
          "inputs": [
            {
              "internalType": "uint256",
              "name": "_pid",
              "type": "uint256"
            },
            {
              "internalType": "uint256",
              "name": "_allocPoint",
              "type": "uint256"
            },
            {
              "internalType": "contract IRewarder",
              "name": "_rewarder",
              "type": "address"
            },
            {
              "internalType": "bool",
              "name": "overwrite",
              "type": "bool"
            }
          ],
          "name": "set",
          "outputs": [],
          "stateMutability": "nonpayable",
          "type": "function"
        },
        {
          "inputs": [
            {
              "internalType": "uint256",
              "name": "_newDevPercent",
              "type": "uint256"
            }
          ],
          "name": "setDevPercent",
          "outputs": [],
          "stateMutability": "nonpayable",
          "type": "function"
        },
        {
          "inputs": [
            {
              "internalType": "address",
              "name": "_investorAddr",
              "type": "address"
            }
          ],
          "name": "setInvestorAddr",
          "outputs": [],
          "stateMutability": "nonpayable",
          "type": "function"
        },
        {
          "inputs": [
            {
              "internalType": "uint256",
              "name": "_newInvestorPercent",
              "type": "uint256"
            }
          ],
          "name": "setInvestorPercent",
          "outputs": [],
          "stateMutability": "nonpayable",
          "type": "function"
        },
        {
          "inputs": [
            {
              "internalType": "uint256[]",
              "name": "_blockEnds",
              "type": "uint256[]"
            }
          ],
          "name": "setStageEnds",
          "outputs": [],
          "stateMutability": "nonpayable",
          "type": "function"
        },
        {
          "inputs": [
            {
              "internalType": "uint256[]",
              "name": "_blockStarts",
              "type": "uint256[]"
            }
          ],
          "name": "setStageStarts",
          "outputs": [],
          "stateMutability": "nonpayable",
          "type": "function"
        },
        {
          "inputs": [
            {
              "internalType": "address",
              "name": "_treasuryAddr",
              "type": "address"
            }
          ],
          "name": "setTreasuryAddr",
          "outputs": [],
          "stateMutability": "nonpayable",
          "type": "function"
        },
        {
          "inputs": [
            {
              "internalType": "uint256",
              "name": "_newTreasuryPercent",
              "type": "uint256"
            }
          ],
          "name": "setTreasuryPercent",
          "outputs": [],
          "stateMutability": "nonpayable",
          "type": "function"
        },
        {
          "inputs": [],
          "name": "startTimestamp",
          "outputs": [
            {
              "internalType": "uint256",
              "name": "",
              "type": "uint256"
            }
          ],
          "stateMutability": "view",
          "type": "function"
        },
        {
          "inputs": [],
          "name": "totalAllocPoint",
          "outputs": [
            {
              "internalType": "uint256",
              "name": "",
              "type": "uint256"
            }
          ],
          "stateMutability": "view",
          "type": "function"
        },
        {
          "inputs": [
            {
              "internalType": "address",
              "name": "newOwner",
              "type": "address"
            }
          ],
          "name": "transferOwnership",
          "outputs": [],
          "stateMutability": "nonpayable",
          "type": "function"
        },
        {
          "inputs": [],
          "name": "treasuryAddr",
          "outputs": [
            {
              "internalType": "address",
              "name": "",
              "type": "address"
            }
          ],
          "stateMutability": "view",
          "type": "function"
        },
        {
          "inputs": [],
          "name": "treasuryPercent",
          "outputs": [
            {
              "internalType": "uint256",
              "name": "",
              "type": "uint256"
            }
          ],
          "stateMutability": "view",
          "type": "function"
        },
        {
          "inputs": [
            {
              "internalType": "uint256",
              "name": "_hermesPerSec",
              "type": "uint256"
            }
          ],
          "name": "updateEmissionRate",
          "outputs": [],
          "stateMutability": "nonpayable",
          "type": "function"
        },
        {
          "inputs": [
            {
              "internalType": "uint256",
              "name": "_pid",
              "type": "uint256"
            }
          ],
          "name": "updatePool",
          "outputs": [],
          "stateMutability": "nonpayable",
          "type": "function"
        },
        {
          "inputs": [
            {
              "internalType": "uint256",
              "name": "_pid",
              "type": "uint256"
            },
            {
              "internalType": "address",
              "name": "_user",
              "type": "address"
            }
          ],
          "name": "userDelta",
          "outputs": [
            {
              "internalType": "uint256",
              "name": "",
              "type": "uint256"
            }
          ],
          "stateMutability": "view",
          "type": "function"
        },
        {
          "inputs": [
            {
              "internalType": "uint256",
              "name": "",
              "type": "uint256"
            }
          ],
          "name": "userFeeStage",
          "outputs": [
            {
              "internalType": "uint256",
              "name": "",
              "type": "uint256"
            }
          ],
          "stateMutability": "view",
          "type": "function"
        },
        {
          "inputs": [
            {
              "internalType": "uint256",
              "name": "",
              "type": "uint256"
            },
            {
              "internalType": "address",
              "name": "",
              "type": "address"
            }
          ],
          "name": "userInfo",
          "outputs": [
            {
              "internalType": "uint256",
              "name": "amount",
              "type": "uint256"
            },
            {
              "internalType": "uint256",
              "name": "rewardDebt",
              "type": "uint256"
            },
            {
              "internalType": "uint256",
              "name": "lastWithdrawBlock",
              "type": "uint256"
            },
            {
              "internalType": "uint256",
              "name": "firstDepositBlock",
              "type": "uint256"
            },
            {
              "internalType": "uint256",
              "name": "blockdelta",
              "type": "uint256"
            },
            {
              "internalType": "uint256",
              "name": "lastDepositBlock",
              "type": "uint256"
            }
          ],
          "stateMutability": "view",
          "type": "function"
        },
        {
          "inputs": [
            {
              "internalType": "uint256",
              "name": "_pid",
              "type": "uint256"
            },
            {
              "internalType": "uint256",
              "name": "_amount",
              "type": "uint256"
            }
          ],
          "name": "withdraw",
          "outputs": [],
          "stateMutability": "nonpayable",
          "type": "function"
        }
      ],
      "evm": {
        "bytecode": {
          "linkReferences": {},
          "object": "60c060405262093a8060809081526212750060a052620000249060109060026200024a565b506040805160208101909152621275008152620000469060119060016200024a565b5060408051606081018252606381526103e6602082015261270b9181019190915262000077906012906003620002a1565b50604080516060810182526001815260026020820152600591810191909152620000a6906013906003620002e5565b50348015620000b457600080fd5b5060405162003c1838038062003c18833981016040819052620000d7916200033f565b6000620000e362000246565b600080546001600160a01b0319166001600160a01b0383169081178255604051929350917f8be0079c531659141344cd1fd0a4f28419497f9722a3daafe3b4186f6b6457e0908290a350600180556103e88311156200015f5760405162461bcd60e51b8152600401620001569062000424565b60405180910390fd5b6103e8821115620001845760405162461bcd60e51b81526004016200015690620003d9565b6103e8811115620001a95760405162461bcd60e51b81526004016200015690620004ad565b6103e881838501011115620001d25760405162461bcd60e51b815260040162000156906200046a565b600280546001600160a01b039a8b166001600160a01b03199182161790915560038054998b169982169990991790985560048054978a169789169790971790965560058054959098169490961693909317909555600655600f939093556007929092556008556009556000600e5562000511565b3390565b8280548282559060005260206000209081019282156200028f579160200282015b828111156200028f578251829062ffffff169055916020019190600101906200026b565b506200029d92915062000328565b5090565b8280548282559060005260206000209081019282156200028f579160200282015b828111156200028f578251829061ffff16905591602001919060010190620002c2565b8280548282559060005260206000209081019282156200028f579160200282015b828111156200028f578251829060ff1690559160200191906001019062000306565b5b808211156200029d576000815560010162000329565b60008060008060008060008060006101208a8c0312156200035e578485fd5b89516200036b81620004f8565b60208b01519099506200037e81620004f8565b60408b01519098506200039181620004f8565b60608b0151909750620003a481620004f8565b8096505060808a0151945060a08a0151935060c08a0151925060e08a015191506101008a015190509295985092959850929598565b6020808252602b908201527f636f6e7374727563746f723a20696e76616c696420747265617375727920706560408201526a7263656e742076616c756560a81b606082015260800190565b60208082526026908201527f636f6e7374727563746f723a20696e76616c6964206465762070657263656e746040820152652076616c756560d01b606082015260800190565b60208082526023908201527f636f6e7374727563746f723a20746f74616c2070657263656e74206f766572206040820152620dac2f60eb1b606082015260800190565b6020808252602b908201527f636f6e7374727563746f723a20696e76616c696420696e766573746f7220706560408201526a7263656e742076616c756560a81b606082015260800190565b6001600160a01b03811681146200050e57600080fd5b50565b6136f780620005216000396000f3fe608060405234801561001057600080fd5b506004361061023d5760003560e01c806389a2bc251161013b578063cb0b8ca1116100b8578063e6fd48bc1161007c578063e6fd48bc1461049a578063f2fde38b146104a2578063fb39d1e3146104b5578063fc3c28af146104c8578063ffcd4263146104d05761023d565b8063cb0b8ca114610451578063d007db2914610464578063d8092c9214610477578063da09c72c1461047f578063e2bbb158146104875761023d565b8063aa3448ab116100ff578063aa3448ab146103fa578063ab7de09814610402578063acc4cc5014610415578063bc70fdbc1461041d578063beff2a531461043e5761023d565b806389a2bc25146103945780638d88a90e146103a75780638da5cb5b146103ba57806393f1a40b146103c2578063a7e05b9c146103e75761023d565b80634af0e3e1116101c95780636eaddad21161018d5780636eaddad214610340578063715018a614610353578063847bdaa41461035b578063876d3c9c1461036e57806388bba42f146103815761023d565b80634af0e3e1146102ec57806351eb05a6146102ff5780635312ea8e146103125780636245f08414610325578063630b5ba1146103385761023d565b80630f51f8ff116102105780630f51f8ff146102855780631526fe271461029857806317caf6f1146102bc57806330d9a62a146102c4578063441a3e70146102d95761023d565b806304ef9d58146102425780630735b20814610260578063081e3eda146102685780630ba84cd214610270575b600080fd5b61024a6104f3565b6040516102579190613596565b60405180910390f35b61024a6104f9565b61024a6104ff565b61028361027e366004612d83565b610505565b005b610283610293366004612c0e565b610597565b6102ab6102a6366004612d83565b61060b565b604051610257959493929190612fa1565b61024a610656565b6102cc61065c565b6040516102579190612f0b565b6102836102e7366004612e23565b61066b565b6102836102fa366004612c46565b6108be565b61028361030d366004612d83565b610952565b610283610320366004612d83565b610da8565b61024a610333366004612d83565b610ec3565b610283610ee1565b61028361034e366004612d83565b610f00565b610283610fbe565b610283610369366004612c46565b611047565b61028361037c366004612d83565b6110db565b61028361038f366004612e44565b611199565b6102836103a2366004612d83565b61136a565b6102836103b5366004612c0e565b611428565b6102cc61149e565b6103d56103d0366004612db3565b6114ad565b60405161025796959493929190613600565b6102836103f5366004612c0e565b6114ed565b61024a611561565b610283610410366004612de2565b611567565b6102cc611865565b61043061042b366004612d83565b611874565b604051610257929190612f5c565b61024a61044c366004612d83565b6119f3565b61024a61045f366004612d83565b611a00565b61024a610472366004612d83565b611a0d565b6102cc611a1a565b6102cc611a29565b610283610495366004612e23565b611a38565b61024a611e5b565b6102836104b0366004612c0e565b611e61565b61024a6104c3366004612db3565b611f21565b61024a611f90565b6104e36104de366004612db3565b611f96565b604051610257949392919061359f565b60085481565b60095481565b600a5490565b61050d61228d565b6001600160a01b031661051e61149e565b6001600160a01b03161461054d5760405162461bcd60e51b815260040161054490613290565b60405180910390fd5b610555610ee1565b600681905560405133907fe2492e003bbe8afa53088b406f0c1cb5d9e280370fc72a74cf116ffd343c40539061058c908490613596565b60405180910390a250565b6005546001600160a01b031633146105c15760405162461bcd60e51b8152600401610544906133c8565b600580546001600160a01b0319166001600160a01b0383169081179091556040517fcfaab8a6a9a692bbf38fdafc81b49d4f028c34f530390d9212054b0acfeae7d090600090a250565b600a818154811061061857fe5b6000918252602090912060059091020180546001820154600283015460038401546004909401546001600160a01b0393841695509193909290911685565b600e5481565b6004546001600160a01b031681565b6002600154141561068e5760405162461bcd60e51b81526004016105449061351b565b6002600155600a54829081106106b65760405162461bcd60e51b815260040161054490613199565b6000600a84815481106106c557fe5b60009182526020808320878452600d82526040808520338652909252922080546005909202909201925084111561070e5760405162461bcd60e51b81526004016105449061342e565b61071785610952565b6000610751826001015461074b64e8d4a510006107458760030154876000015461229190919063ffffffff16565b906122d4565b90612306565b905061075d338261232e565b85336001600160a01b03167f71bab65ced2e5750775a0613be067df48ef06cf92a496ebf7663ae0660924954836040516107979190613596565b60405180910390a381546107ab9086612306565b80835560038401546107c89164e8d4a51000916107459190612291565b82600101819055506000600a87815481106107df57fe5b60009182526020909120600460059092020101546001600160a01b031690508015610865578254604051633c84115360e11b81526001600160a01b0383169163790822a691610832913391600401612f1f565b600060405180830381600087803b15801561084c57600080fd5b505af1158015610860573d6000803e3d6000fd5b505050505b61086f8787612509565b86336001600160a01b03167ff279e6a1f5e320cca91135676d9cb6e44ca8a08c0b88342bcdb1144f6511b568886040516108a99190613596565b60405180910390a35050600180555050505050565b6108c661228d565b6001600160a01b03166108d761149e565b6001600160a01b0316146108fd5760405162461bcd60e51b815260040161054490613290565b8051610910906011906020840190612bae565b508060405161091f9190612eb9565b604051908190038120907fd88fce29c587fd22104b7f042f470dc9a25ba5adb19b1f39fd5bd136ab9957de90600090a250565b600a54819081106109755760405162461bcd60e51b815260040161054490613199565b6000600a838154811061098457fe5b90600052602060002090600502019050806002015442116109a55750610da4565b80546040516370a0823160e01b81526000916001600160a01b0316906370a08231906109d5903090600401612f0b565b60206040518083038186803b1580156109ed57600080fd5b505afa158015610a01573d6000803e3d6000fd5b505050506040513d601f19601f82011682018060405250810190610a259190612d9b565b905080610a39575042600290910155610da4565b600260009054906101000a90046001600160a01b03166001600160a01b031663c7ff1b606040518163ffffffff1660e01b815260040160206040518083038186803b158015610a8757600080fd5b505afa158015610a9b573d6000803e3d6000fd5b505050506040513d601f19601f82011682018060405250810190610abf9190612cdb565b15610ad1575042600290910155610da4565b6000610aea83600201544261230690919063ffffffff16565b90506000610b17600e546107458660010154610b116006548761229190919063ffffffff16565b90612291565b6009546008546007546002546003549495506103e88281039390930393909303936001600160a01b03938416936340c10f1993911691610b5d9190610745908890612291565b6040518363ffffffff1660e01b8152600401610b7a929190612f1f565b600060405180830381600087803b158015610b9457600080fd5b505af1158015610ba8573d6000803e3d6000fd5b50506002546004546008546001600160a01b0392831694506340c10f199350911690610bdd906103e890610745908890612291565b6040518363ffffffff1660e01b8152600401610bfa929190612f1f565b600060405180830381600087803b158015610c1457600080fd5b505af1158015610c28573d6000803e3d6000fd5b50506002546005546009546001600160a01b0392831694506340c10f199350911690610c5d906103e890610745908890612291565b6040518363ffffffff1660e01b8152600401610c7a929190612f1f565b600060405180830381600087803b158015610c9457600080fd5b505af1158015610ca8573d6000803e3d6000fd5b50506002546001600160a01b031691506340c10f19905030610cd06103e86107458787612291565b6040518363ffffffff1660e01b8152600401610ced929190612f1f565b600060405180830381600087803b158015610d0757600080fd5b505af1158015610d1b573d6000803e3d6000fd5b50505050610d53610d486103e861074584610b118961074564e8d4a510008a61229190919063ffffffff16565b6003870154906126db565b60038601819055426002870181905560405189927f3be3541fc42237d611b30329040bfa4569541d156560acdbbae57640d20b8f4692610d9692909189916135ea565b60405180910390a250505050505b5050565b600a5481908110610dcb5760405162461bcd60e51b815260040161054490613199565b6000600a8381548110610dda57fe5b60009182526020808320868452600d825260408085203386529092529083208054600590930290910193509190610e1990606490610745906063612291565b90506000610e3a60646107456001866000015461229190919063ffffffff16565b600080855560018501558454909150610e5d906001600160a01b03163384612700565b6004548454610e79916001600160a01b03918216911683612700565b85336001600160a01b03167fbb757047c2b5f3974fe26b7c10f732e7bce710b0952a71082702781e62ae059584604051610eb39190613596565b60405180910390a3505050505050565b60108181548110610ed057fe5b600091825260209091200154905081565b600a5460005b81811015610da457610ef881610952565b600101610ee7565b610f0861228d565b6001600160a01b0316610f1961149e565b6001600160a01b031614610f3f5760405162461bcd60e51b815260040161054490613290565b6103e8811115610f615760405162461bcd60e51b815260040161054490613552565b6103e86009548260085401011115610f8b5760405162461bcd60e51b8152600401610544906132f4565b600781905560405181907f9d1b620a27d3cff0611581df3c659ea0980d4b3db9428ca96559a1420fa3c7bb90600090a250565b610fc661228d565b6001600160a01b0316610fd761149e565b6001600160a01b031614610ffd5760405162461bcd60e51b815260040161054490613290565b600080546040516001600160a01b03909116907f8be0079c531659141344cd1fd0a4f28419497f9722a3daafe3b4186f6b6457e0908390a3600080546001600160a01b0319169055565b61104f61228d565b6001600160a01b031661106061149e565b6001600160a01b0316146110865760405162461bcd60e51b815260040161054490613290565b8051611099906010906020840190612bae565b50806040516110a89190612eb9565b604051908190038120907f57c31cb0b626d0819c0d830cd19bbb85e317d65710eda3756dc8fc7daa559d2290600090a250565b6110e361228d565b6001600160a01b03166110f461149e565b6001600160a01b03161461111a5760405162461bcd60e51b815260040161054490613290565b6103e881111561113c5760405162461bcd60e51b815260040161054490613339565b6103e860085482600754010111156111665760405162461bcd60e51b815260040161054490613052565b600981905560405181907f1b9620ae36755b5ca186d676e3fa9a6b2b901fbddee8d6945f49215f092a989790600090a250565b6111a161228d565b6001600160a01b03166111b261149e565b6001600160a01b0316146111d85760405162461bcd60e51b815260040161054490613290565b600a54849081106111fb5760405162461bcd60e51b815260040161054490613199565b611204836127f6565b8061121657506001600160a01b038316155b6112325760405162461bcd60e51b81526004016105449061345a565b61123a610ee1565b61127784611271600a888154811061124e57fe5b906000526020600020906005020160010154600e5461230690919063ffffffff16565b906126db565b600e8190555083600a868154811061128b57fe5b90600052602060002090600502016001018190555081156112ea5782600a86815481106112b457fe5b906000526020600020906005020160040160006101000a8154816001600160a01b0302191690836001600160a01b031602179055505b8161131e57600a85815481106112fc57fe5b60009182526020909120600460059092020101546001600160a01b0316611320565b825b6001600160a01b0316857fa54644aae5c48c5971516f334e4fe8ecbc7930e23f34877d4203c6551e67ffaa868560405161135b9291906135da565b60405180910390a35050505050565b61137261228d565b6001600160a01b031661138361149e565b6001600160a01b0316146113a95760405162461bcd60e51b815260040161054490613290565b6103e88111156113cb5760405162461bcd60e51b815260040161054490613119565b6103e860095482600754010111156113f55760405162461bcd60e51b815260040161054490612fd1565b600881905560405181907ffe5e84aed80bb66b1138901b54a3742364a3f72852272e991fda306412eb9da890600090a250565b6003546001600160a01b031633146114525760405162461bcd60e51b8152600401610544906131fd565b600380546001600160a01b0319166001600160a01b03831690811790915560405133907f618c54559e94f1499a808aad71ee8729f8e74e8c48e979616328ce493a1a52e790600090a350565b6000546001600160a01b031690565b600d602090815260009283526040808420909152908252902080546001820154600283015460038401546004850154600590950154939492939192909186565b6004546001600160a01b031633146115175760405162461bcd60e51b8152600401610544906132c5565b600480546001600160a01b0319166001600160a01b0383169081179091556040517ffed1fc22ed508d4b73d6979bf4919d01a7429d337a20d9838ae69a9fc1f5888690600090a250565b60065481565b61156f61228d565b6001600160a01b031661158061149e565b6001600160a01b0316146115a65760405162461bcd60e51b815260040161054490613290565b6115af826127f6565b6115cb5760405162461bcd60e51b815260040161054490613382565b6115d4816127f6565b806115e657506001600160a01b038116155b6116025760405162461bcd60e51b8152600401610544906134a0565b6040516370a0823160e01b81526001600160a01b038316906370a082319061162e903090600401612f0b565b60206040518083038186803b15801561164657600080fd5b505afa15801561165a573d6000803e3d6000fd5b505050506040513d601f19601f8201168201806040525081019061167e9190612d9b565b5061168a600b83612800565b156116a75760405162461bcd60e51b815260040161054490613261565b6116af610ee1565b6000600f5442116116c257600f546116c4565b425b600e549091506116d490856126db565b600e556040805160a0810182526001600160a01b0385811682526020820187815292820184815260006060840181815287841660808601908152600a8054600181018255935294517fc65a7bb8d6351c1cf70c95a316cc6a92839c986682d98bc35f958f4883f9d2a8600590930292830180546001600160a01b031990811692871692909217905595517fc65a7bb8d6351c1cf70c95a316cc6a92839c986682d98bc35f958f4883f9d2a983015591517fc65a7bb8d6351c1cf70c95a316cc6a92839c986682d98bc35f958f4883f9d2aa82015590517fc65a7bb8d6351c1cf70c95a316cc6a92839c986682d98bc35f958f4883f9d2ab82015591517fc65a7bb8d6351c1cf70c95a316cc6a92839c986682d98bc35f958f4883f9d2ac90920180549093169116179055611809600b84612815565b50600a546001600160a01b038084169190851690611828906001612306565b7f4b16bd2431ad24dc020ab0e1de7fcb6563dead6a24fb10089d6c23e97a70381f876040516118579190613596565b60405180910390a450505050565b6005546001600160a01b031681565b6000606082600a80549050811061189d5760405162461bcd60e51b815260040161054490613199565b6000600a85815481106118ac57fe5b6000918252602090912060059091020160048101549091506001600160a01b0316156119ec576004808201546040805163f7c618c160e01b815290516001600160a01b039092169263f7c618c1928282019260209290829003018186803b15801561191657600080fd5b505afa15801561192a573d6000803e3d6000fd5b505050506040513d601f19601f8201168201806040525081019061194e9190612c2a565b93506119e98160040160009054906101000a90046001600160a01b03166001600160a01b031663f7c618c16040518163ffffffff1660e01b815260040160206040518083038186803b1580156119a357600080fd5b505afa1580156119b7573d6000803e3d6000fd5b505050506040513d601f19601f820116820180604052508101906119db9190612c2a565b6001600160a01b031661282a565b92505b5050915091565b60138181548110610ed057fe5b60118181548110610ed057fe5b60128181548110610ed057fe5b6002546001600160a01b031681565b6003546001600160a01b031681565b60026001541415611a5b5760405162461bcd60e51b81526004016105449061351b565b6002600155600a5482908110611a835760405162461bcd60e51b815260040161054490613199565b6000600a8481548110611a9257fe5b60009182526020808320878452600d82526040808520338652909252922060059091029091019150611ac385610952565b805415611b48576000611af8826001015461074b64e8d4a510006107458760030154876000015461229190919063ffffffff16565b9050611b04338261232e565b85336001600160a01b03167f71bab65ced2e5750775a0613be067df48ef06cf92a496ebf7663ae066092495483604051611b3e9190613596565b60405180910390a3505b8054611b5490856126db565b8082556003830154611b719164e8d4a51000916107459190612291565b81600101819055506000600a8681548110611b8857fe5b60009182526020909120600460059092020101546001600160a01b031690508015611ca257806001600160a01b031663a561cef96040518163ffffffff1660e01b815260040160206040518083038186803b158015611be657600080fd5b505afa158015611bfa573d6000803e3d6000fd5b505050506040513d601f19601f82011682018060405250810190611c1e9190612cdb565b15611c88578154604051633c84115360e11b81526001600160a01b0383169163790822a691611c51913391600401612f1f565b600060405180830381600087803b158015611c6b57600080fd5b505af1158015611c7f573d6000803e3d6000fd5b50505050611ca2565b600183015415611ca25760006001840155611ca286610952565b600382015415611cb157611cb8565b4260038301555b82546040516370a0823160e01b81526000916001600160a01b0316906370a0823190611ce8903090600401612f0b565b60206040518083038186803b158015611d0057600080fd5b505afa158015611d14573d6000803e3d6000fd5b505050506040513d601f19601f82011682018060405250810190611d389190612d9b565b8454909150611d52906001600160a01b03163330896128ed565b83546040516370a0823160e01b81526000916001600160a01b0316906370a0823190611d82903090600401612f0b565b60206040518083038186803b158015611d9a57600080fd5b505afa158015611dae573d6000803e3d6000fd5b505050506040513d601f19601f82011682018060405250810190611dd29190612d9b565b90506000611de08284612306565b9050878114611e015760405162461bcd60e51b8152600401610544906133f7565b88336001600160a01b03167f90890809c654f11d6e72a28fa60149770a0d11ec6c92319d6ceb2bb0a4ea1a158a604051611e3b9190613596565b60405180910390a350504360059093019290925550506001805550505050565b600f5481565b611e6961228d565b6001600160a01b0316611e7a61149e565b6001600160a01b031614611ea05760405162461bcd60e51b815260040161054490613290565b6001600160a01b038116611ec65760405162461bcd60e51b81526004016105449061309c565b600080546040516001600160a01b03808516939216917f8be0079c531659141344cd1fd0a4f28419497f9722a3daafe3b4186f6b6457e091a3600080546001600160a01b0319166001600160a01b0392909216919091179055565b600a5460009083908110611f475760405162461bcd60e51b815260040161054490613199565b6000848152600d602090815260408083206001600160a01b03871684529091529020600281015415611f80576002015442039150611f89565b60030154420391505b5092915050565b60075481565b6000806060600085600a805490508110611fc25760405162461bcd60e51b815260040161054490613199565b6000600a8881548110611fd157fe5b600091825260208083208b8452600d825260408085206001600160a01b03808e16875293528085206003600590950290920193840154845491516370a0823160e01b815294965091949193919216906370a0823190612034903090600401612f0b565b60206040518083038186803b15801561204c57600080fd5b505afa158015612060573d6000803e3d6000fd5b505050506040513d601f19601f820116820180604052508101906120849190612d9b565b905083600201544211801561209857508015155b80156121275750600260009054906101000a90046001600160a01b03166001600160a01b031663c7ff1b606040518163ffffffff1660e01b815260040160206040518083038186803b1580156120ed57600080fd5b505afa158015612101573d6000803e3d6000fd5b505050506040513d601f19601f820116820180604052508101906121259190612cdb565b155b156121ae57600061214585600201544261230690919063ffffffff16565b905060006009546008546007546103e8030303905060006121896103e861074584610b11600e546107458d60010154610b116006548c61229190919063ffffffff16565b90506121a86121a1856107458464e8d4a51000612291565b86906126db565b94505050505b6121d6836001015461074b64e8d4a5100061074586886000015461229190919063ffffffff16565b60048501549099506001600160a01b03161561227f576121f58b611874565b60048087015460405163c031a66f60e01b8152939b509199506001600160a01b039091169163c031a66f9161222c918e9101612f0b565b60206040518083038186803b15801561224457600080fd5b505afa158015612258573d6000803e3d6000fd5b505050506040513d601f19601f8201168201806040525081019061227c9190612d9b565b95505b505050505092959194509250565b3390565b6000826122a0575060006122ce565b828202828482816122ad57fe5b04146122cb5760405162461bcd60e51b815260040161054490613220565b90505b92915050565b60008082116122f55760405162461bcd60e51b8152600401610544906131c6565b8183816122fe57fe5b049392505050565b6000828211156123285760405162461bcd60e51b815260040161054490613162565b50900390565b6002546040516370a0823160e01b81526000916001600160a01b0316906370a082319061235f903090600401612f0b565b60206040518083038186803b15801561237757600080fd5b505afa15801561238b573d6000803e3d6000fd5b505050506040513d601f19601f820116820180604052508101906123af9190612d9b565b90508082111561247e577f438d1f7557bf87a3502b45f261a0bc7ba72cb24b387d7ed74c4456e9768eac558383836040516123ec93929190612f80565b60405180910390a160025460405163a9059cbb60e01b81526001600160a01b039091169063a9059cbb906124269086908590600401612f1f565b602060405180830381600087803b15801561244057600080fd5b505af1158015612454573d6000803e3d6000fd5b505050506040513d601f19601f820116820180604052508101906124789190612cdb565b50612504565b60025460405163a9059cbb60e01b81526001600160a01b039091169063a9059cbb906124b09086908690600401612f1f565b602060405180830381600087803b1580156124ca57600080fd5b505af11580156124de573d6000803e3d6000fd5b505050506040513d601f19601f820116820180604052508101906125029190612cdb565b505b505050565b8061251357610da4565b6000600a838154811061252257fe5b60009182526020808320868452600d8252604080852033865290925292206002810154600590920290920192501561256557600281015442036004820155612572565b6003810154420360048201555b62093a8081600401541161261e576125c6336125b46064610745601260008154811061259a57fe5b90600052602060002001548861229190919063ffffffff16565b84546001600160a01b03169190612700565b612619600460009054906101000a90046001600160a01b03166125b4612612606461074560126000815481106125f857fe5b90600052602060002001548961229190919063ffffffff16565b8690612306565b6126cf565b62093a8081600401541015801561263c575062127500816004015411155b156126885761265c336125b46103e8610745601260018154811061259a57fe5b60045460138054612619926001600160a01b0316916125b4916103e89161074591600190811061259a57fe5b6126a3336125b4612710610745601260028154811061259a57fe5b600454601380546126cf926001600160a01b0316916125b4916127109161074591600290811061259a57fe5b42600290910155505050565b6000828201838110156122cb5760405162461bcd60e51b8152600401610544906130e2565b60006060846001600160a01b031663a9059cbb60e01b8585604051602401612729929190612f1f565b60408051601f198184030181529181526020820180516001600160e01b03166001600160e01b03199094169390931790925290516127679190612eef565b6000604051808303816000865af19150503d80600081146127a4576040519150601f19603f3d011682016040523d82523d6000602084013e6127a9565b606091505b50915091508180156127d35750805115806127d35750808060200190518101906127d39190612cdb565b6127ef5760405162461bcd60e51b81526004016105449061301b565b5050505050565b803b15155b919050565b60006122cb836001600160a01b0384166129e6565b60006122cb836001600160a01b0384166129fe565b60408051600481526024810182526020810180516001600160e01b03166395d89b4160e01b179052905160609160009183916001600160a01b038616916128719190612eef565b600060405180830381855afa9150503d80600081146128ac576040519150601f19603f3d011682016040523d82523d6000602084013e6128b1565b606091505b5091509150816128dc57604051806040016040528060038152602001623f3f3f60e81b8152506128e5565b6128e581612a48565b949350505050565b60006060856001600160a01b03166323b872dd60e01b86868660405160240161291893929190612f38565b60408051601f198184030181529181526020820180516001600160e01b03166001600160e01b03199094169390931790925290516129569190612eef565b6000604051808303816000865af19150503d8060008114612993576040519150601f19603f3d011682016040523d82523d6000602084013e612998565b606091505b50915091508180156129c25750805115806129c25750808060200190518101906129c29190612cdb565b6129de5760405162461bcd60e51b8152600401610544906134e6565b505050505050565b60009081526001919091016020526040902054151590565b6000612a0a83836129e6565b612a40575081546001818101845560008481526020808220909301849055845484825282860190935260409020919091556122ce565b5060006122ce565b60606040825110612a6e5781806020019051810190612a679190612cf7565b90506127fb565b815160201415612b8e5760005b60208160ff16108015612aaa5750828160ff1681518110612a9857fe5b01602001516001600160f81b03191615155b15612ab757600101612a7b565b60608160ff1667ffffffffffffffff81118015612ad357600080fd5b506040519080825280601f01601f191660200182016040528015612afe576020820181803683370190505b509050600091505b60208260ff16108015612b355750838260ff1681518110612b2357fe5b01602001516001600160f81b03191615155b15612b8557838260ff1681518110612b4957fe5b602001015160f81c60f81b818360ff1681518110612b6357fe5b60200101906001600160f81b031916908160001a905350600190910190612b06565b91506127fb9050565b506040805180820190915260038152623f3f3f60e81b60208201526127fb565b828054828255906000526020600020908101928215612be9579160200282015b82811115612be9578251825591602001919060010190612bce565b50612bf5929150612bf9565b5090565b5b80821115612bf55760008155600101612bfa565b600060208284031215612c1f578081fd5b81356122cb8161369b565b600060208284031215612c3b578081fd5b81516122cb8161369b565b60006020808385031215612c58578182fd5b823567ffffffffffffffff811115612c6e578283fd5b8301601f81018513612c7e578283fd5b8035612c91612c8c8261364f565b613628565b8181528381019083850185840285018601891015612cad578687fd5b8694505b83851015612ccf578035835260019490940193918501918501612cb1565b50979650505050505050565b600060208284031215612cec578081fd5b81516122cb816136b3565b600060208284031215612d08578081fd5b815167ffffffffffffffff80821115612d1f578283fd5b818401915084601f830112612d32578283fd5b815181811115612d40578384fd5b612d53601f8201601f1916602001613628565b9150808252856020828501011115612d69578384fd5b612d7a81602084016020860161366f565b50949350505050565b600060208284031215612d94578081fd5b5035919050565b600060208284031215612dac578081fd5b5051919050565b60008060408385031215612dc5578081fd5b823591506020830135612dd78161369b565b809150509250929050565b600080600060608486031215612df6578081fd5b833592506020840135612e088161369b565b91506040840135612e188161369b565b809150509250925092565b60008060408385031215612e35578182fd5b50508035926020909101359150565b60008060008060808587031215612e59578081fd5b84359350602085013592506040850135612e728161369b565b91506060850135612e82816136b3565b939692955090935050565b60008151808452612ea581602086016020860161366f565b601f01601f19169290920160200192915050565b815160009082906020808601845b83811015612ee357815185529382019390820190600101612ec7565b50929695505050505050565b60008251612f0181846020870161366f565b9190910192915050565b6001600160a01b0391909116815260200190565b6001600160a01b03929092168252602082015260400190565b6001600160a01b039384168152919092166020820152604081019190915260600190565b6001600160a01b03831681526040602082018190526000906128e590830184612e8d565b6001600160a01b039390931683526020830191909152604082015260600190565b6001600160a01b039586168152602081019490945260408401929092526060830152909116608082015260a00190565b6020808252602a908201527f736574547265617375727950657263656e743a20746f74616c2070657263656e6040820152690e840deeccae440dac2f60b31b606082015260800190565b6020808252601c908201527f426f72696e6745524332303a205472616e73666572206661696c656400000000604082015260600190565b6020808252602a908201527f736574496e766573746f7250657263656e743a20746f74616c2070657263656e6040820152690e840deeccae440dac2f60b31b606082015260800190565b60208082526026908201527f4f776e61626c653a206e6577206f776e657220697320746865207a65726f206160408201526564647265737360d01b606082015260800190565b6020808252601b908201527f536166654d6174683a206164646974696f6e206f766572666c6f770000000000604082015260600190565b60208082526029908201527f736574547265617375727950657263656e743a20696e76616c69642070657263604082015268656e742076616c756560b81b606082015260800190565b6020808252601e908201527f536166654d6174683a207375627472616374696f6e206f766572666c6f770000604082015260600190565b602080825260139082015272141bdbdb08191bd95cc81b9bdd08195e1a5cdd606a1b604082015260600190565b6020808252601a908201527f536166654d6174683a206469766973696f6e206279207a65726f000000000000604082015260600190565b6020808252600990820152686465763a207775743f60b81b604082015260600190565b60208082526021908201527f536166654d6174683a206d756c7469706c69636174696f6e206f766572666c6f6040820152607760f81b606082015260800190565b6020808252601590820152741859190e88131408185b1c9958591e481859191959605a1b604082015260600190565b6020808252818101527f4f776e61626c653a2063616c6c6572206973206e6f7420746865206f776e6572604082015260600190565b6020808252601590820152747365745472656173757279416464723a207775743f60581b604082015260600190565b60208082526025908201527f73657444657650657263656e743a20746f74616c2070657263656e74206f76656040820152640e440dac2f60db1b606082015260800190565b60208082526029908201527f736574496e766573746f7250657263656e743a20696e76616c69642070657263604082015268656e742076616c756560b81b606082015260800190565b60208082526026908201527f6164643a204c5020746f6b656e206d75737420626520612076616c696420636f6040820152651b9d1c9858dd60d21b606082015260800190565b602080825260159082015274736574496e766573746f72416464723a207775743f60581b604082015260600190565b6020808252601a908201527f696e76616c696420616d6f756e74207472616e73666572726564000000000000604082015260600190565b6020808252601290820152711dda5d1a191c985dce881b9bdd0819dbdbd960721b604082015260600190565b60208082526026908201527f7365743a207265776172646572206d75737420626520636f6e7472616374206f60408201526572207a65726f60d01b606082015260800190565b60208082526026908201527f6164643a207265776172646572206d75737420626520636f6e7472616374206f60408201526572207a65726f60d01b606082015260800190565b6020808252818101527f426f72696e6745524332303a205472616e7366657246726f6d206661696c6564604082015260600190565b6020808252601f908201527f5265656e7472616e637947756172643a207265656e7472616e742063616c6c00604082015260600190565b60208082526024908201527f73657444657650657263656e743a20696e76616c69642070657263656e742076604082015263616c756560e01b606082015260800190565b90815260200190565b8481526001600160a01b03841660208201526080604082018190526000906135c990830185612e8d565b905082606083015295945050505050565b9182521515602082015260400190565b9283526020830191909152604082015260600190565b958652602086019490945260408501929092526060840152608083015260a082015260c00190565b60405181810167ffffffffffffffff8111828210171561364757600080fd5b604052919050565b600067ffffffffffffffff821115613665578081fd5b5060209081020190565b60005b8381101561368a578181015183820152602001613672565b838111156125025750506000910152565b6001600160a01b03811681146136b057600080fd5b50565b80151581146136b057600080fdfea264697066735822122062e7cfc72af68acd8eba3d8b67ef02fa302e8799f2587599d35e4ffcee674d0d64736f6c634300060c0033",
          "opcodes": "PUSH1 0xC0 PUSH1 0x40 MSTORE PUSH3 0x93A80 PUSH1 0x80 SWAP1 DUP2 MSTORE PUSH3 0x127500 PUSH1 0xA0 MSTORE PUSH3 0x24 SWAP1 PUSH1 0x10 SWAP1 PUSH1 0x2 PUSH3 0x24A JUMP JUMPDEST POP PUSH1 0x40 DUP1 MLOAD PUSH1 0x20 DUP2 ADD SWAP1 SWAP2 MSTORE PUSH3 0x127500 DUP2 MSTORE PUSH3 0x46 SWAP1 PUSH1 0x11 SWAP1 PUSH1 0x1 PUSH3 0x24A JUMP JUMPDEST POP PUSH1 0x40 DUP1 MLOAD PUSH1 0x60 DUP2 ADD DUP3 MSTORE PUSH1 0x63 DUP2 MSTORE PUSH2 0x3E6 PUSH1 0x20 DUP3 ADD MSTORE PUSH2 0x270B SWAP2 DUP2 ADD SWAP2 SWAP1 SWAP2 MSTORE PUSH3 0x77 SWAP1 PUSH1 0x12 SWAP1 PUSH1 0x3 PUSH3 0x2A1 JUMP JUMPDEST POP PUSH1 0x40 DUP1 MLOAD PUSH1 0x60 DUP2 ADD DUP3 MSTORE PUSH1 0x1 DUP2 MSTORE PUSH1 0x2 PUSH1 0x20 DUP3 ADD MSTORE PUSH1 0x5 SWAP2 DUP2 ADD SWAP2 SWAP1 SWAP2 MSTORE PUSH3 0xA6 SWAP1 PUSH1 0x13 SWAP1 PUSH1 0x3 PUSH3 0x2E5 JUMP JUMPDEST POP CALLVALUE DUP1 ISZERO PUSH3 0xB4 JUMPI PUSH1 0x0 DUP1 REVERT JUMPDEST POP PUSH1 0x40 MLOAD PUSH3 0x3C18 CODESIZE SUB DUP1 PUSH3 0x3C18 DUP4 CODECOPY DUP2 ADD PUSH1 0x40 DUP2 SWAP1 MSTORE PUSH3 0xD7 SWAP2 PUSH3 0x33F JUMP JUMPDEST PUSH1 0x0 PUSH3 0xE3 PUSH3 0x246 JUMP JUMPDEST PUSH1 0x0 DUP1 SLOAD PUSH1 0x1 PUSH1 0x1 PUSH1 0xA0 SHL SUB NOT AND PUSH1 0x1 PUSH1 0x1 PUSH1 0xA0 SHL SUB DUP4 AND SWAP1 DUP2 OR DUP3 SSTORE PUSH1 0x40 MLOAD SWAP3 SWAP4 POP SWAP2 PUSH32 0x8BE0079C531659141344CD1FD0A4F28419497F9722A3DAAFE3B4186F6B6457E0 SWAP1 DUP3 SWAP1 LOG3 POP PUSH1 0x1 DUP1 SSTORE PUSH2 0x3E8 DUP4 GT ISZERO PUSH3 0x15F JUMPI PUSH1 0x40 MLOAD PUSH3 0x461BCD PUSH1 0xE5 SHL DUP2 MSTORE PUSH1 0x4 ADD PUSH3 0x156 SWAP1 PUSH3 0x424 JUMP JUMPDEST PUSH1 0x40 MLOAD DUP1 SWAP2 SUB SWAP1 REVERT JUMPDEST PUSH2 0x3E8 DUP3 GT ISZERO PUSH3 0x184 JUMPI PUSH1 0x40 MLOAD PUSH3 0x461BCD PUSH1 0xE5 SHL DUP2 MSTORE PUSH1 0x4 ADD PUSH3 0x156 SWAP1 PUSH3 0x3D9 JUMP JUMPDEST PUSH2 0x3E8 DUP2 GT ISZERO PUSH3 0x1A9 JUMPI PUSH1 0x40 MLOAD PUSH3 0x461BCD PUSH1 0xE5 SHL DUP2 MSTORE PUSH1 0x4 ADD PUSH3 0x156 SWAP1 PUSH3 0x4AD JUMP JUMPDEST PUSH2 0x3E8 DUP2 DUP4 DUP6 ADD ADD GT ISZERO PUSH3 0x1D2 JUMPI PUSH1 0x40 MLOAD PUSH3 0x461BCD PUSH1 0xE5 SHL DUP2 MSTORE PUSH1 0x4 ADD PUSH3 0x156 SWAP1 PUSH3 0x46A JUMP JUMPDEST PUSH1 0x2 DUP1 SLOAD PUSH1 0x1 PUSH1 0x1 PUSH1 0xA0 SHL SUB SWAP11 DUP12 AND PUSH1 0x1 PUSH1 0x1 PUSH1 0xA0 SHL SUB NOT SWAP2 DUP3 AND OR SWAP1 SWAP2 SSTORE PUSH1 0x3 DUP1 SLOAD SWAP10 DUP12 AND SWAP10 DUP3 AND SWAP10 SWAP1 SWAP10 OR SWAP1 SWAP9 SSTORE PUSH1 0x4 DUP1 SLOAD SWAP8 DUP11 AND SWAP8 DUP10 AND SWAP8 SWAP1 SWAP8 OR SWAP1 SWAP7 SSTORE PUSH1 0x5 DUP1 SLOAD SWAP6 SWAP1 SWAP9 AND SWAP5 SWAP1 SWAP7 AND SWAP4 SWAP1 SWAP4 OR SWAP1 SWAP6 SSTORE PUSH1 0x6 SSTORE PUSH1 0xF SWAP4 SWAP1 SWAP4 SSTORE PUSH1 0x7 SWAP3 SWAP1 SWAP3 SSTORE PUSH1 0x8 SSTORE PUSH1 0x9 SSTORE PUSH1 0x0 PUSH1 0xE SSTORE PUSH3 0x511 JUMP JUMPDEST CALLER SWAP1 JUMP JUMPDEST DUP3 DUP1 SLOAD DUP3 DUP3 SSTORE SWAP1 PUSH1 0x0 MSTORE PUSH1 0x20 PUSH1 0x0 KECCAK256 SWAP1 DUP2 ADD SWAP3 DUP3 ISZERO PUSH3 0x28F JUMPI SWAP2 PUSH1 0x20 MUL DUP3 ADD JUMPDEST DUP3 DUP2 GT ISZERO PUSH3 0x28F JUMPI DUP3 MLOAD DUP3 SWAP1 PUSH3 0xFFFFFF AND SWAP1 SSTORE SWAP2 PUSH1 0x20 ADD SWAP2 SWAP1 PUSH1 0x1 ADD SWAP1 PUSH3 0x26B JUMP JUMPDEST POP PUSH3 0x29D SWAP3 SWAP2 POP PUSH3 0x328 JUMP JUMPDEST POP SWAP1 JUMP JUMPDEST DUP3 DUP1 SLOAD DUP3 DUP3 SSTORE SWAP1 PUSH1 0x0 MSTORE PUSH1 0x20 PUSH1 0x0 KECCAK256 SWAP1 DUP2 ADD SWAP3 DUP3 ISZERO PUSH3 0x28F JUMPI SWAP2 PUSH1 0x20 MUL DUP3 ADD JUMPDEST DUP3 DUP2 GT ISZERO PUSH3 0x28F JUMPI DUP3 MLOAD DUP3 SWAP1 PUSH2 0xFFFF AND SWAP1 SSTORE SWAP2 PUSH1 0x20 ADD SWAP2 SWAP1 PUSH1 0x1 ADD SWAP1 PUSH3 0x2C2 JUMP JUMPDEST DUP3 DUP1 SLOAD DUP3 DUP3 SSTORE SWAP1 PUSH1 0x0 MSTORE PUSH1 0x20 PUSH1 0x0 KECCAK256 SWAP1 DUP2 ADD SWAP3 DUP3 ISZERO PUSH3 0x28F JUMPI SWAP2 PUSH1 0x20 MUL DUP3 ADD JUMPDEST DUP3 DUP2 GT ISZERO PUSH3 0x28F JUMPI DUP3 MLOAD DUP3 SWAP1 PUSH1 0xFF AND SWAP1 SSTORE SWAP2 PUSH1 0x20 ADD SWAP2 SWAP1 PUSH1 0x1 ADD SWAP1 PUSH3 0x306 JUMP JUMPDEST JUMPDEST DUP1 DUP3 GT ISZERO PUSH3 0x29D JUMPI PUSH1 0x0 DUP2 SSTORE PUSH1 0x1 ADD PUSH3 0x329 JUMP JUMPDEST PUSH1 0x0 DUP1 PUSH1 0x0 DUP1 PUSH1 0x0 DUP1 PUSH1 0x0 DUP1 PUSH1 0x0 PUSH2 0x120 DUP11 DUP13 SUB SLT ISZERO PUSH3 0x35E JUMPI DUP5 DUP6 REVERT JUMPDEST DUP10 MLOAD PUSH3 0x36B DUP2 PUSH3 0x4F8 JUMP JUMPDEST PUSH1 0x20 DUP12 ADD MLOAD SWAP1 SWAP10 POP PUSH3 0x37E DUP2 PUSH3 0x4F8 JUMP JUMPDEST PUSH1 0x40 DUP12 ADD MLOAD SWAP1 SWAP9 POP PUSH3 0x391 DUP2 PUSH3 0x4F8 JUMP JUMPDEST PUSH1 0x60 DUP12 ADD MLOAD SWAP1 SWAP8 POP PUSH3 0x3A4 DUP2 PUSH3 0x4F8 JUMP JUMPDEST DUP1 SWAP7 POP POP PUSH1 0x80 DUP11 ADD MLOAD SWAP5 POP PUSH1 0xA0 DUP11 ADD MLOAD SWAP4 POP PUSH1 0xC0 DUP11 ADD MLOAD SWAP3 POP PUSH1 0xE0 DUP11 ADD MLOAD SWAP2 POP PUSH2 0x100 DUP11 ADD MLOAD SWAP1 POP SWAP3 SWAP6 SWAP9 POP SWAP3 SWAP6 SWAP9 POP SWAP3 SWAP6 SWAP9 JUMP JUMPDEST PUSH1 0x20 DUP1 DUP3 MSTORE PUSH1 0x2B SWAP1 DUP3 ADD MSTORE PUSH32 0x636F6E7374727563746F723A20696E76616C6964207472656173757279207065 PUSH1 0x40 DUP3 ADD MSTORE PUSH11 0x7263656E742076616C7565 PUSH1 0xA8 SHL PUSH1 0x60 DUP3 ADD MSTORE PUSH1 0x80 ADD SWAP1 JUMP JUMPDEST PUSH1 0x20 DUP1 DUP3 MSTORE PUSH1 0x26 SWAP1 DUP3 ADD MSTORE PUSH32 0x636F6E7374727563746F723A20696E76616C6964206465762070657263656E74 PUSH1 0x40 DUP3 ADD MSTORE PUSH6 0x2076616C7565 PUSH1 0xD0 SHL PUSH1 0x60 DUP3 ADD MSTORE PUSH1 0x80 ADD SWAP1 JUMP JUMPDEST PUSH1 0x20 DUP1 DUP3 MSTORE PUSH1 0x23 SWAP1 DUP3 ADD MSTORE PUSH32 0x636F6E7374727563746F723A20746F74616C2070657263656E74206F76657220 PUSH1 0x40 DUP3 ADD MSTORE PUSH3 0xDAC2F PUSH1 0xEB SHL PUSH1 0x60 DUP3 ADD MSTORE PUSH1 0x80 ADD SWAP1 JUMP JUMPDEST PUSH1 0x20 DUP1 DUP3 MSTORE PUSH1 0x2B SWAP1 DUP3 ADD MSTORE PUSH32 0x636F6E7374727563746F723A20696E76616C696420696E766573746F72207065 PUSH1 0x40 DUP3 ADD MSTORE PUSH11 0x7263656E742076616C7565 PUSH1 0xA8 SHL PUSH1 0x60 DUP3 ADD MSTORE PUSH1 0x80 ADD SWAP1 JUMP JUMPDEST PUSH1 0x1 PUSH1 0x1 PUSH1 0xA0 SHL SUB DUP2 AND DUP2 EQ PUSH3 0x50E JUMPI PUSH1 0x0 DUP1 REVERT JUMPDEST POP JUMP JUMPDEST PUSH2 0x36F7 DUP1 PUSH3 0x521 PUSH1 0x0 CODECOPY PUSH1 0x0 RETURN INVALID PUSH1 0x80 PUSH1 0x40 MSTORE CALLVALUE DUP1 ISZERO PUSH2 0x10 JUMPI PUSH1 0x0 DUP1 REVERT JUMPDEST POP PUSH1 0x4 CALLDATASIZE LT PUSH2 0x23D JUMPI PUSH1 0x0 CALLDATALOAD PUSH1 0xE0 SHR DUP1 PUSH4 0x89A2BC25 GT PUSH2 0x13B JUMPI DUP1 PUSH4 0xCB0B8CA1 GT PUSH2 0xB8 JUMPI DUP1 PUSH4 0xE6FD48BC GT PUSH2 0x7C JUMPI DUP1 PUSH4 0xE6FD48BC EQ PUSH2 0x49A JUMPI DUP1 PUSH4 0xF2FDE38B EQ PUSH2 0x4A2 JUMPI DUP1 PUSH4 0xFB39D1E3 EQ PUSH2 0x4B5 JUMPI DUP1 PUSH4 0xFC3C28AF EQ PUSH2 0x4C8 JUMPI DUP1 PUSH4 0xFFCD4263 EQ PUSH2 0x4D0 JUMPI PUSH2 0x23D JUMP JUMPDEST DUP1 PUSH4 0xCB0B8CA1 EQ PUSH2 0x451 JUMPI DUP1 PUSH4 0xD007DB29 EQ PUSH2 0x464 JUMPI DUP1 PUSH4 0xD8092C92 EQ PUSH2 0x477 JUMPI DUP1 PUSH4 0xDA09C72C EQ PUSH2 0x47F JUMPI DUP1 PUSH4 0xE2BBB158 EQ PUSH2 0x487 JUMPI PUSH2 0x23D JUMP JUMPDEST DUP1 PUSH4 0xAA3448AB GT PUSH2 0xFF JUMPI DUP1 PUSH4 0xAA3448AB EQ PUSH2 0x3FA JUMPI DUP1 PUSH4 0xAB7DE098 EQ PUSH2 0x402 JUMPI DUP1 PUSH4 0xACC4CC50 EQ PUSH2 0x415 JUMPI DUP1 PUSH4 0xBC70FDBC EQ PUSH2 0x41D JUMPI DUP1 PUSH4 0xBEFF2A53 EQ PUSH2 0x43E JUMPI PUSH2 0x23D JUMP JUMPDEST DUP1 PUSH4 0x89A2BC25 EQ PUSH2 0x394 JUMPI DUP1 PUSH4 0x8D88A90E EQ PUSH2 0x3A7 JUMPI DUP1 PUSH4 0x8DA5CB5B EQ PUSH2 0x3BA JUMPI DUP1 PUSH4 0x93F1A40B EQ PUSH2 0x3C2 JUMPI DUP1 PUSH4 0xA7E05B9C EQ PUSH2 0x3E7 JUMPI PUSH2 0x23D JUMP JUMPDEST DUP1 PUSH4 0x4AF0E3E1 GT PUSH2 0x1C9 JUMPI DUP1 PUSH4 0x6EADDAD2 GT PUSH2 0x18D JUMPI DUP1 PUSH4 0x6EADDAD2 EQ PUSH2 0x340 JUMPI DUP1 PUSH4 0x715018A6 EQ PUSH2 0x353 JUMPI DUP1 PUSH4 0x847BDAA4 EQ PUSH2 0x35B JUMPI DUP1 PUSH4 0x876D3C9C EQ PUSH2 0x36E JUMPI DUP1 PUSH4 0x88BBA42F EQ PUSH2 0x381 JUMPI PUSH2 0x23D JUMP JUMPDEST DUP1 PUSH4 0x4AF0E3E1 EQ PUSH2 0x2EC JUMPI DUP1 PUSH4 0x51EB05A6 EQ PUSH2 0x2FF JUMPI DUP1 PUSH4 0x5312EA8E EQ PUSH2 0x312 JUMPI DUP1 PUSH4 0x6245F084 EQ PUSH2 0x325 JUMPI DUP1 PUSH4 0x630B5BA1 EQ PUSH2 0x338 JUMPI PUSH2 0x23D JUMP JUMPDEST DUP1 PUSH4 0xF51F8FF GT PUSH2 0x210 JUMPI DUP1 PUSH4 0xF51F8FF EQ PUSH2 0x285 JUMPI DUP1 PUSH4 0x1526FE27 EQ PUSH2 0x298 JUMPI DUP1 PUSH4 0x17CAF6F1 EQ PUSH2 0x2BC JUMPI DUP1 PUSH4 0x30D9A62A EQ PUSH2 0x2C4 JUMPI DUP1 PUSH4 0x441A3E70 EQ PUSH2 0x2D9 JUMPI PUSH2 0x23D JUMP JUMPDEST DUP1 PUSH4 0x4EF9D58 EQ PUSH2 0x242 JUMPI DUP1 PUSH4 0x735B208 EQ PUSH2 0x260 JUMPI DUP1 PUSH4 0x81E3EDA EQ PUSH2 0x268 JUMPI DUP1 PUSH4 0xBA84CD2 EQ PUSH2 0x270 JUMPI JUMPDEST PUSH1 0x0 DUP1 REVERT JUMPDEST PUSH2 0x24A PUSH2 0x4F3 JUMP JUMPDEST PUSH1 0x40 MLOAD PUSH2 0x257 SWAP2 SWAP1 PUSH2 0x3596 JUMP JUMPDEST PUSH1 0x40 MLOAD DUP1 SWAP2 SUB SWAP1 RETURN JUMPDEST PUSH2 0x24A PUSH2 0x4F9 JUMP JUMPDEST PUSH2 0x24A PUSH2 0x4FF JUMP JUMPDEST PUSH2 0x283 PUSH2 0x27E CALLDATASIZE PUSH1 0x4 PUSH2 0x2D83 JUMP JUMPDEST PUSH2 0x505 JUMP JUMPDEST STOP JUMPDEST PUSH2 0x283 PUSH2 0x293 CALLDATASIZE PUSH1 0x4 PUSH2 0x2C0E JUMP JUMPDEST PUSH2 0x597 JUMP JUMPDEST PUSH2 0x2AB PUSH2 0x2A6 CALLDATASIZE PUSH1 0x4 PUSH2 0x2D83 JUMP JUMPDEST PUSH2 0x60B JUMP JUMPDEST PUSH1 0x40 MLOAD PUSH2 0x257 SWAP6 SWAP5 SWAP4 SWAP3 SWAP2 SWAP1 PUSH2 0x2FA1 JUMP JUMPDEST PUSH2 0x24A PUSH2 0x656 JUMP JUMPDEST PUSH2 0x2CC PUSH2 0x65C JUMP JUMPDEST PUSH1 0x40 MLOAD PUSH2 0x257 SWAP2 SWAP1 PUSH2 0x2F0B JUMP JUMPDEST PUSH2 0x283 PUSH2 0x2E7 CALLDATASIZE PUSH1 0x4 PUSH2 0x2E23 JUMP JUMPDEST PUSH2 0x66B JUMP JUMPDEST PUSH2 0x283 PUSH2 0x2FA CALLDATASIZE PUSH1 0x4 PUSH2 0x2C46 JUMP JUMPDEST PUSH2 0x8BE JUMP JUMPDEST PUSH2 0x283 PUSH2 0x30D CALLDATASIZE PUSH1 0x4 PUSH2 0x2D83 JUMP JUMPDEST PUSH2 0x952 JUMP JUMPDEST PUSH2 0x283 PUSH2 0x320 CALLDATASIZE PUSH1 0x4 PUSH2 0x2D83 JUMP JUMPDEST PUSH2 0xDA8 JUMP JUMPDEST PUSH2 0x24A PUSH2 0x333 CALLDATASIZE PUSH1 0x4 PUSH2 0x2D83 JUMP JUMPDEST PUSH2 0xEC3 JUMP JUMPDEST PUSH2 0x283 PUSH2 0xEE1 JUMP JUMPDEST PUSH2 0x283 PUSH2 0x34E CALLDATASIZE PUSH1 0x4 PUSH2 0x2D83 JUMP JUMPDEST PUSH2 0xF00 JUMP JUMPDEST PUSH2 0x283 PUSH2 0xFBE JUMP JUMPDEST PUSH2 0x283 PUSH2 0x369 CALLDATASIZE PUSH1 0x4 PUSH2 0x2C46 JUMP JUMPDEST PUSH2 0x1047 JUMP JUMPDEST PUSH2 0x283 PUSH2 0x37C CALLDATASIZE PUSH1 0x4 PUSH2 0x2D83 JUMP JUMPDEST PUSH2 0x10DB JUMP JUMPDEST PUSH2 0x283 PUSH2 0x38F CALLDATASIZE PUSH1 0x4 PUSH2 0x2E44 JUMP JUMPDEST PUSH2 0x1199 JUMP JUMPDEST PUSH2 0x283 PUSH2 0x3A2 CALLDATASIZE PUSH1 0x4 PUSH2 0x2D83 JUMP JUMPDEST PUSH2 0x136A JUMP JUMPDEST PUSH2 0x283 PUSH2 0x3B5 CALLDATASIZE PUSH1 0x4 PUSH2 0x2C0E JUMP JUMPDEST PUSH2 0x1428 JUMP JUMPDEST PUSH2 0x2CC PUSH2 0x149E JUMP JUMPDEST PUSH2 0x3D5 PUSH2 0x3D0 CALLDATASIZE PUSH1 0x4 PUSH2 0x2DB3 JUMP JUMPDEST PUSH2 0x14AD JUMP JUMPDEST PUSH1 0x40 MLOAD PUSH2 0x257 SWAP7 SWAP6 SWAP5 SWAP4 SWAP3 SWAP2 SWAP1 PUSH2 0x3600 JUMP JUMPDEST PUSH2 0x283 PUSH2 0x3F5 CALLDATASIZE PUSH1 0x4 PUSH2 0x2C0E JUMP JUMPDEST PUSH2 0x14ED JUMP JUMPDEST PUSH2 0x24A PUSH2 0x1561 JUMP JUMPDEST PUSH2 0x283 PUSH2 0x410 CALLDATASIZE PUSH1 0x4 PUSH2 0x2DE2 JUMP JUMPDEST PUSH2 0x1567 JUMP JUMPDEST PUSH2 0x2CC PUSH2 0x1865 JUMP JUMPDEST PUSH2 0x430 PUSH2 0x42B CALLDATASIZE PUSH1 0x4 PUSH2 0x2D83 JUMP JUMPDEST PUSH2 0x1874 JUMP JUMPDEST PUSH1 0x40 MLOAD PUSH2 0x257 SWAP3 SWAP2 SWAP1 PUSH2 0x2F5C JUMP JUMPDEST PUSH2 0x24A PUSH2 0x44C CALLDATASIZE PUSH1 0x4 PUSH2 0x2D83 JUMP JUMPDEST PUSH2 0x19F3 JUMP JUMPDEST PUSH2 0x24A PUSH2 0x45F CALLDATASIZE PUSH1 0x4 PUSH2 0x2D83 JUMP JUMPDEST PUSH2 0x1A00 JUMP JUMPDEST PUSH2 0x24A PUSH2 0x472 CALLDATASIZE PUSH1 0x4 PUSH2 0x2D83 JUMP JUMPDEST PUSH2 0x1A0D JUMP JUMPDEST PUSH2 0x2CC PUSH2 0x1A1A JUMP JUMPDEST PUSH2 0x2CC PUSH2 0x1A29 JUMP JUMPDEST PUSH2 0x283 PUSH2 0x495 CALLDATASIZE PUSH1 0x4 PUSH2 0x2E23 JUMP JUMPDEST PUSH2 0x1A38 JUMP JUMPDEST PUSH2 0x24A PUSH2 0x1E5B JUMP JUMPDEST PUSH2 0x283 PUSH2 0x4B0 CALLDATASIZE PUSH1 0x4 PUSH2 0x2C0E JUMP JUMPDEST PUSH2 0x1E61 JUMP JUMPDEST PUSH2 0x24A PUSH2 0x4C3 CALLDATASIZE PUSH1 0x4 PUSH2 0x2DB3 JUMP JUMPDEST PUSH2 0x1F21 JUMP JUMPDEST PUSH2 0x24A PUSH2 0x1F90 JUMP JUMPDEST PUSH2 0x4E3 PUSH2 0x4DE CALLDATASIZE PUSH1 0x4 PUSH2 0x2DB3 JUMP JUMPDEST PUSH2 0x1F96 JUMP JUMPDEST PUSH1 0x40 MLOAD PUSH2 0x257 SWAP5 SWAP4 SWAP3 SWAP2 SWAP1 PUSH2 0x359F JUMP JUMPDEST PUSH1 0x8 SLOAD DUP2 JUMP JUMPDEST PUSH1 0x9 SLOAD DUP2 JUMP JUMPDEST PUSH1 0xA SLOAD SWAP1 JUMP JUMPDEST PUSH2 0x50D PUSH2 0x228D JUMP JUMPDEST PUSH1 0x1 PUSH1 0x1 PUSH1 0xA0 SHL SUB AND PUSH2 0x51E PUSH2 0x149E JUMP JUMPDEST PUSH1 0x1 PUSH1 0x1 PUSH1 0xA0 SHL SUB AND EQ PUSH2 0x54D JUMPI PUSH1 0x40 MLOAD PUSH3 0x461BCD PUSH1 0xE5 SHL DUP2 MSTORE PUSH1 0x4 ADD PUSH2 0x544 SWAP1 PUSH2 0x3290 JUMP JUMPDEST PUSH1 0x40 MLOAD DUP1 SWAP2 SUB SWAP1 REVERT JUMPDEST PUSH2 0x555 PUSH2 0xEE1 JUMP JUMPDEST PUSH1 0x6 DUP2 SWAP1 SSTORE PUSH1 0x40 MLOAD CALLER SWAP1 PUSH32 0xE2492E003BBE8AFA53088B406F0C1CB5D9E280370FC72A74CF116FFD343C4053 SWAP1 PUSH2 0x58C SWAP1 DUP5 SWAP1 PUSH2 0x3596 JUMP JUMPDEST PUSH1 0x40 MLOAD DUP1 SWAP2 SUB SWAP1 LOG2 POP JUMP JUMPDEST PUSH1 0x5 SLOAD PUSH1 0x1 PUSH1 0x1 PUSH1 0xA0 SHL SUB AND CALLER EQ PUSH2 0x5C1 JUMPI PUSH1 0x40 MLOAD PUSH3 0x461BCD PUSH1 0xE5 SHL DUP2 MSTORE PUSH1 0x4 ADD PUSH2 0x544 SWAP1 PUSH2 0x33C8 JUMP JUMPDEST PUSH1 0x5 DUP1 SLOAD PUSH1 0x1 PUSH1 0x1 PUSH1 0xA0 SHL SUB NOT AND PUSH1 0x1 PUSH1 0x1 PUSH1 0xA0 SHL SUB DUP4 AND SWAP1 DUP2 OR SWAP1 SWAP2 SSTORE PUSH1 0x40 MLOAD PUSH32 0xCFAAB8A6A9A692BBF38FDAFC81B49D4F028C34F530390D9212054B0ACFEAE7D0 SWAP1 PUSH1 0x0 SWAP1 LOG2 POP JUMP JUMPDEST PUSH1 0xA DUP2 DUP2 SLOAD DUP2 LT PUSH2 0x618 JUMPI INVALID JUMPDEST PUSH1 0x0 SWAP2 DUP3 MSTORE PUSH1 0x20 SWAP1 SWAP2 KECCAK256 PUSH1 0x5 SWAP1 SWAP2 MUL ADD DUP1 SLOAD PUSH1 0x1 DUP3 ADD SLOAD PUSH1 0x2 DUP4 ADD SLOAD PUSH1 0x3 DUP5 ADD SLOAD PUSH1 0x4 SWAP1 SWAP5 ADD SLOAD PUSH1 0x1 PUSH1 0x1 PUSH1 0xA0 SHL SUB SWAP4 DUP5 AND SWAP6 POP SWAP2 SWAP4 SWAP1 SWAP3 SWAP1 SWAP2 AND DUP6 JUMP JUMPDEST PUSH1 0xE SLOAD DUP2 JUMP JUMPDEST PUSH1 0x4 SLOAD PUSH1 0x1 PUSH1 0x1 PUSH1 0xA0 SHL SUB AND DUP2 JUMP JUMPDEST PUSH1 0x2 PUSH1 0x1 SLOAD EQ ISZERO PUSH2 0x68E JUMPI PUSH1 0x40 MLOAD PUSH3 0x461BCD PUSH1 0xE5 SHL DUP2 MSTORE PUSH1 0x4 ADD PUSH2 0x544 SWAP1 PUSH2 0x351B JUMP JUMPDEST PUSH1 0x2 PUSH1 0x1 SSTORE PUSH1 0xA SLOAD DUP3 SWAP1 DUP2 LT PUSH2 0x6B6 JUMPI PUSH1 0x40 MLOAD PUSH3 0x461BCD PUSH1 0xE5 SHL DUP2 MSTORE PUSH1 0x4 ADD PUSH2 0x544 SWAP1 PUSH2 0x3199 JUMP JUMPDEST PUSH1 0x0 PUSH1 0xA DUP5 DUP2 SLOAD DUP2 LT PUSH2 0x6C5 JUMPI INVALID JUMPDEST PUSH1 0x0 SWAP2 DUP3 MSTORE PUSH1 0x20 DUP1 DUP4 KECCAK256 DUP8 DUP5 MSTORE PUSH1 0xD DUP3 MSTORE PUSH1 0x40 DUP1 DUP6 KECCAK256 CALLER DUP7 MSTORE SWAP1 SWAP3 MSTORE SWAP3 KECCAK256 DUP1 SLOAD PUSH1 0x5 SWAP1 SWAP3 MUL SWAP1 SWAP3 ADD SWAP3 POP DUP5 GT ISZERO PUSH2 0x70E JUMPI PUSH1 0x40 MLOAD PUSH3 0x461BCD PUSH1 0xE5 SHL DUP2 MSTORE PUSH1 0x4 ADD PUSH2 0x544 SWAP1 PUSH2 0x342E JUMP JUMPDEST PUSH2 0x717 DUP6 PUSH2 0x952 JUMP JUMPDEST PUSH1 0x0 PUSH2 0x751 DUP3 PUSH1 0x1 ADD SLOAD PUSH2 0x74B PUSH5 0xE8D4A51000 PUSH2 0x745 DUP8 PUSH1 0x3 ADD SLOAD DUP8 PUSH1 0x0 ADD SLOAD PUSH2 0x2291 SWAP1 SWAP2 SWAP1 PUSH4 0xFFFFFFFF AND JUMP JUMPDEST SWAP1 PUSH2 0x22D4 JUMP JUMPDEST SWAP1 PUSH2 0x2306 JUMP JUMPDEST SWAP1 POP PUSH2 0x75D CALLER DUP3 PUSH2 0x232E JUMP JUMPDEST DUP6 CALLER PUSH1 0x1 PUSH1 0x1 PUSH1 0xA0 SHL SUB AND PUSH32 0x71BAB65CED2E5750775A0613BE067DF48EF06CF92A496EBF7663AE0660924954 DUP4 PUSH1 0x40 MLOAD PUSH2 0x797 SWAP2 SWAP1 PUSH2 0x3596 JUMP JUMPDEST PUSH1 0x40 MLOAD DUP1 SWAP2 SUB SWAP1 LOG3 DUP2 SLOAD PUSH2 0x7AB SWAP1 DUP7 PUSH2 0x2306 JUMP JUMPDEST DUP1 DUP4 SSTORE PUSH1 0x3 DUP5 ADD SLOAD PUSH2 0x7C8 SWAP2 PUSH5 0xE8D4A51000 SWAP2 PUSH2 0x745 SWAP2 SWAP1 PUSH2 0x2291 JUMP JUMPDEST DUP3 PUSH1 0x1 ADD DUP2 SWAP1 SSTORE POP PUSH1 0x0 PUSH1 0xA DUP8 DUP2 SLOAD DUP2 LT PUSH2 0x7DF JUMPI INVALID JUMPDEST PUSH1 0x0 SWAP2 DUP3 MSTORE PUSH1 0x20 SWAP1 SWAP2 KECCAK256 PUSH1 0x4 PUSH1 0x5 SWAP1 SWAP3 MUL ADD ADD SLOAD PUSH1 0x1 PUSH1 0x1 PUSH1 0xA0 SHL SUB AND SWAP1 POP DUP1 ISZERO PUSH2 0x865 JUMPI DUP3 SLOAD PUSH1 0x40 MLOAD PUSH4 0x3C841153 PUSH1 0xE1 SHL DUP2 MSTORE PUSH1 0x1 PUSH1 0x1 PUSH1 0xA0 SHL SUB DUP4 AND SWAP2 PUSH4 0x790822A6 SWAP2 PUSH2 0x832 SWAP2 CALLER SWAP2 PUSH1 0x4 ADD PUSH2 0x2F1F JUMP JUMPDEST PUSH1 0x0 PUSH1 0x40 MLOAD DUP1 DUP4 SUB DUP2 PUSH1 0x0 DUP8 DUP1 EXTCODESIZE ISZERO DUP1 ISZERO PUSH2 0x84C JUMPI PUSH1 0x0 DUP1 REVERT JUMPDEST POP GAS CALL ISZERO DUP1 ISZERO PUSH2 0x860 JUMPI RETURNDATASIZE PUSH1 0x0 DUP1 RETURNDATACOPY RETURNDATASIZE PUSH1 0x0 REVERT JUMPDEST POP POP POP POP JUMPDEST PUSH2 0x86F DUP8 DUP8 PUSH2 0x2509 JUMP JUMPDEST DUP7 CALLER PUSH1 0x1 PUSH1 0x1 PUSH1 0xA0 SHL SUB AND PUSH32 0xF279E6A1F5E320CCA91135676D9CB6E44CA8A08C0B88342BCDB1144F6511B568 DUP9 PUSH1 0x40 MLOAD PUSH2 0x8A9 SWAP2 SWAP1 PUSH2 0x3596 JUMP JUMPDEST PUSH1 0x40 MLOAD DUP1 SWAP2 SUB SWAP1 LOG3 POP POP PUSH1 0x1 DUP1 SSTORE POP POP POP POP POP JUMP JUMPDEST PUSH2 0x8C6 PUSH2 0x228D JUMP JUMPDEST PUSH1 0x1 PUSH1 0x1 PUSH1 0xA0 SHL SUB AND PUSH2 0x8D7 PUSH2 0x149E JUMP JUMPDEST PUSH1 0x1 PUSH1 0x1 PUSH1 0xA0 SHL SUB AND EQ PUSH2 0x8FD JUMPI PUSH1 0x40 MLOAD PUSH3 0x461BCD PUSH1 0xE5 SHL DUP2 MSTORE PUSH1 0x4 ADD PUSH2 0x544 SWAP1 PUSH2 0x3290 JUMP JUMPDEST DUP1 MLOAD PUSH2 0x910 SWAP1 PUSH1 0x11 SWAP1 PUSH1 0x20 DUP5 ADD SWAP1 PUSH2 0x2BAE JUMP JUMPDEST POP DUP1 PUSH1 0x40 MLOAD PUSH2 0x91F SWAP2 SWAP1 PUSH2 0x2EB9 JUMP JUMPDEST PUSH1 0x40 MLOAD SWAP1 DUP2 SWAP1 SUB DUP2 KECCAK256 SWAP1 PUSH32 0xD88FCE29C587FD22104B7F042F470DC9A25BA5ADB19B1F39FD5BD136AB9957DE SWAP1 PUSH1 0x0 SWAP1 LOG2 POP JUMP JUMPDEST PUSH1 0xA SLOAD DUP2 SWAP1 DUP2 LT PUSH2 0x975 JUMPI PUSH1 0x40 MLOAD PUSH3 0x461BCD PUSH1 0xE5 SHL DUP2 MSTORE PUSH1 0x4 ADD PUSH2 0x544 SWAP1 PUSH2 0x3199 JUMP JUMPDEST PUSH1 0x0 PUSH1 0xA DUP4 DUP2 SLOAD DUP2 LT PUSH2 0x984 JUMPI INVALID JUMPDEST SWAP1 PUSH1 0x0 MSTORE PUSH1 0x20 PUSH1 0x0 KECCAK256 SWAP1 PUSH1 0x5 MUL ADD SWAP1 POP DUP1 PUSH1 0x2 ADD SLOAD TIMESTAMP GT PUSH2 0x9A5 JUMPI POP PUSH2 0xDA4 JUMP JUMPDEST DUP1 SLOAD PUSH1 0x40 MLOAD PUSH4 0x70A08231 PUSH1 0xE0 SHL DUP2 MSTORE PUSH1 0x0 SWAP2 PUSH1 0x1 PUSH1 0x1 PUSH1 0xA0 SHL SUB AND SWAP1 PUSH4 0x70A08231 SWAP1 PUSH2 0x9D5 SWAP1 ADDRESS SWAP1 PUSH1 0x4 ADD PUSH2 0x2F0B JUMP JUMPDEST PUSH1 0x20 PUSH1 0x40 MLOAD DUP1 DUP4 SUB DUP2 DUP7 DUP1 EXTCODESIZE ISZERO DUP1 ISZERO PUSH2 0x9ED JUMPI PUSH1 0x0 DUP1 REVERT JUMPDEST POP GAS STATICCALL ISZERO DUP1 ISZERO PUSH2 0xA01 JUMPI RETURNDATASIZE PUSH1 0x0 DUP1 RETURNDATACOPY RETURNDATASIZE PUSH1 0x0 REVERT JUMPDEST POP POP POP POP PUSH1 0x40 MLOAD RETURNDATASIZE PUSH1 0x1F NOT PUSH1 0x1F DUP3 ADD AND DUP3 ADD DUP1 PUSH1 0x40 MSTORE POP DUP2 ADD SWAP1 PUSH2 0xA25 SWAP2 SWAP1 PUSH2 0x2D9B JUMP JUMPDEST SWAP1 POP DUP1 PUSH2 0xA39 JUMPI POP TIMESTAMP PUSH1 0x2 SWAP1 SWAP2 ADD SSTORE PUSH2 0xDA4 JUMP JUMPDEST PUSH1 0x2 PUSH1 0x0 SWAP1 SLOAD SWAP1 PUSH2 0x100 EXP SWAP1 DIV PUSH1 0x1 PUSH1 0x1 PUSH1 0xA0 SHL SUB AND PUSH1 0x1 PUSH1 0x1 PUSH1 0xA0 SHL SUB AND PUSH4 0xC7FF1B60 PUSH1 0x40 MLOAD DUP2 PUSH4 0xFFFFFFFF AND PUSH1 0xE0 SHL DUP2 MSTORE PUSH1 0x4 ADD PUSH1 0x20 PUSH1 0x40 MLOAD DUP1 DUP4 SUB DUP2 DUP7 DUP1 EXTCODESIZE ISZERO DUP1 ISZERO PUSH2 0xA87 JUMPI PUSH1 0x0 DUP1 REVERT JUMPDEST POP GAS STATICCALL ISZERO DUP1 ISZERO PUSH2 0xA9B JUMPI RETURNDATASIZE PUSH1 0x0 DUP1 RETURNDATACOPY RETURNDATASIZE PUSH1 0x0 REVERT JUMPDEST POP POP POP POP PUSH1 0x40 MLOAD RETURNDATASIZE PUSH1 0x1F NOT PUSH1 0x1F DUP3 ADD AND DUP3 ADD DUP1 PUSH1 0x40 MSTORE POP DUP2 ADD SWAP1 PUSH2 0xABF SWAP2 SWAP1 PUSH2 0x2CDB JUMP JUMPDEST ISZERO PUSH2 0xAD1 JUMPI POP TIMESTAMP PUSH1 0x2 SWAP1 SWAP2 ADD SSTORE PUSH2 0xDA4 JUMP JUMPDEST PUSH1 0x0 PUSH2 0xAEA DUP4 PUSH1 0x2 ADD SLOAD TIMESTAMP PUSH2 0x2306 SWAP1 SWAP2 SWAP1 PUSH4 0xFFFFFFFF AND JUMP JUMPDEST SWAP1 POP PUSH1 0x0 PUSH2 0xB17 PUSH1 0xE SLOAD PUSH2 0x745 DUP7 PUSH1 0x1 ADD SLOAD PUSH2 0xB11 PUSH1 0x6 SLOAD DUP8 PUSH2 0x2291 SWAP1 SWAP2 SWAP1 PUSH4 0xFFFFFFFF AND JUMP JUMPDEST SWAP1 PUSH2 0x2291 JUMP JUMPDEST PUSH1 0x9 SLOAD PUSH1 0x8 SLOAD PUSH1 0x7 SLOAD PUSH1 0x2 SLOAD PUSH1 0x3 SLOAD SWAP5 SWAP6 POP PUSH2 0x3E8 DUP3 DUP2 SUB SWAP4 SWAP1 SWAP4 SUB SWAP4 SWAP1 SWAP4 SUB SWAP4 PUSH1 0x1 PUSH1 0x1 PUSH1 0xA0 SHL SUB SWAP4 DUP5 AND SWAP4 PUSH4 0x40C10F19 SWAP4 SWAP2 AND SWAP2 PUSH2 0xB5D SWAP2 SWAP1 PUSH2 0x745 SWAP1 DUP9 SWAP1 PUSH2 0x2291 JUMP JUMPDEST PUSH1 0x40 MLOAD DUP4 PUSH4 0xFFFFFFFF AND PUSH1 0xE0 SHL DUP2 MSTORE PUSH1 0x4 ADD PUSH2 0xB7A SWAP3 SWAP2 SWAP1 PUSH2 0x2F1F JUMP JUMPDEST PUSH1 0x0 PUSH1 0x40 MLOAD DUP1 DUP4 SUB DUP2 PUSH1 0x0 DUP8 DUP1 EXTCODESIZE ISZERO DUP1 ISZERO PUSH2 0xB94 JUMPI PUSH1 0x0 DUP1 REVERT JUMPDEST POP GAS CALL ISZERO DUP1 ISZERO PUSH2 0xBA8 JUMPI RETURNDATASIZE PUSH1 0x0 DUP1 RETURNDATACOPY RETURNDATASIZE PUSH1 0x0 REVERT JUMPDEST POP POP PUSH1 0x2 SLOAD PUSH1 0x4 SLOAD PUSH1 0x8 SLOAD PUSH1 0x1 PUSH1 0x1 PUSH1 0xA0 SHL SUB SWAP3 DUP4 AND SWAP5 POP PUSH4 0x40C10F19 SWAP4 POP SWAP2 AND SWAP1 PUSH2 0xBDD SWAP1 PUSH2 0x3E8 SWAP1 PUSH2 0x745 SWAP1 DUP9 SWAP1 PUSH2 0x2291 JUMP JUMPDEST PUSH1 0x40 MLOAD DUP4 PUSH4 0xFFFFFFFF AND PUSH1 0xE0 SHL DUP2 MSTORE PUSH1 0x4 ADD PUSH2 0xBFA SWAP3 SWAP2 SWAP1 PUSH2 0x2F1F JUMP JUMPDEST PUSH1 0x0 PUSH1 0x40 MLOAD DUP1 DUP4 SUB DUP2 PUSH1 0x0 DUP8 DUP1 EXTCODESIZE ISZERO DUP1 ISZERO PUSH2 0xC14 JUMPI PUSH1 0x0 DUP1 REVERT JUMPDEST POP GAS CALL ISZERO DUP1 ISZERO PUSH2 0xC28 JUMPI RETURNDATASIZE PUSH1 0x0 DUP1 RETURNDATACOPY RETURNDATASIZE PUSH1 0x0 REVERT JUMPDEST POP POP PUSH1 0x2 SLOAD PUSH1 0x5 SLOAD PUSH1 0x9 SLOAD PUSH1 0x1 PUSH1 0x1 PUSH1 0xA0 SHL SUB SWAP3 DUP4 AND SWAP5 POP PUSH4 0x40C10F19 SWAP4 POP SWAP2 AND SWAP1 PUSH2 0xC5D SWAP1 PUSH2 0x3E8 SWAP1 PUSH2 0x745 SWAP1 DUP9 SWAP1 PUSH2 0x2291 JUMP JUMPDEST PUSH1 0x40 MLOAD DUP4 PUSH4 0xFFFFFFFF AND PUSH1 0xE0 SHL DUP2 MSTORE PUSH1 0x4 ADD PUSH2 0xC7A SWAP3 SWAP2 SWAP1 PUSH2 0x2F1F JUMP JUMPDEST PUSH1 0x0 PUSH1 0x40 MLOAD DUP1 DUP4 SUB DUP2 PUSH1 0x0 DUP8 DUP1 EXTCODESIZE ISZERO DUP1 ISZERO PUSH2 0xC94 JUMPI PUSH1 0x0 DUP1 REVERT JUMPDEST POP GAS CALL ISZERO DUP1 ISZERO PUSH2 0xCA8 JUMPI RETURNDATASIZE PUSH1 0x0 DUP1 RETURNDATACOPY RETURNDATASIZE PUSH1 0x0 REVERT JUMPDEST POP POP PUSH1 0x2 SLOAD PUSH1 0x1 PUSH1 0x1 PUSH1 0xA0 SHL SUB AND SWAP2 POP PUSH4 0x40C10F19 SWAP1 POP ADDRESS PUSH2 0xCD0 PUSH2 0x3E8 PUSH2 0x745 DUP8 DUP8 PUSH2 0x2291 JUMP JUMPDEST PUSH1 0x40 MLOAD DUP4 PUSH4 0xFFFFFFFF AND PUSH1 0xE0 SHL DUP2 MSTORE PUSH1 0x4 ADD PUSH2 0xCED SWAP3 SWAP2 SWAP1 PUSH2 0x2F1F JUMP JUMPDEST PUSH1 0x0 PUSH1 0x40 MLOAD DUP1 DUP4 SUB DUP2 PUSH1 0x0 DUP8 DUP1 EXTCODESIZE ISZERO DUP1 ISZERO PUSH2 0xD07 JUMPI PUSH1 0x0 DUP1 REVERT JUMPDEST POP GAS CALL ISZERO DUP1 ISZERO PUSH2 0xD1B JUMPI RETURNDATASIZE PUSH1 0x0 DUP1 RETURNDATACOPY RETURNDATASIZE PUSH1 0x0 REVERT JUMPDEST POP POP POP POP PUSH2 0xD53 PUSH2 0xD48 PUSH2 0x3E8 PUSH2 0x745 DUP5 PUSH2 0xB11 DUP10 PUSH2 0x745 PUSH5 0xE8D4A51000 DUP11 PUSH2 0x2291 SWAP1 SWAP2 SWAP1 PUSH4 0xFFFFFFFF AND JUMP JUMPDEST PUSH1 0x3 DUP8 ADD SLOAD SWAP1 PUSH2 0x26DB JUMP JUMPDEST PUSH1 0x3 DUP7 ADD DUP2 SWAP1 SSTORE TIMESTAMP PUSH1 0x2 DUP8 ADD DUP2 SWAP1 SSTORE PUSH1 0x40 MLOAD DUP10 SWAP3 PUSH32 0x3BE3541FC42237D611B30329040BFA4569541D156560ACDBBAE57640D20B8F46 SWAP3 PUSH2 0xD96 SWAP3 SWAP1 SWAP2 DUP10 SWAP2 PUSH2 0x35EA JUMP JUMPDEST PUSH1 0x40 MLOAD DUP1 SWAP2 SUB SWAP1 LOG2 POP POP POP POP POP JUMPDEST POP POP JUMP JUMPDEST PUSH1 0xA SLOAD DUP2 SWAP1 DUP2 LT PUSH2 0xDCB JUMPI PUSH1 0x40 MLOAD PUSH3 0x461BCD PUSH1 0xE5 SHL DUP2 MSTORE PUSH1 0x4 ADD PUSH2 0x544 SWAP1 PUSH2 0x3199 JUMP JUMPDEST PUSH1 0x0 PUSH1 0xA DUP4 DUP2 SLOAD DUP2 LT PUSH2 0xDDA JUMPI INVALID JUMPDEST PUSH1 0x0 SWAP2 DUP3 MSTORE PUSH1 0x20 DUP1 DUP4 KECCAK256 DUP7 DUP5 MSTORE PUSH1 0xD DUP3 MSTORE PUSH1 0x40 DUP1 DUP6 KECCAK256 CALLER DUP7 MSTORE SWAP1 SWAP3 MSTORE SWAP1 DUP4 KECCAK256 DUP1 SLOAD PUSH1 0x5 SWAP1 SWAP4 MUL SWAP1 SWAP2 ADD SWAP4 POP SWAP2 SWAP1 PUSH2 0xE19 SWAP1 PUSH1 0x64 SWAP1 PUSH2 0x745 SWAP1 PUSH1 0x63 PUSH2 0x2291 JUMP JUMPDEST SWAP1 POP PUSH1 0x0 PUSH2 0xE3A PUSH1 0x64 PUSH2 0x745 PUSH1 0x1 DUP7 PUSH1 0x0 ADD SLOAD PUSH2 0x2291 SWAP1 SWAP2 SWAP1 PUSH4 0xFFFFFFFF AND JUMP JUMPDEST PUSH1 0x0 DUP1 DUP6 SSTORE PUSH1 0x1 DUP6 ADD SSTORE DUP5 SLOAD SWAP1 SWAP2 POP PUSH2 0xE5D SWAP1 PUSH1 0x1 PUSH1 0x1 PUSH1 0xA0 SHL SUB AND CALLER DUP5 PUSH2 0x2700 JUMP JUMPDEST PUSH1 0x4 SLOAD DUP5 SLOAD PUSH2 0xE79 SWAP2 PUSH1 0x1 PUSH1 0x1 PUSH1 0xA0 SHL SUB SWAP2 DUP3 AND SWAP2 AND DUP4 PUSH2 0x2700 JUMP JUMPDEST DUP6 CALLER PUSH1 0x1 PUSH1 0x1 PUSH1 0xA0 SHL SUB AND PUSH32 0xBB757047C2B5F3974FE26B7C10F732E7BCE710B0952A71082702781E62AE0595 DUP5 PUSH1 0x40 MLOAD PUSH2 0xEB3 SWAP2 SWAP1 PUSH2 0x3596 JUMP JUMPDEST PUSH1 0x40 MLOAD DUP1 SWAP2 SUB SWAP1 LOG3 POP POP POP POP POP POP JUMP JUMPDEST PUSH1 0x10 DUP2 DUP2 SLOAD DUP2 LT PUSH2 0xED0 JUMPI INVALID JUMPDEST PUSH1 0x0 SWAP2 DUP3 MSTORE PUSH1 0x20 SWAP1 SWAP2 KECCAK256 ADD SLOAD SWAP1 POP DUP2 JUMP JUMPDEST PUSH1 0xA SLOAD PUSH1 0x0 JUMPDEST DUP2 DUP2 LT ISZERO PUSH2 0xDA4 JUMPI PUSH2 0xEF8 DUP2 PUSH2 0x952 JUMP JUMPDEST PUSH1 0x1 ADD PUSH2 0xEE7 JUMP JUMPDEST PUSH2 0xF08 PUSH2 0x228D JUMP JUMPDEST PUSH1 0x1 PUSH1 0x1 PUSH1 0xA0 SHL SUB AND PUSH2 0xF19 PUSH2 0x149E JUMP JUMPDEST PUSH1 0x1 PUSH1 0x1 PUSH1 0xA0 SHL SUB AND EQ PUSH2 0xF3F JUMPI PUSH1 0x40 MLOAD PUSH3 0x461BCD PUSH1 0xE5 SHL DUP2 MSTORE PUSH1 0x4 ADD PUSH2 0x544 SWAP1 PUSH2 0x3290 JUMP JUMPDEST PUSH2 0x3E8 DUP2 GT ISZERO PUSH2 0xF61 JUMPI PUSH1 0x40 MLOAD PUSH3 0x461BCD PUSH1 0xE5 SHL DUP2 MSTORE PUSH1 0x4 ADD PUSH2 0x544 SWAP1 PUSH2 0x3552 JUMP JUMPDEST PUSH2 0x3E8 PUSH1 0x9 SLOAD DUP3 PUSH1 0x8 SLOAD ADD ADD GT ISZERO PUSH2 0xF8B JUMPI PUSH1 0x40 MLOAD PUSH3 0x461BCD PUSH1 0xE5 SHL DUP2 MSTORE PUSH1 0x4 ADD PUSH2 0x544 SWAP1 PUSH2 0x32F4 JUMP JUMPDEST PUSH1 0x7 DUP2 SWAP1 SSTORE PUSH1 0x40 MLOAD DUP2 SWAP1 PUSH32 0x9D1B620A27D3CFF0611581DF3C659EA0980D4B3DB9428CA96559A1420FA3C7BB SWAP1 PUSH1 0x0 SWAP1 LOG2 POP JUMP JUMPDEST PUSH2 0xFC6 PUSH2 0x228D JUMP JUMPDEST PUSH1 0x1 PUSH1 0x1 PUSH1 0xA0 SHL SUB AND PUSH2 0xFD7 PUSH2 0x149E JUMP JUMPDEST PUSH1 0x1 PUSH1 0x1 PUSH1 0xA0 SHL SUB AND EQ PUSH2 0xFFD JUMPI PUSH1 0x40 MLOAD PUSH3 0x461BCD PUSH1 0xE5 SHL DUP2 MSTORE PUSH1 0x4 ADD PUSH2 0x544 SWAP1 PUSH2 0x3290 JUMP JUMPDEST PUSH1 0x0 DUP1 SLOAD PUSH1 0x40 MLOAD PUSH1 0x1 PUSH1 0x1 PUSH1 0xA0 SHL SUB SWAP1 SWAP2 AND SWAP1 PUSH32 0x8BE0079C531659141344CD1FD0A4F28419497F9722A3DAAFE3B4186F6B6457E0 SWAP1 DUP4 SWAP1 LOG3 PUSH1 0x0 DUP1 SLOAD PUSH1 0x1 PUSH1 0x1 PUSH1 0xA0 SHL SUB NOT AND SWAP1 SSTORE JUMP JUMPDEST PUSH2 0x104F PUSH2 0x228D JUMP JUMPDEST PUSH1 0x1 PUSH1 0x1 PUSH1 0xA0 SHL SUB AND PUSH2 0x1060 PUSH2 0x149E JUMP JUMPDEST PUSH1 0x1 PUSH1 0x1 PUSH1 0xA0 SHL SUB AND EQ PUSH2 0x1086 JUMPI PUSH1 0x40 MLOAD PUSH3 0x461BCD PUSH1 0xE5 SHL DUP2 MSTORE PUSH1 0x4 ADD PUSH2 0x544 SWAP1 PUSH2 0x3290 JUMP JUMPDEST DUP1 MLOAD PUSH2 0x1099 SWAP1 PUSH1 0x10 SWAP1 PUSH1 0x20 DUP5 ADD SWAP1 PUSH2 0x2BAE JUMP JUMPDEST POP DUP1 PUSH1 0x40 MLOAD PUSH2 0x10A8 SWAP2 SWAP1 PUSH2 0x2EB9 JUMP JUMPDEST PUSH1 0x40 MLOAD SWAP1 DUP2 SWAP1 SUB DUP2 KECCAK256 SWAP1 PUSH32 0x57C31CB0B626D0819C0D830CD19BBB85E317D65710EDA3756DC8FC7DAA559D22 SWAP1 PUSH1 0x0 SWAP1 LOG2 POP JUMP JUMPDEST PUSH2 0x10E3 PUSH2 0x228D JUMP JUMPDEST PUSH1 0x1 PUSH1 0x1 PUSH1 0xA0 SHL SUB AND PUSH2 0x10F4 PUSH2 0x149E JUMP JUMPDEST PUSH1 0x1 PUSH1 0x1 PUSH1 0xA0 SHL SUB AND EQ PUSH2 0x111A JUMPI PUSH1 0x40 MLOAD PUSH3 0x461BCD PUSH1 0xE5 SHL DUP2 MSTORE PUSH1 0x4 ADD PUSH2 0x544 SWAP1 PUSH2 0x3290 JUMP JUMPDEST PUSH2 0x3E8 DUP2 GT ISZERO PUSH2 0x113C JUMPI PUSH1 0x40 MLOAD PUSH3 0x461BCD PUSH1 0xE5 SHL DUP2 MSTORE PUSH1 0x4 ADD PUSH2 0x544 SWAP1 PUSH2 0x3339 JUMP JUMPDEST PUSH2 0x3E8 PUSH1 0x8 SLOAD DUP3 PUSH1 0x7 SLOAD ADD ADD GT ISZERO PUSH2 0x1166 JUMPI PUSH1 0x40 MLOAD PUSH3 0x461BCD PUSH1 0xE5 SHL DUP2 MSTORE PUSH1 0x4 ADD PUSH2 0x544 SWAP1 PUSH2 0x3052 JUMP JUMPDEST PUSH1 0x9 DUP2 SWAP1 SSTORE PUSH1 0x40 MLOAD DUP2 SWAP1 PUSH32 0x1B9620AE36755B5CA186D676E3FA9A6B2B901FBDDEE8D6945F49215F092A9897 SWAP1 PUSH1 0x0 SWAP1 LOG2 POP JUMP JUMPDEST PUSH2 0x11A1 PUSH2 0x228D JUMP JUMPDEST PUSH1 0x1 PUSH1 0x1 PUSH1 0xA0 SHL SUB AND PUSH2 0x11B2 PUSH2 0x149E JUMP JUMPDEST PUSH1 0x1 PUSH1 0x1 PUSH1 0xA0 SHL SUB AND EQ PUSH2 0x11D8 JUMPI PUSH1 0x40 MLOAD PUSH3 0x461BCD PUSH1 0xE5 SHL DUP2 MSTORE PUSH1 0x4 ADD PUSH2 0x544 SWAP1 PUSH2 0x3290 JUMP JUMPDEST PUSH1 0xA SLOAD DUP5 SWAP1 DUP2 LT PUSH2 0x11FB JUMPI PUSH1 0x40 MLOAD PUSH3 0x461BCD PUSH1 0xE5 SHL DUP2 MSTORE PUSH1 0x4 ADD PUSH2 0x544 SWAP1 PUSH2 0x3199 JUMP JUMPDEST PUSH2 0x1204 DUP4 PUSH2 0x27F6 JUMP JUMPDEST DUP1 PUSH2 0x1216 JUMPI POP PUSH1 0x1 PUSH1 0x1 PUSH1 0xA0 SHL SUB DUP4 AND ISZERO JUMPDEST PUSH2 0x1232 JUMPI PUSH1 0x40 MLOAD PUSH3 0x461BCD PUSH1 0xE5 SHL DUP2 MSTORE PUSH1 0x4 ADD PUSH2 0x544 SWAP1 PUSH2 0x345A JUMP JUMPDEST PUSH2 0x123A PUSH2 0xEE1 JUMP JUMPDEST PUSH2 0x1277 DUP5 PUSH2 0x1271 PUSH1 0xA DUP9 DUP2 SLOAD DUP2 LT PUSH2 0x124E JUMPI INVALID JUMPDEST SWAP1 PUSH1 0x0 MSTORE PUSH1 0x20 PUSH1 0x0 KECCAK256 SWAP1 PUSH1 0x5 MUL ADD PUSH1 0x1 ADD SLOAD PUSH1 0xE SLOAD PUSH2 0x2306 SWAP1 SWAP2 SWAP1 PUSH4 0xFFFFFFFF AND JUMP JUMPDEST SWAP1 PUSH2 0x26DB JUMP JUMPDEST PUSH1 0xE DUP2 SWAP1 SSTORE POP DUP4 PUSH1 0xA DUP7 DUP2 SLOAD DUP2 LT PUSH2 0x128B JUMPI INVALID JUMPDEST SWAP1 PUSH1 0x0 MSTORE PUSH1 0x20 PUSH1 0x0 KECCAK256 SWAP1 PUSH1 0x5 MUL ADD PUSH1 0x1 ADD DUP2 SWAP1 SSTORE POP DUP2 ISZERO PUSH2 0x12EA JUMPI DUP3 PUSH1 0xA DUP7 DUP2 SLOAD DUP2 LT PUSH2 0x12B4 JUMPI INVALID JUMPDEST SWAP1 PUSH1 0x0 MSTORE PUSH1 0x20 PUSH1 0x0 KECCAK256 SWAP1 PUSH1 0x5 MUL ADD PUSH1 0x4 ADD PUSH1 0x0 PUSH2 0x100 EXP DUP2 SLOAD DUP2 PUSH1 0x1 PUSH1 0x1 PUSH1 0xA0 SHL SUB MUL NOT AND SWAP1 DUP4 PUSH1 0x1 PUSH1 0x1 PUSH1 0xA0 SHL SUB AND MUL OR SWAP1 SSTORE POP JUMPDEST DUP2 PUSH2 0x131E JUMPI PUSH1 0xA DUP6 DUP2 SLOAD DUP2 LT PUSH2 0x12FC JUMPI INVALID JUMPDEST PUSH1 0x0 SWAP2 DUP3 MSTORE PUSH1 0x20 SWAP1 SWAP2 KECCAK256 PUSH1 0x4 PUSH1 0x5 SWAP1 SWAP3 MUL ADD ADD SLOAD PUSH1 0x1 PUSH1 0x1 PUSH1 0xA0 SHL SUB AND PUSH2 0x1320 JUMP JUMPDEST DUP3 JUMPDEST PUSH1 0x1 PUSH1 0x1 PUSH1 0xA0 SHL SUB AND DUP6 PUSH32 0xA54644AAE5C48C5971516F334E4FE8ECBC7930E23F34877D4203C6551E67FFAA DUP7 DUP6 PUSH1 0x40 MLOAD PUSH2 0x135B SWAP3 SWAP2 SWAP1 PUSH2 0x35DA JUMP JUMPDEST PUSH1 0x40 MLOAD DUP1 SWAP2 SUB SWAP1 LOG3 POP POP POP POP POP JUMP JUMPDEST PUSH2 0x1372 PUSH2 0x228D JUMP JUMPDEST PUSH1 0x1 PUSH1 0x1 PUSH1 0xA0 SHL SUB AND PUSH2 0x1383 PUSH2 0x149E JUMP JUMPDEST PUSH1 0x1 PUSH1 0x1 PUSH1 0xA0 SHL SUB AND EQ PUSH2 0x13A9 JUMPI PUSH1 0x40 MLOAD PUSH3 0x461BCD PUSH1 0xE5 SHL DUP2 MSTORE PUSH1 0x4 ADD PUSH2 0x544 SWAP1 PUSH2 0x3290 JUMP JUMPDEST PUSH2 0x3E8 DUP2 GT ISZERO PUSH2 0x13CB JUMPI PUSH1 0x40 MLOAD PUSH3 0x461BCD PUSH1 0xE5 SHL DUP2 MSTORE PUSH1 0x4 ADD PUSH2 0x544 SWAP1 PUSH2 0x3119 JUMP JUMPDEST PUSH2 0x3E8 PUSH1 0x9 SLOAD DUP3 PUSH1 0x7 SLOAD ADD ADD GT ISZERO PUSH2 0x13F5 JUMPI PUSH1 0x40 MLOAD PUSH3 0x461BCD PUSH1 0xE5 SHL DUP2 MSTORE PUSH1 0x4 ADD PUSH2 0x544 SWAP1 PUSH2 0x2FD1 JUMP JUMPDEST PUSH1 0x8 DUP2 SWAP1 SSTORE PUSH1 0x40 MLOAD DUP2 SWAP1 PUSH32 0xFE5E84AED80BB66B1138901B54A3742364A3F72852272E991FDA306412EB9DA8 SWAP1 PUSH1 0x0 SWAP1 LOG2 POP JUMP JUMPDEST PUSH1 0x3 SLOAD PUSH1 0x1 PUSH1 0x1 PUSH1 0xA0 SHL SUB AND CALLER EQ PUSH2 0x1452 JUMPI PUSH1 0x40 MLOAD PUSH3 0x461BCD PUSH1 0xE5 SHL DUP2 MSTORE PUSH1 0x4 ADD PUSH2 0x544 SWAP1 PUSH2 0x31FD JUMP JUMPDEST PUSH1 0x3 DUP1 SLOAD PUSH1 0x1 PUSH1 0x1 PUSH1 0xA0 SHL SUB NOT AND PUSH1 0x1 PUSH1 0x1 PUSH1 0xA0 SHL SUB DUP4 AND SWAP1 DUP2 OR SWAP1 SWAP2 SSTORE PUSH1 0x40 MLOAD CALLER SWAP1 PUSH32 0x618C54559E94F1499A808AAD71EE8729F8E74E8C48E979616328CE493A1A52E7 SWAP1 PUSH1 0x0 SWAP1 LOG3 POP JUMP JUMPDEST PUSH1 0x0 SLOAD PUSH1 0x1 PUSH1 0x1 PUSH1 0xA0 SHL SUB AND SWAP1 JUMP JUMPDEST PUSH1 0xD PUSH1 0x20 SWAP1 DUP2 MSTORE PUSH1 0x0 SWAP3 DUP4 MSTORE PUSH1 0x40 DUP1 DUP5 KECCAK256 SWAP1 SWAP2 MSTORE SWAP1 DUP3 MSTORE SWAP1 KECCAK256 DUP1 SLOAD PUSH1 0x1 DUP3 ADD SLOAD PUSH1 0x2 DUP4 ADD SLOAD PUSH1 0x3 DUP5 ADD SLOAD PUSH1 0x4 DUP6 ADD SLOAD PUSH1 0x5 SWAP1 SWAP6 ADD SLOAD SWAP4 SWAP5 SWAP3 SWAP4 SWAP2 SWAP3 SWAP1 SWAP2 DUP7 JUMP JUMPDEST PUSH1 0x4 SLOAD PUSH1 0x1 PUSH1 0x1 PUSH1 0xA0 SHL SUB AND CALLER EQ PUSH2 0x1517 JUMPI PUSH1 0x40 MLOAD PUSH3 0x461BCD PUSH1 0xE5 SHL DUP2 MSTORE PUSH1 0x4 ADD PUSH2 0x544 SWAP1 PUSH2 0x32C5 JUMP JUMPDEST PUSH1 0x4 DUP1 SLOAD PUSH1 0x1 PUSH1 0x1 PUSH1 0xA0 SHL SUB NOT AND PUSH1 0x1 PUSH1 0x1 PUSH1 0xA0 SHL SUB DUP4 AND SWAP1 DUP2 OR SWAP1 SWAP2 SSTORE PUSH1 0x40 MLOAD PUSH32 0xFED1FC22ED508D4B73D6979BF4919D01A7429D337A20D9838AE69A9FC1F58886 SWAP1 PUSH1 0x0 SWAP1 LOG2 POP JUMP JUMPDEST PUSH1 0x6 SLOAD DUP2 JUMP JUMPDEST PUSH2 0x156F PUSH2 0x228D JUMP JUMPDEST PUSH1 0x1 PUSH1 0x1 PUSH1 0xA0 SHL SUB AND PUSH2 0x1580 PUSH2 0x149E JUMP JUMPDEST PUSH1 0x1 PUSH1 0x1 PUSH1 0xA0 SHL SUB AND EQ PUSH2 0x15A6 JUMPI PUSH1 0x40 MLOAD PUSH3 0x461BCD PUSH1 0xE5 SHL DUP2 MSTORE PUSH1 0x4 ADD PUSH2 0x544 SWAP1 PUSH2 0x3290 JUMP JUMPDEST PUSH2 0x15AF DUP3 PUSH2 0x27F6 JUMP JUMPDEST PUSH2 0x15CB JUMPI PUSH1 0x40 MLOAD PUSH3 0x461BCD PUSH1 0xE5 SHL DUP2 MSTORE PUSH1 0x4 ADD PUSH2 0x544 SWAP1 PUSH2 0x3382 JUMP JUMPDEST PUSH2 0x15D4 DUP2 PUSH2 0x27F6 JUMP JUMPDEST DUP1 PUSH2 0x15E6 JUMPI POP PUSH1 0x1 PUSH1 0x1 PUSH1 0xA0 SHL SUB DUP2 AND ISZERO JUMPDEST PUSH2 0x1602 JUMPI PUSH1 0x40 MLOAD PUSH3 0x461BCD PUSH1 0xE5 SHL DUP2 MSTORE PUSH1 0x4 ADD PUSH2 0x544 SWAP1 PUSH2 0x34A0 JUMP JUMPDEST PUSH1 0x40 MLOAD PUSH4 0x70A08231 PUSH1 0xE0 SHL DUP2 MSTORE PUSH1 0x1 PUSH1 0x1 PUSH1 0xA0 SHL SUB DUP4 AND SWAP1 PUSH4 0x70A08231 SWAP1 PUSH2 0x162E SWAP1 ADDRESS SWAP1 PUSH1 0x4 ADD PUSH2 0x2F0B JUMP JUMPDEST PUSH1 0x20 PUSH1 0x40 MLOAD DUP1 DUP4 SUB DUP2 DUP7 DUP1 EXTCODESIZE ISZERO DUP1 ISZERO PUSH2 0x1646 JUMPI PUSH1 0x0 DUP1 REVERT JUMPDEST POP GAS STATICCALL ISZERO DUP1 ISZERO PUSH2 0x165A JUMPI RETURNDATASIZE PUSH1 0x0 DUP1 RETURNDATACOPY RETURNDATASIZE PUSH1 0x0 REVERT JUMPDEST POP POP POP POP PUSH1 0x40 MLOAD RETURNDATASIZE PUSH1 0x1F NOT PUSH1 0x1F DUP3 ADD AND DUP3 ADD DUP1 PUSH1 0x40 MSTORE POP DUP2 ADD SWAP1 PUSH2 0x167E SWAP2 SWAP1 PUSH2 0x2D9B JUMP JUMPDEST POP PUSH2 0x168A PUSH1 0xB DUP4 PUSH2 0x2800 JUMP JUMPDEST ISZERO PUSH2 0x16A7 JUMPI PUSH1 0x40 MLOAD PUSH3 0x461BCD PUSH1 0xE5 SHL DUP2 MSTORE PUSH1 0x4 ADD PUSH2 0x544 SWAP1 PUSH2 0x3261 JUMP JUMPDEST PUSH2 0x16AF PUSH2 0xEE1 JUMP JUMPDEST PUSH1 0x0 PUSH1 0xF SLOAD TIMESTAMP GT PUSH2 0x16C2 JUMPI PUSH1 0xF SLOAD PUSH2 0x16C4 JUMP JUMPDEST TIMESTAMP JUMPDEST PUSH1 0xE SLOAD SWAP1 SWAP2 POP PUSH2 0x16D4 SWAP1 DUP6 PUSH2 0x26DB JUMP JUMPDEST PUSH1 0xE SSTORE PUSH1 0x40 DUP1 MLOAD PUSH1 0xA0 DUP2 ADD DUP3 MSTORE PUSH1 0x1 PUSH1 0x1 PUSH1 0xA0 SHL SUB DUP6 DUP2 AND DUP3 MSTORE PUSH1 0x20 DUP3 ADD DUP8 DUP2 MSTORE SWAP3 DUP3 ADD DUP5 DUP2 MSTORE PUSH1 0x0 PUSH1 0x60 DUP5 ADD DUP2 DUP2 MSTORE DUP8 DUP5 AND PUSH1 0x80 DUP7 ADD SWAP1 DUP2 MSTORE PUSH1 0xA DUP1 SLOAD PUSH1 0x1 DUP2 ADD DUP3 SSTORE SWAP4 MSTORE SWAP5 MLOAD PUSH32 0xC65A7BB8D6351C1CF70C95A316CC6A92839C986682D98BC35F958F4883F9D2A8 PUSH1 0x5 SWAP1 SWAP4 MUL SWAP3 DUP4 ADD DUP1 SLOAD PUSH1 0x1 PUSH1 0x1 PUSH1 0xA0 SHL SUB NOT SWAP1 DUP2 AND SWAP3 DUP8 AND SWAP3 SWAP1 SWAP3 OR SWAP1 SSTORE SWAP6 MLOAD PUSH32 0xC65A7BB8D6351C1CF70C95A316CC6A92839C986682D98BC35F958F4883F9D2A9 DUP4 ADD SSTORE SWAP2 MLOAD PUSH32 0xC65A7BB8D6351C1CF70C95A316CC6A92839C986682D98BC35F958F4883F9D2AA DUP3 ADD SSTORE SWAP1 MLOAD PUSH32 0xC65A7BB8D6351C1CF70C95A316CC6A92839C986682D98BC35F958F4883F9D2AB DUP3 ADD SSTORE SWAP2 MLOAD PUSH32 0xC65A7BB8D6351C1CF70C95A316CC6A92839C986682D98BC35F958F4883F9D2AC SWAP1 SWAP3 ADD DUP1 SLOAD SWAP1 SWAP4 AND SWAP2 AND OR SWAP1 SSTORE PUSH2 0x1809 PUSH1 0xB DUP5 PUSH2 0x2815 JUMP JUMPDEST POP PUSH1 0xA SLOAD PUSH1 0x1 PUSH1 0x1 PUSH1 0xA0 SHL SUB DUP1 DUP5 AND SWAP2 SWAP1 DUP6 AND SWAP1 PUSH2 0x1828 SWAP1 PUSH1 0x1 PUSH2 0x2306 JUMP JUMPDEST PUSH32 0x4B16BD2431AD24DC020AB0E1DE7FCB6563DEAD6A24FB10089D6C23E97A70381F DUP8 PUSH1 0x40 MLOAD PUSH2 0x1857 SWAP2 SWAP1 PUSH2 0x3596 JUMP JUMPDEST PUSH1 0x40 MLOAD DUP1 SWAP2 SUB SWAP1 LOG4 POP POP POP POP JUMP JUMPDEST PUSH1 0x5 SLOAD PUSH1 0x1 PUSH1 0x1 PUSH1 0xA0 SHL SUB AND DUP2 JUMP JUMPDEST PUSH1 0x0 PUSH1 0x60 DUP3 PUSH1 0xA DUP1 SLOAD SWAP1 POP DUP2 LT PUSH2 0x189D JUMPI PUSH1 0x40 MLOAD PUSH3 0x461BCD PUSH1 0xE5 SHL DUP2 MSTORE PUSH1 0x4 ADD PUSH2 0x544 SWAP1 PUSH2 0x3199 JUMP JUMPDEST PUSH1 0x0 PUSH1 0xA DUP6 DUP2 SLOAD DUP2 LT PUSH2 0x18AC JUMPI INVALID JUMPDEST PUSH1 0x0 SWAP2 DUP3 MSTORE PUSH1 0x20 SWAP1 SWAP2 KECCAK256 PUSH1 0x5 SWAP1 SWAP2 MUL ADD PUSH1 0x4 DUP2 ADD SLOAD SWAP1 SWAP2 POP PUSH1 0x1 PUSH1 0x1 PUSH1 0xA0 SHL SUB AND ISZERO PUSH2 0x19EC JUMPI PUSH1 0x4 DUP1 DUP3 ADD SLOAD PUSH1 0x40 DUP1 MLOAD PUSH4 0xF7C618C1 PUSH1 0xE0 SHL DUP2 MSTORE SWAP1 MLOAD PUSH1 0x1 PUSH1 0x1 PUSH1 0xA0 SHL SUB SWAP1 SWAP3 AND SWAP3 PUSH4 0xF7C618C1 SWAP3 DUP3 DUP3 ADD SWAP3 PUSH1 0x20 SWAP3 SWAP1 DUP3 SWAP1 SUB ADD DUP2 DUP7 DUP1 EXTCODESIZE ISZERO DUP1 ISZERO PUSH2 0x1916 JUMPI PUSH1 0x0 DUP1 REVERT JUMPDEST POP GAS STATICCALL ISZERO DUP1 ISZERO PUSH2 0x192A JUMPI RETURNDATASIZE PUSH1 0x0 DUP1 RETURNDATACOPY RETURNDATASIZE PUSH1 0x0 REVERT JUMPDEST POP POP POP POP PUSH1 0x40 MLOAD RETURNDATASIZE PUSH1 0x1F NOT PUSH1 0x1F DUP3 ADD AND DUP3 ADD DUP1 PUSH1 0x40 MSTORE POP DUP2 ADD SWAP1 PUSH2 0x194E SWAP2 SWAP1 PUSH2 0x2C2A JUMP JUMPDEST SWAP4 POP PUSH2 0x19E9 DUP2 PUSH1 0x4 ADD PUSH1 0x0 SWAP1 SLOAD SWAP1 PUSH2 0x100 EXP SWAP1 DIV PUSH1 0x1 PUSH1 0x1 PUSH1 0xA0 SHL SUB AND PUSH1 0x1 PUSH1 0x1 PUSH1 0xA0 SHL SUB AND PUSH4 0xF7C618C1 PUSH1 0x40 MLOAD DUP2 PUSH4 0xFFFFFFFF AND PUSH1 0xE0 SHL DUP2 MSTORE PUSH1 0x4 ADD PUSH1 0x20 PUSH1 0x40 MLOAD DUP1 DUP4 SUB DUP2 DUP7 DUP1 EXTCODESIZE ISZERO DUP1 ISZERO PUSH2 0x19A3 JUMPI PUSH1 0x0 DUP1 REVERT JUMPDEST POP GAS STATICCALL ISZERO DUP1 ISZERO PUSH2 0x19B7 JUMPI RETURNDATASIZE PUSH1 0x0 DUP1 RETURNDATACOPY RETURNDATASIZE PUSH1 0x0 REVERT JUMPDEST POP POP POP POP PUSH1 0x40 MLOAD RETURNDATASIZE PUSH1 0x1F NOT PUSH1 0x1F DUP3 ADD AND DUP3 ADD DUP1 PUSH1 0x40 MSTORE POP DUP2 ADD SWAP1 PUSH2 0x19DB SWAP2 SWAP1 PUSH2 0x2C2A JUMP JUMPDEST PUSH1 0x1 PUSH1 0x1 PUSH1 0xA0 SHL SUB AND PUSH2 0x282A JUMP JUMPDEST SWAP3 POP JUMPDEST POP POP SWAP2 POP SWAP2 JUMP JUMPDEST PUSH1 0x13 DUP2 DUP2 SLOAD DUP2 LT PUSH2 0xED0 JUMPI INVALID JUMPDEST PUSH1 0x11 DUP2 DUP2 SLOAD DUP2 LT PUSH2 0xED0 JUMPI INVALID JUMPDEST PUSH1 0x12 DUP2 DUP2 SLOAD DUP2 LT PUSH2 0xED0 JUMPI INVALID JUMPDEST PUSH1 0x2 SLOAD PUSH1 0x1 PUSH1 0x1 PUSH1 0xA0 SHL SUB AND DUP2 JUMP JUMPDEST PUSH1 0x3 SLOAD PUSH1 0x1 PUSH1 0x1 PUSH1 0xA0 SHL SUB AND DUP2 JUMP JUMPDEST PUSH1 0x2 PUSH1 0x1 SLOAD EQ ISZERO PUSH2 0x1A5B JUMPI PUSH1 0x40 MLOAD PUSH3 0x461BCD PUSH1 0xE5 SHL DUP2 MSTORE PUSH1 0x4 ADD PUSH2 0x544 SWAP1 PUSH2 0x351B JUMP JUMPDEST PUSH1 0x2 PUSH1 0x1 SSTORE PUSH1 0xA SLOAD DUP3 SWAP1 DUP2 LT PUSH2 0x1A83 JUMPI PUSH1 0x40 MLOAD PUSH3 0x461BCD PUSH1 0xE5 SHL DUP2 MSTORE PUSH1 0x4 ADD PUSH2 0x544 SWAP1 PUSH2 0x3199 JUMP JUMPDEST PUSH1 0x0 PUSH1 0xA DUP5 DUP2 SLOAD DUP2 LT PUSH2 0x1A92 JUMPI INVALID JUMPDEST PUSH1 0x0 SWAP2 DUP3 MSTORE PUSH1 0x20 DUP1 DUP4 KECCAK256 DUP8 DUP5 MSTORE PUSH1 0xD DUP3 MSTORE PUSH1 0x40 DUP1 DUP6 KECCAK256 CALLER DUP7 MSTORE SWAP1 SWAP3 MSTORE SWAP3 KECCAK256 PUSH1 0x5 SWAP1 SWAP2 MUL SWAP1 SWAP2 ADD SWAP2 POP PUSH2 0x1AC3 DUP6 PUSH2 0x952 JUMP JUMPDEST DUP1 SLOAD ISZERO PUSH2 0x1B48 JUMPI PUSH1 0x0 PUSH2 0x1AF8 DUP3 PUSH1 0x1 ADD SLOAD PUSH2 0x74B PUSH5 0xE8D4A51000 PUSH2 0x745 DUP8 PUSH1 0x3 ADD SLOAD DUP8 PUSH1 0x0 ADD SLOAD PUSH2 0x2291 SWAP1 SWAP2 SWAP1 PUSH4 0xFFFFFFFF AND JUMP JUMPDEST SWAP1 POP PUSH2 0x1B04 CALLER DUP3 PUSH2 0x232E JUMP JUMPDEST DUP6 CALLER PUSH1 0x1 PUSH1 0x1 PUSH1 0xA0 SHL SUB AND PUSH32 0x71BAB65CED2E5750775A0613BE067DF48EF06CF92A496EBF7663AE0660924954 DUP4 PUSH1 0x40 MLOAD PUSH2 0x1B3E SWAP2 SWAP1 PUSH2 0x3596 JUMP JUMPDEST PUSH1 0x40 MLOAD DUP1 SWAP2 SUB SWAP1 LOG3 POP JUMPDEST DUP1 SLOAD PUSH2 0x1B54 SWAP1 DUP6 PUSH2 0x26DB JUMP JUMPDEST DUP1 DUP3 SSTORE PUSH1 0x3 DUP4 ADD SLOAD PUSH2 0x1B71 SWAP2 PUSH5 0xE8D4A51000 SWAP2 PUSH2 0x745 SWAP2 SWAP1 PUSH2 0x2291 JUMP JUMPDEST DUP2 PUSH1 0x1 ADD DUP2 SWAP1 SSTORE POP PUSH1 0x0 PUSH1 0xA DUP7 DUP2 SLOAD DUP2 LT PUSH2 0x1B88 JUMPI INVALID JUMPDEST PUSH1 0x0 SWAP2 DUP3 MSTORE PUSH1 0x20 SWAP1 SWAP2 KECCAK256 PUSH1 0x4 PUSH1 0x5 SWAP1 SWAP3 MUL ADD ADD SLOAD PUSH1 0x1 PUSH1 0x1 PUSH1 0xA0 SHL SUB AND SWAP1 POP DUP1 ISZERO PUSH2 0x1CA2 JUMPI DUP1 PUSH1 0x1 PUSH1 0x1 PUSH1 0xA0 SHL SUB AND PUSH4 0xA561CEF9 PUSH1 0x40 MLOAD DUP2 PUSH4 0xFFFFFFFF AND PUSH1 0xE0 SHL DUP2 MSTORE PUSH1 0x4 ADD PUSH1 0x20 PUSH1 0x40 MLOAD DUP1 DUP4 SUB DUP2 DUP7 DUP1 EXTCODESIZE ISZERO DUP1 ISZERO PUSH2 0x1BE6 JUMPI PUSH1 0x0 DUP1 REVERT JUMPDEST POP GAS STATICCALL ISZERO DUP1 ISZERO PUSH2 0x1BFA JUMPI RETURNDATASIZE PUSH1 0x0 DUP1 RETURNDATACOPY RETURNDATASIZE PUSH1 0x0 REVERT JUMPDEST POP POP POP POP PUSH1 0x40 MLOAD RETURNDATASIZE PUSH1 0x1F NOT PUSH1 0x1F DUP3 ADD AND DUP3 ADD DUP1 PUSH1 0x40 MSTORE POP DUP2 ADD SWAP1 PUSH2 0x1C1E SWAP2 SWAP1 PUSH2 0x2CDB JUMP JUMPDEST ISZERO PUSH2 0x1C88 JUMPI DUP2 SLOAD PUSH1 0x40 MLOAD PUSH4 0x3C841153 PUSH1 0xE1 SHL DUP2 MSTORE PUSH1 0x1 PUSH1 0x1 PUSH1 0xA0 SHL SUB DUP4 AND SWAP2 PUSH4 0x790822A6 SWAP2 PUSH2 0x1C51 SWAP2 CALLER SWAP2 PUSH1 0x4 ADD PUSH2 0x2F1F JUMP JUMPDEST PUSH1 0x0 PUSH1 0x40 MLOAD DUP1 DUP4 SUB DUP2 PUSH1 0x0 DUP8 DUP1 EXTCODESIZE ISZERO DUP1 ISZERO PUSH2 0x1C6B JUMPI PUSH1 0x0 DUP1 REVERT JUMPDEST POP GAS CALL ISZERO DUP1 ISZERO PUSH2 0x1C7F JUMPI RETURNDATASIZE PUSH1 0x0 DUP1 RETURNDATACOPY RETURNDATASIZE PUSH1 0x0 REVERT JUMPDEST POP POP POP POP PUSH2 0x1CA2 JUMP JUMPDEST PUSH1 0x1 DUP4 ADD SLOAD ISZERO PUSH2 0x1CA2 JUMPI PUSH1 0x0 PUSH1 0x1 DUP5 ADD SSTORE PUSH2 0x1CA2 DUP7 PUSH2 0x952 JUMP JUMPDEST PUSH1 0x3 DUP3 ADD SLOAD ISZERO PUSH2 0x1CB1 JUMPI PUSH2 0x1CB8 JUMP JUMPDEST TIMESTAMP PUSH1 0x3 DUP4 ADD SSTORE JUMPDEST DUP3 SLOAD PUSH1 0x40 MLOAD PUSH4 0x70A08231 PUSH1 0xE0 SHL DUP2 MSTORE PUSH1 0x0 SWAP2 PUSH1 0x1 PUSH1 0x1 PUSH1 0xA0 SHL SUB AND SWAP1 PUSH4 0x70A08231 SWAP1 PUSH2 0x1CE8 SWAP1 ADDRESS SWAP1 PUSH1 0x4 ADD PUSH2 0x2F0B JUMP JUMPDEST PUSH1 0x20 PUSH1 0x40 MLOAD DUP1 DUP4 SUB DUP2 DUP7 DUP1 EXTCODESIZE ISZERO DUP1 ISZERO PUSH2 0x1D00 JUMPI PUSH1 0x0 DUP1 REVERT JUMPDEST POP GAS STATICCALL ISZERO DUP1 ISZERO PUSH2 0x1D14 JUMPI RETURNDATASIZE PUSH1 0x0 DUP1 RETURNDATACOPY RETURNDATASIZE PUSH1 0x0 REVERT JUMPDEST POP POP POP POP PUSH1 0x40 MLOAD RETURNDATASIZE PUSH1 0x1F NOT PUSH1 0x1F DUP3 ADD AND DUP3 ADD DUP1 PUSH1 0x40 MSTORE POP DUP2 ADD SWAP1 PUSH2 0x1D38 SWAP2 SWAP1 PUSH2 0x2D9B JUMP JUMPDEST DUP5 SLOAD SWAP1 SWAP2 POP PUSH2 0x1D52 SWAP1 PUSH1 0x1 PUSH1 0x1 PUSH1 0xA0 SHL SUB AND CALLER ADDRESS DUP10 PUSH2 0x28ED JUMP JUMPDEST DUP4 SLOAD PUSH1 0x40 MLOAD PUSH4 0x70A08231 PUSH1 0xE0 SHL DUP2 MSTORE PUSH1 0x0 SWAP2 PUSH1 0x1 PUSH1 0x1 PUSH1 0xA0 SHL SUB AND SWAP1 PUSH4 0x70A08231 SWAP1 PUSH2 0x1D82 SWAP1 ADDRESS SWAP1 PUSH1 0x4 ADD PUSH2 0x2F0B JUMP JUMPDEST PUSH1 0x20 PUSH1 0x40 MLOAD DUP1 DUP4 SUB DUP2 DUP7 DUP1 EXTCODESIZE ISZERO DUP1 ISZERO PUSH2 0x1D9A JUMPI PUSH1 0x0 DUP1 REVERT JUMPDEST POP GAS STATICCALL ISZERO DUP1 ISZERO PUSH2 0x1DAE JUMPI RETURNDATASIZE PUSH1 0x0 DUP1 RETURNDATACOPY RETURNDATASIZE PUSH1 0x0 REVERT JUMPDEST POP POP POP POP PUSH1 0x40 MLOAD RETURNDATASIZE PUSH1 0x1F NOT PUSH1 0x1F DUP3 ADD AND DUP3 ADD DUP1 PUSH1 0x40 MSTORE POP DUP2 ADD SWAP1 PUSH2 0x1DD2 SWAP2 SWAP1 PUSH2 0x2D9B JUMP JUMPDEST SWAP1 POP PUSH1 0x0 PUSH2 0x1DE0 DUP3 DUP5 PUSH2 0x2306 JUMP JUMPDEST SWAP1 POP DUP8 DUP2 EQ PUSH2 0x1E01 JUMPI PUSH1 0x40 MLOAD PUSH3 0x461BCD PUSH1 0xE5 SHL DUP2 MSTORE PUSH1 0x4 ADD PUSH2 0x544 SWAP1 PUSH2 0x33F7 JUMP JUMPDEST DUP9 CALLER PUSH1 0x1 PUSH1 0x1 PUSH1 0xA0 SHL SUB AND PUSH32 0x90890809C654F11D6E72A28FA60149770A0D11EC6C92319D6CEB2BB0A4EA1A15 DUP11 PUSH1 0x40 MLOAD PUSH2 0x1E3B SWAP2 SWAP1 PUSH2 0x3596 JUMP JUMPDEST PUSH1 0x40 MLOAD DUP1 SWAP2 SUB SWAP1 LOG3 POP POP NUMBER PUSH1 0x5 SWAP1 SWAP4 ADD SWAP3 SWAP1 SWAP3 SSTORE POP POP PUSH1 0x1 DUP1 SSTORE POP POP POP POP JUMP JUMPDEST PUSH1 0xF SLOAD DUP2 JUMP JUMPDEST PUSH2 0x1E69 PUSH2 0x228D JUMP JUMPDEST PUSH1 0x1 PUSH1 0x1 PUSH1 0xA0 SHL SUB AND PUSH2 0x1E7A PUSH2 0x149E JUMP JUMPDEST PUSH1 0x1 PUSH1 0x1 PUSH1 0xA0 SHL SUB AND EQ PUSH2 0x1EA0 JUMPI PUSH1 0x40 MLOAD PUSH3 0x461BCD PUSH1 0xE5 SHL DUP2 MSTORE PUSH1 0x4 ADD PUSH2 0x544 SWAP1 PUSH2 0x3290 JUMP JUMPDEST PUSH1 0x1 PUSH1 0x1 PUSH1 0xA0 SHL SUB DUP2 AND PUSH2 0x1EC6 JUMPI PUSH1 0x40 MLOAD PUSH3 0x461BCD PUSH1 0xE5 SHL DUP2 MSTORE PUSH1 0x4 ADD PUSH2 0x544 SWAP1 PUSH2 0x309C JUMP JUMPDEST PUSH1 0x0 DUP1 SLOAD PUSH1 0x40 MLOAD PUSH1 0x1 PUSH1 0x1 PUSH1 0xA0 SHL SUB DUP1 DUP6 AND SWAP4 SWAP3 AND SWAP2 PUSH32 0x8BE0079C531659141344CD1FD0A4F28419497F9722A3DAAFE3B4186F6B6457E0 SWAP2 LOG3 PUSH1 0x0 DUP1 SLOAD PUSH1 0x1 PUSH1 0x1 PUSH1 0xA0 SHL SUB NOT AND PUSH1 0x1 PUSH1 0x1 PUSH1 0xA0 SHL SUB SWAP3 SWAP1 SWAP3 AND SWAP2 SWAP1 SWAP2 OR SWAP1 SSTORE JUMP JUMPDEST PUSH1 0xA SLOAD PUSH1 0x0 SWAP1 DUP4 SWAP1 DUP2 LT PUSH2 0x1F47 JUMPI PUSH1 0x40 MLOAD PUSH3 0x461BCD PUSH1 0xE5 SHL DUP2 MSTORE PUSH1 0x4 ADD PUSH2 0x544 SWAP1 PUSH2 0x3199 JUMP JUMPDEST PUSH1 0x0 DUP5 DUP2 MSTORE PUSH1 0xD PUSH1 0x20 SWAP1 DUP2 MSTORE PUSH1 0x40 DUP1 DUP4 KECCAK256 PUSH1 0x1 PUSH1 0x1 PUSH1 0xA0 SHL SUB DUP8 AND DUP5 MSTORE SWAP1 SWAP2 MSTORE SWAP1 KECCAK256 PUSH1 0x2 DUP2 ADD SLOAD ISZERO PUSH2 0x1F80 JUMPI PUSH1 0x2 ADD SLOAD TIMESTAMP SUB SWAP2 POP PUSH2 0x1F89 JUMP JUMPDEST PUSH1 0x3 ADD SLOAD TIMESTAMP SUB SWAP2 POP JUMPDEST POP SWAP3 SWAP2 POP POP JUMP JUMPDEST PUSH1 0x7 SLOAD DUP2 JUMP JUMPDEST PUSH1 0x0 DUP1 PUSH1 0x60 PUSH1 0x0 DUP6 PUSH1 0xA DUP1 SLOAD SWAP1 POP DUP2 LT PUSH2 0x1FC2 JUMPI PUSH1 0x40 MLOAD PUSH3 0x461BCD PUSH1 0xE5 SHL DUP2 MSTORE PUSH1 0x4 ADD PUSH2 0x544 SWAP1 PUSH2 0x3199 JUMP JUMPDEST PUSH1 0x0 PUSH1 0xA DUP9 DUP2 SLOAD DUP2 LT PUSH2 0x1FD1 JUMPI INVALID JUMPDEST PUSH1 0x0 SWAP2 DUP3 MSTORE PUSH1 0x20 DUP1 DUP4 KECCAK256 DUP12 DUP5 MSTORE PUSH1 0xD DUP3 MSTORE PUSH1 0x40 DUP1 DUP6 KECCAK256 PUSH1 0x1 PUSH1 0x1 PUSH1 0xA0 SHL SUB DUP1 DUP15 AND DUP8 MSTORE SWAP4 MSTORE DUP1 DUP6 KECCAK256 PUSH1 0x3 PUSH1 0x5 SWAP1 SWAP6 MUL SWAP1 SWAP3 ADD SWAP4 DUP5 ADD SLOAD DUP5 SLOAD SWAP2 MLOAD PUSH4 0x70A08231 PUSH1 0xE0 SHL DUP2 MSTORE SWAP5 SWAP7 POP SWAP2 SWAP5 SWAP2 SWAP4 SWAP2 SWAP3 AND SWAP1 PUSH4 0x70A08231 SWAP1 PUSH2 0x2034 SWAP1 ADDRESS SWAP1 PUSH1 0x4 ADD PUSH2 0x2F0B JUMP JUMPDEST PUSH1 0x20 PUSH1 0x40 MLOAD DUP1 DUP4 SUB DUP2 DUP7 DUP1 EXTCODESIZE ISZERO DUP1 ISZERO PUSH2 0x204C JUMPI PUSH1 0x0 DUP1 REVERT JUMPDEST POP GAS STATICCALL ISZERO DUP1 ISZERO PUSH2 0x2060 JUMPI RETURNDATASIZE PUSH1 0x0 DUP1 RETURNDATACOPY RETURNDATASIZE PUSH1 0x0 REVERT JUMPDEST POP POP POP POP PUSH1 0x40 MLOAD RETURNDATASIZE PUSH1 0x1F NOT PUSH1 0x1F DUP3 ADD AND DUP3 ADD DUP1 PUSH1 0x40 MSTORE POP DUP2 ADD SWAP1 PUSH2 0x2084 SWAP2 SWAP1 PUSH2 0x2D9B JUMP JUMPDEST SWAP1 POP DUP4 PUSH1 0x2 ADD SLOAD TIMESTAMP GT DUP1 ISZERO PUSH2 0x2098 JUMPI POP DUP1 ISZERO ISZERO JUMPDEST DUP1 ISZERO PUSH2 0x2127 JUMPI POP PUSH1 0x2 PUSH1 0x0 SWAP1 SLOAD SWAP1 PUSH2 0x100 EXP SWAP1 DIV PUSH1 0x1 PUSH1 0x1 PUSH1 0xA0 SHL SUB AND PUSH1 0x1 PUSH1 0x1 PUSH1 0xA0 SHL SUB AND PUSH4 0xC7FF1B60 PUSH1 0x40 MLOAD DUP2 PUSH4 0xFFFFFFFF AND PUSH1 0xE0 SHL DUP2 MSTORE PUSH1 0x4 ADD PUSH1 0x20 PUSH1 0x40 MLOAD DUP1 DUP4 SUB DUP2 DUP7 DUP1 EXTCODESIZE ISZERO DUP1 ISZERO PUSH2 0x20ED JUMPI PUSH1 0x0 DUP1 REVERT JUMPDEST POP GAS STATICCALL ISZERO DUP1 ISZERO PUSH2 0x2101 JUMPI RETURNDATASIZE PUSH1 0x0 DUP1 RETURNDATACOPY RETURNDATASIZE PUSH1 0x0 REVERT JUMPDEST POP POP POP POP PUSH1 0x40 MLOAD RETURNDATASIZE PUSH1 0x1F NOT PUSH1 0x1F DUP3 ADD AND DUP3 ADD DUP1 PUSH1 0x40 MSTORE POP DUP2 ADD SWAP1 PUSH2 0x2125 SWAP2 SWAP1 PUSH2 0x2CDB JUMP JUMPDEST ISZERO JUMPDEST ISZERO PUSH2 0x21AE JUMPI PUSH1 0x0 PUSH2 0x2145 DUP6 PUSH1 0x2 ADD SLOAD TIMESTAMP PUSH2 0x2306 SWAP1 SWAP2 SWAP1 PUSH4 0xFFFFFFFF AND JUMP JUMPDEST SWAP1 POP PUSH1 0x0 PUSH1 0x9 SLOAD PUSH1 0x8 SLOAD PUSH1 0x7 SLOAD PUSH2 0x3E8 SUB SUB SUB SWAP1 POP PUSH1 0x0 PUSH2 0x2189 PUSH2 0x3E8 PUSH2 0x745 DUP5 PUSH2 0xB11 PUSH1 0xE SLOAD PUSH2 0x745 DUP14 PUSH1 0x1 ADD SLOAD PUSH2 0xB11 PUSH1 0x6 SLOAD DUP13 PUSH2 0x2291 SWAP1 SWAP2 SWAP1 PUSH4 0xFFFFFFFF AND JUMP JUMPDEST SWAP1 POP PUSH2 0x21A8 PUSH2 0x21A1 DUP6 PUSH2 0x745 DUP5 PUSH5 0xE8D4A51000 PUSH2 0x2291 JUMP JUMPDEST DUP7 SWAP1 PUSH2 0x26DB JUMP JUMPDEST SWAP5 POP POP POP POP JUMPDEST PUSH2 0x21D6 DUP4 PUSH1 0x1 ADD SLOAD PUSH2 0x74B PUSH5 0xE8D4A51000 PUSH2 0x745 DUP7 DUP9 PUSH1 0x0 ADD SLOAD PUSH2 0x2291 SWAP1 SWAP2 SWAP1 PUSH4 0xFFFFFFFF AND JUMP JUMPDEST PUSH1 0x4 DUP6 ADD SLOAD SWAP1 SWAP10 POP PUSH1 0x1 PUSH1 0x1 PUSH1 0xA0 SHL SUB AND ISZERO PUSH2 0x227F JUMPI PUSH2 0x21F5 DUP12 PUSH2 0x1874 JUMP JUMPDEST PUSH1 0x4 DUP1 DUP8 ADD SLOAD PUSH1 0x40 MLOAD PUSH4 0xC031A66F PUSH1 0xE0 SHL DUP2 MSTORE SWAP4 SWAP12 POP SWAP2 SWAP10 POP PUSH1 0x1 PUSH1 0x1 PUSH1 0xA0 SHL SUB SWAP1 SWAP2 AND SWAP2 PUSH4 0xC031A66F SWAP2 PUSH2 0x222C SWAP2 DUP15 SWAP2 ADD PUSH2 0x2F0B JUMP JUMPDEST PUSH1 0x20 PUSH1 0x40 MLOAD DUP1 DUP4 SUB DUP2 DUP7 DUP1 EXTCODESIZE ISZERO DUP1 ISZERO PUSH2 0x2244 JUMPI PUSH1 0x0 DUP1 REVERT JUMPDEST POP GAS STATICCALL ISZERO DUP1 ISZERO PUSH2 0x2258 JUMPI RETURNDATASIZE PUSH1 0x0 DUP1 RETURNDATACOPY RETURNDATASIZE PUSH1 0x0 REVERT JUMPDEST POP POP POP POP PUSH1 0x40 MLOAD RETURNDATASIZE PUSH1 0x1F NOT PUSH1 0x1F DUP3 ADD AND DUP3 ADD DUP1 PUSH1 0x40 MSTORE POP DUP2 ADD SWAP1 PUSH2 0x227C SWAP2 SWAP1 PUSH2 0x2D9B JUMP JUMPDEST SWAP6 POP JUMPDEST POP POP POP POP POP SWAP3 SWAP6 SWAP2 SWAP5 POP SWAP3 POP JUMP JUMPDEST CALLER SWAP1 JUMP JUMPDEST PUSH1 0x0 DUP3 PUSH2 0x22A0 JUMPI POP PUSH1 0x0 PUSH2 0x22CE JUMP JUMPDEST DUP3 DUP3 MUL DUP3 DUP5 DUP3 DUP2 PUSH2 0x22AD JUMPI INVALID JUMPDEST DIV EQ PUSH2 0x22CB JUMPI PUSH1 0x40 MLOAD PUSH3 0x461BCD PUSH1 0xE5 SHL DUP2 MSTORE PUSH1 0x4 ADD PUSH2 0x544 SWAP1 PUSH2 0x3220 JUMP JUMPDEST SWAP1 POP JUMPDEST SWAP3 SWAP2 POP POP JUMP JUMPDEST PUSH1 0x0 DUP1 DUP3 GT PUSH2 0x22F5 JUMPI PUSH1 0x40 MLOAD PUSH3 0x461BCD PUSH1 0xE5 SHL DUP2 MSTORE PUSH1 0x4 ADD PUSH2 0x544 SWAP1 PUSH2 0x31C6 JUMP JUMPDEST DUP2 DUP4 DUP2 PUSH2 0x22FE JUMPI INVALID JUMPDEST DIV SWAP4 SWAP3 POP POP POP JUMP JUMPDEST PUSH1 0x0 DUP3 DUP3 GT ISZERO PUSH2 0x2328 JUMPI PUSH1 0x40 MLOAD PUSH3 0x461BCD PUSH1 0xE5 SHL DUP2 MSTORE PUSH1 0x4 ADD PUSH2 0x544 SWAP1 PUSH2 0x3162 JUMP JUMPDEST POP SWAP1 SUB SWAP1 JUMP JUMPDEST PUSH1 0x2 SLOAD PUSH1 0x40 MLOAD PUSH4 0x70A08231 PUSH1 0xE0 SHL DUP2 MSTORE PUSH1 0x0 SWAP2 PUSH1 0x1 PUSH1 0x1 PUSH1 0xA0 SHL SUB AND SWAP1 PUSH4 0x70A08231 SWAP1 PUSH2 0x235F SWAP1 ADDRESS SWAP1 PUSH1 0x4 ADD PUSH2 0x2F0B JUMP JUMPDEST PUSH1 0x20 PUSH1 0x40 MLOAD DUP1 DUP4 SUB DUP2 DUP7 DUP1 EXTCODESIZE ISZERO DUP1 ISZERO PUSH2 0x2377 JUMPI PUSH1 0x0 DUP1 REVERT JUMPDEST POP GAS STATICCALL ISZERO DUP1 ISZERO PUSH2 0x238B JUMPI RETURNDATASIZE PUSH1 0x0 DUP1 RETURNDATACOPY RETURNDATASIZE PUSH1 0x0 REVERT JUMPDEST POP POP POP POP PUSH1 0x40 MLOAD RETURNDATASIZE PUSH1 0x1F NOT PUSH1 0x1F DUP3 ADD AND DUP3 ADD DUP1 PUSH1 0x40 MSTORE POP DUP2 ADD SWAP1 PUSH2 0x23AF SWAP2 SWAP1 PUSH2 0x2D9B JUMP JUMPDEST SWAP1 POP DUP1 DUP3 GT ISZERO PUSH2 0x247E JUMPI PUSH32 0x438D1F7557BF87A3502B45F261A0BC7BA72CB24B387D7ED74C4456E9768EAC55 DUP4 DUP4 DUP4 PUSH1 0x40 MLOAD PUSH2 0x23EC SWAP4 SWAP3 SWAP2 SWAP1 PUSH2 0x2F80 JUMP JUMPDEST PUSH1 0x40 MLOAD DUP1 SWAP2 SUB SWAP1 LOG1 PUSH1 0x2 SLOAD PUSH1 0x40 MLOAD PUSH4 0xA9059CBB PUSH1 0xE0 SHL DUP2 MSTORE PUSH1 0x1 PUSH1 0x1 PUSH1 0xA0 SHL SUB SWAP1 SWAP2 AND SWAP1 PUSH4 0xA9059CBB SWAP1 PUSH2 0x2426 SWAP1 DUP7 SWAP1 DUP6 SWAP1 PUSH1 0x4 ADD PUSH2 0x2F1F JUMP JUMPDEST PUSH1 0x20 PUSH1 0x40 MLOAD DUP1 DUP4 SUB DUP2 PUSH1 0x0 DUP8 DUP1 EXTCODESIZE ISZERO DUP1 ISZERO PUSH2 0x2440 JUMPI PUSH1 0x0 DUP1 REVERT JUMPDEST POP GAS CALL ISZERO DUP1 ISZERO PUSH2 0x2454 JUMPI RETURNDATASIZE PUSH1 0x0 DUP1 RETURNDATACOPY RETURNDATASIZE PUSH1 0x0 REVERT JUMPDEST POP POP POP POP PUSH1 0x40 MLOAD RETURNDATASIZE PUSH1 0x1F NOT PUSH1 0x1F DUP3 ADD AND DUP3 ADD DUP1 PUSH1 0x40 MSTORE POP DUP2 ADD SWAP1 PUSH2 0x2478 SWAP2 SWAP1 PUSH2 0x2CDB JUMP JUMPDEST POP PUSH2 0x2504 JUMP JUMPDEST PUSH1 0x2 SLOAD PUSH1 0x40 MLOAD PUSH4 0xA9059CBB PUSH1 0xE0 SHL DUP2 MSTORE PUSH1 0x1 PUSH1 0x1 PUSH1 0xA0 SHL SUB SWAP1 SWAP2 AND SWAP1 PUSH4 0xA9059CBB SWAP1 PUSH2 0x24B0 SWAP1 DUP7 SWAP1 DUP7 SWAP1 PUSH1 0x4 ADD PUSH2 0x2F1F JUMP JUMPDEST PUSH1 0x20 PUSH1 0x40 MLOAD DUP1 DUP4 SUB DUP2 PUSH1 0x0 DUP8 DUP1 EXTCODESIZE ISZERO DUP1 ISZERO PUSH2 0x24CA JUMPI PUSH1 0x0 DUP1 REVERT JUMPDEST POP GAS CALL ISZERO DUP1 ISZERO PUSH2 0x24DE JUMPI RETURNDATASIZE PUSH1 0x0 DUP1 RETURNDATACOPY RETURNDATASIZE PUSH1 0x0 REVERT JUMPDEST POP POP POP POP PUSH1 0x40 MLOAD RETURNDATASIZE PUSH1 0x1F NOT PUSH1 0x1F DUP3 ADD AND DUP3 ADD DUP1 PUSH1 0x40 MSTORE POP DUP2 ADD SWAP1 PUSH2 0x2502 SWAP2 SWAP1 PUSH2 0x2CDB JUMP JUMPDEST POP JUMPDEST POP POP POP JUMP JUMPDEST DUP1 PUSH2 0x2513 JUMPI PUSH2 0xDA4 JUMP JUMPDEST PUSH1 0x0 PUSH1 0xA DUP4 DUP2 SLOAD DUP2 LT PUSH2 0x2522 JUMPI INVALID JUMPDEST PUSH1 0x0 SWAP2 DUP3 MSTORE PUSH1 0x20 DUP1 DUP4 KECCAK256 DUP7 DUP5 MSTORE PUSH1 0xD DUP3 MSTORE PUSH1 0x40 DUP1 DUP6 KECCAK256 CALLER DUP7 MSTORE SWAP1 SWAP3 MSTORE SWAP3 KECCAK256 PUSH1 0x2 DUP2 ADD SLOAD PUSH1 0x5 SWAP1 SWAP3 MUL SWAP1 SWAP3 ADD SWAP3 POP ISZERO PUSH2 0x2565 JUMPI PUSH1 0x2 DUP2 ADD SLOAD TIMESTAMP SUB PUSH1 0x4 DUP3 ADD SSTORE PUSH2 0x2572 JUMP JUMPDEST PUSH1 0x3 DUP2 ADD SLOAD TIMESTAMP SUB PUSH1 0x4 DUP3 ADD SSTORE JUMPDEST PUSH3 0x93A80 DUP2 PUSH1 0x4 ADD SLOAD GT PUSH2 0x261E JUMPI PUSH2 0x25C6 CALLER PUSH2 0x25B4 PUSH1 0x64 PUSH2 0x745 PUSH1 0x12 PUSH1 0x0 DUP2 SLOAD DUP2 LT PUSH2 0x259A JUMPI INVALID JUMPDEST SWAP1 PUSH1 0x0 MSTORE PUSH1 0x20 PUSH1 0x0 KECCAK256 ADD SLOAD DUP9 PUSH2 0x2291 SWAP1 SWAP2 SWAP1 PUSH4 0xFFFFFFFF AND JUMP JUMPDEST DUP5 SLOAD PUSH1 0x1 PUSH1 0x1 PUSH1 0xA0 SHL SUB AND SWAP2 SWAP1 PUSH2 0x2700 JUMP JUMPDEST PUSH2 0x2619 PUSH1 0x4 PUSH1 0x0 SWAP1 SLOAD SWAP1 PUSH2 0x100 EXP SWAP1 DIV PUSH1 0x1 PUSH1 0x1 PUSH1 0xA0 SHL SUB AND PUSH2 0x25B4 PUSH2 0x2612 PUSH1 0x64 PUSH2 0x745 PUSH1 0x12 PUSH1 0x0 DUP2 SLOAD DUP2 LT PUSH2 0x25F8 JUMPI INVALID JUMPDEST SWAP1 PUSH1 0x0 MSTORE PUSH1 0x20 PUSH1 0x0 KECCAK256 ADD SLOAD DUP10 PUSH2 0x2291 SWAP1 SWAP2 SWAP1 PUSH4 0xFFFFFFFF AND JUMP JUMPDEST DUP7 SWAP1 PUSH2 0x2306 JUMP JUMPDEST PUSH2 0x26CF JUMP JUMPDEST PUSH3 0x93A80 DUP2 PUSH1 0x4 ADD SLOAD LT ISZERO DUP1 ISZERO PUSH2 0x263C JUMPI POP PUSH3 0x127500 DUP2 PUSH1 0x4 ADD SLOAD GT ISZERO JUMPDEST ISZERO PUSH2 0x2688 JUMPI PUSH2 0x265C CALLER PUSH2 0x25B4 PUSH2 0x3E8 PUSH2 0x745 PUSH1 0x12 PUSH1 0x1 DUP2 SLOAD DUP2 LT PUSH2 0x259A JUMPI INVALID JUMPDEST PUSH1 0x4 SLOAD PUSH1 0x13 DUP1 SLOAD PUSH2 0x2619 SWAP3 PUSH1 0x1 PUSH1 0x1 PUSH1 0xA0 SHL SUB AND SWAP2 PUSH2 0x25B4 SWAP2 PUSH2 0x3E8 SWAP2 PUSH2 0x745 SWAP2 PUSH1 0x1 SWAP1 DUP2 LT PUSH2 0x259A JUMPI INVALID JUMPDEST PUSH2 0x26A3 CALLER PUSH2 0x25B4 PUSH2 0x2710 PUSH2 0x745 PUSH1 0x12 PUSH1 0x2 DUP2 SLOAD DUP2 LT PUSH2 0x259A JUMPI INVALID JUMPDEST PUSH1 0x4 SLOAD PUSH1 0x13 DUP1 SLOAD PUSH2 0x26CF SWAP3 PUSH1 0x1 PUSH1 0x1 PUSH1 0xA0 SHL SUB AND SWAP2 PUSH2 0x25B4 SWAP2 PUSH2 0x2710 SWAP2 PUSH2 0x745 SWAP2 PUSH1 0x2 SWAP1 DUP2 LT PUSH2 0x259A JUMPI INVALID JUMPDEST TIMESTAMP PUSH1 0x2 SWAP1 SWAP2 ADD SSTORE POP POP POP JUMP JUMPDEST PUSH1 0x0 DUP3 DUP3 ADD DUP4 DUP2 LT ISZERO PUSH2 0x22CB JUMPI PUSH1 0x40 MLOAD PUSH3 0x461BCD PUSH1 0xE5 SHL DUP2 MSTORE PUSH1 0x4 ADD PUSH2 0x544 SWAP1 PUSH2 0x30E2 JUMP JUMPDEST PUSH1 0x0 PUSH1 0x60 DUP5 PUSH1 0x1 PUSH1 0x1 PUSH1 0xA0 SHL SUB AND PUSH4 0xA9059CBB PUSH1 0xE0 SHL DUP6 DUP6 PUSH1 0x40 MLOAD PUSH1 0x24 ADD PUSH2 0x2729 SWAP3 SWAP2 SWAP1 PUSH2 0x2F1F JUMP JUMPDEST PUSH1 0x40 DUP1 MLOAD PUSH1 0x1F NOT DUP2 DUP5 SUB ADD DUP2 MSTORE SWAP2 DUP2 MSTORE PUSH1 0x20 DUP3 ADD DUP1 MLOAD PUSH1 0x1 PUSH1 0x1 PUSH1 0xE0 SHL SUB AND PUSH1 0x1 PUSH1 0x1 PUSH1 0xE0 SHL SUB NOT SWAP1 SWAP5 AND SWAP4 SWAP1 SWAP4 OR SWAP1 SWAP3 MSTORE SWAP1 MLOAD PUSH2 0x2767 SWAP2 SWAP1 PUSH2 0x2EEF JUMP JUMPDEST PUSH1 0x0 PUSH1 0x40 MLOAD DUP1 DUP4 SUB DUP2 PUSH1 0x0 DUP7 GAS CALL SWAP2 POP POP RETURNDATASIZE DUP1 PUSH1 0x0 DUP2 EQ PUSH2 0x27A4 JUMPI PUSH1 0x40 MLOAD SWAP2 POP PUSH1 0x1F NOT PUSH1 0x3F RETURNDATASIZE ADD AND DUP3 ADD PUSH1 0x40 MSTORE RETURNDATASIZE DUP3 MSTORE RETURNDATASIZE PUSH1 0x0 PUSH1 0x20 DUP5 ADD RETURNDATACOPY PUSH2 0x27A9 JUMP JUMPDEST PUSH1 0x60 SWAP2 POP JUMPDEST POP SWAP2 POP SWAP2 POP DUP2 DUP1 ISZERO PUSH2 0x27D3 JUMPI POP DUP1 MLOAD ISZERO DUP1 PUSH2 0x27D3 JUMPI POP DUP1 DUP1 PUSH1 0x20 ADD SWAP1 MLOAD DUP2 ADD SWAP1 PUSH2 0x27D3 SWAP2 SWAP1 PUSH2 0x2CDB JUMP JUMPDEST PUSH2 0x27EF JUMPI PUSH1 0x40 MLOAD PUSH3 0x461BCD PUSH1 0xE5 SHL DUP2 MSTORE PUSH1 0x4 ADD PUSH2 0x544 SWAP1 PUSH2 0x301B JUMP JUMPDEST POP POP POP POP POP JUMP JUMPDEST DUP1 EXTCODESIZE ISZERO ISZERO JUMPDEST SWAP2 SWAP1 POP JUMP JUMPDEST PUSH1 0x0 PUSH2 0x22CB DUP4 PUSH1 0x1 PUSH1 0x1 PUSH1 0xA0 SHL SUB DUP5 AND PUSH2 0x29E6 JUMP JUMPDEST PUSH1 0x0 PUSH2 0x22CB DUP4 PUSH1 0x1 PUSH1 0x1 PUSH1 0xA0 SHL SUB DUP5 AND PUSH2 0x29FE JUMP JUMPDEST PUSH1 0x40 DUP1 MLOAD PUSH1 0x4 DUP2 MSTORE PUSH1 0x24 DUP2 ADD DUP3 MSTORE PUSH1 0x20 DUP2 ADD DUP1 MLOAD PUSH1 0x1 PUSH1 0x1 PUSH1 0xE0 SHL SUB AND PUSH4 0x95D89B41 PUSH1 0xE0 SHL OR SWAP1 MSTORE SWAP1 MLOAD PUSH1 0x60 SWAP2 PUSH1 0x0 SWAP2 DUP4 SWAP2 PUSH1 0x1 PUSH1 0x1 PUSH1 0xA0 SHL SUB DUP7 AND SWAP2 PUSH2 0x2871 SWAP2 SWAP1 PUSH2 0x2EEF JUMP JUMPDEST PUSH1 0x0 PUSH1 0x40 MLOAD DUP1 DUP4 SUB DUP2 DUP6 GAS STATICCALL SWAP2 POP POP RETURNDATASIZE DUP1 PUSH1 0x0 DUP2 EQ PUSH2 0x28AC JUMPI PUSH1 0x40 MLOAD SWAP2 POP PUSH1 0x1F NOT PUSH1 0x3F RETURNDATASIZE ADD AND DUP3 ADD PUSH1 0x40 MSTORE RETURNDATASIZE DUP3 MSTORE RETURNDATASIZE PUSH1 0x0 PUSH1 0x20 DUP5 ADD RETURNDATACOPY PUSH2 0x28B1 JUMP JUMPDEST PUSH1 0x60 SWAP2 POP JUMPDEST POP SWAP2 POP SWAP2 POP DUP2 PUSH2 0x28DC JUMPI PUSH1 0x40 MLOAD DUP1 PUSH1 0x40 ADD PUSH1 0x40 MSTORE DUP1 PUSH1 0x3 DUP2 MSTORE PUSH1 0x20 ADD PUSH3 0x3F3F3F PUSH1 0xE8 SHL DUP2 MSTORE POP PUSH2 0x28E5 JUMP JUMPDEST PUSH2 0x28E5 DUP2 PUSH2 0x2A48 JUMP JUMPDEST SWAP5 SWAP4 POP POP POP POP JUMP JUMPDEST PUSH1 0x0 PUSH1 0x60 DUP6 PUSH1 0x1 PUSH1 0x1 PUSH1 0xA0 SHL SUB AND PUSH4 0x23B872DD PUSH1 0xE0 SHL DUP7 DUP7 DUP7 PUSH1 0x40 MLOAD PUSH1 0x24 ADD PUSH2 0x2918 SWAP4 SWAP3 SWAP2 SWAP1 PUSH2 0x2F38 JUMP JUMPDEST PUSH1 0x40 DUP1 MLOAD PUSH1 0x1F NOT DUP2 DUP5 SUB ADD DUP2 MSTORE SWAP2 DUP2 MSTORE PUSH1 0x20 DUP3 ADD DUP1 MLOAD PUSH1 0x1 PUSH1 0x1 PUSH1 0xE0 SHL SUB AND PUSH1 0x1 PUSH1 0x1 PUSH1 0xE0 SHL SUB NOT SWAP1 SWAP5 AND SWAP4 SWAP1 SWAP4 OR SWAP1 SWAP3 MSTORE SWAP1 MLOAD PUSH2 0x2956 SWAP2 SWAP1 PUSH2 0x2EEF JUMP JUMPDEST PUSH1 0x0 PUSH1 0x40 MLOAD DUP1 DUP4 SUB DUP2 PUSH1 0x0 DUP7 GAS CALL SWAP2 POP POP RETURNDATASIZE DUP1 PUSH1 0x0 DUP2 EQ PUSH2 0x2993 JUMPI PUSH1 0x40 MLOAD SWAP2 POP PUSH1 0x1F NOT PUSH1 0x3F RETURNDATASIZE ADD AND DUP3 ADD PUSH1 0x40 MSTORE RETURNDATASIZE DUP3 MSTORE RETURNDATASIZE PUSH1 0x0 PUSH1 0x20 DUP5 ADD RETURNDATACOPY PUSH2 0x2998 JUMP JUMPDEST PUSH1 0x60 SWAP2 POP JUMPDEST POP SWAP2 POP SWAP2 POP DUP2 DUP1 ISZERO PUSH2 0x29C2 JUMPI POP DUP1 MLOAD ISZERO DUP1 PUSH2 0x29C2 JUMPI POP DUP1 DUP1 PUSH1 0x20 ADD SWAP1 MLOAD DUP2 ADD SWAP1 PUSH2 0x29C2 SWAP2 SWAP1 PUSH2 0x2CDB JUMP JUMPDEST PUSH2 0x29DE JUMPI PUSH1 0x40 MLOAD PUSH3 0x461BCD PUSH1 0xE5 SHL DUP2 MSTORE PUSH1 0x4 ADD PUSH2 0x544 SWAP1 PUSH2 0x34E6 JUMP JUMPDEST POP POP POP POP POP POP JUMP JUMPDEST PUSH1 0x0 SWAP1 DUP2 MSTORE PUSH1 0x1 SWAP2 SWAP1 SWAP2 ADD PUSH1 0x20 MSTORE PUSH1 0x40 SWAP1 KECCAK256 SLOAD ISZERO ISZERO SWAP1 JUMP JUMPDEST PUSH1 0x0 PUSH2 0x2A0A DUP4 DUP4 PUSH2 0x29E6 JUMP JUMPDEST PUSH2 0x2A40 JUMPI POP DUP2 SLOAD PUSH1 0x1 DUP2 DUP2 ADD DUP5 SSTORE PUSH1 0x0 DUP5 DUP2 MSTORE PUSH1 0x20 DUP1 DUP3 KECCAK256 SWAP1 SWAP4 ADD DUP5 SWAP1 SSTORE DUP5 SLOAD DUP5 DUP3 MSTORE DUP3 DUP7 ADD SWAP1 SWAP4 MSTORE PUSH1 0x40 SWAP1 KECCAK256 SWAP2 SWAP1 SWAP2 SSTORE PUSH2 0x22CE JUMP JUMPDEST POP PUSH1 0x0 PUSH2 0x22CE JUMP JUMPDEST PUSH1 0x60 PUSH1 0x40 DUP3 MLOAD LT PUSH2 0x2A6E JUMPI DUP2 DUP1 PUSH1 0x20 ADD SWAP1 MLOAD DUP2 ADD SWAP1 PUSH2 0x2A67 SWAP2 SWAP1 PUSH2 0x2CF7 JUMP JUMPDEST SWAP1 POP PUSH2 0x27FB JUMP JUMPDEST DUP2 MLOAD PUSH1 0x20 EQ ISZERO PUSH2 0x2B8E JUMPI PUSH1 0x0 JUMPDEST PUSH1 0x20 DUP2 PUSH1 0xFF AND LT DUP1 ISZERO PUSH2 0x2AAA JUMPI POP DUP3 DUP2 PUSH1 0xFF AND DUP2 MLOAD DUP2 LT PUSH2 0x2A98 JUMPI INVALID JUMPDEST ADD PUSH1 0x20 ADD MLOAD PUSH1 0x1 PUSH1 0x1 PUSH1 0xF8 SHL SUB NOT AND ISZERO ISZERO JUMPDEST ISZERO PUSH2 0x2AB7 JUMPI PUSH1 0x1 ADD PUSH2 0x2A7B JUMP JUMPDEST PUSH1 0x60 DUP2 PUSH1 0xFF AND PUSH8 0xFFFFFFFFFFFFFFFF DUP2 GT DUP1 ISZERO PUSH2 0x2AD3 JUMPI PUSH1 0x0 DUP1 REVERT JUMPDEST POP PUSH1 0x40 MLOAD SWAP1 DUP1 DUP3 MSTORE DUP1 PUSH1 0x1F ADD PUSH1 0x1F NOT AND PUSH1 0x20 ADD DUP3 ADD PUSH1 0x40 MSTORE DUP1 ISZERO PUSH2 0x2AFE JUMPI PUSH1 0x20 DUP3 ADD DUP2 DUP1 CALLDATASIZE DUP4 CALLDATACOPY ADD SWAP1 POP JUMPDEST POP SWAP1 POP PUSH1 0x0 SWAP2 POP JUMPDEST PUSH1 0x20 DUP3 PUSH1 0xFF AND LT DUP1 ISZERO PUSH2 0x2B35 JUMPI POP DUP4 DUP3 PUSH1 0xFF AND DUP2 MLOAD DUP2 LT PUSH2 0x2B23 JUMPI INVALID JUMPDEST ADD PUSH1 0x20 ADD MLOAD PUSH1 0x1 PUSH1 0x1 PUSH1 0xF8 SHL SUB NOT AND ISZERO ISZERO JUMPDEST ISZERO PUSH2 0x2B85 JUMPI DUP4 DUP3 PUSH1 0xFF AND DUP2 MLOAD DUP2 LT PUSH2 0x2B49 JUMPI INVALID JUMPDEST PUSH1 0x20 ADD ADD MLOAD PUSH1 0xF8 SHR PUSH1 0xF8 SHL DUP2 DUP4 PUSH1 0xFF AND DUP2 MLOAD DUP2 LT PUSH2 0x2B63 JUMPI INVALID JUMPDEST PUSH1 0x20 ADD ADD SWAP1 PUSH1 0x1 PUSH1 0x1 PUSH1 0xF8 SHL SUB NOT AND SWAP1 DUP2 PUSH1 0x0 BYTE SWAP1 MSTORE8 POP PUSH1 0x1 SWAP1 SWAP2 ADD SWAP1 PUSH2 0x2B06 JUMP JUMPDEST SWAP2 POP PUSH2 0x27FB SWAP1 POP JUMP JUMPDEST POP PUSH1 0x40 DUP1 MLOAD DUP1 DUP3 ADD SWAP1 SWAP2 MSTORE PUSH1 0x3 DUP2 MSTORE PUSH3 0x3F3F3F PUSH1 0xE8 SHL PUSH1 0x20 DUP3 ADD MSTORE PUSH2 0x27FB JUMP JUMPDEST DUP3 DUP1 SLOAD DUP3 DUP3 SSTORE SWAP1 PUSH1 0x0 MSTORE PUSH1 0x20 PUSH1 0x0 KECCAK256 SWAP1 DUP2 ADD SWAP3 DUP3 ISZERO PUSH2 0x2BE9 JUMPI SWAP2 PUSH1 0x20 MUL DUP3 ADD JUMPDEST DUP3 DUP2 GT ISZERO PUSH2 0x2BE9 JUMPI DUP3 MLOAD DUP3 SSTORE SWAP2 PUSH1 0x20 ADD SWAP2 SWAP1 PUSH1 0x1 ADD SWAP1 PUSH2 0x2BCE JUMP JUMPDEST POP PUSH2 0x2BF5 SWAP3 SWAP2 POP PUSH2 0x2BF9 JUMP JUMPDEST POP SWAP1 JUMP JUMPDEST JUMPDEST DUP1 DUP3 GT ISZERO PUSH2 0x2BF5 JUMPI PUSH1 0x0 DUP2 SSTORE PUSH1 0x1 ADD PUSH2 0x2BFA JUMP JUMPDEST PUSH1 0x0 PUSH1 0x20 DUP3 DUP5 SUB SLT ISZERO PUSH2 0x2C1F JUMPI DUP1 DUP2 REVERT JUMPDEST DUP2 CALLDATALOAD PUSH2 0x22CB DUP2 PUSH2 0x369B JUMP JUMPDEST PUSH1 0x0 PUSH1 0x20 DUP3 DUP5 SUB SLT ISZERO PUSH2 0x2C3B JUMPI DUP1 DUP2 REVERT JUMPDEST DUP2 MLOAD PUSH2 0x22CB DUP2 PUSH2 0x369B JUMP JUMPDEST PUSH1 0x0 PUSH1 0x20 DUP1 DUP4 DUP6 SUB SLT ISZERO PUSH2 0x2C58 JUMPI DUP2 DUP3 REVERT JUMPDEST DUP3 CALLDATALOAD PUSH8 0xFFFFFFFFFFFFFFFF DUP2 GT ISZERO PUSH2 0x2C6E JUMPI DUP3 DUP4 REVERT JUMPDEST DUP4 ADD PUSH1 0x1F DUP2 ADD DUP6 SGT PUSH2 0x2C7E JUMPI DUP3 DUP4 REVERT JUMPDEST DUP1 CALLDATALOAD PUSH2 0x2C91 PUSH2 0x2C8C DUP3 PUSH2 0x364F JUMP JUMPDEST PUSH2 0x3628 JUMP JUMPDEST DUP2 DUP2 MSTORE DUP4 DUP2 ADD SWAP1 DUP4 DUP6 ADD DUP6 DUP5 MUL DUP6 ADD DUP7 ADD DUP10 LT ISZERO PUSH2 0x2CAD JUMPI DUP7 DUP8 REVERT JUMPDEST DUP7 SWAP5 POP JUMPDEST DUP4 DUP6 LT ISZERO PUSH2 0x2CCF JUMPI DUP1 CALLDATALOAD DUP4 MSTORE PUSH1 0x1 SWAP5 SWAP1 SWAP5 ADD SWAP4 SWAP2 DUP6 ADD SWAP2 DUP6 ADD PUSH2 0x2CB1 JUMP JUMPDEST POP SWAP8 SWAP7 POP POP POP POP POP POP POP JUMP JUMPDEST PUSH1 0x0 PUSH1 0x20 DUP3 DUP5 SUB SLT ISZERO PUSH2 0x2CEC JUMPI DUP1 DUP2 REVERT JUMPDEST DUP2 MLOAD PUSH2 0x22CB DUP2 PUSH2 0x36B3 JUMP JUMPDEST PUSH1 0x0 PUSH1 0x20 DUP3 DUP5 SUB SLT ISZERO PUSH2 0x2D08 JUMPI DUP1 DUP2 REVERT JUMPDEST DUP2 MLOAD PUSH8 0xFFFFFFFFFFFFFFFF DUP1 DUP3 GT ISZERO PUSH2 0x2D1F JUMPI DUP3 DUP4 REVERT JUMPDEST DUP2 DUP5 ADD SWAP2 POP DUP5 PUSH1 0x1F DUP4 ADD SLT PUSH2 0x2D32 JUMPI DUP3 DUP4 REVERT JUMPDEST DUP2 MLOAD DUP2 DUP2 GT ISZERO PUSH2 0x2D40 JUMPI DUP4 DUP5 REVERT JUMPDEST PUSH2 0x2D53 PUSH1 0x1F DUP3 ADD PUSH1 0x1F NOT AND PUSH1 0x20 ADD PUSH2 0x3628 JUMP JUMPDEST SWAP2 POP DUP1 DUP3 MSTORE DUP6 PUSH1 0x20 DUP3 DUP6 ADD ADD GT ISZERO PUSH2 0x2D69 JUMPI DUP4 DUP5 REVERT JUMPDEST PUSH2 0x2D7A DUP2 PUSH1 0x20 DUP5 ADD PUSH1 0x20 DUP7 ADD PUSH2 0x366F JUMP JUMPDEST POP SWAP5 SWAP4 POP POP POP POP JUMP JUMPDEST PUSH1 0x0 PUSH1 0x20 DUP3 DUP5 SUB SLT ISZERO PUSH2 0x2D94 JUMPI DUP1 DUP2 REVERT JUMPDEST POP CALLDATALOAD SWAP2 SWAP1 POP JUMP JUMPDEST PUSH1 0x0 PUSH1 0x20 DUP3 DUP5 SUB SLT ISZERO PUSH2 0x2DAC JUMPI DUP1 DUP2 REVERT JUMPDEST POP MLOAD SWAP2 SWAP1 POP JUMP JUMPDEST PUSH1 0x0 DUP1 PUSH1 0x40 DUP4 DUP6 SUB SLT ISZERO PUSH2 0x2DC5 JUMPI DUP1 DUP2 REVERT JUMPDEST DUP3 CALLDATALOAD SWAP2 POP PUSH1 0x20 DUP4 ADD CALLDATALOAD PUSH2 0x2DD7 DUP2 PUSH2 0x369B JUMP JUMPDEST DUP1 SWAP2 POP POP SWAP3 POP SWAP3 SWAP1 POP JUMP JUMPDEST PUSH1 0x0 DUP1 PUSH1 0x0 PUSH1 0x60 DUP5 DUP7 SUB SLT ISZERO PUSH2 0x2DF6 JUMPI DUP1 DUP2 REVERT JUMPDEST DUP4 CALLDATALOAD SWAP3 POP PUSH1 0x20 DUP5 ADD CALLDATALOAD PUSH2 0x2E08 DUP2 PUSH2 0x369B JUMP JUMPDEST SWAP2 POP PUSH1 0x40 DUP5 ADD CALLDATALOAD PUSH2 0x2E18 DUP2 PUSH2 0x369B JUMP JUMPDEST DUP1 SWAP2 POP POP SWAP3 POP SWAP3 POP SWAP3 JUMP JUMPDEST PUSH1 0x0 DUP1 PUSH1 0x40 DUP4 DUP6 SUB SLT ISZERO PUSH2 0x2E35 JUMPI DUP2 DUP3 REVERT JUMPDEST POP POP DUP1 CALLDATALOAD SWAP3 PUSH1 0x20 SWAP1 SWAP2 ADD CALLDATALOAD SWAP2 POP JUMP JUMPDEST PUSH1 0x0 DUP1 PUSH1 0x0 DUP1 PUSH1 0x80 DUP6 DUP8 SUB SLT ISZERO PUSH2 0x2E59 JUMPI DUP1 DUP2 REVERT JUMPDEST DUP5 CALLDATALOAD SWAP4 POP PUSH1 0x20 DUP6 ADD CALLDATALOAD SWAP3 POP PUSH1 0x40 DUP6 ADD CALLDATALOAD PUSH2 0x2E72 DUP2 PUSH2 0x369B JUMP JUMPDEST SWAP2 POP PUSH1 0x60 DUP6 ADD CALLDATALOAD PUSH2 0x2E82 DUP2 PUSH2 0x36B3 JUMP JUMPDEST SWAP4 SWAP7 SWAP3 SWAP6 POP SWAP1 SWAP4 POP POP JUMP JUMPDEST PUSH1 0x0 DUP2 MLOAD DUP1 DUP5 MSTORE PUSH2 0x2EA5 DUP2 PUSH1 0x20 DUP7 ADD PUSH1 0x20 DUP7 ADD PUSH2 0x366F JUMP JUMPDEST PUSH1 0x1F ADD PUSH1 0x1F NOT AND SWAP3 SWAP1 SWAP3 ADD PUSH1 0x20 ADD SWAP3 SWAP2 POP POP JUMP JUMPDEST DUP2 MLOAD PUSH1 0x0 SWAP1 DUP3 SWAP1 PUSH1 0x20 DUP1 DUP7 ADD DUP5 JUMPDEST DUP4 DUP2 LT ISZERO PUSH2 0x2EE3 JUMPI DUP2 MLOAD DUP6 MSTORE SWAP4 DUP3 ADD SWAP4 SWAP1 DUP3 ADD SWAP1 PUSH1 0x1 ADD PUSH2 0x2EC7 JUMP JUMPDEST POP SWAP3 SWAP7 SWAP6 POP POP POP POP POP POP JUMP JUMPDEST PUSH1 0x0 DUP3 MLOAD PUSH2 0x2F01 DUP2 DUP5 PUSH1 0x20 DUP8 ADD PUSH2 0x366F JUMP JUMPDEST SWAP2 SWAP1 SWAP2 ADD SWAP3 SWAP2 POP POP JUMP JUMPDEST PUSH1 0x1 PUSH1 0x1 PUSH1 0xA0 SHL SUB SWAP2 SWAP1 SWAP2 AND DUP2 MSTORE PUSH1 0x20 ADD SWAP1 JUMP JUMPDEST PUSH1 0x1 PUSH1 0x1 PUSH1 0xA0 SHL SUB SWAP3 SWAP1 SWAP3 AND DUP3 MSTORE PUSH1 0x20 DUP3 ADD MSTORE PUSH1 0x40 ADD SWAP1 JUMP JUMPDEST PUSH1 0x1 PUSH1 0x1 PUSH1 0xA0 SHL SUB SWAP4 DUP5 AND DUP2 MSTORE SWAP2 SWAP1 SWAP3 AND PUSH1 0x20 DUP3 ADD MSTORE PUSH1 0x40 DUP2 ADD SWAP2 SWAP1 SWAP2 MSTORE PUSH1 0x60 ADD SWAP1 JUMP JUMPDEST PUSH1 0x1 PUSH1 0x1 PUSH1 0xA0 SHL SUB DUP4 AND DUP2 MSTORE PUSH1 0x40 PUSH1 0x20 DUP3 ADD DUP2 SWAP1 MSTORE PUSH1 0x0 SWAP1 PUSH2 0x28E5 SWAP1 DUP4 ADD DUP5 PUSH2 0x2E8D JUMP JUMPDEST PUSH1 0x1 PUSH1 0x1 PUSH1 0xA0 SHL SUB SWAP4 SWAP1 SWAP4 AND DUP4 MSTORE PUSH1 0x20 DUP4 ADD SWAP2 SWAP1 SWAP2 MSTORE PUSH1 0x40 DUP3 ADD MSTORE PUSH1 0x60 ADD SWAP1 JUMP JUMPDEST PUSH1 0x1 PUSH1 0x1 PUSH1 0xA0 SHL SUB SWAP6 DUP7 AND DUP2 MSTORE PUSH1 0x20 DUP2 ADD SWAP5 SWAP1 SWAP5 MSTORE PUSH1 0x40 DUP5 ADD SWAP3 SWAP1 SWAP3 MSTORE PUSH1 0x60 DUP4 ADD MSTORE SWAP1 SWAP2 AND PUSH1 0x80 DUP3 ADD MSTORE PUSH1 0xA0 ADD SWAP1 JUMP JUMPDEST PUSH1 0x20 DUP1 DUP3 MSTORE PUSH1 0x2A SWAP1 DUP3 ADD MSTORE PUSH32 0x736574547265617375727950657263656E743A20746F74616C2070657263656E PUSH1 0x40 DUP3 ADD MSTORE PUSH10 0xE840DEECCAE440DAC2F PUSH1 0xB3 SHL PUSH1 0x60 DUP3 ADD MSTORE PUSH1 0x80 ADD SWAP1 JUMP JUMPDEST PUSH1 0x20 DUP1 DUP3 MSTORE PUSH1 0x1C SWAP1 DUP3 ADD MSTORE PUSH32 0x426F72696E6745524332303A205472616E73666572206661696C656400000000 PUSH1 0x40 DUP3 ADD MSTORE PUSH1 0x60 ADD SWAP1 JUMP JUMPDEST PUSH1 0x20 DUP1 DUP3 MSTORE PUSH1 0x2A SWAP1 DUP3 ADD MSTORE PUSH32 0x736574496E766573746F7250657263656E743A20746F74616C2070657263656E PUSH1 0x40 DUP3 ADD MSTORE PUSH10 0xE840DEECCAE440DAC2F PUSH1 0xB3 SHL PUSH1 0x60 DUP3 ADD MSTORE PUSH1 0x80 ADD SWAP1 JUMP JUMPDEST PUSH1 0x20 DUP1 DUP3 MSTORE PUSH1 0x26 SWAP1 DUP3 ADD MSTORE PUSH32 0x4F776E61626C653A206E6577206F776E657220697320746865207A65726F2061 PUSH1 0x40 DUP3 ADD MSTORE PUSH6 0x646472657373 PUSH1 0xD0 SHL PUSH1 0x60 DUP3 ADD MSTORE PUSH1 0x80 ADD SWAP1 JUMP JUMPDEST PUSH1 0x20 DUP1 DUP3 MSTORE PUSH1 0x1B SWAP1 DUP3 ADD MSTORE PUSH32 0x536166654D6174683A206164646974696F6E206F766572666C6F770000000000 PUSH1 0x40 DUP3 ADD MSTORE PUSH1 0x60 ADD SWAP1 JUMP JUMPDEST PUSH1 0x20 DUP1 DUP3 MSTORE PUSH1 0x29 SWAP1 DUP3 ADD MSTORE PUSH32 0x736574547265617375727950657263656E743A20696E76616C69642070657263 PUSH1 0x40 DUP3 ADD MSTORE PUSH9 0x656E742076616C7565 PUSH1 0xB8 SHL PUSH1 0x60 DUP3 ADD MSTORE PUSH1 0x80 ADD SWAP1 JUMP JUMPDEST PUSH1 0x20 DUP1 DUP3 MSTORE PUSH1 0x1E SWAP1 DUP3 ADD MSTORE PUSH32 0x536166654D6174683A207375627472616374696F6E206F766572666C6F770000 PUSH1 0x40 DUP3 ADD MSTORE PUSH1 0x60 ADD SWAP1 JUMP JUMPDEST PUSH1 0x20 DUP1 DUP3 MSTORE PUSH1 0x13 SWAP1 DUP3 ADD MSTORE PUSH19 0x141BDBDB08191BD95CC81B9BDD08195E1A5CDD PUSH1 0x6A SHL PUSH1 0x40 DUP3 ADD MSTORE PUSH1 0x60 ADD SWAP1 JUMP JUMPDEST PUSH1 0x20 DUP1 DUP3 MSTORE PUSH1 0x1A SWAP1 DUP3 ADD MSTORE PUSH32 0x536166654D6174683A206469766973696F6E206279207A65726F000000000000 PUSH1 0x40 DUP3 ADD MSTORE PUSH1 0x60 ADD SWAP1 JUMP JUMPDEST PUSH1 0x20 DUP1 DUP3 MSTORE PUSH1 0x9 SWAP1 DUP3 ADD MSTORE PUSH9 0x6465763A207775743F PUSH1 0xB8 SHL PUSH1 0x40 DUP3 ADD MSTORE PUSH1 0x60 ADD SWAP1 JUMP JUMPDEST PUSH1 0x20 DUP1 DUP3 MSTORE PUSH1 0x21 SWAP1 DUP3 ADD MSTORE PUSH32 0x536166654D6174683A206D756C7469706C69636174696F6E206F766572666C6F PUSH1 0x40 DUP3 ADD MSTORE PUSH1 0x77 PUSH1 0xF8 SHL PUSH1 0x60 DUP3 ADD MSTORE PUSH1 0x80 ADD SWAP1 JUMP JUMPDEST PUSH1 0x20 DUP1 DUP3 MSTORE PUSH1 0x15 SWAP1 DUP3 ADD MSTORE PUSH21 0x1859190E88131408185B1C9958591E481859191959 PUSH1 0x5A SHL PUSH1 0x40 DUP3 ADD MSTORE PUSH1 0x60 ADD SWAP1 JUMP JUMPDEST PUSH1 0x20 DUP1 DUP3 MSTORE DUP2 DUP2 ADD MSTORE PUSH32 0x4F776E61626C653A2063616C6C6572206973206E6F7420746865206F776E6572 PUSH1 0x40 DUP3 ADD MSTORE PUSH1 0x60 ADD SWAP1 JUMP JUMPDEST PUSH1 0x20 DUP1 DUP3 MSTORE PUSH1 0x15 SWAP1 DUP3 ADD MSTORE PUSH21 0x7365745472656173757279416464723A207775743F PUSH1 0x58 SHL PUSH1 0x40 DUP3 ADD MSTORE PUSH1 0x60 ADD SWAP1 JUMP JUMPDEST PUSH1 0x20 DUP1 DUP3 MSTORE PUSH1 0x25 SWAP1 DUP3 ADD MSTORE PUSH32 0x73657444657650657263656E743A20746F74616C2070657263656E74206F7665 PUSH1 0x40 DUP3 ADD MSTORE PUSH5 0xE440DAC2F PUSH1 0xDB SHL PUSH1 0x60 DUP3 ADD MSTORE PUSH1 0x80 ADD SWAP1 JUMP JUMPDEST PUSH1 0x20 DUP1 DUP3 MSTORE PUSH1 0x29 SWAP1 DUP3 ADD MSTORE PUSH32 0x736574496E766573746F7250657263656E743A20696E76616C69642070657263 PUSH1 0x40 DUP3 ADD MSTORE PUSH9 0x656E742076616C7565 PUSH1 0xB8 SHL PUSH1 0x60 DUP3 ADD MSTORE PUSH1 0x80 ADD SWAP1 JUMP JUMPDEST PUSH1 0x20 DUP1 DUP3 MSTORE PUSH1 0x26 SWAP1 DUP3 ADD MSTORE PUSH32 0x6164643A204C5020746F6B656E206D75737420626520612076616C696420636F PUSH1 0x40 DUP3 ADD MSTORE PUSH6 0x1B9D1C9858DD PUSH1 0xD2 SHL PUSH1 0x60 DUP3 ADD MSTORE PUSH1 0x80 ADD SWAP1 JUMP JUMPDEST PUSH1 0x20 DUP1 DUP3 MSTORE PUSH1 0x15 SWAP1 DUP3 ADD MSTORE PUSH21 0x736574496E766573746F72416464723A207775743F PUSH1 0x58 SHL PUSH1 0x40 DUP3 ADD MSTORE PUSH1 0x60 ADD SWAP1 JUMP JUMPDEST PUSH1 0x20 DUP1 DUP3 MSTORE PUSH1 0x1A SWAP1 DUP3 ADD MSTORE PUSH32 0x696E76616C696420616D6F756E74207472616E73666572726564000000000000 PUSH1 0x40 DUP3 ADD MSTORE PUSH1 0x60 ADD SWAP1 JUMP JUMPDEST PUSH1 0x20 DUP1 DUP3 MSTORE PUSH1 0x12 SWAP1 DUP3 ADD MSTORE PUSH18 0x1DDA5D1A191C985DCE881B9BDD0819DBDBD9 PUSH1 0x72 SHL PUSH1 0x40 DUP3 ADD MSTORE PUSH1 0x60 ADD SWAP1 JUMP JUMPDEST PUSH1 0x20 DUP1 DUP3 MSTORE PUSH1 0x26 SWAP1 DUP3 ADD MSTORE PUSH32 0x7365743A207265776172646572206D75737420626520636F6E7472616374206F PUSH1 0x40 DUP3 ADD MSTORE PUSH6 0x72207A65726F PUSH1 0xD0 SHL PUSH1 0x60 DUP3 ADD MSTORE PUSH1 0x80 ADD SWAP1 JUMP JUMPDEST PUSH1 0x20 DUP1 DUP3 MSTORE PUSH1 0x26 SWAP1 DUP3 ADD MSTORE PUSH32 0x6164643A207265776172646572206D75737420626520636F6E7472616374206F PUSH1 0x40 DUP3 ADD MSTORE PUSH6 0x72207A65726F PUSH1 0xD0 SHL PUSH1 0x60 DUP3 ADD MSTORE PUSH1 0x80 ADD SWAP1 JUMP JUMPDEST PUSH1 0x20 DUP1 DUP3 MSTORE DUP2 DUP2 ADD MSTORE PUSH32 0x426F72696E6745524332303A205472616E7366657246726F6D206661696C6564 PUSH1 0x40 DUP3 ADD MSTORE PUSH1 0x60 ADD SWAP1 JUMP JUMPDEST PUSH1 0x20 DUP1 DUP3 MSTORE PUSH1 0x1F SWAP1 DUP3 ADD MSTORE PUSH32 0x5265656E7472616E637947756172643A207265656E7472616E742063616C6C00 PUSH1 0x40 DUP3 ADD MSTORE PUSH1 0x60 ADD SWAP1 JUMP JUMPDEST PUSH1 0x20 DUP1 DUP3 MSTORE PUSH1 0x24 SWAP1 DUP3 ADD MSTORE PUSH32 0x73657444657650657263656E743A20696E76616C69642070657263656E742076 PUSH1 0x40 DUP3 ADD MSTORE PUSH4 0x616C7565 PUSH1 0xE0 SHL PUSH1 0x60 DUP3 ADD MSTORE PUSH1 0x80 ADD SWAP1 JUMP JUMPDEST SWAP1 DUP2 MSTORE PUSH1 0x20 ADD SWAP1 JUMP JUMPDEST DUP5 DUP2 MSTORE PUSH1 0x1 PUSH1 0x1 PUSH1 0xA0 SHL SUB DUP5 AND PUSH1 0x20 DUP3 ADD MSTORE PUSH1 0x80 PUSH1 0x40 DUP3 ADD DUP2 SWAP1 MSTORE PUSH1 0x0 SWAP1 PUSH2 0x35C9 SWAP1 DUP4 ADD DUP6 PUSH2 0x2E8D JUMP JUMPDEST SWAP1 POP DUP3 PUSH1 0x60 DUP4 ADD MSTORE SWAP6 SWAP5 POP POP POP POP POP JUMP JUMPDEST SWAP2 DUP3 MSTORE ISZERO ISZERO PUSH1 0x20 DUP3 ADD MSTORE PUSH1 0x40 ADD SWAP1 JUMP JUMPDEST SWAP3 DUP4 MSTORE PUSH1 0x20 DUP4 ADD SWAP2 SWAP1 SWAP2 MSTORE PUSH1 0x40 DUP3 ADD MSTORE PUSH1 0x60 ADD SWAP1 JUMP JUMPDEST SWAP6 DUP7 MSTORE PUSH1 0x20 DUP7 ADD SWAP5 SWAP1 SWAP5 MSTORE PUSH1 0x40 DUP6 ADD SWAP3 SWAP1 SWAP3 MSTORE PUSH1 0x60 DUP5 ADD MSTORE PUSH1 0x80 DUP4 ADD MSTORE PUSH1 0xA0 DUP3 ADD MSTORE PUSH1 0xC0 ADD SWAP1 JUMP JUMPDEST PUSH1 0x40 MLOAD DUP2 DUP2 ADD PUSH8 0xFFFFFFFFFFFFFFFF DUP2 GT DUP3 DUP3 LT OR ISZERO PUSH2 0x3647 JUMPI PUSH1 0x0 DUP1 REVERT JUMPDEST PUSH1 0x40 MSTORE SWAP2 SWAP1 POP JUMP JUMPDEST PUSH1 0x0 PUSH8 0xFFFFFFFFFFFFFFFF DUP3 GT ISZERO PUSH2 0x3665 JUMPI DUP1 DUP2 REVERT JUMPDEST POP PUSH1 0x20 SWAP1 DUP2 MUL ADD SWAP1 JUMP JUMPDEST PUSH1 0x0 JUMPDEST DUP4 DUP2 LT ISZERO PUSH2 0x368A JUMPI DUP2 DUP2 ADD MLOAD DUP4 DUP3 ADD MSTORE PUSH1 0x20 ADD PUSH2 0x3672 JUMP JUMPDEST DUP4 DUP2 GT ISZERO PUSH2 0x2502 JUMPI POP POP PUSH1 0x0 SWAP2 ADD MSTORE JUMP JUMPDEST PUSH1 0x1 PUSH1 0x1 PUSH1 0xA0 SHL SUB DUP2 AND DUP2 EQ PUSH2 0x36B0 JUMPI PUSH1 0x0 DUP1 REVERT JUMPDEST POP JUMP JUMPDEST DUP1 ISZERO ISZERO DUP2 EQ PUSH2 0x36B0 JUMPI PUSH1 0x0 DUP1 REVERT INVALID LOG2 PUSH5 0x6970667358 0x22 SLT KECCAK256 PUSH3 0xE7CFC7 0x2A 0xF6 DUP11 0xCD DUP15 0xBA RETURNDATASIZE DUP12 PUSH8 0xEF02FA302E8799F2 PC PUSH22 0x99D35E4FFCEE674D0D64736F6C634300060C00330000 "
        },
        "methodIdentifiers": {
          "add(uint256,address,address)": "ab7de098",
          "blockDeltaEndStage(uint256)": "cb0b8ca1",
          "blockDeltaStartStage(uint256)": "6245f084",
          "deposit(uint256,uint256)": "e2bbb158",
          "dev(address)": "8d88a90e",
          "devAddr()": "da09c72c",
          "devFeeStage(uint256)": "beff2a53",
          "devPercent()": "fc3c28af",
          "emergencyWithdraw(uint256)": "5312ea8e",
          "hermes()": "d8092c92",
          "hermesPerSec()": "aa3448ab",
          "investorAddr()": "acc4cc50",
          "investorPercent()": "0735b208",
          "massUpdatePools()": "630b5ba1",
          "owner()": "8da5cb5b",
          "pendingTokens(uint256,address)": "ffcd4263",
          "poolInfo(uint256)": "1526fe27",
          "poolLength()": "081e3eda",
          "renounceOwnership()": "715018a6",
          "rewarderBonusTokenInfo(uint256)": "bc70fdbc",
          "set(uint256,uint256,address,bool)": "88bba42f",
          "setDevPercent(uint256)": "6eaddad2",
          "setInvestorAddr(address)": "0f51f8ff",
          "setInvestorPercent(uint256)": "876d3c9c",
          "setStageEnds(uint256[])": "4af0e3e1",
          "setStageStarts(uint256[])": "847bdaa4",
          "setTreasuryAddr(address)": "a7e05b9c",
          "setTreasuryPercent(uint256)": "89a2bc25",
          "startTimestamp()": "e6fd48bc",
          "totalAllocPoint()": "17caf6f1",
          "transferOwnership(address)": "f2fde38b",
          "treasuryAddr()": "30d9a62a",
          "treasuryPercent()": "04ef9d58",
          "updateEmissionRate(uint256)": "0ba84cd2",
          "updatePool(uint256)": "51eb05a6",
          "userDelta(uint256,address)": "fb39d1e3",
          "userFeeStage(uint256)": "d007db29",
          "userInfo(uint256,address)": "93f1a40b",
          "withdraw(uint256,uint256)": "441a3e70"
        }
      },
      "storageLayout": {
        "storage": [
          {
            "astId": 1456,
            "contract": "contracts/MasterChefHermesV2.sol:MasterChefHermesV2",
            "label": "_owner",
            "offset": 0,
            "slot": "0",
            "type": "t_address"
          },
          {
            "astId": 1870,
            "contract": "contracts/MasterChefHermesV2.sol:MasterChefHermesV2",
            "label": "_status",
            "offset": 0,
            "slot": "1",
            "type": "t_uint256"
          },
          {
            "astId": 1995,
            "contract": "contracts/MasterChefHermesV2.sol:MasterChefHermesV2",
            "label": "hermes",
            "offset": 0,
            "slot": "2",
            "type": "t_contract(IHermesToken)1956"
          },
          {
            "astId": 1997,
            "contract": "contracts/MasterChefHermesV2.sol:MasterChefHermesV2",
            "label": "devAddr",
            "offset": 0,
            "slot": "3",
            "type": "t_address"
          },
          {
            "astId": 1999,
            "contract": "contracts/MasterChefHermesV2.sol:MasterChefHermesV2",
            "label": "treasuryAddr",
            "offset": 0,
            "slot": "4",
            "type": "t_address"
          },
          {
            "astId": 2001,
            "contract": "contracts/MasterChefHermesV2.sol:MasterChefHermesV2",
            "label": "investorAddr",
            "offset": 0,
            "slot": "5",
            "type": "t_address"
          },
          {
            "astId": 2003,
            "contract": "contracts/MasterChefHermesV2.sol:MasterChefHermesV2",
            "label": "hermesPerSec",
            "offset": 0,
            "slot": "6",
            "type": "t_uint256"
          },
          {
            "astId": 2005,
            "contract": "contracts/MasterChefHermesV2.sol:MasterChefHermesV2",
            "label": "devPercent",
            "offset": 0,
            "slot": "7",
            "type": "t_uint256"
          },
          {
            "astId": 2007,
            "contract": "contracts/MasterChefHermesV2.sol:MasterChefHermesV2",
            "label": "treasuryPercent",
            "offset": 0,
            "slot": "8",
            "type": "t_uint256"
          },
          {
            "astId": 2009,
            "contract": "contracts/MasterChefHermesV2.sol:MasterChefHermesV2",
            "label": "investorPercent",
            "offset": 0,
            "slot": "9",
            "type": "t_uint256"
          },
          {
            "astId": 2012,
            "contract": "contracts/MasterChefHermesV2.sol:MasterChefHermesV2",
            "label": "poolInfo",
            "offset": 0,
            "slot": "10",
            "type": "t_array(t_struct(PoolInfo)1993_storage)dyn_storage"
          },
          {
            "astId": 2014,
            "contract": "contracts/MasterChefHermesV2.sol:MasterChefHermesV2",
            "label": "lpTokens",
            "offset": 0,
            "slot": "11",
            "type": "t_struct(AddressSet)1212_storage"
          },
          {
            "astId": 2020,
            "contract": "contracts/MasterChefHermesV2.sol:MasterChefHermesV2",
            "label": "userInfo",
            "offset": 0,
            "slot": "13",
            "type": "t_mapping(t_uint256,t_mapping(t_address,t_struct(UserInfo)1982_storage))"
          },
          {
            "astId": 2022,
            "contract": "contracts/MasterChefHermesV2.sol:MasterChefHermesV2",
            "label": "totalAllocPoint",
            "offset": 0,
            "slot": "14",
            "type": "t_uint256"
          },
          {
            "astId": 2024,
            "contract": "contracts/MasterChefHermesV2.sol:MasterChefHermesV2",
            "label": "startTimestamp",
            "offset": 0,
            "slot": "15",
            "type": "t_uint256"
          },
          {
            "astId": 2030,
            "contract": "contracts/MasterChefHermesV2.sol:MasterChefHermesV2",
            "label": "blockDeltaStartStage",
            "offset": 0,
            "slot": "16",
            "type": "t_array(t_uint256)dyn_storage"
          },
          {
            "astId": 2035,
            "contract": "contracts/MasterChefHermesV2.sol:MasterChefHermesV2",
            "label": "blockDeltaEndStage",
            "offset": 0,
            "slot": "17",
            "type": "t_array(t_uint256)dyn_storage"
          },
          {
            "astId": 2042,
            "contract": "contracts/MasterChefHermesV2.sol:MasterChefHermesV2",
            "label": "userFeeStage",
            "offset": 0,
            "slot": "18",
            "type": "t_array(t_uint256)dyn_storage"
          },
          {
            "astId": 2049,
            "contract": "contracts/MasterChefHermesV2.sol:MasterChefHermesV2",
            "label": "devFeeStage",
            "offset": 0,
            "slot": "19",
            "type": "t_array(t_uint256)dyn_storage"
          }
        ],
        "types": {
          "t_address": {
            "encoding": "inplace",
            "label": "address",
            "numberOfBytes": "20"
          },
          "t_array(t_bytes32)dyn_storage": {
            "base": "t_bytes32",
            "encoding": "dynamic_array",
            "label": "bytes32[]",
            "numberOfBytes": "32"
          },
          "t_array(t_struct(PoolInfo)1993_storage)dyn_storage": {
            "base": "t_struct(PoolInfo)1993_storage",
            "encoding": "dynamic_array",
            "label": "struct MasterChefHermesV2.PoolInfo[]",
            "numberOfBytes": "32"
          },
          "t_array(t_uint256)dyn_storage": {
            "base": "t_uint256",
            "encoding": "dynamic_array",
            "label": "uint256[]",
            "numberOfBytes": "32"
          },
          "t_bytes32": {
            "encoding": "inplace",
            "label": "bytes32",
            "numberOfBytes": "32"
          },
          "t_contract(IERC20)79": {
            "encoding": "inplace",
            "label": "contract IERC20",
            "numberOfBytes": "20"
          },
          "t_contract(IHermesToken)1956": {
            "encoding": "inplace",
            "label": "contract IHermesToken",
            "numberOfBytes": "20"
          },
          "t_contract(IRewarder)1927": {
            "encoding": "inplace",
            "label": "contract IRewarder",
            "numberOfBytes": "20"
          },
          "t_mapping(t_address,t_struct(UserInfo)1982_storage)": {
            "encoding": "mapping",
            "key": "t_address",
            "label": "mapping(address => struct MasterChefHermesV2.UserInfo)",
            "numberOfBytes": "32",
            "value": "t_struct(UserInfo)1982_storage"
          },
          "t_mapping(t_bytes32,t_uint256)": {
            "encoding": "mapping",
            "key": "t_bytes32",
            "label": "mapping(bytes32 => uint256)",
            "numberOfBytes": "32",
            "value": "t_uint256"
          },
          "t_mapping(t_uint256,t_mapping(t_address,t_struct(UserInfo)1982_storage))": {
            "encoding": "mapping",
            "key": "t_uint256",
            "label": "mapping(uint256 => mapping(address => struct MasterChefHermesV2.UserInfo))",
            "numberOfBytes": "32",
            "value": "t_mapping(t_address,t_struct(UserInfo)1982_storage)"
          },
          "t_struct(AddressSet)1212_storage": {
            "encoding": "inplace",
            "label": "struct EnumerableSet.AddressSet",
            "members": [
              {
                "astId": 1211,
                "contract": "contracts/MasterChefHermesV2.sol:MasterChefHermesV2",
                "label": "_inner",
                "offset": 0,
                "slot": "0",
                "type": "t_struct(Set)947_storage"
              }
            ],
            "numberOfBytes": "64"
          },
          "t_struct(PoolInfo)1993_storage": {
            "encoding": "inplace",
            "label": "struct MasterChefHermesV2.PoolInfo",
            "members": [
              {
                "astId": 1984,
                "contract": "contracts/MasterChefHermesV2.sol:MasterChefHermesV2",
                "label": "lpToken",
                "offset": 0,
                "slot": "0",
                "type": "t_contract(IERC20)79"
              },
              {
                "astId": 1986,
                "contract": "contracts/MasterChefHermesV2.sol:MasterChefHermesV2",
                "label": "allocPoint",
                "offset": 0,
                "slot": "1",
                "type": "t_uint256"
              },
              {
                "astId": 1988,
                "contract": "contracts/MasterChefHermesV2.sol:MasterChefHermesV2",
                "label": "lastRewardTimestamp",
                "offset": 0,
                "slot": "2",
                "type": "t_uint256"
              },
              {
                "astId": 1990,
                "contract": "contracts/MasterChefHermesV2.sol:MasterChefHermesV2",
                "label": "accHermesPerShare",
                "offset": 0,
                "slot": "3",
                "type": "t_uint256"
              },
              {
                "astId": 1992,
                "contract": "contracts/MasterChefHermesV2.sol:MasterChefHermesV2",
                "label": "rewarder",
                "offset": 0,
                "slot": "4",
                "type": "t_contract(IRewarder)1927"
              }
            ],
            "numberOfBytes": "160"
          },
          "t_struct(Set)947_storage": {
            "encoding": "inplace",
            "label": "struct EnumerableSet.Set",
            "members": [
              {
                "astId": 942,
                "contract": "contracts/MasterChefHermesV2.sol:MasterChefHermesV2",
                "label": "_values",
                "offset": 0,
                "slot": "0",
                "type": "t_array(t_bytes32)dyn_storage"
              },
              {
                "astId": 946,
                "contract": "contracts/MasterChefHermesV2.sol:MasterChefHermesV2",
                "label": "_indexes",
                "offset": 0,
                "slot": "1",
                "type": "t_mapping(t_bytes32,t_uint256)"
              }
            ],
            "numberOfBytes": "64"
          },
          "t_struct(UserInfo)1982_storage": {
            "encoding": "inplace",
            "label": "struct MasterChefHermesV2.UserInfo",
            "members": [
              {
                "astId": 1971,
                "contract": "contracts/MasterChefHermesV2.sol:MasterChefHermesV2",
                "label": "amount",
                "offset": 0,
                "slot": "0",
                "type": "t_uint256"
              },
              {
                "astId": 1973,
                "contract": "contracts/MasterChefHermesV2.sol:MasterChefHermesV2",
                "label": "rewardDebt",
                "offset": 0,
                "slot": "1",
                "type": "t_uint256"
              },
              {
                "astId": 1975,
                "contract": "contracts/MasterChefHermesV2.sol:MasterChefHermesV2",
                "label": "lastWithdrawBlock",
                "offset": 0,
                "slot": "2",
                "type": "t_uint256"
              },
              {
                "astId": 1977,
                "contract": "contracts/MasterChefHermesV2.sol:MasterChefHermesV2",
                "label": "firstDepositBlock",
                "offset": 0,
                "slot": "3",
                "type": "t_uint256"
              },
              {
                "astId": 1979,
                "contract": "contracts/MasterChefHermesV2.sol:MasterChefHermesV2",
                "label": "blockdelta",
                "offset": 0,
                "slot": "4",
                "type": "t_uint256"
              },
              {
                "astId": 1981,
                "contract": "contracts/MasterChefHermesV2.sol:MasterChefHermesV2",
                "label": "lastDepositBlock",
                "offset": 0,
                "slot": "5",
                "type": "t_uint256"
              }
            ],
            "numberOfBytes": "192"
          },
          "t_uint256": {
            "encoding": "inplace",
            "label": "uint256",
            "numberOfBytes": "32"
          }
        }
      }
    }
  }
}