{
  "contracts/SingleStakingPool.sol": {
    "StakingPool": {
      "abi": [
        {
          "anonymous": false,
          "inputs": [
            {
              "indexed": true,
              "internalType": "address",
              "name": "user",
              "type": "address"
            },
            {
              "indexed": false,
              "internalType": "uint256",
              "name": "amount",
              "type": "uint256"
            }
          ],
          "name": "Deposit",
          "type": "event"
        },
        {
          "anonymous": false,
          "inputs": [
            {
              "indexed": false,
              "internalType": "uint256",
              "name": "amount",
              "type": "uint256"
            }
          ],
          "name": "DepositRewards",
          "type": "event"
        },
        {
          "anonymous": false,
          "inputs": [
            {
              "indexed": true,
              "internalType": "address",
              "name": "user",
              "type": "address"
            },
            {
              "indexed": false,
              "internalType": "uint256",
              "name": "amount",
              "type": "uint256"
            }
          ],
          "name": "EmergencyRewardWithdraw",
          "type": "event"
        },
        {
          "anonymous": false,
          "inputs": [
            {
              "indexed": true,
              "internalType": "address",
              "name": "user",
              "type": "address"
            },
            {
              "indexed": true,
              "internalType": "contract IERC20",
              "name": "token",
              "type": "address"
            },
            {
              "indexed": false,
              "internalType": "uint256",
              "name": "amount",
              "type": "uint256"
            }
          ],
          "name": "EmergencySweepWithdraw",
          "type": "event"
        },
        {
          "anonymous": false,
          "inputs": [
            {
              "indexed": true,
              "internalType": "address",
              "name": "user",
              "type": "address"
            },
            {
              "indexed": false,
              "internalType": "uint256",
              "name": "amount",
              "type": "uint256"
            }
          ],
          "name": "EmergencyWithdraw",
          "type": "event"
        },
        {
          "anonymous": false,
          "inputs": [
            {
              "indexed": false,
              "internalType": "uint256",
              "name": "bonusEndBlock",
              "type": "uint256"
            },
            {
              "indexed": false,
              "internalType": "uint256",
              "name": "rewardPerBlock",
              "type": "uint256"
            }
          ],
          "name": "LogUpdatePool",
          "type": "event"
        },
        {
          "anonymous": false,
          "inputs": [
            {
              "indexed": true,
              "internalType": "address",
              "name": "previousOwner",
              "type": "address"
            },
            {
              "indexed": true,
              "internalType": "address",
              "name": "newOwner",
              "type": "address"
            }
          ],
          "name": "OwnershipTransferred",
          "type": "event"
        },
        {
          "anonymous": false,
          "inputs": [
            {
              "indexed": true,
              "internalType": "address",
              "name": "user",
              "type": "address"
            },
            {
              "indexed": false,
              "internalType": "uint256",
              "name": "amount",
              "type": "uint256"
            }
          ],
          "name": "SkimStakeTokenFees",
          "type": "event"
        },
        {
          "anonymous": false,
          "inputs": [
            {
              "indexed": true,
              "internalType": "address",
              "name": "user",
              "type": "address"
            },
            {
              "indexed": false,
              "internalType": "uint256",
              "name": "amount",
              "type": "uint256"
            }
          ],
          "name": "Withdraw",
          "type": "event"
        },
        {
          "inputs": [],
          "name": "REWARD_TOKEN",
          "outputs": [
            {
              "internalType": "contract IERC20",
              "name": "",
              "type": "address"
            }
          ],
          "stateMutability": "view",
          "type": "function"
        },
        {
          "inputs": [],
          "name": "STAKE_TOKEN",
          "outputs": [
            {
              "internalType": "contract IERC20",
              "name": "",
              "type": "address"
            }
          ],
          "stateMutability": "view",
          "type": "function"
        },
        {
          "inputs": [],
          "name": "bonusEndBlock",
          "outputs": [
            {
              "internalType": "uint256",
              "name": "",
              "type": "uint256"
            }
          ],
          "stateMutability": "view",
          "type": "function"
        },
        {
          "inputs": [
            {
              "internalType": "uint256",
              "name": "_amount",
              "type": "uint256"
            }
          ],
          "name": "deposit",
          "outputs": [],
          "stateMutability": "nonpayable",
          "type": "function"
        },
        {
          "inputs": [
            {
              "internalType": "uint256",
              "name": "_amount",
              "type": "uint256"
            }
          ],
          "name": "depositRewards",
          "outputs": [],
          "stateMutability": "nonpayable",
          "type": "function"
        },
        {
          "inputs": [
            {
              "internalType": "uint256",
              "name": "_amount",
              "type": "uint256"
            }
          ],
          "name": "emergencyRewardWithdraw",
          "outputs": [],
          "stateMutability": "nonpayable",
          "type": "function"
        },
        {
          "inputs": [],
          "name": "emergencyWithdraw",
          "outputs": [],
          "stateMutability": "nonpayable",
          "type": "function"
        },
        {
          "inputs": [
            {
              "internalType": "uint256",
              "name": "_from",
              "type": "uint256"
            },
            {
              "internalType": "uint256",
              "name": "_to",
              "type": "uint256"
            }
          ],
          "name": "getMultiplier",
          "outputs": [
            {
              "internalType": "uint256",
              "name": "",
              "type": "uint256"
            }
          ],
          "stateMutability": "view",
          "type": "function"
        },
        {
          "inputs": [],
          "name": "getStakeTokenFeeBalance",
          "outputs": [
            {
              "internalType": "uint256",
              "name": "",
              "type": "uint256"
            }
          ],
          "stateMutability": "view",
          "type": "function"
        },
        {
          "inputs": [
            {
              "internalType": "contract IERC20",
              "name": "_stakeToken",
              "type": "address"
            },
            {
              "internalType": "contract IERC20",
              "name": "_rewardToken",
              "type": "address"
            },
            {
              "internalType": "uint256",
              "name": "_rewardPerBlock",
              "type": "uint256"
            },
            {
              "internalType": "uint256",
              "name": "_startBlock",
              "type": "uint256"
            },
            {
              "internalType": "uint256",
              "name": "_bonusEndBlock",
              "type": "uint256"
            }
          ],
          "name": "initialize",
          "outputs": [],
          "stateMutability": "nonpayable",
          "type": "function"
        },
        {
          "inputs": [],
          "name": "owner",
          "outputs": [
            {
              "internalType": "address",
              "name": "",
              "type": "address"
            }
          ],
          "stateMutability": "view",
          "type": "function"
        },
        {
          "inputs": [
            {
              "internalType": "address",
              "name": "_user",
              "type": "address"
            }
          ],
          "name": "pendingReward",
          "outputs": [
            {
              "internalType": "uint256",
              "name": "",
              "type": "uint256"
            }
          ],
          "stateMutability": "view",
          "type": "function"
        },
        {
          "inputs": [],
          "name": "poolInfo",
          "outputs": [
            {
              "internalType": "contract IERC20",
              "name": "lpToken",
              "type": "address"
            },
            {
              "internalType": "uint256",
              "name": "allocPoint",
              "type": "uint256"
            },
            {
              "internalType": "uint256",
              "name": "lastRewardBlock",
              "type": "uint256"
            },
            {
              "internalType": "uint256",
              "name": "accRewardTokenPerShare",
              "type": "uint256"
            }
          ],
          "stateMutability": "view",
          "type": "function"
        },
        {
          "inputs": [],
          "name": "renounceOwnership",
          "outputs": [],
          "stateMutability": "nonpayable",
          "type": "function"
        },
        {
          "inputs": [],
          "name": "rewardBalance",
          "outputs": [
            {
              "internalType": "uint256",
              "name": "",
              "type": "uint256"
            }
          ],
          "stateMutability": "view",
          "type": "function"
        },
        {
          "inputs": [],
          "name": "rewardPerBlock",
          "outputs": [
            {
              "internalType": "uint256",
              "name": "",
              "type": "uint256"
            }
          ],
          "stateMutability": "view",
          "type": "function"
        },
        {
          "inputs": [
            {
              "internalType": "uint256",
              "name": "_bonusEndBlock",
              "type": "uint256"
            }
          ],
          "name": "setBonusEndBlock",
          "outputs": [],
          "stateMutability": "nonpayable",
          "type": "function"
        },
        {
          "inputs": [
            {
              "internalType": "uint256",
              "name": "_rewardPerBlock",
              "type": "uint256"
            }
          ],
          "name": "setRewardPerBlock",
          "outputs": [],
          "stateMutability": "nonpayable",
          "type": "function"
        },
        {
          "inputs": [],
          "name": "skimStakeTokenFees",
          "outputs": [],
          "stateMutability": "nonpayable",
          "type": "function"
        },
        {
          "inputs": [],
          "name": "startBlock",
          "outputs": [
            {
              "internalType": "uint256",
              "name": "",
              "type": "uint256"
            }
          ],
          "stateMutability": "view",
          "type": "function"
        },
        {
          "inputs": [
            {
              "internalType": "contract IERC20",
              "name": "token",
              "type": "address"
            }
          ],
          "name": "sweepToken",
          "outputs": [],
          "stateMutability": "nonpayable",
          "type": "function"
        },
        {
          "inputs": [],
          "name": "totalStakeTokenBalance",
          "outputs": [
            {
              "internalType": "uint256",
              "name": "",
              "type": "uint256"
            }
          ],
          "stateMutability": "view",
          "type": "function"
        },
        {
          "inputs": [],
          "name": "totalStaked",
          "outputs": [
            {
              "internalType": "uint256",
              "name": "",
              "type": "uint256"
            }
          ],
          "stateMutability": "view",
          "type": "function"
        },
        {
          "inputs": [
            {
              "internalType": "address",
              "name": "newOwner",
              "type": "address"
            }
          ],
          "name": "transferOwnership",
          "outputs": [],
          "stateMutability": "nonpayable",
          "type": "function"
        },
        {
          "inputs": [],
          "name": "updatePool",
          "outputs": [],
          "stateMutability": "nonpayable",
          "type": "function"
        },
        {
          "inputs": [
            {
              "internalType": "address",
              "name": "",
              "type": "address"
            }
          ],
          "name": "userInfo",
          "outputs": [
            {
              "internalType": "uint256",
              "name": "amount",
              "type": "uint256"
            },
            {
              "internalType": "uint256",
              "name": "rewardDebt",
              "type": "uint256"
            }
          ],
          "stateMutability": "view",
          "type": "function"
        },
        {
          "inputs": [
            {
              "internalType": "uint256",
              "name": "_amount",
              "type": "uint256"
            }
          ],
          "name": "withdraw",
          "outputs": [],
          "stateMutability": "nonpayable",
          "type": "function"
        }
      ],
      "evm": {
        "bytecode": {
          "linkReferences": {},
          "object": "608060405260006004556000600a5534801561001a57600080fd5b506000610025610074565b600080546001600160a01b0319166001600160a01b0383169081178255604051929350917f8be0079c531659141344cd1fd0a4f28419497f9722a3daafe3b4186f6b6457e0908290a350610078565b3390565b61196c806100876000396000f3fe608060405234801561001057600080fd5b50600436106101a95760003560e01c80638da5cb5b116100f9578063b6b55f2511610097578063db2e21bc11610071578063db2e21bc14610317578063e3161ddd1461031f578063f2fde38b14610327578063f40f0f521461033a576101a9565b8063b6b55f25146102de578063bb872b4a146102f1578063d13f90b414610304576101a9565b806399248ea7116100d357806399248ea7146102b35780639e0af234146102bb578063a49ceb19146102ce578063aa5c3ab4146102d6576101a9565b80638da5cb5b146102905780638dbb1e3a14610298578063970db7fa146102ab576101a9565b806348cd4cb111610166578063812bc70811610140578063812bc70814610265578063817b1cd21461026d5780638ae39cac146102755780638bdf67f21461027d576101a9565b806348cd4cb11461023d5780635a2f3d0914610245578063715018a61461025d576101a9565b80631959a002146101ae5780631aed6553146101d85780631be19560146101ed5780631c39b672146102025780632e1a7d4d146102175780633279beab1461022a575b600080fd5b6101c16101bc36600461143f565b61034d565b6040516101cf929190611860565b60405180910390f35b6101e0610366565b6040516101cf9190611857565b6102006101fb36600461143f565b61036c565b005b61020a61052a565b6040516101cf919061153f565b6102006102253660046114d2565b610539565b6102006102383660046114d2565b610690565b6101e061073a565b61024d610740565b6040516101cf9493929190611590565b61020061075b565b6101e06107da565b6101e061086f565b6101e0610875565b61020061028b3660046114d2565b61087b565b61020a6108ed565b6101e06102a6366004611502565b6108fc565b61020061093d565b61020a6109cf565b6102006102c93660046114d2565b6109de565b6101e0610a6d565b6101e0610b12565b6102006102ec3660046114d2565b610bc8565b6102006102ff3660046114d2565b610e0e565b610200610312366004611482565b610e7b565b610200610f92565b61020061100a565b61020061033536600461143f565b6110a5565b6101e061034836600461143f565b61115b565b6009602052600090815260409020805460019091015482565b600c5481565b61037461123c565b6000546001600160a01b039081169116146103aa5760405162461bcd60e51b81526004016103a1906116e0565b60405180910390fd5b6001546001600160a01b03828116911614156103d85760405162461bcd60e51b81526004016103a1906116a9565b6040516370a0823160e01b81526000906001600160a01b038316906370a082319061040790309060040161153f565b60206040518083038186803b15801561041f57600080fd5b505afa158015610433573d6000803e3d6000fd5b505050506040513d601f19601f8201168201806040525081019061045791906114ea565b60405163a9059cbb60e01b81529091506001600160a01b0383169063a9059cbb906104889033908590600401611577565b602060405180830381600087803b1580156104a257600080fd5b505af11580156104b6573d6000803e3d6000fd5b505050506040513d601f19601f820116820180604052508101906104da9190611462565b50816001600160a01b0316336001600160a01b03167f9186304ffe50c568e430e57234122976c83522da68345954bb5485cbab3957138360405161051e9190611857565b60405180910390a35050565b6001546001600160a01b031681565b33600090815260096020526040902080548211156105695760405162461bcd60e51b81526004016103a1906117e1565b61057161100a565b600181015460085482546000929168327cb2734119d3b7a9601e1b9161059791906118a6565b6105a19190611886565b6105ab91906118c5565b905080156105e85760006105bd610b12565b905080156105e657808211156105dc576105d73382611240565b6105e6565b6105e63383611240565b505b82156106265781546105fb9084906118c5565b8255600554610614906001600160a01b0316338561125b565b8260045461062291906118c5565b6004555b600854825468327cb2734119d3b7a9601e1b91610642916118a6565b61064c9190611886565b600183015560405133907f884edad9ce6fa2440d8a54cc123490eb96d2768479d49ff9c7366125a942436490610683908690611857565b60405180910390a2505050565b61069861123c565b6000546001600160a01b039081169116146106c55760405162461bcd60e51b81526004016103a1906116e0565b6106cd610b12565b8111156106ec5760405162461bcd60e51b81526004016103a1906115e9565b6106f63382611240565b336001600160a01b03167f2d4434bb59801e733e9ce3df40b0c5518861a5fcdeec1906e83e03c755872b428260405161072f9190611857565b60405180910390a250565b600b5481565b6005546006546007546008546001600160a01b039093169284565b61076361123c565b6000546001600160a01b039081169116146107905760405162461bcd60e51b81526004016103a1906116e0565b600080546040516001600160a01b03909116907f8be0079c531659141344cd1fd0a4f28419497f9722a3daafe3b4186f6b6457e0908390a3600080546001600160a01b0319169055565b600480546001546040516370a0823160e01b81526000936001600160a01b03909216916370a082319161080f9130910161153f565b60206040518083038186803b15801561082757600080fd5b505afa15801561083b573d6000803e3d6000fd5b505050506040513d601f19601f8201168201806040525081019061085f91906114ea565b61086991906118c5565b90505b90565b60045481565b60035481565b6000811161089b5760405162461bcd60e51b81526004016103a190611715565b6002546108b3906001600160a01b03163330846112b6565b7f754fe3a3c69256b66ca56365fda4bbf3299d7c94038c105ffd43fb4b37f56db6816040516108e29190611857565b60405180910390a150565b6000546001600160a01b031690565b6000600c5482116109185761091183836118c5565b9050610937565b600c54831061092957506000610937565b82600c5461091191906118c5565b92915050565b61094561123c565b6000546001600160a01b039081169116146109725760405162461bcd60e51b81526004016103a1906116e0565b600061097c6107da565b600154909150610996906001600160a01b0316338361125b565b336001600160a01b03167feb4e6a6a8d3c8edbd6ef48316a3670cfa0e6374eebe3f555e620399f866d2f328260405161072f9190611857565b6002546001600160a01b031681565b6109e661123c565b6000546001600160a01b03908116911614610a135760405162461bcd60e51b81526004016103a1906116e0565b600c548111610a345760405162461bcd60e51b81526004016103a19061175a565b600c8190556003546040517f055418cabed8a0ec732dd9b1f84e69d3f33a8f9a70d721b7a6962a00c26a4572916108e291849190611860565b6002546001546000916001600160a01b0391821691161415610a92575060045461086c565b6001546040516370a0823160e01b81526001600160a01b03909116906370a0823190610ac290309060040161153f565b60206040518083038186803b158015610ada57600080fd5b505afa158015610aee573d6000803e3d6000fd5b505050506040513d601f19601f8201168201806040525081019061086991906114ea565b6002546040516370a0823160e01b815260009182916001600160a01b03909116906370a0823190610b4790309060040161153f565b60206040518083038186803b158015610b5f57600080fd5b505afa158015610b73573d6000803e3d6000fd5b505050506040513d601f19601f82011682018060405250810190610b9791906114ea565b6002546001549192506001600160a01b039182169116141561086957600454610bc090826118c5565b91505061086c565b33600090815260096020526040812090610be061100a565b815415610c6057600182015460085483546000929168327cb2734119d3b7a9601e1b91610c0d91906118a6565b610c179190611886565b610c2191906118c5565b90508015610c5e576000610c33610b12565b90508015610c5c5780821115610c5257610c4d3382611240565b610c5c565b610c5c3383611240565b505b505b8215610db1576001546040516370a0823160e01b81526000916001600160a01b0316906370a0823190610c9790309060040161153f565b60206040518083038186803b158015610caf57600080fd5b505afa158015610cc3573d6000803e3d6000fd5b505050506040513d601f19601f82011682018060405250810190610ce791906114ea565b600554909150610d02906001600160a01b03163330876112b6565b6001546040516370a0823160e01b815282916001600160a01b0316906370a0823190610d3290309060040161153f565b60206040518083038186803b158015610d4a57600080fd5b505afa158015610d5e573d6000803e3d6000fd5b505050506040513d601f19601f82011682018060405250810190610d8291906114ea565b610d8c91906118c5565b8354909250610d9c90839061186e565b8355600454610dac90839061186e565b600455505b600854825468327cb2734119d3b7a9601e1b91610dcd916118a6565b610dd79190611886565b600183015560405133907fe1fffcc4923d04b559f4d29a8bfc6cda04eb5b0d3c460751c2402c5c5cc9109c90610683908490611857565b610e1661123c565b6000546001600160a01b03908116911614610e435760405162461bcd60e51b81526004016103a1906116e0565b6003819055600c546040517f055418cabed8a0ec732dd9b1f84e69d3f33a8f9a70d721b7a6962a00c26a4572916108e2918490611860565b600054600160a81b900460ff1680610e9d5750600054600160a01b900460ff16155b610eb95760405162461bcd60e51b81526004016103a19061165b565b600054600160a81b900460ff16158015610ef0576000805460ff60a01b1960ff60a81b19909116600160a81b1716600160a01b1790555b600180546001600160a01b038089166001600160a01b03199283168117909355600280549189169183169190911790556003869055600b859055600c849055604080516080810182528381526103e860208201819052918101879052600060609091018190526005805490931690931790915560068190556007859055600891909155600a558015610f8a576000805460ff60a81b191690555b505050505050565b33600081815260096020526040902080546005549192610fbb926001600160a01b03169161125b565b8054600454610fca91906118c5565b60045560008082556001820181905560405133917f5fafa99d0643513820be26656b45130b01e1c03062e1266bf36f88cbd3bd96959161072f9190611857565b6007544311611018576110a3565b60045461102857436007556110a3565b6000611039600560020154436108fc565b600a5460065460035492935060009261105290856118a6565b61105c91906118a6565b6110669190611886565b6004549091506110828268327cb2734119d3b7a9601e1b6118a6565b61108c9190611886565b600854611099919061186e565b6008555050436007555b565b6110ad61123c565b6000546001600160a01b039081169116146110da5760405162461bcd60e51b81526004016103a1906116e0565b6001600160a01b0381166111005760405162461bcd60e51b81526004016103a190611615565b600080546040516001600160a01b03808516939216917f8be0079c531659141344cd1fd0a4f28419497f9722a3daafe3b4186f6b6457e091a3600080546001600160a01b0319166001600160a01b0392909216919091179055565b6001600160a01b038116600090815260096020526040812060085460075443118015611188575060045415155b1561120057600061119e600560020154436108fc565b600a546006546003549293506000926111b790856118a6565b6111c191906118a6565b6111cb9190611886565b6004549091506111e78268327cb2734119d3b7a9601e1b6118a6565b6111f19190611886565b6111fb908461186e565b925050505b6001820154825468327cb2734119d3b7a9601e1b906112209084906118a6565b61122a9190611886565b61123491906118c5565b949350505050565b3390565b600254611257906001600160a01b0316838361125b565b5050565b6112b18363a9059cbb60e01b848460405160240161127a929190611577565b60408051601f198184030181529190526020810180516001600160e01b03166001600160e01b0319909316929092179091526112dd565b505050565b6112d7846323b872dd60e01b85858560405160240161127a93929190611553565b50505050565b6000611332826040518060400160405280602081526020017f5361666545524332303a206c6f772d6c6576656c2063616c6c206661696c6564815250856001600160a01b031661136c9092919063ffffffff16565b8051909150156112b157808060200190518101906113509190611462565b6112b15760405162461bcd60e51b81526004016103a19061180d565b60606112348484600085606061138185611439565b61139d5760405162461bcd60e51b81526004016103a1906117aa565b600080866001600160a01b031685876040516113b99190611523565b60006040518083038185875af1925050503d80600081146113f6576040519150601f19603f3d011682016040523d82523d6000602084013e6113fb565b606091505b5091509150811561140f5791506112349050565b80511561141f5780518082602001fd5b8360405162461bcd60e51b81526004016103a191906115b6565b3b151590565b600060208284031215611450578081fd5b813561145b8161191e565b9392505050565b600060208284031215611473578081fd5b8151801515811461145b578182fd5b600080600080600060a08688031215611499578081fd5b85356114a48161191e565b945060208601356114b48161191e565b94979496505050506040830135926060810135926080909101359150565b6000602082840312156114e3578081fd5b5035919050565b6000602082840312156114fb578081fd5b5051919050565b60008060408385031215611514578182fd5b50508035926020909101359150565b600082516115358184602087016118dc565b9190910192915050565b6001600160a01b0391909116815260200190565b6001600160a01b039384168152919092166020820152604081019190915260600190565b6001600160a01b03929092168252602082015260400190565b6001600160a01b0394909416845260208401929092526040830152606082015260800190565b60006020825282518060208401526115d58160408501602087016118dc565b601f01601f19169190910160400192915050565b6020808252601290820152716e6f7420656e6f756768207265776172647360701b604082015260600190565b60208082526026908201527f4f776e61626c653a206e6577206f776e657220697320746865207a65726f206160408201526564647265737360d01b606082015260800190565b6020808252602e908201527f496e697469616c697a61626c653a20636f6e747261637420697320616c72656160408201526d191e481a5b9a5d1a585b1a5e995960921b606082015260800190565b60208082526019908201527f63616e206e6f74207377656570207374616b6520746f6b656e00000000000000604082015260600190565b6020808252818101527f4f776e61626c653a2063616c6c6572206973206e6f7420746865206f776e6572604082015260600190565b60208082526025908201527f4465706f7369742076616c7565206d757374206265206772656174657220746860408201526430b710181760d91b606082015260800190565b60208082526030908201527f6e657720626f6e757320656e6420626c6f636b206d757374206265206772656160408201526f1d195c881d1a185b8818dd5c9c995b9d60821b606082015260800190565b6020808252601d908201527f416464726573733a2063616c6c20746f206e6f6e2d636f6e7472616374000000604082015260600190565b6020808252601290820152711dda5d1a191c985dce881b9bdd0819dbdbd960721b604082015260600190565b6020808252602a908201527f5361666545524332303a204552433230206f7065726174696f6e20646964206e6040820152691bdd081cdd58d8d9595960b21b606082015260800190565b90815260200190565b918252602082015260400190565b6000821982111561188157611881611908565b500190565b6000826118a157634e487b7160e01b81526012600452602481fd5b500490565b60008160001904831182151516156118c0576118c0611908565b500290565b6000828210156118d7576118d7611908565b500390565b60005b838110156118f75781810151838201526020016118df565b838111156112d75750506000910152565b634e487b7160e01b600052601160045260246000fd5b6001600160a01b038116811461193357600080fd5b5056fea26469706673582212202936c121bce06f6202fef590b49bfbe92c4702606acd04d341dd06b822c783bc64736f6c63430008000033",
          "opcodes": "PUSH1 0x80 PUSH1 0x40 MSTORE PUSH1 0x0 PUSH1 0x4 SSTORE PUSH1 0x0 PUSH1 0xA SSTORE CALLVALUE DUP1 ISZERO PUSH2 0x1A JUMPI PUSH1 0x0 DUP1 REVERT JUMPDEST POP PUSH1 0x0 PUSH2 0x25 PUSH2 0x74 JUMP JUMPDEST PUSH1 0x0 DUP1 SLOAD PUSH1 0x1 PUSH1 0x1 PUSH1 0xA0 SHL SUB NOT AND PUSH1 0x1 PUSH1 0x1 PUSH1 0xA0 SHL SUB DUP4 AND SWAP1 DUP2 OR DUP3 SSTORE PUSH1 0x40 MLOAD SWAP3 SWAP4 POP SWAP2 PUSH32 0x8BE0079C531659141344CD1FD0A4F28419497F9722A3DAAFE3B4186F6B6457E0 SWAP1 DUP3 SWAP1 LOG3 POP PUSH2 0x78 JUMP JUMPDEST CALLER SWAP1 JUMP JUMPDEST PUSH2 0x196C DUP1 PUSH2 0x87 PUSH1 0x0 CODECOPY PUSH1 0x0 RETURN INVALID PUSH1 0x80 PUSH1 0x40 MSTORE CALLVALUE DUP1 ISZERO PUSH2 0x10 JUMPI PUSH1 0x0 DUP1 REVERT JUMPDEST POP PUSH1 0x4 CALLDATASIZE LT PUSH2 0x1A9 JUMPI PUSH1 0x0 CALLDATALOAD PUSH1 0xE0 SHR DUP1 PUSH4 0x8DA5CB5B GT PUSH2 0xF9 JUMPI DUP1 PUSH4 0xB6B55F25 GT PUSH2 0x97 JUMPI DUP1 PUSH4 0xDB2E21BC GT PUSH2 0x71 JUMPI DUP1 PUSH4 0xDB2E21BC EQ PUSH2 0x317 JUMPI DUP1 PUSH4 0xE3161DDD EQ PUSH2 0x31F JUMPI DUP1 PUSH4 0xF2FDE38B EQ PUSH2 0x327 JUMPI DUP1 PUSH4 0xF40F0F52 EQ PUSH2 0x33A JUMPI PUSH2 0x1A9 JUMP JUMPDEST DUP1 PUSH4 0xB6B55F25 EQ PUSH2 0x2DE JUMPI DUP1 PUSH4 0xBB872B4A EQ PUSH2 0x2F1 JUMPI DUP1 PUSH4 0xD13F90B4 EQ PUSH2 0x304 JUMPI PUSH2 0x1A9 JUMP JUMPDEST DUP1 PUSH4 0x99248EA7 GT PUSH2 0xD3 JUMPI DUP1 PUSH4 0x99248EA7 EQ PUSH2 0x2B3 JUMPI DUP1 PUSH4 0x9E0AF234 EQ PUSH2 0x2BB JUMPI DUP1 PUSH4 0xA49CEB19 EQ PUSH2 0x2CE JUMPI DUP1 PUSH4 0xAA5C3AB4 EQ PUSH2 0x2D6 JUMPI PUSH2 0x1A9 JUMP JUMPDEST DUP1 PUSH4 0x8DA5CB5B EQ PUSH2 0x290 JUMPI DUP1 PUSH4 0x8DBB1E3A EQ PUSH2 0x298 JUMPI DUP1 PUSH4 0x970DB7FA EQ PUSH2 0x2AB JUMPI PUSH2 0x1A9 JUMP JUMPDEST DUP1 PUSH4 0x48CD4CB1 GT PUSH2 0x166 JUMPI DUP1 PUSH4 0x812BC708 GT PUSH2 0x140 JUMPI DUP1 PUSH4 0x812BC708 EQ PUSH2 0x265 JUMPI DUP1 PUSH4 0x817B1CD2 EQ PUSH2 0x26D JUMPI DUP1 PUSH4 0x8AE39CAC EQ PUSH2 0x275 JUMPI DUP1 PUSH4 0x8BDF67F2 EQ PUSH2 0x27D JUMPI PUSH2 0x1A9 JUMP JUMPDEST DUP1 PUSH4 0x48CD4CB1 EQ PUSH2 0x23D JUMPI DUP1 PUSH4 0x5A2F3D09 EQ PUSH2 0x245 JUMPI DUP1 PUSH4 0x715018A6 EQ PUSH2 0x25D JUMPI PUSH2 0x1A9 JUMP JUMPDEST DUP1 PUSH4 0x1959A002 EQ PUSH2 0x1AE JUMPI DUP1 PUSH4 0x1AED6553 EQ PUSH2 0x1D8 JUMPI DUP1 PUSH4 0x1BE19560 EQ PUSH2 0x1ED JUMPI DUP1 PUSH4 0x1C39B672 EQ PUSH2 0x202 JUMPI DUP1 PUSH4 0x2E1A7D4D EQ PUSH2 0x217 JUMPI DUP1 PUSH4 0x3279BEAB EQ PUSH2 0x22A JUMPI JUMPDEST PUSH1 0x0 DUP1 REVERT JUMPDEST PUSH2 0x1C1 PUSH2 0x1BC CALLDATASIZE PUSH1 0x4 PUSH2 0x143F JUMP JUMPDEST PUSH2 0x34D JUMP JUMPDEST PUSH1 0x40 MLOAD PUSH2 0x1CF SWAP3 SWAP2 SWAP1 PUSH2 0x1860 JUMP JUMPDEST PUSH1 0x40 MLOAD DUP1 SWAP2 SUB SWAP1 RETURN JUMPDEST PUSH2 0x1E0 PUSH2 0x366 JUMP JUMPDEST PUSH1 0x40 MLOAD PUSH2 0x1CF SWAP2 SWAP1 PUSH2 0x1857 JUMP JUMPDEST PUSH2 0x200 PUSH2 0x1FB CALLDATASIZE PUSH1 0x4 PUSH2 0x143F JUMP JUMPDEST PUSH2 0x36C JUMP JUMPDEST STOP JUMPDEST PUSH2 0x20A PUSH2 0x52A JUMP JUMPDEST PUSH1 0x40 MLOAD PUSH2 0x1CF SWAP2 SWAP1 PUSH2 0x153F JUMP JUMPDEST PUSH2 0x200 PUSH2 0x225 CALLDATASIZE PUSH1 0x4 PUSH2 0x14D2 JUMP JUMPDEST PUSH2 0x539 JUMP JUMPDEST PUSH2 0x200 PUSH2 0x238 CALLDATASIZE PUSH1 0x4 PUSH2 0x14D2 JUMP JUMPDEST PUSH2 0x690 JUMP JUMPDEST PUSH2 0x1E0 PUSH2 0x73A JUMP JUMPDEST PUSH2 0x24D PUSH2 0x740 JUMP JUMPDEST PUSH1 0x40 MLOAD PUSH2 0x1CF SWAP5 SWAP4 SWAP3 SWAP2 SWAP1 PUSH2 0x1590 JUMP JUMPDEST PUSH2 0x200 PUSH2 0x75B JUMP JUMPDEST PUSH2 0x1E0 PUSH2 0x7DA JUMP JUMPDEST PUSH2 0x1E0 PUSH2 0x86F JUMP JUMPDEST PUSH2 0x1E0 PUSH2 0x875 JUMP JUMPDEST PUSH2 0x200 PUSH2 0x28B CALLDATASIZE PUSH1 0x4 PUSH2 0x14D2 JUMP JUMPDEST PUSH2 0x87B JUMP JUMPDEST PUSH2 0x20A PUSH2 0x8ED JUMP JUMPDEST PUSH2 0x1E0 PUSH2 0x2A6 CALLDATASIZE PUSH1 0x4 PUSH2 0x1502 JUMP JUMPDEST PUSH2 0x8FC JUMP JUMPDEST PUSH2 0x200 PUSH2 0x93D JUMP JUMPDEST PUSH2 0x20A PUSH2 0x9CF JUMP JUMPDEST PUSH2 0x200 PUSH2 0x2C9 CALLDATASIZE PUSH1 0x4 PUSH2 0x14D2 JUMP JUMPDEST PUSH2 0x9DE JUMP JUMPDEST PUSH2 0x1E0 PUSH2 0xA6D JUMP JUMPDEST PUSH2 0x1E0 PUSH2 0xB12 JUMP JUMPDEST PUSH2 0x200 PUSH2 0x2EC CALLDATASIZE PUSH1 0x4 PUSH2 0x14D2 JUMP JUMPDEST PUSH2 0xBC8 JUMP JUMPDEST PUSH2 0x200 PUSH2 0x2FF CALLDATASIZE PUSH1 0x4 PUSH2 0x14D2 JUMP JUMPDEST PUSH2 0xE0E JUMP JUMPDEST PUSH2 0x200 PUSH2 0x312 CALLDATASIZE PUSH1 0x4 PUSH2 0x1482 JUMP JUMPDEST PUSH2 0xE7B JUMP JUMPDEST PUSH2 0x200 PUSH2 0xF92 JUMP JUMPDEST PUSH2 0x200 PUSH2 0x100A JUMP JUMPDEST PUSH2 0x200 PUSH2 0x335 CALLDATASIZE PUSH1 0x4 PUSH2 0x143F JUMP JUMPDEST PUSH2 0x10A5 JUMP JUMPDEST PUSH2 0x1E0 PUSH2 0x348 CALLDATASIZE PUSH1 0x4 PUSH2 0x143F JUMP JUMPDEST PUSH2 0x115B JUMP JUMPDEST PUSH1 0x9 PUSH1 0x20 MSTORE PUSH1 0x0 SWAP1 DUP2 MSTORE PUSH1 0x40 SWAP1 KECCAK256 DUP1 SLOAD PUSH1 0x1 SWAP1 SWAP2 ADD SLOAD DUP3 JUMP JUMPDEST PUSH1 0xC SLOAD DUP2 JUMP JUMPDEST PUSH2 0x374 PUSH2 0x123C JUMP JUMPDEST PUSH1 0x0 SLOAD PUSH1 0x1 PUSH1 0x1 PUSH1 0xA0 SHL SUB SWAP1 DUP2 AND SWAP2 AND EQ PUSH2 0x3AA JUMPI PUSH1 0x40 MLOAD PUSH3 0x461BCD PUSH1 0xE5 SHL DUP2 MSTORE PUSH1 0x4 ADD PUSH2 0x3A1 SWAP1 PUSH2 0x16E0 JUMP JUMPDEST PUSH1 0x40 MLOAD DUP1 SWAP2 SUB SWAP1 REVERT JUMPDEST PUSH1 0x1 SLOAD PUSH1 0x1 PUSH1 0x1 PUSH1 0xA0 SHL SUB DUP3 DUP2 AND SWAP2 AND EQ ISZERO PUSH2 0x3D8 JUMPI PUSH1 0x40 MLOAD PUSH3 0x461BCD PUSH1 0xE5 SHL DUP2 MSTORE PUSH1 0x4 ADD PUSH2 0x3A1 SWAP1 PUSH2 0x16A9 JUMP JUMPDEST PUSH1 0x40 MLOAD PUSH4 0x70A08231 PUSH1 0xE0 SHL DUP2 MSTORE PUSH1 0x0 SWAP1 PUSH1 0x1 PUSH1 0x1 PUSH1 0xA0 SHL SUB DUP4 AND SWAP1 PUSH4 0x70A08231 SWAP1 PUSH2 0x407 SWAP1 ADDRESS SWAP1 PUSH1 0x4 ADD PUSH2 0x153F JUMP JUMPDEST PUSH1 0x20 PUSH1 0x40 MLOAD DUP1 DUP4 SUB DUP2 DUP7 DUP1 EXTCODESIZE ISZERO DUP1 ISZERO PUSH2 0x41F JUMPI PUSH1 0x0 DUP1 REVERT JUMPDEST POP GAS STATICCALL ISZERO DUP1 ISZERO PUSH2 0x433 JUMPI RETURNDATASIZE PUSH1 0x0 DUP1 RETURNDATACOPY RETURNDATASIZE PUSH1 0x0 REVERT JUMPDEST POP POP POP POP PUSH1 0x40 MLOAD RETURNDATASIZE PUSH1 0x1F NOT PUSH1 0x1F DUP3 ADD AND DUP3 ADD DUP1 PUSH1 0x40 MSTORE POP DUP2 ADD SWAP1 PUSH2 0x457 SWAP2 SWAP1 PUSH2 0x14EA JUMP JUMPDEST PUSH1 0x40 MLOAD PUSH4 0xA9059CBB PUSH1 0xE0 SHL DUP2 MSTORE SWAP1 SWAP2 POP PUSH1 0x1 PUSH1 0x1 PUSH1 0xA0 SHL SUB DUP4 AND SWAP1 PUSH4 0xA9059CBB SWAP1 PUSH2 0x488 SWAP1 CALLER SWAP1 DUP6 SWAP1 PUSH1 0x4 ADD PUSH2 0x1577 JUMP JUMPDEST PUSH1 0x20 PUSH1 0x40 MLOAD DUP1 DUP4 SUB DUP2 PUSH1 0x0 DUP8 DUP1 EXTCODESIZE ISZERO DUP1 ISZERO PUSH2 0x4A2 JUMPI PUSH1 0x0 DUP1 REVERT JUMPDEST POP GAS CALL ISZERO DUP1 ISZERO PUSH2 0x4B6 JUMPI RETURNDATASIZE PUSH1 0x0 DUP1 RETURNDATACOPY RETURNDATASIZE PUSH1 0x0 REVERT JUMPDEST POP POP POP POP PUSH1 0x40 MLOAD RETURNDATASIZE PUSH1 0x1F NOT PUSH1 0x1F DUP3 ADD AND DUP3 ADD DUP1 PUSH1 0x40 MSTORE POP DUP2 ADD SWAP1 PUSH2 0x4DA SWAP2 SWAP1 PUSH2 0x1462 JUMP JUMPDEST POP DUP2 PUSH1 0x1 PUSH1 0x1 PUSH1 0xA0 SHL SUB AND CALLER PUSH1 0x1 PUSH1 0x1 PUSH1 0xA0 SHL SUB AND PUSH32 0x9186304FFE50C568E430E57234122976C83522DA68345954BB5485CBAB395713 DUP4 PUSH1 0x40 MLOAD PUSH2 0x51E SWAP2 SWAP1 PUSH2 0x1857 JUMP JUMPDEST PUSH1 0x40 MLOAD DUP1 SWAP2 SUB SWAP1 LOG3 POP POP JUMP JUMPDEST PUSH1 0x1 SLOAD PUSH1 0x1 PUSH1 0x1 PUSH1 0xA0 SHL SUB AND DUP2 JUMP JUMPDEST CALLER PUSH1 0x0 SWAP1 DUP2 MSTORE PUSH1 0x9 PUSH1 0x20 MSTORE PUSH1 0x40 SWAP1 KECCAK256 DUP1 SLOAD DUP3 GT ISZERO PUSH2 0x569 JUMPI PUSH1 0x40 MLOAD PUSH3 0x461BCD PUSH1 0xE5 SHL DUP2 MSTORE PUSH1 0x4 ADD PUSH2 0x3A1 SWAP1 PUSH2 0x17E1 JUMP JUMPDEST PUSH2 0x571 PUSH2 0x100A JUMP JUMPDEST PUSH1 0x1 DUP2 ADD SLOAD PUSH1 0x8 SLOAD DUP3 SLOAD PUSH1 0x0 SWAP3 SWAP2 PUSH9 0x327CB2734119D3B7A9 PUSH1 0x1E SHL SWAP2 PUSH2 0x597 SWAP2 SWAP1 PUSH2 0x18A6 JUMP JUMPDEST PUSH2 0x5A1 SWAP2 SWAP1 PUSH2 0x1886 JUMP JUMPDEST PUSH2 0x5AB SWAP2 SWAP1 PUSH2 0x18C5 JUMP JUMPDEST SWAP1 POP DUP1 ISZERO PUSH2 0x5E8 JUMPI PUSH1 0x0 PUSH2 0x5BD PUSH2 0xB12 JUMP JUMPDEST SWAP1 POP DUP1 ISZERO PUSH2 0x5E6 JUMPI DUP1 DUP3 GT ISZERO PUSH2 0x5DC JUMPI PUSH2 0x5D7 CALLER DUP3 PUSH2 0x1240 JUMP JUMPDEST PUSH2 0x5E6 JUMP JUMPDEST PUSH2 0x5E6 CALLER DUP4 PUSH2 0x1240 JUMP JUMPDEST POP JUMPDEST DUP3 ISZERO PUSH2 0x626 JUMPI DUP2 SLOAD PUSH2 0x5FB SWAP1 DUP5 SWAP1 PUSH2 0x18C5 JUMP JUMPDEST DUP3 SSTORE PUSH1 0x5 SLOAD PUSH2 0x614 SWAP1 PUSH1 0x1 PUSH1 0x1 PUSH1 0xA0 SHL SUB AND CALLER DUP6 PUSH2 0x125B JUMP JUMPDEST DUP3 PUSH1 0x4 SLOAD PUSH2 0x622 SWAP2 SWAP1 PUSH2 0x18C5 JUMP JUMPDEST PUSH1 0x4 SSTORE JUMPDEST PUSH1 0x8 SLOAD DUP3 SLOAD PUSH9 0x327CB2734119D3B7A9 PUSH1 0x1E SHL SWAP2 PUSH2 0x642 SWAP2 PUSH2 0x18A6 JUMP JUMPDEST PUSH2 0x64C SWAP2 SWAP1 PUSH2 0x1886 JUMP JUMPDEST PUSH1 0x1 DUP4 ADD SSTORE PUSH1 0x40 MLOAD CALLER SWAP1 PUSH32 0x884EDAD9CE6FA2440D8A54CC123490EB96D2768479D49FF9C7366125A9424364 SWAP1 PUSH2 0x683 SWAP1 DUP7 SWAP1 PUSH2 0x1857 JUMP JUMPDEST PUSH1 0x40 MLOAD DUP1 SWAP2 SUB SWAP1 LOG2 POP POP POP JUMP JUMPDEST PUSH2 0x698 PUSH2 0x123C JUMP JUMPDEST PUSH1 0x0 SLOAD PUSH1 0x1 PUSH1 0x1 PUSH1 0xA0 SHL SUB SWAP1 DUP2 AND SWAP2 AND EQ PUSH2 0x6C5 JUMPI PUSH1 0x40 MLOAD PUSH3 0x461BCD PUSH1 0xE5 SHL DUP2 MSTORE PUSH1 0x4 ADD PUSH2 0x3A1 SWAP1 PUSH2 0x16E0 JUMP JUMPDEST PUSH2 0x6CD PUSH2 0xB12 JUMP JUMPDEST DUP2 GT ISZERO PUSH2 0x6EC JUMPI PUSH1 0x40 MLOAD PUSH3 0x461BCD PUSH1 0xE5 SHL DUP2 MSTORE PUSH1 0x4 ADD PUSH2 0x3A1 SWAP1 PUSH2 0x15E9 JUMP JUMPDEST PUSH2 0x6F6 CALLER DUP3 PUSH2 0x1240 JUMP JUMPDEST CALLER PUSH1 0x1 PUSH1 0x1 PUSH1 0xA0 SHL SUB AND PUSH32 0x2D4434BB59801E733E9CE3DF40B0C5518861A5FCDEEC1906E83E03C755872B42 DUP3 PUSH1 0x40 MLOAD PUSH2 0x72F SWAP2 SWAP1 PUSH2 0x1857 JUMP JUMPDEST PUSH1 0x40 MLOAD DUP1 SWAP2 SUB SWAP1 LOG2 POP JUMP JUMPDEST PUSH1 0xB SLOAD DUP2 JUMP JUMPDEST PUSH1 0x5 SLOAD PUSH1 0x6 SLOAD PUSH1 0x7 SLOAD PUSH1 0x8 SLOAD PUSH1 0x1 PUSH1 0x1 PUSH1 0xA0 SHL SUB SWAP1 SWAP4 AND SWAP3 DUP5 JUMP JUMPDEST PUSH2 0x763 PUSH2 0x123C JUMP JUMPDEST PUSH1 0x0 SLOAD PUSH1 0x1 PUSH1 0x1 PUSH1 0xA0 SHL SUB SWAP1 DUP2 AND SWAP2 AND EQ PUSH2 0x790 JUMPI PUSH1 0x40 MLOAD PUSH3 0x461BCD PUSH1 0xE5 SHL DUP2 MSTORE PUSH1 0x4 ADD PUSH2 0x3A1 SWAP1 PUSH2 0x16E0 JUMP JUMPDEST PUSH1 0x0 DUP1 SLOAD PUSH1 0x40 MLOAD PUSH1 0x1 PUSH1 0x1 PUSH1 0xA0 SHL SUB SWAP1 SWAP2 AND SWAP1 PUSH32 0x8BE0079C531659141344CD1FD0A4F28419497F9722A3DAAFE3B4186F6B6457E0 SWAP1 DUP4 SWAP1 LOG3 PUSH1 0x0 DUP1 SLOAD PUSH1 0x1 PUSH1 0x1 PUSH1 0xA0 SHL SUB NOT AND SWAP1 SSTORE JUMP JUMPDEST PUSH1 0x4 DUP1 SLOAD PUSH1 0x1 SLOAD PUSH1 0x40 MLOAD PUSH4 0x70A08231 PUSH1 0xE0 SHL DUP2 MSTORE PUSH1 0x0 SWAP4 PUSH1 0x1 PUSH1 0x1 PUSH1 0xA0 SHL SUB SWAP1 SWAP3 AND SWAP2 PUSH4 0x70A08231 SWAP2 PUSH2 0x80F SWAP2 ADDRESS SWAP2 ADD PUSH2 0x153F JUMP JUMPDEST PUSH1 0x20 PUSH1 0x40 MLOAD DUP1 DUP4 SUB DUP2 DUP7 DUP1 EXTCODESIZE ISZERO DUP1 ISZERO PUSH2 0x827 JUMPI PUSH1 0x0 DUP1 REVERT JUMPDEST POP GAS STATICCALL ISZERO DUP1 ISZERO PUSH2 0x83B JUMPI RETURNDATASIZE PUSH1 0x0 DUP1 RETURNDATACOPY RETURNDATASIZE PUSH1 0x0 REVERT JUMPDEST POP POP POP POP PUSH1 0x40 MLOAD RETURNDATASIZE PUSH1 0x1F NOT PUSH1 0x1F DUP3 ADD AND DUP3 ADD DUP1 PUSH1 0x40 MSTORE POP DUP2 ADD SWAP1 PUSH2 0x85F SWAP2 SWAP1 PUSH2 0x14EA JUMP JUMPDEST PUSH2 0x869 SWAP2 SWAP1 PUSH2 0x18C5 JUMP JUMPDEST SWAP1 POP JUMPDEST SWAP1 JUMP JUMPDEST PUSH1 0x4 SLOAD DUP2 JUMP JUMPDEST PUSH1 0x3 SLOAD DUP2 JUMP JUMPDEST PUSH1 0x0 DUP2 GT PUSH2 0x89B JUMPI PUSH1 0x40 MLOAD PUSH3 0x461BCD PUSH1 0xE5 SHL DUP2 MSTORE PUSH1 0x4 ADD PUSH2 0x3A1 SWAP1 PUSH2 0x1715 JUMP JUMPDEST PUSH1 0x2 SLOAD PUSH2 0x8B3 SWAP1 PUSH1 0x1 PUSH1 0x1 PUSH1 0xA0 SHL SUB AND CALLER ADDRESS DUP5 PUSH2 0x12B6 JUMP JUMPDEST PUSH32 0x754FE3A3C69256B66CA56365FDA4BBF3299D7C94038C105FFD43FB4B37F56DB6 DUP2 PUSH1 0x40 MLOAD PUSH2 0x8E2 SWAP2 SWAP1 PUSH2 0x1857 JUMP JUMPDEST PUSH1 0x40 MLOAD DUP1 SWAP2 SUB SWAP1 LOG1 POP JUMP JUMPDEST PUSH1 0x0 SLOAD PUSH1 0x1 PUSH1 0x1 PUSH1 0xA0 SHL SUB AND SWAP1 JUMP JUMPDEST PUSH1 0x0 PUSH1 0xC SLOAD DUP3 GT PUSH2 0x918 JUMPI PUSH2 0x911 DUP4 DUP4 PUSH2 0x18C5 JUMP JUMPDEST SWAP1 POP PUSH2 0x937 JUMP JUMPDEST PUSH1 0xC SLOAD DUP4 LT PUSH2 0x929 JUMPI POP PUSH1 0x0 PUSH2 0x937 JUMP JUMPDEST DUP3 PUSH1 0xC SLOAD PUSH2 0x911 SWAP2 SWAP1 PUSH2 0x18C5 JUMP JUMPDEST SWAP3 SWAP2 POP POP JUMP JUMPDEST PUSH2 0x945 PUSH2 0x123C JUMP JUMPDEST PUSH1 0x0 SLOAD PUSH1 0x1 PUSH1 0x1 PUSH1 0xA0 SHL SUB SWAP1 DUP2 AND SWAP2 AND EQ PUSH2 0x972 JUMPI PUSH1 0x40 MLOAD PUSH3 0x461BCD PUSH1 0xE5 SHL DUP2 MSTORE PUSH1 0x4 ADD PUSH2 0x3A1 SWAP1 PUSH2 0x16E0 JUMP JUMPDEST PUSH1 0x0 PUSH2 0x97C PUSH2 0x7DA JUMP JUMPDEST PUSH1 0x1 SLOAD SWAP1 SWAP2 POP PUSH2 0x996 SWAP1 PUSH1 0x1 PUSH1 0x1 PUSH1 0xA0 SHL SUB AND CALLER DUP4 PUSH2 0x125B JUMP JUMPDEST CALLER PUSH1 0x1 PUSH1 0x1 PUSH1 0xA0 SHL SUB AND PUSH32 0xEB4E6A6A8D3C8EDBD6EF48316A3670CFA0E6374EEBE3F555E620399F866D2F32 DUP3 PUSH1 0x40 MLOAD PUSH2 0x72F SWAP2 SWAP1 PUSH2 0x1857 JUMP JUMPDEST PUSH1 0x2 SLOAD PUSH1 0x1 PUSH1 0x1 PUSH1 0xA0 SHL SUB AND DUP2 JUMP JUMPDEST PUSH2 0x9E6 PUSH2 0x123C JUMP JUMPDEST PUSH1 0x0 SLOAD PUSH1 0x1 PUSH1 0x1 PUSH1 0xA0 SHL SUB SWAP1 DUP2 AND SWAP2 AND EQ PUSH2 0xA13 JUMPI PUSH1 0x40 MLOAD PUSH3 0x461BCD PUSH1 0xE5 SHL DUP2 MSTORE PUSH1 0x4 ADD PUSH2 0x3A1 SWAP1 PUSH2 0x16E0 JUMP JUMPDEST PUSH1 0xC SLOAD DUP2 GT PUSH2 0xA34 JUMPI PUSH1 0x40 MLOAD PUSH3 0x461BCD PUSH1 0xE5 SHL DUP2 MSTORE PUSH1 0x4 ADD PUSH2 0x3A1 SWAP1 PUSH2 0x175A JUMP JUMPDEST PUSH1 0xC DUP2 SWAP1 SSTORE PUSH1 0x3 SLOAD PUSH1 0x40 MLOAD PUSH32 0x55418CABED8A0EC732DD9B1F84E69D3F33A8F9A70D721B7A6962A00C26A4572 SWAP2 PUSH2 0x8E2 SWAP2 DUP5 SWAP2 SWAP1 PUSH2 0x1860 JUMP JUMPDEST PUSH1 0x2 SLOAD PUSH1 0x1 SLOAD PUSH1 0x0 SWAP2 PUSH1 0x1 PUSH1 0x1 PUSH1 0xA0 SHL SUB SWAP2 DUP3 AND SWAP2 AND EQ ISZERO PUSH2 0xA92 JUMPI POP PUSH1 0x4 SLOAD PUSH2 0x86C JUMP JUMPDEST PUSH1 0x1 SLOAD PUSH1 0x40 MLOAD PUSH4 0x70A08231 PUSH1 0xE0 SHL DUP2 MSTORE PUSH1 0x1 PUSH1 0x1 PUSH1 0xA0 SHL SUB SWAP1 SWAP2 AND SWAP1 PUSH4 0x70A08231 SWAP1 PUSH2 0xAC2 SWAP1 ADDRESS SWAP1 PUSH1 0x4 ADD PUSH2 0x153F JUMP JUMPDEST PUSH1 0x20 PUSH1 0x40 MLOAD DUP1 DUP4 SUB DUP2 DUP7 DUP1 EXTCODESIZE ISZERO DUP1 ISZERO PUSH2 0xADA JUMPI PUSH1 0x0 DUP1 REVERT JUMPDEST POP GAS STATICCALL ISZERO DUP1 ISZERO PUSH2 0xAEE JUMPI RETURNDATASIZE PUSH1 0x0 DUP1 RETURNDATACOPY RETURNDATASIZE PUSH1 0x0 REVERT JUMPDEST POP POP POP POP PUSH1 0x40 MLOAD RETURNDATASIZE PUSH1 0x1F NOT PUSH1 0x1F DUP3 ADD AND DUP3 ADD DUP1 PUSH1 0x40 MSTORE POP DUP2 ADD SWAP1 PUSH2 0x869 SWAP2 SWAP1 PUSH2 0x14EA JUMP JUMPDEST PUSH1 0x2 SLOAD PUSH1 0x40 MLOAD PUSH4 0x70A08231 PUSH1 0xE0 SHL DUP2 MSTORE PUSH1 0x0 SWAP2 DUP3 SWAP2 PUSH1 0x1 PUSH1 0x1 PUSH1 0xA0 SHL SUB SWAP1 SWAP2 AND SWAP1 PUSH4 0x70A08231 SWAP1 PUSH2 0xB47 SWAP1 ADDRESS SWAP1 PUSH1 0x4 ADD PUSH2 0x153F JUMP JUMPDEST PUSH1 0x20 PUSH1 0x40 MLOAD DUP1 DUP4 SUB DUP2 DUP7 DUP1 EXTCODESIZE ISZERO DUP1 ISZERO PUSH2 0xB5F JUMPI PUSH1 0x0 DUP1 REVERT JUMPDEST POP GAS STATICCALL ISZERO DUP1 ISZERO PUSH2 0xB73 JUMPI RETURNDATASIZE PUSH1 0x0 DUP1 RETURNDATACOPY RETURNDATASIZE PUSH1 0x0 REVERT JUMPDEST POP POP POP POP PUSH1 0x40 MLOAD RETURNDATASIZE PUSH1 0x1F NOT PUSH1 0x1F DUP3 ADD AND DUP3 ADD DUP1 PUSH1 0x40 MSTORE POP DUP2 ADD SWAP1 PUSH2 0xB97 SWAP2 SWAP1 PUSH2 0x14EA JUMP JUMPDEST PUSH1 0x2 SLOAD PUSH1 0x1 SLOAD SWAP2 SWAP3 POP PUSH1 0x1 PUSH1 0x1 PUSH1 0xA0 SHL SUB SWAP2 DUP3 AND SWAP2 AND EQ ISZERO PUSH2 0x869 JUMPI PUSH1 0x4 SLOAD PUSH2 0xBC0 SWAP1 DUP3 PUSH2 0x18C5 JUMP JUMPDEST SWAP2 POP POP PUSH2 0x86C JUMP JUMPDEST CALLER PUSH1 0x0 SWAP1 DUP2 MSTORE PUSH1 0x9 PUSH1 0x20 MSTORE PUSH1 0x40 DUP2 KECCAK256 SWAP1 PUSH2 0xBE0 PUSH2 0x100A JUMP JUMPDEST DUP2 SLOAD ISZERO PUSH2 0xC60 JUMPI PUSH1 0x1 DUP3 ADD SLOAD PUSH1 0x8 SLOAD DUP4 SLOAD PUSH1 0x0 SWAP3 SWAP2 PUSH9 0x327CB2734119D3B7A9 PUSH1 0x1E SHL SWAP2 PUSH2 0xC0D SWAP2 SWAP1 PUSH2 0x18A6 JUMP JUMPDEST PUSH2 0xC17 SWAP2 SWAP1 PUSH2 0x1886 JUMP JUMPDEST PUSH2 0xC21 SWAP2 SWAP1 PUSH2 0x18C5 JUMP JUMPDEST SWAP1 POP DUP1 ISZERO PUSH2 0xC5E JUMPI PUSH1 0x0 PUSH2 0xC33 PUSH2 0xB12 JUMP JUMPDEST SWAP1 POP DUP1 ISZERO PUSH2 0xC5C JUMPI DUP1 DUP3 GT ISZERO PUSH2 0xC52 JUMPI PUSH2 0xC4D CALLER DUP3 PUSH2 0x1240 JUMP JUMPDEST PUSH2 0xC5C JUMP JUMPDEST PUSH2 0xC5C CALLER DUP4 PUSH2 0x1240 JUMP JUMPDEST POP JUMPDEST POP JUMPDEST DUP3 ISZERO PUSH2 0xDB1 JUMPI PUSH1 0x1 SLOAD PUSH1 0x40 MLOAD PUSH4 0x70A08231 PUSH1 0xE0 SHL DUP2 MSTORE PUSH1 0x0 SWAP2 PUSH1 0x1 PUSH1 0x1 PUSH1 0xA0 SHL SUB AND SWAP1 PUSH4 0x70A08231 SWAP1 PUSH2 0xC97 SWAP1 ADDRESS SWAP1 PUSH1 0x4 ADD PUSH2 0x153F JUMP JUMPDEST PUSH1 0x20 PUSH1 0x40 MLOAD DUP1 DUP4 SUB DUP2 DUP7 DUP1 EXTCODESIZE ISZERO DUP1 ISZERO PUSH2 0xCAF JUMPI PUSH1 0x0 DUP1 REVERT JUMPDEST POP GAS STATICCALL ISZERO DUP1 ISZERO PUSH2 0xCC3 JUMPI RETURNDATASIZE PUSH1 0x0 DUP1 RETURNDATACOPY RETURNDATASIZE PUSH1 0x0 REVERT JUMPDEST POP POP POP POP PUSH1 0x40 MLOAD RETURNDATASIZE PUSH1 0x1F NOT PUSH1 0x1F DUP3 ADD AND DUP3 ADD DUP1 PUSH1 0x40 MSTORE POP DUP2 ADD SWAP1 PUSH2 0xCE7 SWAP2 SWAP1 PUSH2 0x14EA JUMP JUMPDEST PUSH1 0x5 SLOAD SWAP1 SWAP2 POP PUSH2 0xD02 SWAP1 PUSH1 0x1 PUSH1 0x1 PUSH1 0xA0 SHL SUB AND CALLER ADDRESS DUP8 PUSH2 0x12B6 JUMP JUMPDEST PUSH1 0x1 SLOAD PUSH1 0x40 MLOAD PUSH4 0x70A08231 PUSH1 0xE0 SHL DUP2 MSTORE DUP3 SWAP2 PUSH1 0x1 PUSH1 0x1 PUSH1 0xA0 SHL SUB AND SWAP1 PUSH4 0x70A08231 SWAP1 PUSH2 0xD32 SWAP1 ADDRESS SWAP1 PUSH1 0x4 ADD PUSH2 0x153F JUMP JUMPDEST PUSH1 0x20 PUSH1 0x40 MLOAD DUP1 DUP4 SUB DUP2 DUP7 DUP1 EXTCODESIZE ISZERO DUP1 ISZERO PUSH2 0xD4A JUMPI PUSH1 0x0 DUP1 REVERT JUMPDEST POP GAS STATICCALL ISZERO DUP1 ISZERO PUSH2 0xD5E JUMPI RETURNDATASIZE PUSH1 0x0 DUP1 RETURNDATACOPY RETURNDATASIZE PUSH1 0x0 REVERT JUMPDEST POP POP POP POP PUSH1 0x40 MLOAD RETURNDATASIZE PUSH1 0x1F NOT PUSH1 0x1F DUP3 ADD AND DUP3 ADD DUP1 PUSH1 0x40 MSTORE POP DUP2 ADD SWAP1 PUSH2 0xD82 SWAP2 SWAP1 PUSH2 0x14EA JUMP JUMPDEST PUSH2 0xD8C SWAP2 SWAP1 PUSH2 0x18C5 JUMP JUMPDEST DUP4 SLOAD SWAP1 SWAP3 POP PUSH2 0xD9C SWAP1 DUP4 SWAP1 PUSH2 0x186E JUMP JUMPDEST DUP4 SSTORE PUSH1 0x4 SLOAD PUSH2 0xDAC SWAP1 DUP4 SWAP1 PUSH2 0x186E JUMP JUMPDEST PUSH1 0x4 SSTORE POP JUMPDEST PUSH1 0x8 SLOAD DUP3 SLOAD PUSH9 0x327CB2734119D3B7A9 PUSH1 0x1E SHL SWAP2 PUSH2 0xDCD SWAP2 PUSH2 0x18A6 JUMP JUMPDEST PUSH2 0xDD7 SWAP2 SWAP1 PUSH2 0x1886 JUMP JUMPDEST PUSH1 0x1 DUP4 ADD SSTORE PUSH1 0x40 MLOAD CALLER SWAP1 PUSH32 0xE1FFFCC4923D04B559F4D29A8BFC6CDA04EB5B0D3C460751C2402C5C5CC9109C SWAP1 PUSH2 0x683 SWAP1 DUP5 SWAP1 PUSH2 0x1857 JUMP JUMPDEST PUSH2 0xE16 PUSH2 0x123C JUMP JUMPDEST PUSH1 0x0 SLOAD PUSH1 0x1 PUSH1 0x1 PUSH1 0xA0 SHL SUB SWAP1 DUP2 AND SWAP2 AND EQ PUSH2 0xE43 JUMPI PUSH1 0x40 MLOAD PUSH3 0x461BCD PUSH1 0xE5 SHL DUP2 MSTORE PUSH1 0x4 ADD PUSH2 0x3A1 SWAP1 PUSH2 0x16E0 JUMP JUMPDEST PUSH1 0x3 DUP2 SWAP1 SSTORE PUSH1 0xC SLOAD PUSH1 0x40 MLOAD PUSH32 0x55418CABED8A0EC732DD9B1F84E69D3F33A8F9A70D721B7A6962A00C26A4572 SWAP2 PUSH2 0x8E2 SWAP2 DUP5 SWAP1 PUSH2 0x1860 JUMP JUMPDEST PUSH1 0x0 SLOAD PUSH1 0x1 PUSH1 0xA8 SHL SWAP1 DIV PUSH1 0xFF AND DUP1 PUSH2 0xE9D JUMPI POP PUSH1 0x0 SLOAD PUSH1 0x1 PUSH1 0xA0 SHL SWAP1 DIV PUSH1 0xFF AND ISZERO JUMPDEST PUSH2 0xEB9 JUMPI PUSH1 0x40 MLOAD PUSH3 0x461BCD PUSH1 0xE5 SHL DUP2 MSTORE PUSH1 0x4 ADD PUSH2 0x3A1 SWAP1 PUSH2 0x165B JUMP JUMPDEST PUSH1 0x0 SLOAD PUSH1 0x1 PUSH1 0xA8 SHL SWAP1 DIV PUSH1 0xFF AND ISZERO DUP1 ISZERO PUSH2 0xEF0 JUMPI PUSH1 0x0 DUP1 SLOAD PUSH1 0xFF PUSH1 0xA0 SHL NOT PUSH1 0xFF PUSH1 0xA8 SHL NOT SWAP1 SWAP2 AND PUSH1 0x1 PUSH1 0xA8 SHL OR AND PUSH1 0x1 PUSH1 0xA0 SHL OR SWAP1 SSTORE JUMPDEST PUSH1 0x1 DUP1 SLOAD PUSH1 0x1 PUSH1 0x1 PUSH1 0xA0 SHL SUB DUP1 DUP10 AND PUSH1 0x1 PUSH1 0x1 PUSH1 0xA0 SHL SUB NOT SWAP3 DUP4 AND DUP2 OR SWAP1 SWAP4 SSTORE PUSH1 0x2 DUP1 SLOAD SWAP2 DUP10 AND SWAP2 DUP4 AND SWAP2 SWAP1 SWAP2 OR SWAP1 SSTORE PUSH1 0x3 DUP7 SWAP1 SSTORE PUSH1 0xB DUP6 SWAP1 SSTORE PUSH1 0xC DUP5 SWAP1 SSTORE PUSH1 0x40 DUP1 MLOAD PUSH1 0x80 DUP2 ADD DUP3 MSTORE DUP4 DUP2 MSTORE PUSH2 0x3E8 PUSH1 0x20 DUP3 ADD DUP2 SWAP1 MSTORE SWAP2 DUP2 ADD DUP8 SWAP1 MSTORE PUSH1 0x0 PUSH1 0x60 SWAP1 SWAP2 ADD DUP2 SWAP1 MSTORE PUSH1 0x5 DUP1 SLOAD SWAP1 SWAP4 AND SWAP1 SWAP4 OR SWAP1 SWAP2 SSTORE PUSH1 0x6 DUP2 SWAP1 SSTORE PUSH1 0x7 DUP6 SWAP1 SSTORE PUSH1 0x8 SWAP2 SWAP1 SWAP2 SSTORE PUSH1 0xA SSTORE DUP1 ISZERO PUSH2 0xF8A JUMPI PUSH1 0x0 DUP1 SLOAD PUSH1 0xFF PUSH1 0xA8 SHL NOT AND SWAP1 SSTORE JUMPDEST POP POP POP POP POP POP JUMP JUMPDEST CALLER PUSH1 0x0 DUP2 DUP2 MSTORE PUSH1 0x9 PUSH1 0x20 MSTORE PUSH1 0x40 SWAP1 KECCAK256 DUP1 SLOAD PUSH1 0x5 SLOAD SWAP2 SWAP3 PUSH2 0xFBB SWAP3 PUSH1 0x1 PUSH1 0x1 PUSH1 0xA0 SHL SUB AND SWAP2 PUSH2 0x125B JUMP JUMPDEST DUP1 SLOAD PUSH1 0x4 SLOAD PUSH2 0xFCA SWAP2 SWAP1 PUSH2 0x18C5 JUMP JUMPDEST PUSH1 0x4 SSTORE PUSH1 0x0 DUP1 DUP3 SSTORE PUSH1 0x1 DUP3 ADD DUP2 SWAP1 SSTORE PUSH1 0x40 MLOAD CALLER SWAP2 PUSH32 0x5FAFA99D0643513820BE26656B45130B01E1C03062E1266BF36F88CBD3BD9695 SWAP2 PUSH2 0x72F SWAP2 SWAP1 PUSH2 0x1857 JUMP JUMPDEST PUSH1 0x7 SLOAD NUMBER GT PUSH2 0x1018 JUMPI PUSH2 0x10A3 JUMP JUMPDEST PUSH1 0x4 SLOAD PUSH2 0x1028 JUMPI NUMBER PUSH1 0x7 SSTORE PUSH2 0x10A3 JUMP JUMPDEST PUSH1 0x0 PUSH2 0x1039 PUSH1 0x5 PUSH1 0x2 ADD SLOAD NUMBER PUSH2 0x8FC JUMP JUMPDEST PUSH1 0xA SLOAD PUSH1 0x6 SLOAD PUSH1 0x3 SLOAD SWAP3 SWAP4 POP PUSH1 0x0 SWAP3 PUSH2 0x1052 SWAP1 DUP6 PUSH2 0x18A6 JUMP JUMPDEST PUSH2 0x105C SWAP2 SWAP1 PUSH2 0x18A6 JUMP JUMPDEST PUSH2 0x1066 SWAP2 SWAP1 PUSH2 0x1886 JUMP JUMPDEST PUSH1 0x4 SLOAD SWAP1 SWAP2 POP PUSH2 0x1082 DUP3 PUSH9 0x327CB2734119D3B7A9 PUSH1 0x1E SHL PUSH2 0x18A6 JUMP JUMPDEST PUSH2 0x108C SWAP2 SWAP1 PUSH2 0x1886 JUMP JUMPDEST PUSH1 0x8 SLOAD PUSH2 0x1099 SWAP2 SWAP1 PUSH2 0x186E JUMP JUMPDEST PUSH1 0x8 SSTORE POP POP NUMBER PUSH1 0x7 SSTORE JUMPDEST JUMP JUMPDEST PUSH2 0x10AD PUSH2 0x123C JUMP JUMPDEST PUSH1 0x0 SLOAD PUSH1 0x1 PUSH1 0x1 PUSH1 0xA0 SHL SUB SWAP1 DUP2 AND SWAP2 AND EQ PUSH2 0x10DA JUMPI PUSH1 0x40 MLOAD PUSH3 0x461BCD PUSH1 0xE5 SHL DUP2 MSTORE PUSH1 0x4 ADD PUSH2 0x3A1 SWAP1 PUSH2 0x16E0 JUMP JUMPDEST PUSH1 0x1 PUSH1 0x1 PUSH1 0xA0 SHL SUB DUP2 AND PUSH2 0x1100 JUMPI PUSH1 0x40 MLOAD PUSH3 0x461BCD PUSH1 0xE5 SHL DUP2 MSTORE PUSH1 0x4 ADD PUSH2 0x3A1 SWAP1 PUSH2 0x1615 JUMP JUMPDEST PUSH1 0x0 DUP1 SLOAD PUSH1 0x40 MLOAD PUSH1 0x1 PUSH1 0x1 PUSH1 0xA0 SHL SUB DUP1 DUP6 AND SWAP4 SWAP3 AND SWAP2 PUSH32 0x8BE0079C531659141344CD1FD0A4F28419497F9722A3DAAFE3B4186F6B6457E0 SWAP2 LOG3 PUSH1 0x0 DUP1 SLOAD PUSH1 0x1 PUSH1 0x1 PUSH1 0xA0 SHL SUB NOT AND PUSH1 0x1 PUSH1 0x1 PUSH1 0xA0 SHL SUB SWAP3 SWAP1 SWAP3 AND SWAP2 SWAP1 SWAP2 OR SWAP1 SSTORE JUMP JUMPDEST PUSH1 0x1 PUSH1 0x1 PUSH1 0xA0 SHL SUB DUP2 AND PUSH1 0x0 SWAP1 DUP2 MSTORE PUSH1 0x9 PUSH1 0x20 MSTORE PUSH1 0x40 DUP2 KECCAK256 PUSH1 0x8 SLOAD PUSH1 0x7 SLOAD NUMBER GT DUP1 ISZERO PUSH2 0x1188 JUMPI POP PUSH1 0x4 SLOAD ISZERO ISZERO JUMPDEST ISZERO PUSH2 0x1200 JUMPI PUSH1 0x0 PUSH2 0x119E PUSH1 0x5 PUSH1 0x2 ADD SLOAD NUMBER PUSH2 0x8FC JUMP JUMPDEST PUSH1 0xA SLOAD PUSH1 0x6 SLOAD PUSH1 0x3 SLOAD SWAP3 SWAP4 POP PUSH1 0x0 SWAP3 PUSH2 0x11B7 SWAP1 DUP6 PUSH2 0x18A6 JUMP JUMPDEST PUSH2 0x11C1 SWAP2 SWAP1 PUSH2 0x18A6 JUMP JUMPDEST PUSH2 0x11CB SWAP2 SWAP1 PUSH2 0x1886 JUMP JUMPDEST PUSH1 0x4 SLOAD SWAP1 SWAP2 POP PUSH2 0x11E7 DUP3 PUSH9 0x327CB2734119D3B7A9 PUSH1 0x1E SHL PUSH2 0x18A6 JUMP JUMPDEST PUSH2 0x11F1 SWAP2 SWAP1 PUSH2 0x1886 JUMP JUMPDEST PUSH2 0x11FB SWAP1 DUP5 PUSH2 0x186E JUMP JUMPDEST SWAP3 POP POP POP JUMPDEST PUSH1 0x1 DUP3 ADD SLOAD DUP3 SLOAD PUSH9 0x327CB2734119D3B7A9 PUSH1 0x1E SHL SWAP1 PUSH2 0x1220 SWAP1 DUP5 SWAP1 PUSH2 0x18A6 JUMP JUMPDEST PUSH2 0x122A SWAP2 SWAP1 PUSH2 0x1886 JUMP JUMPDEST PUSH2 0x1234 SWAP2 SWAP1 PUSH2 0x18C5 JUMP JUMPDEST SWAP5 SWAP4 POP POP POP POP JUMP JUMPDEST CALLER SWAP1 JUMP JUMPDEST PUSH1 0x2 SLOAD PUSH2 0x1257 SWAP1 PUSH1 0x1 PUSH1 0x1 PUSH1 0xA0 SHL SUB AND DUP4 DUP4 PUSH2 0x125B JUMP JUMPDEST POP POP JUMP JUMPDEST PUSH2 0x12B1 DUP4 PUSH4 0xA9059CBB PUSH1 0xE0 SHL DUP5 DUP5 PUSH1 0x40 MLOAD PUSH1 0x24 ADD PUSH2 0x127A SWAP3 SWAP2 SWAP1 PUSH2 0x1577 JUMP JUMPDEST PUSH1 0x40 DUP1 MLOAD PUSH1 0x1F NOT DUP2 DUP5 SUB ADD DUP2 MSTORE SWAP2 SWAP1 MSTORE PUSH1 0x20 DUP2 ADD DUP1 MLOAD PUSH1 0x1 PUSH1 0x1 PUSH1 0xE0 SHL SUB AND PUSH1 0x1 PUSH1 0x1 PUSH1 0xE0 SHL SUB NOT SWAP1 SWAP4 AND SWAP3 SWAP1 SWAP3 OR SWAP1 SWAP2 MSTORE PUSH2 0x12DD JUMP JUMPDEST POP POP POP JUMP JUMPDEST PUSH2 0x12D7 DUP5 PUSH4 0x23B872DD PUSH1 0xE0 SHL DUP6 DUP6 DUP6 PUSH1 0x40 MLOAD PUSH1 0x24 ADD PUSH2 0x127A SWAP4 SWAP3 SWAP2 SWAP1 PUSH2 0x1553 JUMP JUMPDEST POP POP POP POP JUMP JUMPDEST PUSH1 0x0 PUSH2 0x1332 DUP3 PUSH1 0x40 MLOAD DUP1 PUSH1 0x40 ADD PUSH1 0x40 MSTORE DUP1 PUSH1 0x20 DUP2 MSTORE PUSH1 0x20 ADD PUSH32 0x5361666545524332303A206C6F772D6C6576656C2063616C6C206661696C6564 DUP2 MSTORE POP DUP6 PUSH1 0x1 PUSH1 0x1 PUSH1 0xA0 SHL SUB AND PUSH2 0x136C SWAP1 SWAP3 SWAP2 SWAP1 PUSH4 0xFFFFFFFF AND JUMP JUMPDEST DUP1 MLOAD SWAP1 SWAP2 POP ISZERO PUSH2 0x12B1 JUMPI DUP1 DUP1 PUSH1 0x20 ADD SWAP1 MLOAD DUP2 ADD SWAP1 PUSH2 0x1350 SWAP2 SWAP1 PUSH2 0x1462 JUMP JUMPDEST PUSH2 0x12B1 JUMPI PUSH1 0x40 MLOAD PUSH3 0x461BCD PUSH1 0xE5 SHL DUP2 MSTORE PUSH1 0x4 ADD PUSH2 0x3A1 SWAP1 PUSH2 0x180D JUMP JUMPDEST PUSH1 0x60 PUSH2 0x1234 DUP5 DUP5 PUSH1 0x0 DUP6 PUSH1 0x60 PUSH2 0x1381 DUP6 PUSH2 0x1439 JUMP JUMPDEST PUSH2 0x139D JUMPI PUSH1 0x40 MLOAD PUSH3 0x461BCD PUSH1 0xE5 SHL DUP2 MSTORE PUSH1 0x4 ADD PUSH2 0x3A1 SWAP1 PUSH2 0x17AA JUMP JUMPDEST PUSH1 0x0 DUP1 DUP7 PUSH1 0x1 PUSH1 0x1 PUSH1 0xA0 SHL SUB AND DUP6 DUP8 PUSH1 0x40 MLOAD PUSH2 0x13B9 SWAP2 SWAP1 PUSH2 0x1523 JUMP JUMPDEST PUSH1 0x0 PUSH1 0x40 MLOAD DUP1 DUP4 SUB DUP2 DUP6 DUP8 GAS CALL SWAP3 POP POP POP RETURNDATASIZE DUP1 PUSH1 0x0 DUP2 EQ PUSH2 0x13F6 JUMPI PUSH1 0x40 MLOAD SWAP2 POP PUSH1 0x1F NOT PUSH1 0x3F RETURNDATASIZE ADD AND DUP3 ADD PUSH1 0x40 MSTORE RETURNDATASIZE DUP3 MSTORE RETURNDATASIZE PUSH1 0x0 PUSH1 0x20 DUP5 ADD RETURNDATACOPY PUSH2 0x13FB JUMP JUMPDEST PUSH1 0x60 SWAP2 POP JUMPDEST POP SWAP2 POP SWAP2 POP DUP2 ISZERO PUSH2 0x140F JUMPI SWAP2 POP PUSH2 0x1234 SWAP1 POP JUMP JUMPDEST DUP1 MLOAD ISZERO PUSH2 0x141F JUMPI DUP1 MLOAD DUP1 DUP3 PUSH1 0x20 ADD REVERT JUMPDEST DUP4 PUSH1 0x40 MLOAD PUSH3 0x461BCD PUSH1 0xE5 SHL DUP2 MSTORE PUSH1 0x4 ADD PUSH2 0x3A1 SWAP2 SWAP1 PUSH2 0x15B6 JUMP JUMPDEST EXTCODESIZE ISZERO ISZERO SWAP1 JUMP JUMPDEST PUSH1 0x0 PUSH1 0x20 DUP3 DUP5 SUB SLT ISZERO PUSH2 0x1450 JUMPI DUP1 DUP2 REVERT JUMPDEST DUP2 CALLDATALOAD PUSH2 0x145B DUP2 PUSH2 0x191E JUMP JUMPDEST SWAP4 SWAP3 POP POP POP JUMP JUMPDEST PUSH1 0x0 PUSH1 0x20 DUP3 DUP5 SUB SLT ISZERO PUSH2 0x1473 JUMPI DUP1 DUP2 REVERT JUMPDEST DUP2 MLOAD DUP1 ISZERO ISZERO DUP2 EQ PUSH2 0x145B JUMPI DUP2 DUP3 REVERT JUMPDEST PUSH1 0x0 DUP1 PUSH1 0x0 DUP1 PUSH1 0x0 PUSH1 0xA0 DUP7 DUP9 SUB SLT ISZERO PUSH2 0x1499 JUMPI DUP1 DUP2 REVERT JUMPDEST DUP6 CALLDATALOAD PUSH2 0x14A4 DUP2 PUSH2 0x191E JUMP JUMPDEST SWAP5 POP PUSH1 0x20 DUP7 ADD CALLDATALOAD PUSH2 0x14B4 DUP2 PUSH2 0x191E JUMP JUMPDEST SWAP5 SWAP8 SWAP5 SWAP7 POP POP POP POP PUSH1 0x40 DUP4 ADD CALLDATALOAD SWAP3 PUSH1 0x60 DUP2 ADD CALLDATALOAD SWAP3 PUSH1 0x80 SWAP1 SWAP2 ADD CALLDATALOAD SWAP2 POP JUMP JUMPDEST PUSH1 0x0 PUSH1 0x20 DUP3 DUP5 SUB SLT ISZERO PUSH2 0x14E3 JUMPI DUP1 DUP2 REVERT JUMPDEST POP CALLDATALOAD SWAP2 SWAP1 POP JUMP JUMPDEST PUSH1 0x0 PUSH1 0x20 DUP3 DUP5 SUB SLT ISZERO PUSH2 0x14FB JUMPI DUP1 DUP2 REVERT JUMPDEST POP MLOAD SWAP2 SWAP1 POP JUMP JUMPDEST PUSH1 0x0 DUP1 PUSH1 0x40 DUP4 DUP6 SUB SLT ISZERO PUSH2 0x1514 JUMPI DUP2 DUP3 REVERT JUMPDEST POP POP DUP1 CALLDATALOAD SWAP3 PUSH1 0x20 SWAP1 SWAP2 ADD CALLDATALOAD SWAP2 POP JUMP JUMPDEST PUSH1 0x0 DUP3 MLOAD PUSH2 0x1535 DUP2 DUP5 PUSH1 0x20 DUP8 ADD PUSH2 0x18DC JUMP JUMPDEST SWAP2 SWAP1 SWAP2 ADD SWAP3 SWAP2 POP POP JUMP JUMPDEST PUSH1 0x1 PUSH1 0x1 PUSH1 0xA0 SHL SUB SWAP2 SWAP1 SWAP2 AND DUP2 MSTORE PUSH1 0x20 ADD SWAP1 JUMP JUMPDEST PUSH1 0x1 PUSH1 0x1 PUSH1 0xA0 SHL SUB SWAP4 DUP5 AND DUP2 MSTORE SWAP2 SWAP1 SWAP3 AND PUSH1 0x20 DUP3 ADD MSTORE PUSH1 0x40 DUP2 ADD SWAP2 SWAP1 SWAP2 MSTORE PUSH1 0x60 ADD SWAP1 JUMP JUMPDEST PUSH1 0x1 PUSH1 0x1 PUSH1 0xA0 SHL SUB SWAP3 SWAP1 SWAP3 AND DUP3 MSTORE PUSH1 0x20 DUP3 ADD MSTORE PUSH1 0x40 ADD SWAP1 JUMP JUMPDEST PUSH1 0x1 PUSH1 0x1 PUSH1 0xA0 SHL SUB SWAP5 SWAP1 SWAP5 AND DUP5 MSTORE PUSH1 0x20 DUP5 ADD SWAP3 SWAP1 SWAP3 MSTORE PUSH1 0x40 DUP4 ADD MSTORE PUSH1 0x60 DUP3 ADD MSTORE PUSH1 0x80 ADD SWAP1 JUMP JUMPDEST PUSH1 0x0 PUSH1 0x20 DUP3 MSTORE DUP3 MLOAD DUP1 PUSH1 0x20 DUP5 ADD MSTORE PUSH2 0x15D5 DUP2 PUSH1 0x40 DUP6 ADD PUSH1 0x20 DUP8 ADD PUSH2 0x18DC JUMP JUMPDEST PUSH1 0x1F ADD PUSH1 0x1F NOT AND SWAP2 SWAP1 SWAP2 ADD PUSH1 0x40 ADD SWAP3 SWAP2 POP POP JUMP JUMPDEST PUSH1 0x20 DUP1 DUP3 MSTORE PUSH1 0x12 SWAP1 DUP3 ADD MSTORE PUSH18 0x6E6F7420656E6F7567682072657761726473 PUSH1 0x70 SHL PUSH1 0x40 DUP3 ADD MSTORE PUSH1 0x60 ADD SWAP1 JUMP JUMPDEST PUSH1 0x20 DUP1 DUP3 MSTORE PUSH1 0x26 SWAP1 DUP3 ADD MSTORE PUSH32 0x4F776E61626C653A206E6577206F776E657220697320746865207A65726F2061 PUSH1 0x40 DUP3 ADD MSTORE PUSH6 0x646472657373 PUSH1 0xD0 SHL PUSH1 0x60 DUP3 ADD MSTORE PUSH1 0x80 ADD SWAP1 JUMP JUMPDEST PUSH1 0x20 DUP1 DUP3 MSTORE PUSH1 0x2E SWAP1 DUP3 ADD MSTORE PUSH32 0x496E697469616C697A61626C653A20636F6E747261637420697320616C726561 PUSH1 0x40 DUP3 ADD MSTORE PUSH14 0x191E481A5B9A5D1A585B1A5E9959 PUSH1 0x92 SHL PUSH1 0x60 DUP3 ADD MSTORE PUSH1 0x80 ADD SWAP1 JUMP JUMPDEST PUSH1 0x20 DUP1 DUP3 MSTORE PUSH1 0x19 SWAP1 DUP3 ADD MSTORE PUSH32 0x63616E206E6F74207377656570207374616B6520746F6B656E00000000000000 PUSH1 0x40 DUP3 ADD MSTORE PUSH1 0x60 ADD SWAP1 JUMP JUMPDEST PUSH1 0x20 DUP1 DUP3 MSTORE DUP2 DUP2 ADD MSTORE PUSH32 0x4F776E61626C653A2063616C6C6572206973206E6F7420746865206F776E6572 PUSH1 0x40 DUP3 ADD MSTORE PUSH1 0x60 ADD SWAP1 JUMP JUMPDEST PUSH1 0x20 DUP1 DUP3 MSTORE PUSH1 0x25 SWAP1 DUP3 ADD MSTORE PUSH32 0x4465706F7369742076616C7565206D7573742062652067726561746572207468 PUSH1 0x40 DUP3 ADD MSTORE PUSH5 0x30B7101817 PUSH1 0xD9 SHL PUSH1 0x60 DUP3 ADD MSTORE PUSH1 0x80 ADD SWAP1 JUMP JUMPDEST PUSH1 0x20 DUP1 DUP3 MSTORE PUSH1 0x30 SWAP1 DUP3 ADD MSTORE PUSH32 0x6E657720626F6E757320656E6420626C6F636B206D7573742062652067726561 PUSH1 0x40 DUP3 ADD MSTORE PUSH16 0x1D195C881D1A185B8818DD5C9C995B9D PUSH1 0x82 SHL PUSH1 0x60 DUP3 ADD MSTORE PUSH1 0x80 ADD SWAP1 JUMP JUMPDEST PUSH1 0x20 DUP1 DUP3 MSTORE PUSH1 0x1D SWAP1 DUP3 ADD MSTORE PUSH32 0x416464726573733A2063616C6C20746F206E6F6E2D636F6E7472616374000000 PUSH1 0x40 DUP3 ADD MSTORE PUSH1 0x60 ADD SWAP1 JUMP JUMPDEST PUSH1 0x20 DUP1 DUP3 MSTORE PUSH1 0x12 SWAP1 DUP3 ADD MSTORE PUSH18 0x1DDA5D1A191C985DCE881B9BDD0819DBDBD9 PUSH1 0x72 SHL PUSH1 0x40 DUP3 ADD MSTORE PUSH1 0x60 ADD SWAP1 JUMP JUMPDEST PUSH1 0x20 DUP1 DUP3 MSTORE PUSH1 0x2A SWAP1 DUP3 ADD MSTORE PUSH32 0x5361666545524332303A204552433230206F7065726174696F6E20646964206E PUSH1 0x40 DUP3 ADD MSTORE PUSH10 0x1BDD081CDD58D8D95959 PUSH1 0xB2 SHL PUSH1 0x60 DUP3 ADD MSTORE PUSH1 0x80 ADD SWAP1 JUMP JUMPDEST SWAP1 DUP2 MSTORE PUSH1 0x20 ADD SWAP1 JUMP JUMPDEST SWAP2 DUP3 MSTORE PUSH1 0x20 DUP3 ADD MSTORE PUSH1 0x40 ADD SWAP1 JUMP JUMPDEST PUSH1 0x0 DUP3 NOT DUP3 GT ISZERO PUSH2 0x1881 JUMPI PUSH2 0x1881 PUSH2 0x1908 JUMP JUMPDEST POP ADD SWAP1 JUMP JUMPDEST PUSH1 0x0 DUP3 PUSH2 0x18A1 JUMPI PUSH4 0x4E487B71 PUSH1 0xE0 SHL DUP2 MSTORE PUSH1 0x12 PUSH1 0x4 MSTORE PUSH1 0x24 DUP2 REVERT JUMPDEST POP DIV SWAP1 JUMP JUMPDEST PUSH1 0x0 DUP2 PUSH1 0x0 NOT DIV DUP4 GT DUP3 ISZERO ISZERO AND ISZERO PUSH2 0x18C0 JUMPI PUSH2 0x18C0 PUSH2 0x1908 JUMP JUMPDEST POP MUL SWAP1 JUMP JUMPDEST PUSH1 0x0 DUP3 DUP3 LT ISZERO PUSH2 0x18D7 JUMPI PUSH2 0x18D7 PUSH2 0x1908 JUMP JUMPDEST POP SUB SWAP1 JUMP JUMPDEST PUSH1 0x0 JUMPDEST DUP4 DUP2 LT ISZERO PUSH2 0x18F7 JUMPI DUP2 DUP2 ADD MLOAD DUP4 DUP3 ADD MSTORE PUSH1 0x20 ADD PUSH2 0x18DF JUMP JUMPDEST DUP4 DUP2 GT ISZERO PUSH2 0x12D7 JUMPI POP POP PUSH1 0x0 SWAP2 ADD MSTORE JUMP JUMPDEST PUSH4 0x4E487B71 PUSH1 0xE0 SHL PUSH1 0x0 MSTORE PUSH1 0x11 PUSH1 0x4 MSTORE PUSH1 0x24 PUSH1 0x0 REVERT JUMPDEST PUSH1 0x1 PUSH1 0x1 PUSH1 0xA0 SHL SUB DUP2 AND DUP2 EQ PUSH2 0x1933 JUMPI PUSH1 0x0 DUP1 REVERT JUMPDEST POP JUMP INVALID LOG2 PUSH5 0x6970667358 0x22 SLT KECCAK256 0x29 CALLDATASIZE 0xC1 0x21 0xBC 0xE0 PUSH16 0x6202FEF590B49BFBE92C4702606ACD04 0xD3 COINBASE 0xDD MOD 0xB8 0x22 0xC7 DUP4 0xBC PUSH5 0x736F6C6343 STOP ADDMOD STOP STOP CALLER "
        },
        "methodIdentifiers": {
          "REWARD_TOKEN()": "99248ea7",
          "STAKE_TOKEN()": "1c39b672",
          "bonusEndBlock()": "1aed6553",
          "deposit(uint256)": "b6b55f25",
          "depositRewards(uint256)": "8bdf67f2",
          "emergencyRewardWithdraw(uint256)": "3279beab",
          "emergencyWithdraw()": "db2e21bc",
          "getMultiplier(uint256,uint256)": "8dbb1e3a",
          "getStakeTokenFeeBalance()": "812bc708",
          "initialize(address,address,uint256,uint256,uint256)": "d13f90b4",
          "owner()": "8da5cb5b",
          "pendingReward(address)": "f40f0f52",
          "poolInfo()": "5a2f3d09",
          "renounceOwnership()": "715018a6",
          "rewardBalance()": "aa5c3ab4",
          "rewardPerBlock()": "8ae39cac",
          "setBonusEndBlock(uint256)": "9e0af234",
          "setRewardPerBlock(uint256)": "bb872b4a",
          "skimStakeTokenFees()": "970db7fa",
          "startBlock()": "48cd4cb1",
          "sweepToken(address)": "1be19560",
          "totalStakeTokenBalance()": "a49ceb19",
          "totalStaked()": "817b1cd2",
          "transferOwnership(address)": "f2fde38b",
          "updatePool()": "e3161ddd",
          "userInfo(address)": "1959a002",
          "withdraw(uint256)": "2e1a7d4d"
        }
      },
      "storageLayout": {
        "storage": [
          {
            "astId": 706,
            "contract": "contracts/SingleStakingPool.sol:StakingPool",
            "label": "_owner",
            "offset": 0,
            "slot": "0",
            "type": "t_address"
          },
          {
            "astId": 812,
            "contract": "contracts/SingleStakingPool.sol:StakingPool",
            "label": "_initialized",
            "offset": 20,
            "slot": "0",
            "type": "t_bool"
          },
          {
            "astId": 815,
            "contract": "contracts/SingleStakingPool.sol:StakingPool",
            "label": "_initializing",
            "offset": 21,
            "slot": "0",
            "type": "t_bool"
          },
          {
            "astId": 878,
            "contract": "contracts/SingleStakingPool.sol:StakingPool",
            "label": "STAKE_TOKEN",
            "offset": 0,
            "slot": "1",
            "type": "t_contract(IERC20)77"
          },
          {
            "astId": 881,
            "contract": "contracts/SingleStakingPool.sol:StakingPool",
            "label": "REWARD_TOKEN",
            "offset": 0,
            "slot": "2",
            "type": "t_contract(IERC20)77"
          },
          {
            "astId": 883,
            "contract": "contracts/SingleStakingPool.sol:StakingPool",
            "label": "rewardPerBlock",
            "offset": 0,
            "slot": "3",
            "type": "t_uint256"
          },
          {
            "astId": 886,
            "contract": "contracts/SingleStakingPool.sol:StakingPool",
            "label": "totalStaked",
            "offset": 0,
            "slot": "4",
            "type": "t_uint256"
          },
          {
            "astId": 889,
            "contract": "contracts/SingleStakingPool.sol:StakingPool",
            "label": "poolInfo",
            "offset": 0,
            "slot": "5",
            "type": "t_struct(PoolInfo)875_storage"
          },
          {
            "astId": 894,
            "contract": "contracts/SingleStakingPool.sol:StakingPool",
            "label": "userInfo",
            "offset": 0,
            "slot": "9",
            "type": "t_mapping(t_address,t_struct(UserInfo)865_storage)"
          },
          {
            "astId": 897,
            "contract": "contracts/SingleStakingPool.sol:StakingPool",
            "label": "totalAllocPoint",
            "offset": 0,
            "slot": "10",
            "type": "t_uint256"
          },
          {
            "astId": 899,
            "contract": "contracts/SingleStakingPool.sol:StakingPool",
            "label": "startBlock",
            "offset": 0,
            "slot": "11",
            "type": "t_uint256"
          },
          {
            "astId": 901,
            "contract": "contracts/SingleStakingPool.sol:StakingPool",
            "label": "bonusEndBlock",
            "offset": 0,
            "slot": "12",
            "type": "t_uint256"
          }
        ],
        "types": {
          "t_address": {
            "encoding": "inplace",
            "label": "address",
            "numberOfBytes": "20"
          },
          "t_bool": {
            "encoding": "inplace",
            "label": "bool",
            "numberOfBytes": "1"
          },
          "t_contract(IERC20)77": {
            "encoding": "inplace",
            "label": "contract IERC20",
            "numberOfBytes": "20"
          },
          "t_mapping(t_address,t_struct(UserInfo)865_storage)": {
            "encoding": "mapping",
            "key": "t_address",
            "label": "mapping(address => struct StakingPool.UserInfo)",
            "numberOfBytes": "32",
            "value": "t_struct(UserInfo)865_storage"
          },
          "t_struct(PoolInfo)875_storage": {
            "encoding": "inplace",
            "label": "struct StakingPool.PoolInfo",
            "members": [
              {
                "astId": 868,
                "contract": "contracts/SingleStakingPool.sol:StakingPool",
                "label": "lpToken",
                "offset": 0,
                "slot": "0",
                "type": "t_contract(IERC20)77"
              },
              {
                "astId": 870,
                "contract": "contracts/SingleStakingPool.sol:StakingPool",
                "label": "allocPoint",
                "offset": 0,
                "slot": "1",
                "type": "t_uint256"
              },
              {
                "astId": 872,
                "contract": "contracts/SingleStakingPool.sol:StakingPool",
                "label": "lastRewardBlock",
                "offset": 0,
                "slot": "2",
                "type": "t_uint256"
              },
              {
                "astId": 874,
                "contract": "contracts/SingleStakingPool.sol:StakingPool",
                "label": "accRewardTokenPerShare",
                "offset": 0,
                "slot": "3",
                "type": "t_uint256"
              }
            ],
            "numberOfBytes": "128"
          },
          "t_struct(UserInfo)865_storage": {
            "encoding": "inplace",
            "label": "struct StakingPool.UserInfo",
            "members": [
              {
                "astId": 862,
                "contract": "contracts/SingleStakingPool.sol:StakingPool",
                "label": "amount",
                "offset": 0,
                "slot": "0",
                "type": "t_uint256"
              },
              {
                "astId": 864,
                "contract": "contracts/SingleStakingPool.sol:StakingPool",
                "label": "rewardDebt",
                "offset": 0,
                "slot": "1",
                "type": "t_uint256"
              }
            ],
            "numberOfBytes": "64"
          },
          "t_uint256": {
            "encoding": "inplace",
            "label": "uint256",
            "numberOfBytes": "32"
          }
        }
      }
    }
  }
}