{
  "_format": "hh-sol-artifact-1",
  "contractName": "Hermes",
  "sourceName": "contracts/HermesToken.sol",
  "abi": [
    {
      "inputs": [],
      "stateMutability": "nonpayable",
      "type": "constructor"
    },
    {
      "anonymous": false,
      "inputs": [
        {
          "indexed": true,
          "internalType": "address",
          "name": "owner",
          "type": "address"
        },
        {
          "indexed": true,
          "internalType": "address",
          "name": "spender",
          "type": "address"
        },
        {
          "indexed": false,
          "internalType": "uint256",
          "name": "value",
          "type": "uint256"
        }
      ],
      "name": "Approval",
      "type": "event"
    },
    {
      "anonymous": false,
      "inputs": [
        {
          "indexed": true,
          "internalType": "address",
          "name": "previousOwner",
          "type": "address"
        },
        {
          "indexed": true,
          "internalType": "address",
          "name": "newOwner",
          "type": "address"
        }
      ],
      "name": "OwnershipTransferred",
      "type": "event"
    },
    {
      "anonymous": false,
      "inputs": [
        {
          "indexed": true,
          "internalType": "bytes32",
          "name": "role",
          "type": "bytes32"
        },
        {
          "indexed": true,
          "internalType": "bytes32",
          "name": "previousAdminRole",
          "type": "bytes32"
        },
        {
          "indexed": true,
          "internalType": "bytes32",
          "name": "newAdminRole",
          "type": "bytes32"
        }
      ],
      "name": "RoleAdminChanged",
      "type": "event"
    },
    {
      "anonymous": false,
      "inputs": [
        {
          "indexed": true,
          "internalType": "bytes32",
          "name": "role",
          "type": "bytes32"
        },
        {
          "indexed": true,
          "internalType": "address",
          "name": "account",
          "type": "address"
        },
        {
          "indexed": true,
          "internalType": "address",
          "name": "sender",
          "type": "address"
        }
      ],
      "name": "RoleGranted",
      "type": "event"
    },
    {
      "anonymous": false,
      "inputs": [
        {
          "indexed": true,
          "internalType": "bytes32",
          "name": "role",
          "type": "bytes32"
        },
        {
          "indexed": true,
          "internalType": "address",
          "name": "account",
          "type": "address"
        },
        {
          "indexed": true,
          "internalType": "address",
          "name": "sender",
          "type": "address"
        }
      ],
      "name": "RoleRevoked",
      "type": "event"
    },
    {
      "anonymous": false,
      "inputs": [
        {
          "indexed": true,
          "internalType": "address",
          "name": "from",
          "type": "address"
        },
        {
          "indexed": true,
          "internalType": "address",
          "name": "to",
          "type": "address"
        },
        {
          "indexed": false,
          "internalType": "uint256",
          "name": "value",
          "type": "uint256"
        }
      ],
      "name": "Transfer",
      "type": "event"
    },
    {
      "inputs": [],
      "name": "BURNER_ROLE",
      "outputs": [
        {
          "internalType": "bytes32",
          "name": "",
          "type": "bytes32"
        }
      ],
      "stateMutability": "view",
      "type": "function"
    },
    {
      "inputs": [],
      "name": "DEFAULT_ADMIN_ROLE",
      "outputs": [
        {
          "internalType": "bytes32",
          "name": "",
          "type": "bytes32"
        }
      ],
      "stateMutability": "view",
      "type": "function"
    },
    {
      "inputs": [],
      "name": "MINTER_ROLE",
      "outputs": [
        {
          "internalType": "bytes32",
          "name": "",
          "type": "bytes32"
        }
      ],
      "stateMutability": "view",
      "type": "function"
    },
    {
      "inputs": [
        {
          "internalType": "address",
          "name": "owner",
          "type": "address"
        },
        {
          "internalType": "address",
          "name": "spender",
          "type": "address"
        }
      ],
      "name": "allowance",
      "outputs": [
        {
          "internalType": "uint256",
          "name": "",
          "type": "uint256"
        }
      ],
      "stateMutability": "view",
      "type": "function"
    },
    {
      "inputs": [
        {
          "internalType": "address",
          "name": "spender",
          "type": "address"
        },
        {
          "internalType": "uint256",
          "name": "amount",
          "type": "uint256"
        }
      ],
      "name": "approve",
      "outputs": [
        {
          "internalType": "bool",
          "name": "",
          "type": "bool"
        }
      ],
      "stateMutability": "nonpayable",
      "type": "function"
    },
    {
      "inputs": [
        {
          "internalType": "address",
          "name": "account",
          "type": "address"
        }
      ],
      "name": "balanceOf",
      "outputs": [
        {
          "internalType": "uint256",
          "name": "",
          "type": "uint256"
        }
      ],
      "stateMutability": "view",
      "type": "function"
    },
    {
      "inputs": [
        {
          "internalType": "address",
          "name": "_account",
          "type": "address"
        },
        {
          "internalType": "uint256",
          "name": "amount",
          "type": "uint256"
        }
      ],
      "name": "burn",
      "outputs": [],
      "stateMutability": "nonpayable",
      "type": "function"
    },
    {
      "inputs": [],
      "name": "cap",
      "outputs": [
        {
          "internalType": "uint256",
          "name": "",
          "type": "uint256"
        }
      ],
      "stateMutability": "view",
      "type": "function"
    },
    {
      "inputs": [],
      "name": "decimals",
      "outputs": [
        {
          "internalType": "uint8",
          "name": "",
          "type": "uint8"
        }
      ],
      "stateMutability": "view",
      "type": "function"
    },
    {
      "inputs": [
        {
          "internalType": "address",
          "name": "spender",
          "type": "address"
        },
        {
          "internalType": "uint256",
          "name": "subtractedValue",
          "type": "uint256"
        }
      ],
      "name": "decreaseAllowance",
      "outputs": [
        {
          "internalType": "bool",
          "name": "",
          "type": "bool"
        }
      ],
      "stateMutability": "nonpayable",
      "type": "function"
    },
    {
      "inputs": [
        {
          "internalType": "bytes32",
          "name": "role",
          "type": "bytes32"
        }
      ],
      "name": "getRoleAdmin",
      "outputs": [
        {
          "internalType": "bytes32",
          "name": "",
          "type": "bytes32"
        }
      ],
      "stateMutability": "view",
      "type": "function"
    },
    {
      "inputs": [
        {
          "internalType": "address",
          "name": "_account",
          "type": "address"
        }
      ],
      "name": "grantBurnerRole",
      "outputs": [],
      "stateMutability": "nonpayable",
      "type": "function"
    },
    {
      "inputs": [
        {
          "internalType": "address",
          "name": "_account",
          "type": "address"
        }
      ],
      "name": "grantMinterRole",
      "outputs": [],
      "stateMutability": "nonpayable",
      "type": "function"
    },
    {
      "inputs": [
        {
          "internalType": "bytes32",
          "name": "role",
          "type": "bytes32"
        },
        {
          "internalType": "address",
          "name": "account",
          "type": "address"
        }
      ],
      "name": "grantRole",
      "outputs": [],
      "stateMutability": "nonpayable",
      "type": "function"
    },
    {
      "inputs": [
        {
          "internalType": "bytes32",
          "name": "role",
          "type": "bytes32"
        },
        {
          "internalType": "address",
          "name": "account",
          "type": "address"
        }
      ],
      "name": "hasRole",
      "outputs": [
        {
          "internalType": "bool",
          "name": "",
          "type": "bool"
        }
      ],
      "stateMutability": "view",
      "type": "function"
    },
    {
      "inputs": [
        {
          "internalType": "address",
          "name": "spender",
          "type": "address"
        },
        {
          "internalType": "uint256",
          "name": "addedValue",
          "type": "uint256"
        }
      ],
      "name": "increaseAllowance",
      "outputs": [
        {
          "internalType": "bool",
          "name": "",
          "type": "bool"
        }
      ],
      "stateMutability": "nonpayable",
      "type": "function"
    },
    {
      "inputs": [
        {
          "internalType": "uint256",
          "name": "amount",
          "type": "uint256"
        }
      ],
      "name": "maxCapReached",
      "outputs": [
        {
          "internalType": "bool",
          "name": "",
          "type": "bool"
        }
      ],
      "stateMutability": "view",
      "type": "function"
    },
    {
      "inputs": [],
      "name": "maxCapReached",
      "outputs": [
        {
          "internalType": "bool",
          "name": "",
          "type": "bool"
        }
      ],
      "stateMutability": "view",
      "type": "function"
    },
    {
      "inputs": [
        {
          "internalType": "address",
          "name": "_account",
          "type": "address"
        },
        {
          "internalType": "uint256",
          "name": "_amount",
          "type": "uint256"
        }
      ],
      "name": "mint",
      "outputs": [
        {
          "internalType": "bool",
          "name": "",
          "type": "bool"
        }
      ],
      "stateMutability": "nonpayable",
      "type": "function"
    },
    {
      "inputs": [],
      "name": "name",
      "outputs": [
        {
          "internalType": "string",
          "name": "",
          "type": "string"
        }
      ],
      "stateMutability": "view",
      "type": "function"
    },
    {
      "inputs": [],
      "name": "owner",
      "outputs": [
        {
          "internalType": "address",
          "name": "",
          "type": "address"
        }
      ],
      "stateMutability": "view",
      "type": "function"
    },
    {
      "inputs": [],
      "name": "renounceOwnership",
      "outputs": [],
      "stateMutability": "nonpayable",
      "type": "function"
    },
    {
      "inputs": [
        {
          "internalType": "bytes32",
          "name": "role",
          "type": "bytes32"
        },
        {
          "internalType": "address",
          "name": "account",
          "type": "address"
        }
      ],
      "name": "renounceRole",
      "outputs": [],
      "stateMutability": "nonpayable",
      "type": "function"
    },
    {
      "inputs": [
        {
          "internalType": "address",
          "name": "_account",
          "type": "address"
        }
      ],
      "name": "revokeBurnerRole",
      "outputs": [],
      "stateMutability": "nonpayable",
      "type": "function"
    },
    {
      "inputs": [
        {
          "internalType": "address",
          "name": "_account",
          "type": "address"
        }
      ],
      "name": "revokeMinterRole",
      "outputs": [],
      "stateMutability": "nonpayable",
      "type": "function"
    },
    {
      "inputs": [
        {
          "internalType": "bytes32",
          "name": "role",
          "type": "bytes32"
        },
        {
          "internalType": "address",
          "name": "account",
          "type": "address"
        }
      ],
      "name": "revokeRole",
      "outputs": [],
      "stateMutability": "nonpayable",
      "type": "function"
    },
    {
      "inputs": [
        {
          "internalType": "bytes4",
          "name": "interfaceId",
          "type": "bytes4"
        }
      ],
      "name": "supportsInterface",
      "outputs": [
        {
          "internalType": "bool",
          "name": "",
          "type": "bool"
        }
      ],
      "stateMutability": "view",
      "type": "function"
    },
    {
      "inputs": [],
      "name": "symbol",
      "outputs": [
        {
          "internalType": "string",
          "name": "",
          "type": "string"
        }
      ],
      "stateMutability": "view",
      "type": "function"
    },
    {
      "inputs": [],
      "name": "totalSupply",
      "outputs": [
        {
          "internalType": "uint256",
          "name": "",
          "type": "uint256"
        }
      ],
      "stateMutability": "view",
      "type": "function"
    },
    {
      "inputs": [
        {
          "internalType": "address",
          "name": "to",
          "type": "address"
        },
        {
          "internalType": "uint256",
          "name": "amount",
          "type": "uint256"
        }
      ],
      "name": "transfer",
      "outputs": [
        {
          "internalType": "bool",
          "name": "",
          "type": "bool"
        }
      ],
      "stateMutability": "nonpayable",
      "type": "function"
    },
    {
      "inputs": [
        {
          "internalType": "address",
          "name": "from",
          "type": "address"
        },
        {
          "internalType": "address",
          "name": "to",
          "type": "address"
        },
        {
          "internalType": "uint256",
          "name": "amount",
          "type": "uint256"
        }
      ],
      "name": "transferFrom",
      "outputs": [
        {
          "internalType": "bool",
          "name": "",
          "type": "bool"
        }
      ],
      "stateMutability": "nonpayable",
      "type": "function"
    },
    {
      "inputs": [
        {
          "internalType": "address",
          "name": "newOwner",
          "type": "address"
        }
      ],
      "name": "transferOwnership",
      "outputs": [],
      "stateMutability": "nonpayable",
      "type": "function"
    }
  ],
  "bytecode": "0x60a06040523480156200001157600080fd5b50666a94d74f430000604051806040016040528060068152602001654865726d657360d01b8152506040518060400160405280600481526020016348524d5360e01b815250620000706200006a6200013860201b60201c565b6200013c565b81516200008590600490602085019062000244565b5080516200009b90600590602084019062000244565b50505060008111620000ca5760405162461bcd60e51b8152600401620000c190620002ea565b60405180910390fd5b608052620000da6000336200018c565b620001067f9f2df0fed2c77648de5860a4cc508cd0818c85b8b8a1ab4ceeef8d981c8956a6336200018c565b620001327f3c11d16cbaffd01df69ce1c404f6340ee057498f5f00246190ea54220576a848336200018c565b6200035e565b3390565b600080546001600160a01b038381166001600160a01b0319831681178455604051919092169283917f8be0079c531659141344cd1fd0a4f28419497f9722a3daafe3b4186f6b6457e09190a35050565b62000198828262000219565b620002155760008281526006602090815260408083206001600160a01b03851684529091529020805460ff19166001179055620001d462000138565b6001600160a01b0316816001600160a01b0316837f2f8788117e7eff1d82e926ec794901d17c78024a50270940304540a733656f0d60405160405180910390a45b5050565b60009182526006602090815260408084206001600160a01b0393909316845291905290205460ff1690565b828054620002529062000321565b90600052602060002090601f016020900481019282620002765760008555620002c1565b82601f106200029157805160ff1916838001178555620002c1565b82800160010185558215620002c1579182015b82811115620002c1578251825591602001919060010190620002a4565b50620002cf929150620002d3565b5090565b5b80821115620002cf5760008155600101620002d4565b60208082526015908201527f45524332304361707065643a2063617020697320300000000000000000000000604082015260600190565b6002810460018216806200033657607f821691505b602082108114156200035857634e487b7160e01b600052602260045260246000fd5b50919050565b60805161181d6200037a6000396000610596015261181d6000f3fe608060405234801561001057600080fd5b50600436106101f05760003560e01c8063715018a61161010f578063a9059cbb116100a2578063d547741f11610071578063d547741f146103dc578063d98d23b1146103ef578063dd62ed3e14610402578063f2fde38b14610415576101f0565b8063a9059cbb146103a6578063c3052ffc146103b9578063c7ff1b60146103cc578063d5391393146103d4576101f0565b80639dc29fac116100de5780639dc29fac146103655780639f81825e14610378578063a217fddf1461038b578063a457c2d714610393576101f0565b8063715018a61461032d5780638da5cb5b1461033557806391d148541461034a57806395d89b411461035d576101f0565b8063313ce567116101875780633dd1eb61116101565780633dd1eb61146102e157806340c10f19146102f457806369e2f0fb1461030757806370a082311461031a576101f0565b8063313ce5671461029e578063355274ea146102b357806336568abe146102bb57806339509351146102ce576101f0565b806323b872dd116101c357806323b872dd1461025b578063248a9ca31461026e578063282c51f3146102815780632f2ff15d14610289576101f0565b806301ffc9a7146101f557806306fdde031461021e578063095ea7b31461023357806318160ddd14610246575b600080fd5b610208610203366004611236565b610428565b60405161021591906112e7565b60405180910390f35b610226610455565b60405161021591906112fb565b6102086102413660046111d3565b6104e7565b61024e61050b565b60405161021591906112f2565b610208610269366004611198565b610511565b61024e61027c3660046111fc565b61053f565b61024e610554565b61029c610297366004611214565b610566565b005b6102a661058f565b60405161021591906116b7565b61024e610594565b61029c6102c9366004611214565b6105b8565b6102086102dc3660046111d3565b610607565b61029c6102ef36600461114c565b610653565b6102086103023660046111d3565b610679565b61029c61031536600461114c565b6106a8565b61024e61032836600461114c565b6106ce565b61029c6106e9565b61033d610734565b60405161021591906112d3565b610208610358366004611214565b610743565b61022661076e565b61029c6103733660046111d3565b61077d565b6102086103863660046111fc565b6107a2565b61024e6107c7565b6102086103a13660046111d3565b6107cc565b6102086103b43660046111d3565b61082d565b61029c6103c736600461114c565b610845565b61020861086b565b61024e610884565b61029c6103ea366004611214565b610896565b61029c6103fd36600461114c565b6108b5565b61024e610410366004611166565b6108db565b61029c61042336600461114c565b610906565b60006001600160e01b03198216637965db0b60e01b148061044d575061044d82610982565b90505b919050565b60606004805461046490611756565b80601f016020809104026020016040519081016040528092919081815260200182805461049090611756565b80156104dd5780601f106104b2576101008083540402835291602001916104dd565b820191906000526020600020905b8154815290600101906020018083116104c057829003601f168201915b5050505050905090565b6000806104f261099b565b90506104ff81858561099f565b60019150505b92915050565b60035490565b60008061051c61099b565b9050610529858285610a53565b610534858585610a9d565b506001949350505050565b60009081526006602052604090206001015490565b6000805160206117a883398151915281565b61056f8261053f565b6105808161057b61099b565b610bc1565b61058a8383610c25565b505050565b600990565b7f000000000000000000000000000000000000000000000000000000000000000090565b6105c061099b565b6001600160a01b0316816001600160a01b0316146105f95760405162461bcd60e51b81526004016105f090611631565b60405180910390fd5b6106038282610cac565b5050565b60008061061261099b565b6001600160a01b038082166000908152600260209081526040808320938916835292905220549091506104ff908290869061064e9087906116c5565b61099f565b60006106618161057b61099b565b6106036000805160206117c883398151915283610c25565b60006000805160206117c88339815191526106968161057b61099b565b6106a08484610d31565b949350505050565b60006106b68161057b61099b565b6106036000805160206117c883398151915283610cac565b6001600160a01b031660009081526001602052604090205490565b6106f161099b565b6001600160a01b0316610702610734565b6001600160a01b0316146107285760405162461bcd60e51b81526004016105f0906114ed565b6107326000610d44565b565b6000546001600160a01b031690565b60009182526006602090815260408084206001600160a01b0393909316845291905290205460ff1690565b60606005805461046490611756565b6000805160206117a88339815191526107988161057b61099b565b61058a8383610d94565b60006107ac610594565b826107b561050b565b6107bf91906116c5565b101592915050565b600081565b6000806107d761099b565b6001600160a01b03808216600090815260026020908152604080832093891683529290522054909150838110156108205760405162461bcd60e51b81526004016105f0906115ec565b610534828686840361099f565b60008061083861099b565b90506104ff818585610a9d565b60006108538161057b61099b565b6106036000805160206117a883398151915283610cac565b6000610875610594565b61087d61050b565b1015905090565b6000805160206117c883398151915281565b61089f8261053f565b6108ab8161057b61099b565b61058a8383610cac565b60006108c38161057b61099b565b6106036000805160206117a883398151915283610c25565b6001600160a01b03918216600090815260026020908152604080832093909416825291909152205490565b61090e61099b565b6001600160a01b031661091f610734565b6001600160a01b0316146109455760405162461bcd60e51b81526004016105f0906114ed565b6001600160a01b03811661096b5760405162461bcd60e51b81526004016105f0906113e8565b610976600082610c25565b61097f81610d44565b50565b6001600160e01b031981166301ffc9a760e01b14919050565b3390565b6001600160a01b0383166109c55760405162461bcd60e51b81526004016105f0906115a8565b6001600160a01b0382166109eb5760405162461bcd60e51b81526004016105f09061142e565b6001600160a01b0380841660008181526002602090815260408083209487168084529490915290819020849055517f8c5be1e5ebec7d5bd14f71427d1e84f3dd0314c0f7b2291e5b200ac8c7c3b92590610a469085906112f2565b60405180910390a3505050565b6000610a5f84846108db565b90506000198114610a975781811015610a8a5760405162461bcd60e51b81526004016105f090611470565b610a97848484840361099f565b50505050565b6001600160a01b038316610ac35760405162461bcd60e51b81526004016105f090611563565b6001600160a01b038216610ae95760405162461bcd60e51b81526004016105f090611363565b610af483838361058a565b6001600160a01b03831660009081526001602052604090205481811015610b2d5760405162461bcd60e51b81526004016105f0906114a7565b6001600160a01b03808516600090815260016020526040808220858503905591851681529081208054849290610b649084906116c5565b92505081905550826001600160a01b0316846001600160a01b03167fddf252ad1be2c89b69c2b068fc378daa952ba7f163c4a11628f55a4df523b3ef84604051610bae91906112f2565b60405180910390a3610a9784848461058a565b610bcb8282610743565b61060357610be3816001600160a01b03166014610e85565b610bee836020610e85565b604051602001610bff92919061125e565b60408051601f198184030181529082905262461bcd60e51b82526105f0916004016112fb565b610c2f8282610743565b6106035760008281526006602090815260408083206001600160a01b03851684529091529020805460ff19166001179055610c6861099b565b6001600160a01b0316816001600160a01b0316837f2f8788117e7eff1d82e926ec794901d17c78024a50270940304540a733656f0d60405160405180910390a45050565b610cb68282610743565b156106035760008281526006602090815260408083206001600160a01b03851684529091529020805460ff19169055610ced61099b565b6001600160a01b0316816001600160a01b0316837ff6391f5c32d9c69d2a47ea670b442974b53935d1edc7fd64eb21e047a839171b60405160405180910390a45050565b6000610d3d8383611037565b9392505050565b600080546001600160a01b038381166001600160a01b0319831681178455604051919092169283917f8be0079c531659141344cd1fd0a4f28419497f9722a3daafe3b4186f6b6457e09190a35050565b6001600160a01b038216610dba5760405162461bcd60e51b81526004016105f090611522565b610dc68260008361058a565b6001600160a01b03821660009081526001602052604090205481811015610dff5760405162461bcd60e51b81526004016105f0906113a6565b6001600160a01b0383166000908152600160205260408120838303905560038054849290610e2e9084906116fc565b90915550506040516000906001600160a01b038516907fddf252ad1be2c89b69c2b068fc378daa952ba7f163c4a11628f55a4df523b3ef90610e719086906112f2565b60405180910390a361058a8360008461058a565b60606000610e948360026116dd565b610e9f9060026116c5565b67ffffffffffffffff811115610ec557634e487b7160e01b600052604160045260246000fd5b6040519080825280601f01601f191660200182016040528015610eef576020820181803683370190505b509050600360fc1b81600081518110610f1857634e487b7160e01b600052603260045260246000fd5b60200101906001600160f81b031916908160001a905350600f60fb1b81600181518110610f5557634e487b7160e01b600052603260045260246000fd5b60200101906001600160f81b031916908160001a9053506000610f798460026116dd565b610f849060016116c5565b90505b6001811115611018576f181899199a1a9b1b9c1cb0b131b232b360811b85600f1660108110610fc657634e487b7160e01b600052603260045260246000fd5b1a60f81b828281518110610fea57634e487b7160e01b600052603260045260246000fd5b60200101906001600160f81b031916908160001a90535060049490941c936110118161173f565b9050610f87565b508315610d3d5760405162461bcd60e51b81526004016105f09061132e565b6000611042826107a2565b61105a576110508383611062565b5060019050610505565b506000610505565b60006001600160a01b03831661108a5760405162461bcd60e51b81526004016105f090611680565b6110966000848461058a565b81600360008282546110a891906116c5565b90915550506001600160a01b038316600090815260016020526040812080548492906110d59084906116c5565b90915550506040516001600160a01b038416906000907fddf252ad1be2c89b69c2b068fc378daa952ba7f163c4a11628f55a4df523b3ef906111189086906112f2565b60405180910390a361112c6000848461058a565b50600192915050565b80356001600160a01b038116811461045057600080fd5b60006020828403121561115d578081fd5b610d3d82611135565b60008060408385031215611178578081fd5b61118183611135565b915061118f60208401611135565b90509250929050565b6000806000606084860312156111ac578081fd5b6111b584611135565b92506111c360208501611135565b9150604084013590509250925092565b600080604083850312156111e5578182fd5b6111ee83611135565b946020939093013593505050565b60006020828403121561120d578081fd5b5035919050565b60008060408385031215611226578182fd5b8235915061118f60208401611135565b600060208284031215611247578081fd5b81356001600160e01b031981168114610d3d578182fd5b60007f416363657373436f6e74726f6c3a206163636f756e742000000000000000000082528351611296816017850160208801611713565b7001034b99036b4b9b9b4b733903937b6329607d1b60179184019182015283516112c7816028840160208801611713565b01602801949350505050565b6001600160a01b0391909116815260200190565b901515815260200190565b90815260200190565b600060208252825180602084015261131a816040850160208701611713565b601f01601f19169190910160400192915050565b6020808252818101527f537472696e67733a20686578206c656e67746820696e73756666696369656e74604082015260600190565b60208082526023908201527f45524332303a207472616e7366657220746f20746865207a65726f206164647260408201526265737360e81b606082015260800190565b60208082526022908201527f45524332303a206275726e20616d6f756e7420657863656564732062616c616e604082015261636560f01b606082015260800190565b60208082526026908201527f4f776e61626c653a206e6577206f776e657220697320746865207a65726f206160408201526564647265737360d01b606082015260800190565b60208082526022908201527f45524332303a20617070726f766520746f20746865207a65726f206164647265604082015261737360f01b606082015260800190565b6020808252601d908201527f45524332303a20696e73756666696369656e7420616c6c6f77616e6365000000604082015260600190565b60208082526026908201527f45524332303a207472616e7366657220616d6f756e7420657863656564732062604082015265616c616e636560d01b606082015260800190565b6020808252818101527f4f776e61626c653a2063616c6c6572206973206e6f7420746865206f776e6572604082015260600190565b60208082526021908201527f45524332303a206275726e2066726f6d20746865207a65726f206164647265736040820152607360f81b606082015260800190565b60208082526025908201527f45524332303a207472616e736665722066726f6d20746865207a65726f206164604082015264647265737360d81b606082015260800190565b60208082526024908201527f45524332303a20617070726f76652066726f6d20746865207a65726f206164646040820152637265737360e01b606082015260800190565b60208082526025908201527f45524332303a2064656372656173656420616c6c6f77616e63652062656c6f77604082015264207a65726f60d81b606082015260800190565b6020808252602f908201527f416363657373436f6e74726f6c3a2063616e206f6e6c792072656e6f756e636560408201526e103937b632b9903337b91039b2b63360891b606082015260800190565b6020808252601f908201527f45524332303a206d696e7420746f20746865207a65726f206164647265737300604082015260600190565b60ff91909116815260200190565b600082198211156116d8576116d8611791565b500190565b60008160001904831182151516156116f7576116f7611791565b500290565b60008282101561170e5761170e611791565b500390565b60005b8381101561172e578181015183820152602001611716565b83811115610a975750506000910152565b60008161174e5761174e611791565b506000190190565b60028104600182168061176a57607f821691505b6020821081141561178b57634e487b7160e01b600052602260045260246000fd5b50919050565b634e487b7160e01b600052601160045260246000fdfe3c11d16cbaffd01df69ce1c404f6340ee057498f5f00246190ea54220576a8489f2df0fed2c77648de5860a4cc508cd0818c85b8b8a1ab4ceeef8d981c8956a6a2646970667358221220912ddd6c07d2fc9d4170c22fa51d1f4cedcb3d9366ba4080dc6c510b84728e5664736f6c63430008000033",
  "linkReferences": {},
  "deployedLinkReferences": {}
}