{
  "_format": "hh-sol-artifact-1",
  "contractName": "LiquidityTransferService",
  "sourceName": "contracts/LiquidityTransfer.sol",
  "abi": [
    {
      "inputs": [
        {
          "internalType": "address",
          "name": "_routerSrc",
          "type": "address"
        },
        {
          "internalType": "address",
          "name": "_routerDst",
          "type": "address"
        },
        {
          "internalType": "address",
          "name": "_tokenA",
          "type": "address"
        },
        {
          "internalType": "address",
          "name": "_tokenB",
          "type": "address"
        }
      ],
      "stateMutability": "nonpayable",
      "type": "constructor"
    },
    {
      "anonymous": false,
      "inputs": [
        {
          "indexed": false,
          "internalType": "address",
          "name": "user",
          "type": "address"
        },
        {
          "indexed": false,
          "internalType": "address",
          "name": "pair",
          "type": "address"
        },
        {
          "indexed": false,
          "internalType": "uint256",
          "name": "amountA",
          "type": "uint256"
        },
        {
          "indexed": false,
          "internalType": "uint256",
          "name": "amountB",
          "type": "uint256"
        },
        {
          "indexed": false,
          "internalType": "uint256",
          "name": "liquidity",
          "type": "uint256"
        }
      ],
      "name": "OnAddLiquidity",
      "type": "event"
    },
    {
      "anonymous": false,
      "inputs": [
        {
          "indexed": false,
          "internalType": "address",
          "name": "user",
          "type": "address"
        },
        {
          "indexed": false,
          "internalType": "address",
          "name": "pair",
          "type": "address"
        },
        {
          "indexed": false,
          "internalType": "uint256",
          "name": "amountA",
          "type": "uint256"
        },
        {
          "indexed": false,
          "internalType": "uint256",
          "name": "amountB",
          "type": "uint256"
        },
        {
          "indexed": false,
          "internalType": "uint256",
          "name": "liquidity",
          "type": "uint256"
        }
      ],
      "name": "OnRemoveLiquidity",
      "type": "event"
    },
    {
      "anonymous": false,
      "inputs": [
        {
          "indexed": false,
          "internalType": "uint256",
          "name": "oldPoints",
          "type": "uint256"
        },
        {
          "indexed": false,
          "internalType": "uint256",
          "name": "newPoints",
          "type": "uint256"
        }
      ],
      "name": "onSlippageBps",
      "type": "event"
    },
    {
      "inputs": [],
      "name": "admin",
      "outputs": [
        {
          "internalType": "address",
          "name": "",
          "type": "address"
        }
      ],
      "stateMutability": "view",
      "type": "function"
    },
    {
      "inputs": [],
      "name": "dstPair",
      "outputs": [
        {
          "internalType": "address",
          "name": "",
          "type": "address"
        }
      ],
      "stateMutability": "view",
      "type": "function"
    },
    {
      "inputs": [],
      "name": "routerDst",
      "outputs": [
        {
          "internalType": "contract IHermesRouter02",
          "name": "",
          "type": "address"
        }
      ],
      "stateMutability": "view",
      "type": "function"
    },
    {
      "inputs": [],
      "name": "routerSrc",
      "outputs": [
        {
          "internalType": "contract IHermesRouter02",
          "name": "",
          "type": "address"
        }
      ],
      "stateMutability": "view",
      "type": "function"
    },
    {
      "inputs": [
        {
          "internalType": "uint256",
          "name": "tokenAAmount",
          "type": "uint256"
        },
        {
          "internalType": "uint256",
          "name": "tokenBAmount",
          "type": "uint256"
        }
      ],
      "name": "run",
      "outputs": [],
      "stateMutability": "nonpayable",
      "type": "function"
    },
    {
      "inputs": [
        {
          "internalType": "uint256",
          "name": "points",
          "type": "uint256"
        }
      ],
      "name": "setSlippageBps",
      "outputs": [],
      "stateMutability": "nonpayable",
      "type": "function"
    },
    {
      "inputs": [],
      "name": "slippageBps",
      "outputs": [
        {
          "internalType": "uint256",
          "name": "",
          "type": "uint256"
        }
      ],
      "stateMutability": "view",
      "type": "function"
    },
    {
      "inputs": [],
      "name": "srcPair",
      "outputs": [
        {
          "internalType": "address",
          "name": "",
          "type": "address"
        }
      ],
      "stateMutability": "view",
      "type": "function"
    },
    {
      "inputs": [],
      "name": "tokenA",
      "outputs": [
        {
          "internalType": "address",
          "name": "",
          "type": "address"
        }
      ],
      "stateMutability": "view",
      "type": "function"
    },
    {
      "inputs": [],
      "name": "tokenB",
      "outputs": [
        {
          "internalType": "address",
          "name": "",
          "type": "address"
        }
      ],
      "stateMutability": "view",
      "type": "function"
    }
  ],
  "bytecode": "0x608060405260326006553480156200001657600080fd5b50604051620012f4380380620012f4833981810160405260808110156200003c57600080fd5b50805160208083015160408085015160609095015160078054336001600160a01b0319918216179091556000805482166001600160a01b038089169190911791829055600180548416828816179055600480548416828b161781556005805490941682861617909355845163c45a015560e01b81529451979895979596939591169363c45a01559381840193909291829003018186803b158015620000e057600080fd5b505afa158015620000f5573d6000803e3d6000fd5b505050506040513d60208110156200010c57600080fd5b50516040805163e6a4390560e01b81526001600160a01b03858116600483015284811660248301529151919092169163e6a43905916044808301926020929190829003018186803b1580156200016157600080fd5b505afa15801562000176573d6000803e3d6000fd5b505050506040513d60208110156200018d57600080fd5b5051600280546001600160a01b0319166001600160a01b03928316179081905516620002d15760008054906101000a90046001600160a01b03166001600160a01b031663c45a01556040518163ffffffff1660e01b815260040160206040518083038186803b1580156200020057600080fd5b505afa15801562000215573d6000803e3d6000fd5b505050506040513d60208110156200022c57600080fd5b5051604080516364e329cb60e11b81526001600160a01b03858116600483015284811660248301529151919092169163c9c653969160448083019260209291908290030181600087803b1580156200028357600080fd5b505af115801562000298573d6000803e3d6000fd5b505050506040513d6020811015620002af57600080fd5b5051600280546001600160a01b0319166001600160a01b039092169190911790555b600160009054906101000a90046001600160a01b03166001600160a01b031663c45a01556040518163ffffffff1660e01b815260040160206040518083038186803b1580156200032057600080fd5b505afa15801562000335573d6000803e3d6000fd5b505050506040513d60208110156200034c57600080fd5b50516040805163e6a4390560e01b81526001600160a01b03858116600483015284811660248301529151919092169163e6a43905916044808301926020929190829003018186803b158015620003a157600080fd5b505afa158015620003b6573d6000803e3d6000fd5b505050506040513d6020811015620003cd57600080fd5b5051600380546001600160a01b0319166001600160a01b039283161790819055166200051357600160009054906101000a90046001600160a01b03166001600160a01b031663c45a01556040518163ffffffff1660e01b815260040160206040518083038186803b1580156200044257600080fd5b505afa15801562000457573d6000803e3d6000fd5b505050506040513d60208110156200046e57600080fd5b5051604080516364e329cb60e11b81526001600160a01b03858116600483015284811660248301529151919092169163c9c653969160448083019260209291908290030181600087803b158015620004c557600080fd5b505af1158015620004da573d6000803e3d6000fd5b505050506040513d6020811015620004f157600080fd5b5051600380546001600160a01b0319166001600160a01b039092169190911790555b50505050610dcd80620005276000396000f3fe608060405234801561001057600080fd5b506004361061009e5760003560e01c80635f64b55b116100665780635f64b55b146101105780637357f5d2146101185780637559897b1461013b578063f851a44014610143578063f8e0adf81461014b5761009e565b80630bb58c7b146100a35780630d00ea7c146100c75780630fc63d10146100cf5780631a3ce4e6146100d7578063578c71d9146100f6575b600080fd5b6100ab610153565b604080516001600160a01b039092168252519081900360200190f35b6100ab610162565b6100ab610171565b6100f4600480360360208110156100ed57600080fd5b5035610180565b005b6100fe610213565b60408051918252519081900360200190f35b6100ab610219565b6100f46004803603604081101561012e57600080fd5b5080359060200135610228565b6100ab610d6a565b6100ab610d79565b6100ab610d88565b6001546001600160a01b031681565b6003546001600160a01b031681565b6004546001600160a01b031681565b6007546001600160a01b031633146101d1576040805162461bcd60e51b815260206004820152600f60248201526e32b93937b9161037379030b236b4b760891b604482015290519081900360640190fd5b600654604080519182526020820183905280517f32397db0f711ffd83a7ebb49ebb830c585180aad0982aaef60f81361df6661cb9281900390910190a1600655565b60065481565b6005546001600160a01b031681565b600254604080516370a0823160e01b815233600482015290516001600160a01b039092169160009183916370a0823191602480820192602092909190829003018186803b15801561027857600080fd5b505afa15801561028c573d6000803e3d6000fd5b505050506040513d60208110156102a257600080fd5b50519050806102ef576040805162461bcd60e51b8152602060048201526014602482015273657272206e6f20737263206c697175696469747960601b604482015290519081900360640190fd5b60408051636eb1769f60e11b8152336004820152306024820152905182916001600160a01b0385169163dd62ed3e91604480820192602092909190829003018186803b15801561033e57600080fd5b505afa158015610352573d6000803e3d6000fd5b505050506040513d602081101561036857600080fd5b505110156103ad576040805162461bcd60e51b815260206004820152600d60248201526c65727220616c6c6f77616e636560981b604482015290519081900360640190fd5b604080516323b872dd60e01b81523360048201523060248201526044810183905290516001600160a01b038416916323b872dd9160648083019260209291908290030181600087803b15801561040257600080fd5b505af1158015610416573d6000803e3d6000fd5b505050506040513d602081101561042c57600080fd5b5050604080516370a0823160e01b815230600482015290516001600160a01b038416916370a08231916024808301926020929190829003018186803b15801561047457600080fd5b505afa158015610488573d6000803e3d6000fd5b505050506040513d602081101561049e57600080fd5b5051600080546040805163095ea7b360e01b81526001600160a01b0392831660048201526024810185905290519394509085169263095ea7b392604480840193602093929083900390910190829087803b1580156104fb57600080fd5b505af115801561050f573d6000803e3d6000fd5b505050506040513d602081101561052557600080fd5b5050600080546004805460055460408051635d5155ef60e11b81526001600160a01b039384169481019490945290821660248401526044830186905260648301899052608483018890523060a4840152603c420160c484015280518594929092169263baa2abde9260e4808301939282900301818787803b1580156105a957600080fd5b505af11580156105bd573d6000803e3d6000fd5b505050506040513d60408110156105d357600080fd5b508051602091820151600254604080513381526001600160a01b03909216948201949094528084018390526060810182905260808101879052925191945092507f9478ce63eb33fb6fe4174bcecc3df49ccaa99b78ecd4957b93381f4e5c0794db9181900360a00190a160048054600554604080516370a0823160e01b81523094810194909452516001600160a01b0392831693919092169183916370a08231916024808301926020929190829003018186803b15801561069357600080fd5b505afa1580156106a7573d6000803e3d6000fd5b505050506040513d60208110156106bd57600080fd5b5051604080516370a0823160e01b815230600482015290519195506001600160a01b038316916370a0823191602480820192602092909190829003018186803b15801561070957600080fd5b505afa15801561071d573d6000803e3d6000fd5b505050506040513d602081101561073357600080fd5b50516001546040805163095ea7b360e01b81526001600160a01b0392831660048201526024810188905290519295509084169163095ea7b3916044808201926020929091908290030181600087803b15801561078e57600080fd5b505af11580156107a2573d6000803e3d6000fd5b505050506040513d60208110156107b857600080fd5b50506001546040805163095ea7b360e01b81526001600160a01b0392831660048201526024810186905290519183169163095ea7b3916044808201926020929091908290030181600087803b15801561081057600080fd5b505af1158015610824573d6000803e3d6000fd5b505050506040513d602081101561083a57600080fd5b505060035460408051630240bc6b60e21b8152905160009283926001600160a01b0390911691630902f1ac91600480820192606092909190829003018186803b15801561088657600080fd5b505afa15801561089a573d6000803e3d6000fd5b505050506040513d60608110156108b057600080fd5b50805160209091015190925090506001600160701b038216158015906108df57506000816001600160701b0316115b15610a2d5760015460408051632b58577b60e21b8152600481018990526127109485026001600160701b03818116602484015294909502938416604482015290516000926001600160a01b03169163ad615dec916064808301926020929190829003018186803b15801561095257600080fd5b505afa158015610966573d6000803e3d6000fd5b505050506040513d602081101561097c57600080fd5b5051905085811161098f57809550610a2b565b60015460408051632b58577b60e21b8152600481018990526001600160701b0380861660248301528616604482015290516001600160a01b039092169163ad615dec91606480820192602092909190829003018186803b1580156109f257600080fd5b505afa158015610a06573d6000803e3d6000fd5b505050506040513d6020811015610a1c57600080fd5b50519050868111610a2b578096505b505b5050600154600480546005546006546040805162e8e33760e81b81526001600160a01b039485169581019590955291831660248501526044840189905260648401889052612710908103808a02829004608486015288020460a48401523360c484015242603c0160e484015251600093849384939091169163e8e33700916101048082019260609290919082900301818787803b158015610acd57600080fd5b505af1158015610ae1573d6000803e3d6000fd5b505050506040513d6060811015610af757600080fd5b50805160208083015160409384015184516370a0823160e01b8152306004820152945193975090955093506000926001600160a01b038916926370a0823192602480840193919291829003018186803b158015610b5357600080fd5b505afa158015610b67573d6000803e3d6000fd5b505050506040513d6020811015610b7d57600080fd5b505190508015610c03576040805163a9059cbb60e01b81523360048201526024810183905290516001600160a01b0388169163a9059cbb9160448083019260209291908290030181600087803b158015610bd657600080fd5b505af1158015610bea573d6000803e3d6000fd5b505050506040513d6020811015610c0057600080fd5b50505b6000856001600160a01b03166370a08231306040518263ffffffff1660e01b815260040180826001600160a01b0316815260200191505060206040518083038186803b158015610c5257600080fd5b505afa158015610c66573d6000803e3d6000fd5b505050506040513d6020811015610c7c57600080fd5b505190508015610d02576040805163a9059cbb60e01b81523360048201526024810183905290516001600160a01b0388169163a9059cbb9160448083019260209291908290030181600087803b158015610cd557600080fd5b505af1158015610ce9573d6000803e3d6000fd5b505050506040513d6020811015610cff57600080fd5b50505b600254604080513381526001600160a01b0390921660208301528181018790526060820186905260808201859052517ffd0bb9900c9c616460a96735f26a45f5f7e227dbd891ebd2e04248aa72e7ade89181900360a00190a150505050505050505050505050565b6000546001600160a01b031681565b6007546001600160a01b031681565b6002546001600160a01b03168156fea264697066735822122058861ede43b917a05e9eceded556d3c3d0bac177214732389b83e7138cfdcde764736f6c634300060c0033",
  "linkReferences": {},
  "deployedLinkReferences": {}
}