{
  "_format": "hh-sol-artifact-1",
  "contractName": "StableHermesStaking",
  "sourceName": "contracts/StableHermesStaking.sol",
  "abi": [
    {
      "inputs": [
        {
          "internalType": "contract IERC20",
          "name": "_rewardToken",
          "type": "address"
        },
        {
          "internalType": "contract IERC20",
          "name": "_hermes",
          "type": "address"
        },
        {
          "internalType": "address",
          "name": "_feeCollector",
          "type": "address"
        },
        {
          "internalType": "uint256",
          "name": "_depositFeePercent",
          "type": "uint256"
        }
      ],
      "stateMutability": "nonpayable",
      "type": "constructor"
    },
    {
      "anonymous": false,
      "inputs": [
        {
          "indexed": true,
          "internalType": "address",
          "name": "user",
          "type": "address"
        },
        {
          "indexed": true,
          "internalType": "address",
          "name": "rewardToken",
          "type": "address"
        },
        {
          "indexed": false,
          "internalType": "uint256",
          "name": "amount",
          "type": "uint256"
        }
      ],
      "name": "ClaimReward",
      "type": "event"
    },
    {
      "anonymous": false,
      "inputs": [
        {
          "indexed": true,
          "internalType": "address",
          "name": "user",
          "type": "address"
        },
        {
          "indexed": false,
          "internalType": "uint256",
          "name": "amount",
          "type": "uint256"
        },
        {
          "indexed": false,
          "internalType": "uint256",
          "name": "fee",
          "type": "uint256"
        }
      ],
      "name": "Deposit",
      "type": "event"
    },
    {
      "anonymous": false,
      "inputs": [
        {
          "indexed": false,
          "internalType": "uint256",
          "name": "newFee",
          "type": "uint256"
        },
        {
          "indexed": false,
          "internalType": "uint256",
          "name": "oldFee",
          "type": "uint256"
        }
      ],
      "name": "DepositFeeChanged",
      "type": "event"
    },
    {
      "anonymous": false,
      "inputs": [
        {
          "indexed": true,
          "internalType": "address",
          "name": "user",
          "type": "address"
        },
        {
          "indexed": false,
          "internalType": "uint256",
          "name": "amount",
          "type": "uint256"
        }
      ],
      "name": "EmergencyWithdraw",
      "type": "event"
    },
    {
      "anonymous": false,
      "inputs": [
        {
          "indexed": true,
          "internalType": "address",
          "name": "previousOwner",
          "type": "address"
        },
        {
          "indexed": true,
          "internalType": "address",
          "name": "newOwner",
          "type": "address"
        }
      ],
      "name": "OwnershipTransferred",
      "type": "event"
    },
    {
      "anonymous": false,
      "inputs": [
        {
          "indexed": false,
          "internalType": "address",
          "name": "token",
          "type": "address"
        }
      ],
      "name": "RewardTokenAdded",
      "type": "event"
    },
    {
      "anonymous": false,
      "inputs": [
        {
          "indexed": false,
          "internalType": "address",
          "name": "token",
          "type": "address"
        }
      ],
      "name": "RewardTokenRemoved",
      "type": "event"
    },
    {
      "anonymous": false,
      "inputs": [
        {
          "indexed": true,
          "internalType": "address",
          "name": "user",
          "type": "address"
        },
        {
          "indexed": false,
          "internalType": "uint256",
          "name": "amount",
          "type": "uint256"
        }
      ],
      "name": "Withdraw",
      "type": "event"
    },
    {
      "inputs": [],
      "name": "PRECISION",
      "outputs": [
        {
          "internalType": "uint256",
          "name": "",
          "type": "uint256"
        }
      ],
      "stateMutability": "view",
      "type": "function"
    },
    {
      "inputs": [
        {
          "internalType": "contract IERC20",
          "name": "",
          "type": "address"
        }
      ],
      "name": "accRewardPerShare",
      "outputs": [
        {
          "internalType": "uint256",
          "name": "",
          "type": "uint256"
        }
      ],
      "stateMutability": "view",
      "type": "function"
    },
    {
      "inputs": [
        {
          "internalType": "contract IERC20",
          "name": "_rewardToken",
          "type": "address"
        }
      ],
      "name": "addRewardToken",
      "outputs": [],
      "stateMutability": "nonpayable",
      "type": "function"
    },
    {
      "inputs": [
        {
          "internalType": "uint256",
          "name": "_amount",
          "type": "uint256"
        }
      ],
      "name": "deposit",
      "outputs": [],
      "stateMutability": "nonpayable",
      "type": "function"
    },
    {
      "inputs": [],
      "name": "depositFeePercent",
      "outputs": [
        {
          "internalType": "uint256",
          "name": "",
          "type": "uint256"
        }
      ],
      "stateMutability": "view",
      "type": "function"
    },
    {
      "inputs": [],
      "name": "emergencyWithdraw",
      "outputs": [],
      "stateMutability": "nonpayable",
      "type": "function"
    },
    {
      "inputs": [],
      "name": "feeCollector",
      "outputs": [
        {
          "internalType": "address",
          "name": "",
          "type": "address"
        }
      ],
      "stateMutability": "view",
      "type": "function"
    },
    {
      "inputs": [
        {
          "internalType": "address",
          "name": "_user",
          "type": "address"
        },
        {
          "internalType": "contract IERC20",
          "name": "_rewardToken",
          "type": "address"
        }
      ],
      "name": "getUserInfo",
      "outputs": [
        {
          "internalType": "uint256",
          "name": "",
          "type": "uint256"
        },
        {
          "internalType": "uint256",
          "name": "",
          "type": "uint256"
        }
      ],
      "stateMutability": "view",
      "type": "function"
    },
    {
      "inputs": [],
      "name": "hermes",
      "outputs": [
        {
          "internalType": "contract IERC20",
          "name": "",
          "type": "address"
        }
      ],
      "stateMutability": "view",
      "type": "function"
    },
    {
      "inputs": [
        {
          "internalType": "contract IERC20",
          "name": "",
          "type": "address"
        }
      ],
      "name": "isRewardToken",
      "outputs": [
        {
          "internalType": "bool",
          "name": "",
          "type": "bool"
        }
      ],
      "stateMutability": "view",
      "type": "function"
    },
    {
      "inputs": [
        {
          "internalType": "contract IERC20",
          "name": "",
          "type": "address"
        }
      ],
      "name": "lastRewardBalance",
      "outputs": [
        {
          "internalType": "uint256",
          "name": "",
          "type": "uint256"
        }
      ],
      "stateMutability": "view",
      "type": "function"
    },
    {
      "inputs": [],
      "name": "owner",
      "outputs": [
        {
          "internalType": "address",
          "name": "",
          "type": "address"
        }
      ],
      "stateMutability": "view",
      "type": "function"
    },
    {
      "inputs": [
        {
          "internalType": "address",
          "name": "_user",
          "type": "address"
        },
        {
          "internalType": "contract IERC20",
          "name": "_token",
          "type": "address"
        }
      ],
      "name": "pendingReward",
      "outputs": [
        {
          "internalType": "uint256",
          "name": "",
          "type": "uint256"
        }
      ],
      "stateMutability": "view",
      "type": "function"
    },
    {
      "inputs": [
        {
          "internalType": "contract IERC20",
          "name": "_rewardToken",
          "type": "address"
        }
      ],
      "name": "removeRewardToken",
      "outputs": [],
      "stateMutability": "nonpayable",
      "type": "function"
    },
    {
      "inputs": [],
      "name": "renounceOwnership",
      "outputs": [],
      "stateMutability": "nonpayable",
      "type": "function"
    },
    {
      "inputs": [
        {
          "internalType": "uint256",
          "name": "",
          "type": "uint256"
        }
      ],
      "name": "rewardTokens",
      "outputs": [
        {
          "internalType": "contract IERC20",
          "name": "",
          "type": "address"
        }
      ],
      "stateMutability": "view",
      "type": "function"
    },
    {
      "inputs": [],
      "name": "rewardTokensLength",
      "outputs": [
        {
          "internalType": "uint256",
          "name": "",
          "type": "uint256"
        }
      ],
      "stateMutability": "view",
      "type": "function"
    },
    {
      "inputs": [
        {
          "internalType": "uint256",
          "name": "_depositFeePercent",
          "type": "uint256"
        }
      ],
      "name": "setDepositFeePercent",
      "outputs": [],
      "stateMutability": "nonpayable",
      "type": "function"
    },
    {
      "inputs": [
        {
          "internalType": "address",
          "name": "newOwner",
          "type": "address"
        }
      ],
      "name": "transferOwnership",
      "outputs": [],
      "stateMutability": "nonpayable",
      "type": "function"
    },
    {
      "inputs": [
        {
          "internalType": "contract IERC20",
          "name": "_token",
          "type": "address"
        }
      ],
      "name": "updateReward",
      "outputs": [],
      "stateMutability": "nonpayable",
      "type": "function"
    },
    {
      "inputs": [
        {
          "internalType": "uint256",
          "name": "_amount",
          "type": "uint256"
        }
      ],
      "name": "withdraw",
      "outputs": [],
      "stateMutability": "nonpayable",
      "type": "function"
    }
  ],
  "bytecode": "0x60806040523480156200001157600080fd5b5060405162001df738038062001df7833981810160405260808110156200003757600080fd5b508051602082015160408301516060909301519192909160006200005a620001cf565b600080546001600160a01b0319166001600160a01b0383169081178255604051929350917f8be0079c531659141344cd1fd0a4f28419497f9722a3daafe3b4186f6b6457e0908290a3506001600160a01b038216620000eb5760405162461bcd60e51b815260040180806020018281038252603581526020018062001dc26035913960400191505060405180910390fd5b6706f05b59d3b20000811115620001345760405162461bcd60e51b815260040180806020018281038252603e81526020018062001d84603e913960400191505060405180910390fd5b600180546001600160a01b03199081166001600160a01b0395861617825560079290925560068054831693851693909317909255929091166000818152600460205260408120805460ff19168417905560038054938401815590527fc2575a0e9e593c00f959f8c92f12db2869c3395a3b0502d05e2516446f71f85b909101805490921617905569d3c21bcecceda1000000600955620001d3565b3390565b611ba180620001e36000396000f3fe608060405234801561001057600080fd5b50600436106101375760003560e01c80639ced7e76116100b8578063c415b95c1161007c578063c415b95c14610326578063cc1252ae1461032e578063d8092c9214610336578063db2e21bc1461033e578063f2801fe714610346578063f2fde38b1461038d57610137565b80639ced7e7614610291578063aaf5eb68146102bf578063b5fd73f8146102c7578063b6b55f2514610301578063bf199e621461031e57610137565b80635fc0d9e0116100ff5780635fc0d9e0146101fc578063632447c914610222578063715018a6146102485780637bb7bed1146102505780638da5cb5b1461028957610137565b80631c03e6cc1461013c5780632052eb77146101645780632e1a7d4d146101815780633d509c971461019e5780635dcea4d4146101c4575b600080fd5b6101626004803603602081101561015257600080fd5b50356001600160a01b03166103b3565b005b6101626004803603602081101561017a57600080fd5b503561056d565b6101626004803603602081101561019757600080fd5b503561065d565b610162600480360360208110156101b457600080fd5b50356001600160a01b0316610859565b6101ea600480360360208110156101da57600080fd5b50356001600160a01b0316610a59565b60408051918252519081900360200190f35b6101ea6004803603602081101561021257600080fd5b50356001600160a01b0316610a6b565b6101626004803603602081101561023857600080fd5b50356001600160a01b0316610a7d565b610162610c46565b61026d6004803603602081101561026657600080fd5b5035610cf2565b604080516001600160a01b039092168252519081900360200190f35b61026d610d1c565b6101ea600480360360408110156102a757600080fd5b506001600160a01b0381358116916020013516610d2b565b6101ea610f06565b6102ed600480360360208110156102dd57600080fd5b50356001600160a01b0316610f0c565b604080519115158252519081900360200190f35b6101626004803603602081101561031757600080fd5b5035610f21565b6101ea61111d565b61026d611123565b6101ea611132565b61026d611138565b610162611147565b6103746004803603604081101561035c57600080fd5b506001600160a01b0381358116916020013516611212565b6040805192835260208301919091528051918290030190f35b610162600480360360208110156103a357600080fd5b50356001600160a01b0316611245565b6103bb611347565b6001600160a01b03166103cc610d1c565b6001600160a01b031614610415576040805162461bcd60e51b81526020600482018190526024820152600080516020611abe833981519152604482015290519081900360640190fd5b6001600160a01b03811660009081526004602052604090205460ff1615801561044657506001600160a01b03811615155b6104815760405162461bcd60e51b8152600401808060200182810382526029815260200180611a236029913960400191505060405180910390fd5b6003546019116104c25760405162461bcd60e51b815260040180806020018281038252602a815260200180611b08602a913960400191505060405180910390fd5b6003805460018082019092557fc2575a0e9e593c00f959f8c92f12db2869c3395a3b0502d05e2516446f71f85b0180546001600160a01b0319166001600160a01b0384169081179091556000908152600460205260409020805460ff1916909117905561052e81610a7d565b604080516001600160a01b038316815290517ff3e4c2c64e71e6ba2eaab9a599bced62f9eb91d2cda610bf41aa8c80ff2cf8269181900360200190a150565b610575611347565b6001600160a01b0316610586610d1c565b6001600160a01b0316146105cf576040805162461bcd60e51b81526020600482018190526024820152600080516020611abe833981519152604482015290519081900360640190fd5b6706f05b59d3b200008111156106165760405162461bcd60e51b815260040180806020018281038252603a815260200180611b32603a913960400191505060405180910390fd5b6007805490829055604080518381526020810183905281517f6be5411ea11f30380402ca68832d060d744cbc5f62d2344495c10256ba93904a929181900390910190a15050565b336000908152600a602052604090208054808311156106ad5760405162461bcd60e51b81526004018080602001828103825260348152602001806119ef6034913960400191505060405180910390fd5b81546000906106bc908561134b565b80845560035490915082156107f55760005b818110156107f3576000600382815481106106e557fe5b6000918252602090912001546001600160a01b0316905061070581610a7d565b6001600160a01b038116600090815260018701602090815260408083205460095460089093529083205461074e9261074891610742908b906113a8565b90611408565b9061134b565b6009546001600160a01b03841660009081526008602052604090205491925061077c916107429088906113a8565b6001600160a01b038316600090815260018901602052604090205580156107e9576107a882338361146f565b6040805182815290516001600160a01b0384169133917f7e77f685b38c861064cb08f2776eb5dfd3c82f652ed9f21221b8c53b75628e519181900360200190a35b50506001016106ce565b505b600254610802908661134b565b60025560015461081c906001600160a01b031633876115c3565b60408051868152905133917f884edad9ce6fa2440d8a54cc123490eb96d2768479d49ff9c7366125a9424364919081900360200190a25050505050565b610861611347565b6001600160a01b0316610872610d1c565b6001600160a01b0316146108bb576040805162461bcd60e51b81526020600482018190526024820152600080516020611abe833981519152604482015290519081900360640190fd5b6001600160a01b03811660009081526004602052604090205460ff166109125760405162461bcd60e51b815260040180806020018281038252602b815260200180611a4c602b913960400191505060405180910390fd5b61091b81610a7d565b6001600160a01b0381166000908152600460205260408120805460ff19169055600354905b81811015610a1857826001600160a01b03166003828154811061095f57fe5b6000918252602090912001546001600160a01b03161415610a10576003600183038154811061098a57fe5b600091825260209091200154600380546001600160a01b0390921691839081106109b057fe5b9060005260206000200160006101000a8154816001600160a01b0302191690836001600160a01b0316021790555060038054806109e957fe5b600082815260209020810160001990810180546001600160a01b0319169055019055610a18565b600101610940565b50604080516001600160a01b038416815290517f66257bcef574219c04f7c05f7a1c78d599da10491294c92a5805c48b4cdf50099181900360200190a15050565b60086020526000908152604090205481565b60056020526000908152604090205481565b6001600160a01b03811660009081526004602052604090205460ff16610ad45760405162461bcd60e51b81526004018080602001828103825260278152602001806119a26027913960400191505060405180910390fd5b6000816001600160a01b03166370a08231306040518263ffffffff1660e01b815260040180826001600160a01b0316815260200191505060206040518083038186803b158015610b2357600080fd5b505afa158015610b37573d6000803e3d6000fd5b505050506040513d6020811015610b4d57600080fd5b50516001549091506000906001600160a01b03848116911614610b705781610b7e565b600254610b7e90839061134b565b6002546001600160a01b03851660009081526005602052604090205491925090821480610ba9575080155b15610bb657505050610c43565b6001600160a01b038416600090815260056020526040812054610bda90849061134b565b9050610c17610bf883610742600954856113a890919063ffffffff16565b6001600160a01b0387166000908152600860205260409020549061161a565b6001600160a01b0386166000908152600860209081526040808320939093556005905220929092555050505b50565b610c4e611347565b6001600160a01b0316610c5f610d1c565b6001600160a01b031614610ca8576040805162461bcd60e51b81526020600482018190526024820152600080516020611abe833981519152604482015290519081900360640190fd5b600080546040516001600160a01b03909116907f8be0079c531659141344cd1fd0a4f28419497f9722a3daafe3b4186f6b6457e0908390a3600080546001600160a01b0319169055565b60038181548110610d0257600080fd5b6000918252602090912001546001600160a01b0316905081565b6000546001600160a01b031690565b6001600160a01b03811660009081526004602052604081205460ff16610d825760405162461bcd60e51b81526004018080602001828103825260278152602001806119a26027913960400191505060405180910390fd5b6001600160a01b038084166000908152600a60209081526040808320600254948716808552600884528285205483516370a0823160e01b815230600482015293519296959094909391926370a08231926024808201939291829003018186803b158015610dee57600080fd5b505afa158015610e02573d6000803e3d6000fd5b505050506040513d6020811015610e1857600080fd5b50516001549091506000906001600160a01b03888116911614610e3b5781610e49565b600254610e4990839061134b565b6001600160a01b0388166000908152600560205260409020549091508114801590610e7357508315155b15610ec5576001600160a01b038716600090815260056020526040812054610e9c90839061134b565b9050610ec1610eba86610742600954856113a890919063ffffffff16565b859061161a565b9350505b6001600160a01b03871660009081526001860160205260409020546009548654610ef892916107489161074290886113a8565b955050505050505b92915050565b60095481565b60046020526000908152604090205460ff1681565b336000908152600a60205260408120600754909190670de0b6b3a76400009084020490506000610f51848361134b565b83549091506000610f62828461161a565b80865560035490915060005b8181101561109257600060038281548110610f8557fe5b6000918252602090912001546001600160a01b03169050610fa581610a7d565b6001600160a01b03811660009081526001890160209081526040808320546009546008909352922054610fde91906107429088906113a8565b6001600160a01b038316600090815260018b0160205260409020558515611088576009546001600160a01b038316600090815260086020526040812054909161103291849161074891610742908c906113a8565b905080156110865761104583338361146f565b6040805182815290516001600160a01b0385169133917f7e77f685b38c861064cb08f2776eb5dfd3c82f652ed9f21221b8c53b75628e519181900360200190a35b505b5050600101610f6e565b506002546110a0908561161a565b6002556006546001546110c2916001600160a01b039182169133911688611674565b6001546110da906001600160a01b0316333087611674565b6040805185815260208101879052815133927f90890809c654f11d6e72a28fa60149770a0d11ec6c92319d6ceb2bb0a4ea1a15928290030190a250505050505050565b60035490565b6006546001600160a01b031681565b60075481565b6001546001600160a01b031681565b336000908152600a60205260408120805482825560035491929091905b818110156111af5760006003828154811061117b57fe5b60009182526020808320909101546001600160a01b0316825260018781019091526040822091909155919091019050611164565b506002546111bd908361134b565b6002556001546111d7906001600160a01b031633846115c3565b60408051838152905133917f5fafa99d0643513820be26656b45130b01e1c03062e1266bf36f88cbd3bd9695919081900360200190a2505050565b6001600160a01b038083166000908152600a60209081526040808320805494861684526001019091529020549250929050565b61124d611347565b6001600160a01b031661125e610d1c565b6001600160a01b0316146112a7576040805162461bcd60e51b81526020600482018190526024820152600080516020611abe833981519152604482015290519081900360640190fd5b6001600160a01b0381166112ec5760405162461bcd60e51b81526004018080602001828103825260268152602001806119c96026913960400191505060405180910390fd5b600080546040516001600160a01b03808516939216917f8be0079c531659141344cd1fd0a4f28419497f9722a3daafe3b4186f6b6457e091a3600080546001600160a01b0319166001600160a01b0392909216919091179055565b3390565b6000828211156113a2576040805162461bcd60e51b815260206004820152601e60248201527f536166654d6174683a207375627472616374696f6e206f766572666c6f770000604482015290519081900360640190fd5b50900390565b6000826113b757506000610f00565b828202828482816113c457fe5b04146114015760405162461bcd60e51b8152600401808060200182810382526021815260200180611a9d6021913960400191505060405180910390fd5b9392505050565b600080821161145e576040805162461bcd60e51b815260206004820152601a60248201527f536166654d6174683a206469766973696f6e206279207a65726f000000000000604482015290519081900360640190fd5b81838161146757fe5b049392505050565b6000836001600160a01b03166370a08231306040518263ffffffff1660e01b815260040180826001600160a01b0316815260200191505060206040518083038186803b1580156114be57600080fd5b505afa1580156114d2573d6000803e3d6000fd5b505050506040513d60208110156114e857600080fd5b50516001549091506000906001600160a01b0386811691161461150b5781611519565b60025461151990839061134b565b905080831115611572576001600160a01b038516600090815260056020526040902054611546908261134b565b6001600160a01b03861660008181526005602052604090209190915561156d9085836115c3565b6115bc565b6001600160a01b038516600090815260056020526040902054611595908461134b565b6001600160a01b0386166000818152600560205260409020919091556115bc9085856115c3565b5050505050565b604080516001600160a01b038416602482015260448082018490528251808303909101815260649091019091526020810180516001600160e01b031663a9059cbb60e01b1790526116159084906116d4565b505050565b600082820183811015611401576040805162461bcd60e51b815260206004820152601b60248201527f536166654d6174683a206164646974696f6e206f766572666c6f770000000000604482015290519081900360640190fd5b604080516001600160a01b0380861660248301528416604482015260648082018490528251808303909101815260849091019091526020810180516001600160e01b03166323b872dd60e01b1790526116ce9085906116d4565b50505050565b6000611729826040518060400160405280602081526020017f5361666545524332303a206c6f772d6c6576656c2063616c6c206661696c6564815250856001600160a01b03166117859092919063ffffffff16565b8051909150156116155780806020019051602081101561174857600080fd5b50516116155760405162461bcd60e51b815260040180806020018281038252602a815260200180611ade602a913960400191505060405180910390fd5b6060611794848460008561179c565b949350505050565b6060824710156117dd5760405162461bcd60e51b8152600401808060200182810382526026815260200180611a776026913960400191505060405180910390fd5b6117e6856118f7565b611837576040805162461bcd60e51b815260206004820152601d60248201527f416464726573733a2063616c6c20746f206e6f6e2d636f6e7472616374000000604482015290519081900360640190fd5b600080866001600160a01b031685876040518082805190602001908083835b602083106118755780518252601f199092019160209182019101611856565b6001836020036101000a03801982511681845116808217855250505050505090500191505060006040518083038185875af1925050503d80600081146118d7576040519150601f19603f3d011682016040523d82523d6000602084013e6118dc565b606091505b50915091506118ec8282866118fd565b979650505050505050565b3b151590565b6060831561190c575081611401565b82511561191c5782518084602001fd5b8160405162461bcd60e51b81526004018080602001828103825283818151815260200191508051906020019080838360005b8381101561196657818101518382015260200161194e565b50505050905090810190601f1680156119935780820380516001836020036101000a031916815260200191505b509250505060405180910390fdfe537461626c654865726d65735374616b696e673a2077726f6e672072657761726420746f6b656e4f776e61626c653a206e6577206f776e657220697320746865207a65726f2061646472657373537461626c654865726d65735374616b696e673a20776974686472617720616d6f756e7420657863656564732062616c616e6365537461626c654865726d65735374616b696e673a20746f6b656e2063616e2774206265206164646564537461626c654865726d65735374616b696e673a20746f6b656e2063616e27742062652072656d6f766564416464726573733a20696e73756666696369656e742062616c616e636520666f722063616c6c536166654d6174683a206d756c7469706c69636174696f6e206f766572666c6f774f776e61626c653a2063616c6c6572206973206e6f7420746865206f776e65725361666545524332303a204552433230206f7065726174696f6e20646964206e6f742073756363656564537461626c654865726d65735374616b696e673a206c697374206f6620746f6b656e20746f6f20626967537461626c654865726d65735374616b696e673a206465706f736974206665652063616e27742062652067726561746572207468616e20353025a26469706673582212201f2e546d86b5957dfefc75405e5964edcdc4c836ad58c231f6db757277fe390364736f6c63430007060033537461626c654865726d65735374616b696e673a206d6178206465706f736974206665652063616e27742062652067726561746572207468616e20353025537461626c654865726d65735374616b696e673a2066656520636f6c6c6563746f722063616e277420626520616464726573732030",
  "linkReferences": {},
  "deployedLinkReferences": {}
}