{
  "_format": "hh-sol-artifact-1",
  "contractName": "StakingPool",
  "sourceName": "contracts/SingleStakingPool.sol",
  "abi": [
    {
      "anonymous": false,
      "inputs": [
        {
          "indexed": true,
          "internalType": "address",
          "name": "user",
          "type": "address"
        },
        {
          "indexed": false,
          "internalType": "uint256",
          "name": "amount",
          "type": "uint256"
        }
      ],
      "name": "Deposit",
      "type": "event"
    },
    {
      "anonymous": false,
      "inputs": [
        {
          "indexed": false,
          "internalType": "uint256",
          "name": "amount",
          "type": "uint256"
        }
      ],
      "name": "DepositRewards",
      "type": "event"
    },
    {
      "anonymous": false,
      "inputs": [
        {
          "indexed": true,
          "internalType": "address",
          "name": "user",
          "type": "address"
        },
        {
          "indexed": false,
          "internalType": "uint256",
          "name": "amount",
          "type": "uint256"
        }
      ],
      "name": "EmergencyRewardWithdraw",
      "type": "event"
    },
    {
      "anonymous": false,
      "inputs": [
        {
          "indexed": true,
          "internalType": "address",
          "name": "user",
          "type": "address"
        },
        {
          "indexed": true,
          "internalType": "contract IERC20",
          "name": "token",
          "type": "address"
        },
        {
          "indexed": false,
          "internalType": "uint256",
          "name": "amount",
          "type": "uint256"
        }
      ],
      "name": "EmergencySweepWithdraw",
      "type": "event"
    },
    {
      "anonymous": false,
      "inputs": [
        {
          "indexed": true,
          "internalType": "address",
          "name": "user",
          "type": "address"
        },
        {
          "indexed": false,
          "internalType": "uint256",
          "name": "amount",
          "type": "uint256"
        }
      ],
      "name": "EmergencyWithdraw",
      "type": "event"
    },
    {
      "anonymous": false,
      "inputs": [
        {
          "indexed": false,
          "internalType": "uint256",
          "name": "bonusEndBlock",
          "type": "uint256"
        },
        {
          "indexed": false,
          "internalType": "uint256",
          "name": "rewardPerBlock",
          "type": "uint256"
        }
      ],
      "name": "LogUpdatePool",
      "type": "event"
    },
    {
      "anonymous": false,
      "inputs": [
        {
          "indexed": true,
          "internalType": "address",
          "name": "previousOwner",
          "type": "address"
        },
        {
          "indexed": true,
          "internalType": "address",
          "name": "newOwner",
          "type": "address"
        }
      ],
      "name": "OwnershipTransferred",
      "type": "event"
    },
    {
      "anonymous": false,
      "inputs": [
        {
          "indexed": true,
          "internalType": "address",
          "name": "user",
          "type": "address"
        },
        {
          "indexed": false,
          "internalType": "uint256",
          "name": "amount",
          "type": "uint256"
        }
      ],
      "name": "SkimStakeTokenFees",
      "type": "event"
    },
    {
      "anonymous": false,
      "inputs": [
        {
          "indexed": true,
          "internalType": "address",
          "name": "user",
          "type": "address"
        },
        {
          "indexed": false,
          "internalType": "uint256",
          "name": "amount",
          "type": "uint256"
        }
      ],
      "name": "Withdraw",
      "type": "event"
    },
    {
      "inputs": [],
      "name": "REWARD_TOKEN",
      "outputs": [
        {
          "internalType": "contract IERC20",
          "name": "",
          "type": "address"
        }
      ],
      "stateMutability": "view",
      "type": "function"
    },
    {
      "inputs": [],
      "name": "STAKE_TOKEN",
      "outputs": [
        {
          "internalType": "contract IERC20",
          "name": "",
          "type": "address"
        }
      ],
      "stateMutability": "view",
      "type": "function"
    },
    {
      "inputs": [],
      "name": "bonusEndBlock",
      "outputs": [
        {
          "internalType": "uint256",
          "name": "",
          "type": "uint256"
        }
      ],
      "stateMutability": "view",
      "type": "function"
    },
    {
      "inputs": [
        {
          "internalType": "uint256",
          "name": "_amount",
          "type": "uint256"
        }
      ],
      "name": "deposit",
      "outputs": [],
      "stateMutability": "nonpayable",
      "type": "function"
    },
    {
      "inputs": [
        {
          "internalType": "uint256",
          "name": "_amount",
          "type": "uint256"
        }
      ],
      "name": "depositRewards",
      "outputs": [],
      "stateMutability": "nonpayable",
      "type": "function"
    },
    {
      "inputs": [
        {
          "internalType": "uint256",
          "name": "_amount",
          "type": "uint256"
        }
      ],
      "name": "emergencyRewardWithdraw",
      "outputs": [],
      "stateMutability": "nonpayable",
      "type": "function"
    },
    {
      "inputs": [],
      "name": "emergencyWithdraw",
      "outputs": [],
      "stateMutability": "nonpayable",
      "type": "function"
    },
    {
      "inputs": [
        {
          "internalType": "uint256",
          "name": "_from",
          "type": "uint256"
        },
        {
          "internalType": "uint256",
          "name": "_to",
          "type": "uint256"
        }
      ],
      "name": "getMultiplier",
      "outputs": [
        {
          "internalType": "uint256",
          "name": "",
          "type": "uint256"
        }
      ],
      "stateMutability": "view",
      "type": "function"
    },
    {
      "inputs": [],
      "name": "getStakeTokenFeeBalance",
      "outputs": [
        {
          "internalType": "uint256",
          "name": "",
          "type": "uint256"
        }
      ],
      "stateMutability": "view",
      "type": "function"
    },
    {
      "inputs": [
        {
          "internalType": "contract IERC20",
          "name": "_stakeToken",
          "type": "address"
        },
        {
          "internalType": "contract IERC20",
          "name": "_rewardToken",
          "type": "address"
        },
        {
          "internalType": "uint256",
          "name": "_rewardPerBlock",
          "type": "uint256"
        },
        {
          "internalType": "uint256",
          "name": "_startBlock",
          "type": "uint256"
        },
        {
          "internalType": "uint256",
          "name": "_bonusEndBlock",
          "type": "uint256"
        }
      ],
      "name": "initialize",
      "outputs": [],
      "stateMutability": "nonpayable",
      "type": "function"
    },
    {
      "inputs": [],
      "name": "owner",
      "outputs": [
        {
          "internalType": "address",
          "name": "",
          "type": "address"
        }
      ],
      "stateMutability": "view",
      "type": "function"
    },
    {
      "inputs": [
        {
          "internalType": "address",
          "name": "_user",
          "type": "address"
        }
      ],
      "name": "pendingReward",
      "outputs": [
        {
          "internalType": "uint256",
          "name": "",
          "type": "uint256"
        }
      ],
      "stateMutability": "view",
      "type": "function"
    },
    {
      "inputs": [],
      "name": "poolInfo",
      "outputs": [
        {
          "internalType": "contract IERC20",
          "name": "lpToken",
          "type": "address"
        },
        {
          "internalType": "uint256",
          "name": "allocPoint",
          "type": "uint256"
        },
        {
          "internalType": "uint256",
          "name": "lastRewardBlock",
          "type": "uint256"
        },
        {
          "internalType": "uint256",
          "name": "accRewardTokenPerShare",
          "type": "uint256"
        }
      ],
      "stateMutability": "view",
      "type": "function"
    },
    {
      "inputs": [],
      "name": "renounceOwnership",
      "outputs": [],
      "stateMutability": "nonpayable",
      "type": "function"
    },
    {
      "inputs": [],
      "name": "rewardBalance",
      "outputs": [
        {
          "internalType": "uint256",
          "name": "",
          "type": "uint256"
        }
      ],
      "stateMutability": "view",
      "type": "function"
    },
    {
      "inputs": [],
      "name": "rewardPerBlock",
      "outputs": [
        {
          "internalType": "uint256",
          "name": "",
          "type": "uint256"
        }
      ],
      "stateMutability": "view",
      "type": "function"
    },
    {
      "inputs": [
        {
          "internalType": "uint256",
          "name": "_bonusEndBlock",
          "type": "uint256"
        }
      ],
      "name": "setBonusEndBlock",
      "outputs": [],
      "stateMutability": "nonpayable",
      "type": "function"
    },
    {
      "inputs": [
        {
          "internalType": "uint256",
          "name": "_rewardPerBlock",
          "type": "uint256"
        }
      ],
      "name": "setRewardPerBlock",
      "outputs": [],
      "stateMutability": "nonpayable",
      "type": "function"
    },
    {
      "inputs": [],
      "name": "skimStakeTokenFees",
      "outputs": [],
      "stateMutability": "nonpayable",
      "type": "function"
    },
    {
      "inputs": [],
      "name": "startBlock",
      "outputs": [
        {
          "internalType": "uint256",
          "name": "",
          "type": "uint256"
        }
      ],
      "stateMutability": "view",
      "type": "function"
    },
    {
      "inputs": [
        {
          "internalType": "contract IERC20",
          "name": "token",
          "type": "address"
        }
      ],
      "name": "sweepToken",
      "outputs": [],
      "stateMutability": "nonpayable",
      "type": "function"
    },
    {
      "inputs": [],
      "name": "totalStakeTokenBalance",
      "outputs": [
        {
          "internalType": "uint256",
          "name": "",
          "type": "uint256"
        }
      ],
      "stateMutability": "view",
      "type": "function"
    },
    {
      "inputs": [],
      "name": "totalStaked",
      "outputs": [
        {
          "internalType": "uint256",
          "name": "",
          "type": "uint256"
        }
      ],
      "stateMutability": "view",
      "type": "function"
    },
    {
      "inputs": [
        {
          "internalType": "address",
          "name": "newOwner",
          "type": "address"
        }
      ],
      "name": "transferOwnership",
      "outputs": [],
      "stateMutability": "nonpayable",
      "type": "function"
    },
    {
      "inputs": [],
      "name": "updatePool",
      "outputs": [],
      "stateMutability": "nonpayable",
      "type": "function"
    },
    {
      "inputs": [
        {
          "internalType": "address",
          "name": "",
          "type": "address"
        }
      ],
      "name": "userInfo",
      "outputs": [
        {
          "internalType": "uint256",
          "name": "amount",
          "type": "uint256"
        },
        {
          "internalType": "uint256",
          "name": "rewardDebt",
          "type": "uint256"
        }
      ],
      "stateMutability": "view",
      "type": "function"
    },
    {
      "inputs": [
        {
          "internalType": "uint256",
          "name": "_amount",
          "type": "uint256"
        }
      ],
      "name": "withdraw",
      "outputs": [],
      "stateMutability": "nonpayable",
      "type": "function"
    }
  ],
  "bytecode": "0x608060405260006004556000600a5534801561001a57600080fd5b506000610025610074565b600080546001600160a01b0319166001600160a01b0383169081178255604051929350917f8be0079c531659141344cd1fd0a4f28419497f9722a3daafe3b4186f6b6457e0908290a350610078565b3390565b61196c806100876000396000f3fe608060405234801561001057600080fd5b50600436106101a95760003560e01c80638da5cb5b116100f9578063b6b55f2511610097578063db2e21bc11610071578063db2e21bc14610317578063e3161ddd1461031f578063f2fde38b14610327578063f40f0f521461033a576101a9565b8063b6b55f25146102de578063bb872b4a146102f1578063d13f90b414610304576101a9565b806399248ea7116100d357806399248ea7146102b35780639e0af234146102bb578063a49ceb19146102ce578063aa5c3ab4146102d6576101a9565b80638da5cb5b146102905780638dbb1e3a14610298578063970db7fa146102ab576101a9565b806348cd4cb111610166578063812bc70811610140578063812bc70814610265578063817b1cd21461026d5780638ae39cac146102755780638bdf67f21461027d576101a9565b806348cd4cb11461023d5780635a2f3d0914610245578063715018a61461025d576101a9565b80631959a002146101ae5780631aed6553146101d85780631be19560146101ed5780631c39b672146102025780632e1a7d4d146102175780633279beab1461022a575b600080fd5b6101c16101bc36600461143f565b61034d565b6040516101cf929190611860565b60405180910390f35b6101e0610366565b6040516101cf9190611857565b6102006101fb36600461143f565b61036c565b005b61020a61052a565b6040516101cf919061153f565b6102006102253660046114d2565b610539565b6102006102383660046114d2565b610690565b6101e061073a565b61024d610740565b6040516101cf9493929190611590565b61020061075b565b6101e06107da565b6101e061086f565b6101e0610875565b61020061028b3660046114d2565b61087b565b61020a6108ed565b6101e06102a6366004611502565b6108fc565b61020061093d565b61020a6109cf565b6102006102c93660046114d2565b6109de565b6101e0610a6d565b6101e0610b12565b6102006102ec3660046114d2565b610bc8565b6102006102ff3660046114d2565b610e0e565b610200610312366004611482565b610e7b565b610200610f92565b61020061100a565b61020061033536600461143f565b6110a5565b6101e061034836600461143f565b61115b565b6009602052600090815260409020805460019091015482565b600c5481565b61037461123c565b6000546001600160a01b039081169116146103aa5760405162461bcd60e51b81526004016103a1906116e0565b60405180910390fd5b6001546001600160a01b03828116911614156103d85760405162461bcd60e51b81526004016103a1906116a9565b6040516370a0823160e01b81526000906001600160a01b038316906370a082319061040790309060040161153f565b60206040518083038186803b15801561041f57600080fd5b505afa158015610433573d6000803e3d6000fd5b505050506040513d601f19601f8201168201806040525081019061045791906114ea565b60405163a9059cbb60e01b81529091506001600160a01b0383169063a9059cbb906104889033908590600401611577565b602060405180830381600087803b1580156104a257600080fd5b505af11580156104b6573d6000803e3d6000fd5b505050506040513d601f19601f820116820180604052508101906104da9190611462565b50816001600160a01b0316336001600160a01b03167f9186304ffe50c568e430e57234122976c83522da68345954bb5485cbab3957138360405161051e9190611857565b60405180910390a35050565b6001546001600160a01b031681565b33600090815260096020526040902080548211156105695760405162461bcd60e51b81526004016103a1906117e1565b61057161100a565b600181015460085482546000929168327cb2734119d3b7a9601e1b9161059791906118a6565b6105a19190611886565b6105ab91906118c5565b905080156105e85760006105bd610b12565b905080156105e657808211156105dc576105d73382611240565b6105e6565b6105e63383611240565b505b82156106265781546105fb9084906118c5565b8255600554610614906001600160a01b0316338561125b565b8260045461062291906118c5565b6004555b600854825468327cb2734119d3b7a9601e1b91610642916118a6565b61064c9190611886565b600183015560405133907f884edad9ce6fa2440d8a54cc123490eb96d2768479d49ff9c7366125a942436490610683908690611857565b60405180910390a2505050565b61069861123c565b6000546001600160a01b039081169116146106c55760405162461bcd60e51b81526004016103a1906116e0565b6106cd610b12565b8111156106ec5760405162461bcd60e51b81526004016103a1906115e9565b6106f63382611240565b336001600160a01b03167f2d4434bb59801e733e9ce3df40b0c5518861a5fcdeec1906e83e03c755872b428260405161072f9190611857565b60405180910390a250565b600b5481565b6005546006546007546008546001600160a01b039093169284565b61076361123c565b6000546001600160a01b039081169116146107905760405162461bcd60e51b81526004016103a1906116e0565b600080546040516001600160a01b03909116907f8be0079c531659141344cd1fd0a4f28419497f9722a3daafe3b4186f6b6457e0908390a3600080546001600160a01b0319169055565b600480546001546040516370a0823160e01b81526000936001600160a01b03909216916370a082319161080f9130910161153f565b60206040518083038186803b15801561082757600080fd5b505afa15801561083b573d6000803e3d6000fd5b505050506040513d601f19601f8201168201806040525081019061085f91906114ea565b61086991906118c5565b90505b90565b60045481565b60035481565b6000811161089b5760405162461bcd60e51b81526004016103a190611715565b6002546108b3906001600160a01b03163330846112b6565b7f754fe3a3c69256b66ca56365fda4bbf3299d7c94038c105ffd43fb4b37f56db6816040516108e29190611857565b60405180910390a150565b6000546001600160a01b031690565b6000600c5482116109185761091183836118c5565b9050610937565b600c54831061092957506000610937565b82600c5461091191906118c5565b92915050565b61094561123c565b6000546001600160a01b039081169116146109725760405162461bcd60e51b81526004016103a1906116e0565b600061097c6107da565b600154909150610996906001600160a01b0316338361125b565b336001600160a01b03167feb4e6a6a8d3c8edbd6ef48316a3670cfa0e6374eebe3f555e620399f866d2f328260405161072f9190611857565b6002546001600160a01b031681565b6109e661123c565b6000546001600160a01b03908116911614610a135760405162461bcd60e51b81526004016103a1906116e0565b600c548111610a345760405162461bcd60e51b81526004016103a19061175a565b600c8190556003546040517f055418cabed8a0ec732dd9b1f84e69d3f33a8f9a70d721b7a6962a00c26a4572916108e291849190611860565b6002546001546000916001600160a01b0391821691161415610a92575060045461086c565b6001546040516370a0823160e01b81526001600160a01b03909116906370a0823190610ac290309060040161153f565b60206040518083038186803b158015610ada57600080fd5b505afa158015610aee573d6000803e3d6000fd5b505050506040513d601f19601f8201168201806040525081019061086991906114ea565b6002546040516370a0823160e01b815260009182916001600160a01b03909116906370a0823190610b4790309060040161153f565b60206040518083038186803b158015610b5f57600080fd5b505afa158015610b73573d6000803e3d6000fd5b505050506040513d601f19601f82011682018060405250810190610b9791906114ea565b6002546001549192506001600160a01b039182169116141561086957600454610bc090826118c5565b91505061086c565b33600090815260096020526040812090610be061100a565b815415610c6057600182015460085483546000929168327cb2734119d3b7a9601e1b91610c0d91906118a6565b610c179190611886565b610c2191906118c5565b90508015610c5e576000610c33610b12565b90508015610c5c5780821115610c5257610c4d3382611240565b610c5c565b610c5c3383611240565b505b505b8215610db1576001546040516370a0823160e01b81526000916001600160a01b0316906370a0823190610c9790309060040161153f565b60206040518083038186803b158015610caf57600080fd5b505afa158015610cc3573d6000803e3d6000fd5b505050506040513d601f19601f82011682018060405250810190610ce791906114ea565b600554909150610d02906001600160a01b03163330876112b6565b6001546040516370a0823160e01b815282916001600160a01b0316906370a0823190610d3290309060040161153f565b60206040518083038186803b158015610d4a57600080fd5b505afa158015610d5e573d6000803e3d6000fd5b505050506040513d601f19601f82011682018060405250810190610d8291906114ea565b610d8c91906118c5565b8354909250610d9c90839061186e565b8355600454610dac90839061186e565b600455505b600854825468327cb2734119d3b7a9601e1b91610dcd916118a6565b610dd79190611886565b600183015560405133907fe1fffcc4923d04b559f4d29a8bfc6cda04eb5b0d3c460751c2402c5c5cc9109c90610683908490611857565b610e1661123c565b6000546001600160a01b03908116911614610e435760405162461bcd60e51b81526004016103a1906116e0565b6003819055600c546040517f055418cabed8a0ec732dd9b1f84e69d3f33a8f9a70d721b7a6962a00c26a4572916108e2918490611860565b600054600160a81b900460ff1680610e9d5750600054600160a01b900460ff16155b610eb95760405162461bcd60e51b81526004016103a19061165b565b600054600160a81b900460ff16158015610ef0576000805460ff60a01b1960ff60a81b19909116600160a81b1716600160a01b1790555b600180546001600160a01b038089166001600160a01b03199283168117909355600280549189169183169190911790556003869055600b859055600c849055604080516080810182528381526103e860208201819052918101879052600060609091018190526005805490931690931790915560068190556007859055600891909155600a558015610f8a576000805460ff60a81b191690555b505050505050565b33600081815260096020526040902080546005549192610fbb926001600160a01b03169161125b565b8054600454610fca91906118c5565b60045560008082556001820181905560405133917f5fafa99d0643513820be26656b45130b01e1c03062e1266bf36f88cbd3bd96959161072f9190611857565b6007544311611018576110a3565b60045461102857436007556110a3565b6000611039600560020154436108fc565b600a5460065460035492935060009261105290856118a6565b61105c91906118a6565b6110669190611886565b6004549091506110828268327cb2734119d3b7a9601e1b6118a6565b61108c9190611886565b600854611099919061186e565b6008555050436007555b565b6110ad61123c565b6000546001600160a01b039081169116146110da5760405162461bcd60e51b81526004016103a1906116e0565b6001600160a01b0381166111005760405162461bcd60e51b81526004016103a190611615565b600080546040516001600160a01b03808516939216917f8be0079c531659141344cd1fd0a4f28419497f9722a3daafe3b4186f6b6457e091a3600080546001600160a01b0319166001600160a01b0392909216919091179055565b6001600160a01b038116600090815260096020526040812060085460075443118015611188575060045415155b1561120057600061119e600560020154436108fc565b600a546006546003549293506000926111b790856118a6565b6111c191906118a6565b6111cb9190611886565b6004549091506111e78268327cb2734119d3b7a9601e1b6118a6565b6111f19190611886565b6111fb908461186e565b925050505b6001820154825468327cb2734119d3b7a9601e1b906112209084906118a6565b61122a9190611886565b61123491906118c5565b949350505050565b3390565b600254611257906001600160a01b0316838361125b565b5050565b6112b18363a9059cbb60e01b848460405160240161127a929190611577565b60408051601f198184030181529190526020810180516001600160e01b03166001600160e01b0319909316929092179091526112dd565b505050565b6112d7846323b872dd60e01b85858560405160240161127a93929190611553565b50505050565b6000611332826040518060400160405280602081526020017f5361666545524332303a206c6f772d6c6576656c2063616c6c206661696c6564815250856001600160a01b031661136c9092919063ffffffff16565b8051909150156112b157808060200190518101906113509190611462565b6112b15760405162461bcd60e51b81526004016103a19061180d565b60606112348484600085606061138185611439565b61139d5760405162461bcd60e51b81526004016103a1906117aa565b600080866001600160a01b031685876040516113b99190611523565b60006040518083038185875af1925050503d80600081146113f6576040519150601f19603f3d011682016040523d82523d6000602084013e6113fb565b606091505b5091509150811561140f5791506112349050565b80511561141f5780518082602001fd5b8360405162461bcd60e51b81526004016103a191906115b6565b3b151590565b600060208284031215611450578081fd5b813561145b8161191e565b9392505050565b600060208284031215611473578081fd5b8151801515811461145b578182fd5b600080600080600060a08688031215611499578081fd5b85356114a48161191e565b945060208601356114b48161191e565b94979496505050506040830135926060810135926080909101359150565b6000602082840312156114e3578081fd5b5035919050565b6000602082840312156114fb578081fd5b5051919050565b60008060408385031215611514578182fd5b50508035926020909101359150565b600082516115358184602087016118dc565b9190910192915050565b6001600160a01b0391909116815260200190565b6001600160a01b039384168152919092166020820152604081019190915260600190565b6001600160a01b03929092168252602082015260400190565b6001600160a01b0394909416845260208401929092526040830152606082015260800190565b60006020825282518060208401526115d58160408501602087016118dc565b601f01601f19169190910160400192915050565b6020808252601290820152716e6f7420656e6f756768207265776172647360701b604082015260600190565b60208082526026908201527f4f776e61626c653a206e6577206f776e657220697320746865207a65726f206160408201526564647265737360d01b606082015260800190565b6020808252602e908201527f496e697469616c697a61626c653a20636f6e747261637420697320616c72656160408201526d191e481a5b9a5d1a585b1a5e995960921b606082015260800190565b60208082526019908201527f63616e206e6f74207377656570207374616b6520746f6b656e00000000000000604082015260600190565b6020808252818101527f4f776e61626c653a2063616c6c6572206973206e6f7420746865206f776e6572604082015260600190565b60208082526025908201527f4465706f7369742076616c7565206d757374206265206772656174657220746860408201526430b710181760d91b606082015260800190565b60208082526030908201527f6e657720626f6e757320656e6420626c6f636b206d757374206265206772656160408201526f1d195c881d1a185b8818dd5c9c995b9d60821b606082015260800190565b6020808252601d908201527f416464726573733a2063616c6c20746f206e6f6e2d636f6e7472616374000000604082015260600190565b6020808252601290820152711dda5d1a191c985dce881b9bdd0819dbdbd960721b604082015260600190565b6020808252602a908201527f5361666545524332303a204552433230206f7065726174696f6e20646964206e6040820152691bdd081cdd58d8d9595960b21b606082015260800190565b90815260200190565b918252602082015260400190565b6000821982111561188157611881611908565b500190565b6000826118a157634e487b7160e01b81526012600452602481fd5b500490565b60008160001904831182151516156118c0576118c0611908565b500290565b6000828210156118d7576118d7611908565b500390565b60005b838110156118f75781810151838201526020016118df565b838111156112d75750506000910152565b634e487b7160e01b600052601160045260246000fd5b6001600160a01b038116811461193357600080fd5b5056fea26469706673582212202936c121bce06f6202fef590b49bfbe92c4702606acd04d341dd06b822c783bc64736f6c63430008000033",
  "linkReferences": {},
  "deployedLinkReferences": {}
}