{
  "_format": "hh-sol-artifact-1",
  "contractName": "SimpleRewarderPerSec",
  "sourceName": "contracts/rewarders/SimpleRewarderPerSec.sol",
  "abi": [
    {
      "inputs": [
        {
          "internalType": "contract IERC20",
          "name": "_rewardToken",
          "type": "address"
        },
        {
          "internalType": "contract IERC20",
          "name": "_lpToken",
          "type": "address"
        },
        {
          "internalType": "uint256",
          "name": "_tokenPerSec",
          "type": "uint256"
        },
        {
          "internalType": "contract IMasterChefHermes",
          "name": "_MCJ",
          "type": "address"
        },
        {
          "internalType": "bool",
          "name": "_isNative",
          "type": "bool"
        }
      ],
      "stateMutability": "nonpayable",
      "type": "constructor"
    },
    {
      "anonymous": false,
      "inputs": [
        {
          "indexed": true,
          "internalType": "address",
          "name": "user",
          "type": "address"
        },
        {
          "indexed": false,
          "internalType": "uint256",
          "name": "amount",
          "type": "uint256"
        }
      ],
      "name": "OnReward",
      "type": "event"
    },
    {
      "anonymous": false,
      "inputs": [
        {
          "indexed": true,
          "internalType": "address",
          "name": "previousOwner",
          "type": "address"
        },
        {
          "indexed": true,
          "internalType": "address",
          "name": "newOwner",
          "type": "address"
        }
      ],
      "name": "OwnershipTransferred",
      "type": "event"
    },
    {
      "anonymous": false,
      "inputs": [
        {
          "indexed": false,
          "internalType": "uint256",
          "name": "oldRate",
          "type": "uint256"
        },
        {
          "indexed": false,
          "internalType": "uint256",
          "name": "newRate",
          "type": "uint256"
        }
      ],
      "name": "RewardRateUpdated",
      "type": "event"
    },
    {
      "inputs": [],
      "name": "MCJ",
      "outputs": [
        {
          "internalType": "contract IMasterChefHermes",
          "name": "",
          "type": "address"
        }
      ],
      "stateMutability": "view",
      "type": "function"
    },
    {
      "inputs": [],
      "name": "balance",
      "outputs": [
        {
          "internalType": "uint256",
          "name": "",
          "type": "uint256"
        }
      ],
      "stateMutability": "view",
      "type": "function"
    },
    {
      "inputs": [],
      "name": "claimOwnership",
      "outputs": [],
      "stateMutability": "nonpayable",
      "type": "function"
    },
    {
      "inputs": [],
      "name": "emergencyWithdraw",
      "outputs": [],
      "stateMutability": "nonpayable",
      "type": "function"
    },
    {
      "inputs": [],
      "name": "isEmissionValid",
      "outputs": [
        {
          "internalType": "bool",
          "name": "",
          "type": "bool"
        }
      ],
      "stateMutability": "view",
      "type": "function"
    },
    {
      "inputs": [],
      "name": "isNative",
      "outputs": [
        {
          "internalType": "bool",
          "name": "",
          "type": "bool"
        }
      ],
      "stateMutability": "view",
      "type": "function"
    },
    {
      "inputs": [],
      "name": "lpToken",
      "outputs": [
        {
          "internalType": "contract IERC20",
          "name": "",
          "type": "address"
        }
      ],
      "stateMutability": "view",
      "type": "function"
    },
    {
      "inputs": [
        {
          "internalType": "address",
          "name": "_user",
          "type": "address"
        },
        {
          "internalType": "uint256",
          "name": "_lpAmount",
          "type": "uint256"
        }
      ],
      "name": "onHermesReward",
      "outputs": [],
      "stateMutability": "nonpayable",
      "type": "function"
    },
    {
      "inputs": [],
      "name": "owner",
      "outputs": [
        {
          "internalType": "address",
          "name": "",
          "type": "address"
        }
      ],
      "stateMutability": "view",
      "type": "function"
    },
    {
      "inputs": [],
      "name": "pendingOwner",
      "outputs": [
        {
          "internalType": "address",
          "name": "",
          "type": "address"
        }
      ],
      "stateMutability": "view",
      "type": "function"
    },
    {
      "inputs": [
        {
          "internalType": "address",
          "name": "_user",
          "type": "address"
        }
      ],
      "name": "pendingTokens",
      "outputs": [
        {
          "internalType": "uint256",
          "name": "pending",
          "type": "uint256"
        }
      ],
      "stateMutability": "view",
      "type": "function"
    },
    {
      "inputs": [],
      "name": "poolInfo",
      "outputs": [
        {
          "internalType": "uint256",
          "name": "accTokenPerShare",
          "type": "uint256"
        },
        {
          "internalType": "uint256",
          "name": "lastRewardTimestamp",
          "type": "uint256"
        }
      ],
      "stateMutability": "view",
      "type": "function"
    },
    {
      "inputs": [],
      "name": "rewardToken",
      "outputs": [
        {
          "internalType": "contract IERC20",
          "name": "",
          "type": "address"
        }
      ],
      "stateMutability": "view",
      "type": "function"
    },
    {
      "inputs": [
        {
          "internalType": "uint256",
          "name": "_tokenPerSec",
          "type": "uint256"
        }
      ],
      "name": "setRewardRate",
      "outputs": [],
      "stateMutability": "nonpayable",
      "type": "function"
    },
    {
      "inputs": [],
      "name": "tokenPerSec",
      "outputs": [
        {
          "internalType": "uint256",
          "name": "",
          "type": "uint256"
        }
      ],
      "stateMutability": "view",
      "type": "function"
    },
    {
      "inputs": [
        {
          "internalType": "address",
          "name": "newOwner",
          "type": "address"
        },
        {
          "internalType": "bool",
          "name": "direct",
          "type": "bool"
        },
        {
          "internalType": "bool",
          "name": "renounce",
          "type": "bool"
        }
      ],
      "name": "transferOwnership",
      "outputs": [],
      "stateMutability": "nonpayable",
      "type": "function"
    },
    {
      "inputs": [],
      "name": "updatePool",
      "outputs": [
        {
          "components": [
            {
              "internalType": "uint256",
              "name": "accTokenPerShare",
              "type": "uint256"
            },
            {
              "internalType": "uint256",
              "name": "lastRewardTimestamp",
              "type": "uint256"
            }
          ],
          "internalType": "struct SimpleRewarderPerSec.PoolInfo",
          "name": "pool",
          "type": "tuple"
        }
      ],
      "stateMutability": "nonpayable",
      "type": "function"
    },
    {
      "inputs": [
        {
          "internalType": "address",
          "name": "",
          "type": "address"
        }
      ],
      "name": "userInfo",
      "outputs": [
        {
          "internalType": "uint256",
          "name": "amount",
          "type": "uint256"
        },
        {
          "internalType": "uint256",
          "name": "rewardDebt",
          "type": "uint256"
        },
        {
          "internalType": "uint256",
          "name": "unpaidRewards",
          "type": "uint256"
        }
      ],
      "stateMutability": "view",
      "type": "function"
    },
    {
      "stateMutability": "payable",
      "type": "receive"
    }
  ],
  "bytecode": "0x6101006040523480156200001257600080fd5b5060405162001ac438038062001ac48339810160408190526200003591620001c2565b600080546001600160a01b0319163390811782556040519091907f8be0079c531659141344cd1fd0a4f28419497f9722a3daafe3b4186f6b6457e0908290a360016002819055506200009285620001bc60201b620010581760201c565b620000ba5760405162461bcd60e51b8152600401620000b19062000238565b60405180910390fd5b620000d084620001bc60201b620010581760201c565b620000ef5760405162461bcd60e51b8152600401620000b190620002e7565b6200010582620001bc60201b620010581760201c565b620001245760405162461bcd60e51b8152600401620000b19062000335565b6c0c9f2c9cd04674edea40000000831115620001545760405162461bcd60e51b8152600401620000b1906200028a565b6001600160601b0319606095861b811660805293851b841660a05260069290925590921b1660e052151560f81b60c052604080518082019091526000808252426020929092018290526003556004556ec097ce7bc90715b34b9f1000000000600755620003ab565b3b151590565b600080600080600060a08688031215620001da578081fd5b8551620001e78162000392565b6020870151909550620001fa8162000392565b604087015160608801519195509350620002148162000392565b608087015190925080151581146200022a578182fd5b809150509295509295909350565b60208082526032908201527f636f6e7374727563746f723a2072657761726420746f6b656e206d7573742062604082015271194818481d985b1a590818dbdb9d1c9858dd60721b606082015260800190565b60208082526039908201527f636f6e7374727563746f723a20746f6b656e20706572207365636f6e6473206360408201527f616e27742062652067726561746572207468616e203165333000000000000000606082015260800190565b6020808252602e908201527f636f6e7374727563746f723a204c5020746f6b656e206d75737420626520612060408201526d1d985b1a590818dbdb9d1c9858dd60921b606082015260800190565b60208082526036908201527f636f6e7374727563746f723a204d6173746572436865664865726d6573206d7560408201527f737420626520612076616c696420636f6e747261637400000000000000000000606082015260800190565b6001600160a01b0381168114620003a857600080fd5b50565b60805160601c60a05160601c60c05160f81c60e05160601c6116876200043d6000398061043852806105495280610bd35280610f2b52508061051c528061064052806109ab5280610a825280610d335250806104f85280610ba45280610efe52508061079c5280610838528061087952806109f25280610ac45280610ddf5280610e83528061103652506116876000f3fe60806040526004361061010d5760003560e01c80638da5cb5b11610095578063c031a66f11610064578063c031a66f146102a5578063db2e21bc146102c5578063e30c3978146102da578063e3161ddd146102ef578063f7c618c11461031157610114565b80638da5cb5b146102465780639e447fc61461025b578063a561cef91461027b578063b69ef8a81461029057610114565b806350fd1f3e116100dc57806350fd1f3e146101aa5780635a2f3d09146101cc5780635fcbd285146101ef57806373cfc6b214610204578063790822a61461022657610114565b8063078dfbe7146101195780631959a0021461013b57806330628e15146101735780634e71e0c81461019557610114565b3661011457005b600080fd5b34801561012557600080fd5b50610139610134366004611261565b610326565b005b34801561014757600080fd5b5061015b61015636600461123f565b610415565b60405161016a9392919061162a565b60405180910390f35b34801561017f57600080fd5b50610188610436565b60405161016a9190611359565b3480156101a157600080fd5b5061013961045a565b3480156101b657600080fd5b506101bf6104e7565b60405161016a9190611613565b3480156101d857600080fd5b506101e16104ed565b60405161016a92919061161c565b3480156101fb57600080fd5b506101886104f6565b34801561021057600080fd5b5061021961051a565b60405161016a9190611386565b34801561023257600080fd5b506101396102413660046112aa565b61053e565b34801561025257600080fd5b5061018861091f565b34801561026757600080fd5b506101396102763660046112f0565b61092e565b34801561028757600080fd5b506102196109a7565b34801561029c57600080fd5b506101bf610a7e565b3480156102b157600080fd5b506101bf6102c036600461123f565b610b50565b3480156102d157600080fd5b50610139610d07565b3480156102e657600080fd5b50610188610eac565b3480156102fb57600080fd5b50610304610ebb565b60405161016a91906115fc565b34801561031d57600080fd5b50610188611034565b6000546001600160a01b031633146103595760405162461bcd60e51b815260040161035090611524565b60405180910390fd5b81156103f4576001600160a01b0383161515806103735750805b61038f5760405162461bcd60e51b815260040161035090611446565b600080546040516001600160a01b03808716939216917f8be0079c531659141344cd1fd0a4f28419497f9722a3daafe3b4186f6b6457e091a3600080546001600160a01b0385166001600160a01b031991821617909155600180549091169055610410565b600180546001600160a01b0319166001600160a01b0385161790555b505050565b60056020526000908152604090208054600182015460029092015490919083565b7f000000000000000000000000000000000000000000000000000000000000000081565b6001546001600160a01b03163381146104855760405162461bcd60e51b815260040161035090611559565b600080546040516001600160a01b03808516939216917f8be0079c531659141344cd1fd0a4f28419497f9722a3daafe3b4186f6b6457e091a3600080546001600160a01b039092166001600160a01b0319928316179055600180549091169055565b60065481565b60035460045482565b7f000000000000000000000000000000000000000000000000000000000000000081565b7f000000000000000000000000000000000000000000000000000000000000000081565b336001600160a01b037f000000000000000000000000000000000000000000000000000000000000000016146105865760405162461bcd60e51b8152600401610350906113f1565b6002805414156105a85760405162461bcd60e51b8152600401610350906115c5565b600280556105b4610ebb565b506105bd61120e565b5060408051808201825260035481526004546020808301919091526001600160a01b03851660009081526005909152918220805491929091156108aa5761063c826002015461063684600101546007546106288860000151886000015461105e90919063ffffffff16565b8161062f57fe5b04906110a1565b906110c9565b90507f0000000000000000000000000000000000000000000000000000000000000000156107825747808211156106f7576000866001600160a01b03168260405161068690610a7b565b60006040518083038185875af1925050503d80600081146106c3576040519150601f19603f3d011682016040523d82523d6000602084013e6106c8565b606091505b50509050806106e95760405162461bcd60e51b815260040161035090611391565b50808203600284015561077c565b6000866001600160a01b03168360405161071090610a7b565b60006040518083038185875af1925050503d806000811461074d576040519150601f19603f3d011682016040523d82523d6000602084013e610752565b606091505b50509050806107735760405162461bcd60e51b815260040161035090611391565b50600060028401555b506108aa565b6040516370a0823160e01b81526000906001600160a01b037f000000000000000000000000000000000000000000000000000000000000000016906370a08231906107d1903090600401611359565b60206040518083038186803b1580156107e957600080fd5b505afa1580156107fd573d6000803e3d6000fd5b505050506040513d601f19601f820116820180604052508101906108219190611308565b90508082111561086c5761085f6001600160a01b037f00000000000000000000000000000000000000000000000000000000000000001687836110ee565b80820360028401556108a8565b6108a06001600160a01b037f00000000000000000000000000000000000000000000000000000000000000001687846110ee565b600060028401555b505b83825560075483516108bd90869061105e565b816108c457fe5b04600183015560028201546040516001600160a01b038716917fd1072bb52c3131d0c96197b73fb8a45637e30f8b6664fc142310cc9b242859b49161090b91850390611613565b60405180910390a250506001600255505050565b6000546001600160a01b031681565b6000546001600160a01b031633146109585760405162461bcd60e51b815260040161035090611524565b610960610ebb565b5060068054908290556040517fc390a98ace15a7bb6bab611eedfdbb2685043b241a869420043cdfb23ccfee509061099b908390859061161c565b60405180910390a15050565b60007f0000000000000000000000000000000000000000000000000000000000000000156109d85750471515610a7b565b6040516370a0823160e01b81526000906001600160a01b037f000000000000000000000000000000000000000000000000000000000000000016906370a0823190610a27903090600401611359565b60206040518083038186803b158015610a3f57600080fd5b505afa158015610a53573d6000803e3d6000fd5b505050506040513d601f19601f82011682018060405250810190610a779190611308565b1190505b90565b60007f000000000000000000000000000000000000000000000000000000000000000015610aad575047610a7b565b6040516370a0823160e01b81526001600160a01b037f000000000000000000000000000000000000000000000000000000000000000016906370a0823190610af9903090600401611359565b60206040518083038186803b158015610b1157600080fd5b505afa158015610b25573d6000803e3d6000fd5b505050506040513d601f19601f82011682018060405250810190610b499190611308565b9050610a7b565b6000610b5a61120e565b506040805180820182526003548152600480546020808401919091526001600160a01b0380871660009081526005909252848220845195516370a0823160e01b81529495909490937f0000000000000000000000000000000000000000000000000000000000000000909216916370a0823191610bf9917f00000000000000000000000000000000000000000000000000000000000000009101611359565b60206040518083038186803b158015610c1157600080fd5b505afa158015610c25573d6000803e3d6000fd5b505050506040513d601f19601f82011682018060405250810190610c499190611308565b9050836020015142118015610c5d57508015155b8015610c6c5750610c6c6109a7565b15610cd3576000610c8a8560200151426110a190919063ffffffff16565b90506000610ca36006548361105e90919063ffffffff16565b9050610cce610cc784610cc16007548561105e90919063ffffffff16565b906111dc565b85906110c9565b935050505b610cfd8360020154610636856001015460075461062887896000015461105e90919063ffffffff16565b9695505050505050565b6000546001600160a01b03163314610d315760405162461bcd60e51b815260040161035090611524565b7f000000000000000000000000000000000000000000000000000000000000000015610dd9576000336001600160a01b031647604051610d7090610a7b565b60006040518083038185875af1925050503d8060008114610dad576040519150601f19603f3d011682016040523d82523d6000602084013e610db2565b606091505b5050905080610dd35760405162461bcd60e51b815260040161035090611391565b50610eaa565b610eaa337f00000000000000000000000000000000000000000000000000000000000000006001600160a01b03166370a08231306040518263ffffffff1660e01b8152600401610e299190611359565b60206040518083038186803b158015610e4157600080fd5b505afa158015610e55573d6000803e3d6000fd5b505050506040513d601f19601f82011682018060405250810190610e799190611308565b6001600160a01b037f00000000000000000000000000000000000000000000000000000000000000001691906110ee565b565b6001546001600160a01b031681565b610ec361120e565b5060408051808201909152600354815260045460208201819052421115610a7b576040516370a0823160e01b81526000906001600160a01b037f000000000000000000000000000000000000000000000000000000000000000016906370a0823190610f53907f000000000000000000000000000000000000000000000000000000000000000090600401611359565b60206040518083038186803b158015610f6b57600080fd5b505afa158015610f7f573d6000803e3d6000fd5b505050506040513d601f19601f82011682018060405250810190610fa39190611308565b9050600081118015610fb85750610fb86109a7565b15611020576000610fd68360200151426110a190919063ffffffff16565b90506000610fef6006548361105e90919063ffffffff16565b905061101b8361100a6007548461105e90919063ffffffff16565b8161101157fe5b86519190046110c9565b845250505b504260208201819052815160035560045590565b7f000000000000000000000000000000000000000000000000000000000000000081565b3b151590565b60008261106d5750600061109b565b8282028284828161107a57fe5b04146110985760405162461bcd60e51b8152600401610350906114e3565b90505b92915050565b6000828211156110c35760405162461bcd60e51b815260040161035090611475565b50900390565b6000828201838110156110985760405162461bcd60e51b8152600401610350906113ba565b60006060846001600160a01b031663a9059cbb858560405160240161111492919061136d565b6040516020818303038152906040529060e01b6020820180516001600160e01b03838183161783525050505060405161114d9190611320565b6000604051808303816000865af19150503d806000811461118a576040519150601f19603f3d011682016040523d82523d6000602084013e61118f565b606091505b50915091508180156111b95750805115806111b95750808060200190518101906111b991906112d4565b6111d55760405162461bcd60e51b81526004016103509061158e565b5050505050565b60008082116111fd5760405162461bcd60e51b8152600401610350906114ac565b81838161120657fe5b049392505050565b604051806040016040528060008152602001600081525090565b80356001600160a01b038116811461109b57600080fd5b600060208284031215611250578081fd5b61125a8383611228565b9392505050565b600080600060608486031215611275578182fd5b61127f8585611228565b9250602084013561128f81611640565b9150604084013561129f81611640565b809150509250925092565b600080604083850312156112bc578182fd5b6112c68484611228565b946020939093013593505050565b6000602082840312156112e5578081fd5b815161109881611640565b600060208284031215611301578081fd5b5035919050565b600060208284031215611319578081fd5b5051919050565b60008251815b818110156113405760208186018101518583015201611326565b8181111561134e5782828501525b509190910192915050565b6001600160a01b0391909116815260200190565b6001600160a01b03929092168252602082015260400190565b901515815260200190565b6020808252600f908201526e151c985b9cd9995c8819985a5b1959608a1b604082015260600190565b6020808252601b908201527f536166654d6174683a206164646974696f6e206f766572666c6f770000000000604082015260600190565b60208082526035908201527f6f6e6c794d434a3a206f6e6c79204d6173746572436865664865726d6573206360408201527430b71031b0b636103a3434b990333ab731ba34b7b760591b606082015260800190565b6020808252601590820152744f776e61626c653a207a65726f206164647265737360581b604082015260600190565b6020808252601e908201527f536166654d6174683a207375627472616374696f6e206f766572666c6f770000604082015260600190565b6020808252601a908201527f536166654d6174683a206469766973696f6e206279207a65726f000000000000604082015260600190565b60208082526021908201527f536166654d6174683a206d756c7469706c69636174696f6e206f766572666c6f6040820152607760f81b606082015260800190565b6020808252818101527f4f776e61626c653a2063616c6c6572206973206e6f7420746865206f776e6572604082015260600190565b6020808252818101527f4f776e61626c653a2063616c6c657220213d2070656e64696e67206f776e6572604082015260600190565b6020808252601a908201527f5361666545524332303a205472616e73666572206661696c6564000000000000604082015260600190565b6020808252601f908201527f5265656e7472616e637947756172643a207265656e7472616e742063616c6c00604082015260600190565b815181526020918201519181019190915260400190565b90815260200190565b918252602082015260400190565b9283526020830191909152604082015260600190565b801515811461164e57600080fd5b5056fea26469706673582212202d294f4b71a8e9e07887d5e11dd366b608f1f5154c000407dbb7164e6c3d19c264736f6c634300060c0033",
  "linkReferences": {},
  "deployedLinkReferences": {}
}