{
  "_format": "hh-sol-artifact-1",
  "contractName": "SimpleRewarderPerBlock",
  "sourceName": "contracts/rewarders/SimpleRewarderPerBlock.sol",
  "abi": [
    {
      "inputs": [
        {
          "internalType": "contract IERC20",
          "name": "_rewardToken",
          "type": "address"
        },
        {
          "internalType": "contract IERC20",
          "name": "_lpToken",
          "type": "address"
        },
        {
          "internalType": "uint256",
          "name": "_tokenPerBlock",
          "type": "uint256"
        },
        {
          "internalType": "contract IMasterChefHermesV2",
          "name": "_MCV2",
          "type": "address"
        }
      ],
      "stateMutability": "nonpayable",
      "type": "constructor"
    },
    {
      "anonymous": false,
      "inputs": [
        {
          "indexed": true,
          "internalType": "uint256",
          "name": "amount",
          "type": "uint256"
        }
      ],
      "name": "OnEmergencyWithdraw",
      "type": "event"
    },
    {
      "anonymous": false,
      "inputs": [
        {
          "indexed": true,
          "internalType": "address",
          "name": "user",
          "type": "address"
        },
        {
          "indexed": false,
          "internalType": "uint256",
          "name": "amount",
          "type": "uint256"
        }
      ],
      "name": "OnReward",
      "type": "event"
    },
    {
      "anonymous": false,
      "inputs": [
        {
          "indexed": true,
          "internalType": "address",
          "name": "previousOwner",
          "type": "address"
        },
        {
          "indexed": true,
          "internalType": "address",
          "name": "newOwner",
          "type": "address"
        }
      ],
      "name": "OwnershipTransferred",
      "type": "event"
    },
    {
      "anonymous": false,
      "inputs": [
        {
          "indexed": false,
          "internalType": "uint256",
          "name": "oldRate",
          "type": "uint256"
        },
        {
          "indexed": false,
          "internalType": "uint256",
          "name": "newRate",
          "type": "uint256"
        }
      ],
      "name": "RewardRateUpdated",
      "type": "event"
    },
    {
      "inputs": [],
      "name": "MC_V2",
      "outputs": [
        {
          "internalType": "contract IMasterChefHermesV2",
          "name": "",
          "type": "address"
        }
      ],
      "stateMutability": "view",
      "type": "function"
    },
    {
      "inputs": [],
      "name": "claimOwnership",
      "outputs": [],
      "stateMutability": "nonpayable",
      "type": "function"
    },
    {
      "inputs": [],
      "name": "emergencyWithdraw",
      "outputs": [],
      "stateMutability": "nonpayable",
      "type": "function"
    },
    {
      "inputs": [],
      "name": "isEmissionValid",
      "outputs": [
        {
          "internalType": "bool",
          "name": "",
          "type": "bool"
        }
      ],
      "stateMutability": "view",
      "type": "function"
    },
    {
      "inputs": [],
      "name": "lpToken",
      "outputs": [
        {
          "internalType": "contract IERC20",
          "name": "",
          "type": "address"
        }
      ],
      "stateMutability": "view",
      "type": "function"
    },
    {
      "inputs": [
        {
          "internalType": "address",
          "name": "_user",
          "type": "address"
        },
        {
          "internalType": "uint256",
          "name": "_lpAmount",
          "type": "uint256"
        }
      ],
      "name": "onHermesReward",
      "outputs": [],
      "stateMutability": "nonpayable",
      "type": "function"
    },
    {
      "inputs": [],
      "name": "owner",
      "outputs": [
        {
          "internalType": "address",
          "name": "",
          "type": "address"
        }
      ],
      "stateMutability": "view",
      "type": "function"
    },
    {
      "inputs": [],
      "name": "pendingOwner",
      "outputs": [
        {
          "internalType": "address",
          "name": "",
          "type": "address"
        }
      ],
      "stateMutability": "view",
      "type": "function"
    },
    {
      "inputs": [
        {
          "internalType": "address",
          "name": "_user",
          "type": "address"
        }
      ],
      "name": "pendingTokens",
      "outputs": [
        {
          "internalType": "uint256",
          "name": "pending",
          "type": "uint256"
        }
      ],
      "stateMutability": "view",
      "type": "function"
    },
    {
      "inputs": [],
      "name": "poolInfo",
      "outputs": [
        {
          "internalType": "uint256",
          "name": "accTokenPerShare",
          "type": "uint256"
        },
        {
          "internalType": "uint256",
          "name": "lastRewardBlock",
          "type": "uint256"
        }
      ],
      "stateMutability": "view",
      "type": "function"
    },
    {
      "inputs": [],
      "name": "rewardToken",
      "outputs": [
        {
          "internalType": "contract IERC20",
          "name": "",
          "type": "address"
        }
      ],
      "stateMutability": "view",
      "type": "function"
    },
    {
      "inputs": [
        {
          "internalType": "uint256",
          "name": "_tokenPerBlock",
          "type": "uint256"
        }
      ],
      "name": "setRewardRate",
      "outputs": [],
      "stateMutability": "nonpayable",
      "type": "function"
    },
    {
      "inputs": [],
      "name": "tokenPerBlock",
      "outputs": [
        {
          "internalType": "uint256",
          "name": "",
          "type": "uint256"
        }
      ],
      "stateMutability": "view",
      "type": "function"
    },
    {
      "inputs": [
        {
          "internalType": "address",
          "name": "newOwner",
          "type": "address"
        },
        {
          "internalType": "bool",
          "name": "direct",
          "type": "bool"
        },
        {
          "internalType": "bool",
          "name": "renounce",
          "type": "bool"
        }
      ],
      "name": "transferOwnership",
      "outputs": [],
      "stateMutability": "nonpayable",
      "type": "function"
    },
    {
      "inputs": [],
      "name": "updatePool",
      "outputs": [
        {
          "components": [
            {
              "internalType": "uint256",
              "name": "accTokenPerShare",
              "type": "uint256"
            },
            {
              "internalType": "uint256",
              "name": "lastRewardBlock",
              "type": "uint256"
            }
          ],
          "internalType": "struct SimpleRewarderPerBlock.PoolInfo",
          "name": "pool",
          "type": "tuple"
        }
      ],
      "stateMutability": "nonpayable",
      "type": "function"
    },
    {
      "inputs": [
        {
          "internalType": "address",
          "name": "",
          "type": "address"
        }
      ],
      "name": "userInfo",
      "outputs": [
        {
          "internalType": "uint256",
          "name": "amount",
          "type": "uint256"
        },
        {
          "internalType": "uint256",
          "name": "rewardDebt",
          "type": "uint256"
        }
      ],
      "stateMutability": "view",
      "type": "function"
    }
  ],
  "bytecode": "0x60e06040523480156200001157600080fd5b50604051620014ed380380620014ed83398101604081905262000034916200016d565b600080546001600160a01b0319163390811782556040519091907f8be0079c531659141344cd1fd0a4f28419497f9722a3daafe3b4186f6b6457e0908290a362000089846200016760201b62000c4f1760201c565b620000b15760405162461bcd60e51b8152600401620000a890620001c8565b60405180910390fd5b620000c7836200016760201b62000c4f1760201c565b620000e65760405162461bcd60e51b8152600401620000a8906200021a565b620000fc816200016760201b62000c4f1760201c565b6200011b5760405162461bcd60e51b8152600401620000a89062000268565b6001600160601b0319606094851b811660805292841b831660a05260059190915590911b1660c052604080518082019091526000808252436020909201829052600255600355620002de565b3b151590565b6000806000806080858703121562000183578384fd5b84516200019081620002c5565b6020860151909450620001a381620002c5565b604086015160608701519194509250620001bd81620002c5565b939692955090935050565b60208082526032908201527f636f6e7374727563746f723a2072657761726420746f6b656e206d7573742062604082015271194818481d985b1a590818dbdb9d1c9858dd60721b606082015260800190565b6020808252602e908201527f636f6e7374727563746f723a204c5020746f6b656e206d75737420626520612060408201526d1d985b1a590818dbdb9d1c9858dd60921b606082015260800190565b60208082526038908201527f636f6e7374727563746f723a204d6173746572436865664865726d657356322060408201527f6d75737420626520612076616c696420636f6e74726163740000000000000000606082015260800190565b6001600160a01b0381168114620002db57600080fd5b50565b60805160601c60a05160601c60c05160601c61119d62000350600039806103a6528061040052806107d05280610b285250806103d352806107a15280610afb5250806104bd528061056e52806105a752806106cb528061092852806109dc5280610a805280610c2d525061119d6000f3fe608060405234801561001057600080fd5b50600436106101005760003560e01c80638da5cb5b11610097578063db2e21bc11610066578063db2e21bc146101dc578063e30c3978146101e4578063e3161ddd146101ec578063f7c618c11461020157610100565b80638da5cb5b146101995780639e447fc6146101a1578063a561cef9146101b4578063c031a66f146101c957610100565b806353c02f7b116100d357806353c02f7b146101615780635a2f3d09146101765780635fcbd2851461017e578063790822a61461018657610100565b8063078dfbe7146101055780631959a0021461011a5780634198709a146101445780634e71e0c814610159575b600080fd5b610118610113366004610e26565b610209565b005b61012d610128366004610e04565b6102f8565b60405161013b929190611148565b60405180910390f35b61014c610311565b60405161013b919061113f565b610118610317565b6101696103a4565b60405161013b9190610f1e565b61012d6103c8565b6101696103d1565b610118610194366004610e6f565b6103f5565b61016961063e565b6101186101af366004610eb5565b61064d565b6101bc6106c6565b60405161013b9190610f4b565b61014c6101d7366004610e04565b61076c565b6101186108e7565b610169610aa9565b6101f4610ab8565b60405161013b9190611128565b610169610c2b565b6000546001600160a01b0316331461023c5760405162461bcd60e51b815260040161023390611087565b60405180910390fd5b81156102d7576001600160a01b0383161515806102565750805b6102725760405162461bcd60e51b815260040161023390610fe0565b600080546040516001600160a01b03808716939216917f8be0079c531659141344cd1fd0a4f28419497f9722a3daafe3b4186f6b6457e091a3600080546001600160a01b0385166001600160a01b0319918216179091556001805490911690556102f3565b600180546001600160a01b0319166001600160a01b0385161790555b505050565b6004602052600090815260409020805460019091015482565b60055481565b6001546001600160a01b03163381146103425760405162461bcd60e51b8152600401610233906110bc565b600080546040516001600160a01b03808516939216917f8be0079c531659141344cd1fd0a4f28419497f9722a3daafe3b4186f6b6457e091a3600080546001600160a01b039092166001600160a01b0319928316179055600180549091169055565b7f000000000000000000000000000000000000000000000000000000000000000081565b60025460035482565b7f000000000000000000000000000000000000000000000000000000000000000081565b336001600160a01b037f0000000000000000000000000000000000000000000000000000000000000000161461043d5760405162461bcd60e51b815260040161023390610f56565b610445610ab8565b5061044e610dd3565b5060408051808201825260025481526003546020808301919091526001600160a01b03851660009081526004909152918220805491929091156105d0576001820154835183546104b7929164e8d4a51000916104a991610c55565b816104b057fe5b0490610c98565b905060007f00000000000000000000000000000000000000000000000000000000000000006001600160a01b03166370a08231306040518263ffffffff1660e01b81526004016105079190610f1e565b60206040518083038186803b15801561051f57600080fd5b505afa158015610533573d6000803e3d6000fd5b505050506040513d601f19601f820116820180604052508101906105579190610ecd565b90508082111561059a576105956001600160a01b037f0000000000000000000000000000000000000000000000000000000000000000168783610cc0565b6105ce565b6105ce6001600160a01b037f0000000000000000000000000000000000000000000000000000000000000000168784610cc0565b505b838255825164e8d4a51000906105e7908690610c55565b816105ee57fe5b0460018301556040516001600160a01b038616907fd1072bb52c3131d0c96197b73fb8a45637e30f8b6664fc142310cc9b242859b49061062f90849061113f565b60405180910390a25050505050565b6000546001600160a01b031681565b6000546001600160a01b031633146106775760405162461bcd60e51b815260040161023390611087565b61067f610ab8565b5060058054908290556040517fc390a98ace15a7bb6bab611eedfdbb2685043b241a869420043cdfb23ccfee50906106ba9083908590611148565b60405180910390a15050565b6000807f00000000000000000000000000000000000000000000000000000000000000006001600160a01b03166370a08231306040518263ffffffff1660e01b81526004016107159190610f1e565b60206040518083038186803b15801561072d57600080fd5b505afa158015610741573d6000803e3d6000fd5b505050506040513d601f19601f820116820180604052508101906107659190610ecd565b1190505b90565b6001600160a01b03808216600090815260046020819052604080832060025491516370a0823160e01b815293949093919285927f0000000000000000000000000000000000000000000000000000000000000000909216916370a08231916107f6917f00000000000000000000000000000000000000000000000000000000000000009101610f1e565b60206040518083038186803b15801561080e57600080fd5b505afa158015610822573d6000803e3d6000fd5b505050506040513d601f19601f820116820180604052508101906108469190610ecd565b6003549091504311801561085957508015155b801561086857506108686106c6565b156108c15760035460009061087e904390610c98565b9050600061089760055483610c5590919063ffffffff16565b90506108bc836108ac8364e8d4a51000610c55565b816108b357fe5b86919004610dae565b935050505b600183015483546108de919064e8d4a51000906104a99086610c55565b95945050505050565b6000546001600160a01b031633146109115760405162461bcd60e51b815260040161023390611087565b6040516370a0823160e01b81526001600160a01b037f000000000000000000000000000000000000000000000000000000000000000016906370a082319061095d903090600401610f1e565b60206040518083038186803b15801561097557600080fd5b505afa158015610989573d6000803e3d6000fd5b505050506040513d601f19601f820116820180604052508101906109ad9190610ecd565b6040517f55abaad61a326c0cc8618401ad343a21179b6f621dc9247617973a61b0d81d1e90600090a2610aa7337f00000000000000000000000000000000000000000000000000000000000000006001600160a01b03166370a08231306040518263ffffffff1660e01b8152600401610a269190610f1e565b60206040518083038186803b158015610a3e57600080fd5b505afa158015610a52573d6000803e3d6000fd5b505050506040513d601f19601f82011682018060405250810190610a769190610ecd565b6001600160a01b037f0000000000000000000000000000000000000000000000000000000000000000169190610cc0565b565b6001546001600160a01b031681565b610ac0610dd3565b5060408051808201909152600254815260035460208201819052431115610769576040516370a0823160e01b81526000906001600160a01b037f000000000000000000000000000000000000000000000000000000000000000016906370a0823190610b50907f000000000000000000000000000000000000000000000000000000000000000090600401610f1e565b60206040518083038186803b158015610b6857600080fd5b505afa158015610b7c573d6000803e3d6000fd5b505050506040513d601f19601f82011682018060405250810190610ba09190610ecd565b9050600081118015610bb55750610bb56106c6565b15610c17576000610bd3836020015143610c9890919063ffffffff16565b90506000610bec60055483610c5590919063ffffffff16565b9050610c1283610c018364e8d4a51000610c55565b81610c0857fe5b8651919004610dae565b845250505b504360208201819052815160025560035590565b7f000000000000000000000000000000000000000000000000000000000000000081565b3b151590565b600082610c6457506000610c92565b82820282848281610c7157fe5b0414610c8f5760405162461bcd60e51b815260040161023390611046565b90505b92915050565b600082821115610cba5760405162461bcd60e51b81526004016102339061100f565b50900390565b60006060846001600160a01b031663a9059cbb8585604051602401610ce6929190610f32565b6040516020818303038152906040529060e01b6020820180516001600160e01b038381831617835250505050604051610d1f9190610ee5565b6000604051808303816000865af19150503d8060008114610d5c576040519150601f19603f3d011682016040523d82523d6000602084013e610d61565b606091505b5091509150818015610d8b575080511580610d8b575080806020019051810190610d8b9190610e99565b610da75760405162461bcd60e51b8152600401610233906110f1565b5050505050565b600082820183811015610c8f5760405162461bcd60e51b815260040161023390610fa9565b604051806040016040528060008152602001600081525090565b80356001600160a01b0381168114610c9257600080fd5b600060208284031215610e15578081fd5b610e1f8383610ded565b9392505050565b600080600060608486031215610e3a578182fd5b610e448585610ded565b92506020840135610e5481611156565b91506040840135610e6481611156565b809150509250925092565b60008060408385031215610e81578182fd5b610e8b8484610ded565b946020939093013593505050565b600060208284031215610eaa578081fd5b8151610c8f81611156565b600060208284031215610ec6578081fd5b5035919050565b600060208284031215610ede578081fd5b5051919050565b60008251815b81811015610f055760208186018101518583015201610eeb565b81811115610f135782828501525b509190910192915050565b6001600160a01b0391909116815260200190565b6001600160a01b03929092168252602082015260400190565b901515815260200190565b60208082526033908201527f6f6e6c794d4356323a206f6e6c79204d6173746572436865662056322063616e6040820152721031b0b636103a3434b990333ab731ba34b7b760691b606082015260800190565b6020808252601b908201527f536166654d6174683a206164646974696f6e206f766572666c6f770000000000604082015260600190565b6020808252601590820152744f776e61626c653a207a65726f206164647265737360581b604082015260600190565b6020808252601e908201527f536166654d6174683a207375627472616374696f6e206f766572666c6f770000604082015260600190565b60208082526021908201527f536166654d6174683a206d756c7469706c69636174696f6e206f766572666c6f6040820152607760f81b606082015260800190565b6020808252818101527f4f776e61626c653a2063616c6c6572206973206e6f7420746865206f776e6572604082015260600190565b6020808252818101527f4f776e61626c653a2063616c6c657220213d2070656e64696e67206f776e6572604082015260600190565b6020808252601a908201527f5361666545524332303a205472616e73666572206661696c6564000000000000604082015260600190565b815181526020918201519181019190915260400190565b90815260200190565b918252602082015260400190565b801515811461116457600080fd5b5056fea2646970667358221220a1fd5c818ad8392ef7edbbbb161a32ab9994677a8cae0ccab2641fb0366ca01b64736f6c634300060c0033",
  "linkReferences": {},
  "deployedLinkReferences": {}
}