{
  "_format": "hh-sol-artifact-1",
  "contractName": "MasterChefHermesV2",
  "sourceName": "contracts/MasterChefHermesV2.sol",
  "abi": [
    {
      "inputs": [
        {
          "internalType": "contract IHermesToken",
          "name": "_hermes",
          "type": "address"
        },
        {
          "internalType": "address",
          "name": "_devAddr",
          "type": "address"
        },
        {
          "internalType": "address",
          "name": "_treasuryAddr",
          "type": "address"
        },
        {
          "internalType": "address",
          "name": "_investorAddr",
          "type": "address"
        },
        {
          "internalType": "uint256",
          "name": "_hermesPerSec",
          "type": "uint256"
        },
        {
          "internalType": "uint256",
          "name": "_startTimestamp",
          "type": "uint256"
        },
        {
          "internalType": "uint256",
          "name": "_devPercent",
          "type": "uint256"
        },
        {
          "internalType": "uint256",
          "name": "_treasuryPercent",
          "type": "uint256"
        },
        {
          "internalType": "uint256",
          "name": "_investorPercent",
          "type": "uint256"
        }
      ],
      "stateMutability": "nonpayable",
      "type": "constructor"
    },
    {
      "anonymous": false,
      "inputs": [
        {
          "indexed": true,
          "internalType": "uint256",
          "name": "pid",
          "type": "uint256"
        },
        {
          "indexed": false,
          "internalType": "uint256",
          "name": "allocPoint",
          "type": "uint256"
        },
        {
          "indexed": true,
          "internalType": "contract IERC20",
          "name": "lpToken",
          "type": "address"
        },
        {
          "indexed": true,
          "internalType": "contract IRewarder",
          "name": "rewarder",
          "type": "address"
        }
      ],
      "name": "Add",
      "type": "event"
    },
    {
      "anonymous": false,
      "inputs": [
        {
          "indexed": true,
          "internalType": "address",
          "name": "user",
          "type": "address"
        },
        {
          "indexed": true,
          "internalType": "uint256",
          "name": "pid",
          "type": "uint256"
        },
        {
          "indexed": false,
          "internalType": "uint256",
          "name": "amount",
          "type": "uint256"
        }
      ],
      "name": "Deposit",
      "type": "event"
    },
    {
      "anonymous": false,
      "inputs": [
        {
          "indexed": true,
          "internalType": "address",
          "name": "user",
          "type": "address"
        },
        {
          "indexed": true,
          "internalType": "uint256",
          "name": "pid",
          "type": "uint256"
        },
        {
          "indexed": false,
          "internalType": "uint256",
          "name": "amount",
          "type": "uint256"
        }
      ],
      "name": "EmergencyWithdraw",
      "type": "event"
    },
    {
      "anonymous": false,
      "inputs": [
        {
          "indexed": true,
          "internalType": "address",
          "name": "user",
          "type": "address"
        },
        {
          "indexed": true,
          "internalType": "uint256",
          "name": "pid",
          "type": "uint256"
        },
        {
          "indexed": false,
          "internalType": "uint256",
          "name": "amount",
          "type": "uint256"
        }
      ],
      "name": "Harvest",
      "type": "event"
    },
    {
      "anonymous": false,
      "inputs": [
        {
          "indexed": true,
          "internalType": "uint256[]",
          "name": "_blockEnds",
          "type": "uint256[]"
        }
      ],
      "name": "OnBlockDeltaEndStageChanged",
      "type": "event"
    },
    {
      "anonymous": false,
      "inputs": [
        {
          "indexed": true,
          "internalType": "uint256[]",
          "name": "_blockStarts",
          "type": "uint256[]"
        }
      ],
      "name": "OnBlockDeltaStartStageChanged",
      "type": "event"
    },
    {
      "anonymous": false,
      "inputs": [
        {
          "indexed": true,
          "internalType": "uint256[]",
          "name": "_devFees",
          "type": "uint256[]"
        }
      ],
      "name": "OnDevFeeStageChanged",
      "type": "event"
    },
    {
      "anonymous": false,
      "inputs": [
        {
          "indexed": true,
          "internalType": "uint256",
          "name": "_newPercent",
          "type": "uint256"
        }
      ],
      "name": "OnDevPercentChanged",
      "type": "event"
    },
    {
      "anonymous": false,
      "inputs": [
        {
          "indexed": true,
          "internalType": "address",
          "name": "_investorAddr",
          "type": "address"
        }
      ],
      "name": "OnInvestorAddrChanged",
      "type": "event"
    },
    {
      "anonymous": false,
      "inputs": [
        {
          "indexed": true,
          "internalType": "uint256",
          "name": "_newInvestorPercent",
          "type": "uint256"
        }
      ],
      "name": "OnInvestorPercentChanged",
      "type": "event"
    },
    {
      "anonymous": false,
      "inputs": [
        {
          "indexed": true,
          "internalType": "address",
          "name": "_treasuryAddr",
          "type": "address"
        }
      ],
      "name": "OnTreasuryAddrChanged",
      "type": "event"
    },
    {
      "anonymous": false,
      "inputs": [
        {
          "indexed": true,
          "internalType": "uint256",
          "name": "_newPercent",
          "type": "uint256"
        }
      ],
      "name": "OnTreasuryPercentChanged",
      "type": "event"
    },
    {
      "anonymous": false,
      "inputs": [
        {
          "indexed": true,
          "internalType": "uint256[]",
          "name": "_userFees",
          "type": "uint256[]"
        }
      ],
      "name": "OnUserFeeStageChanged",
      "type": "event"
    },
    {
      "anonymous": false,
      "inputs": [
        {
          "indexed": true,
          "internalType": "address",
          "name": "previousOwner",
          "type": "address"
        },
        {
          "indexed": true,
          "internalType": "address",
          "name": "newOwner",
          "type": "address"
        }
      ],
      "name": "OwnershipTransferred",
      "type": "event"
    },
    {
      "anonymous": false,
      "inputs": [
        {
          "indexed": true,
          "internalType": "uint256",
          "name": "pid",
          "type": "uint256"
        },
        {
          "indexed": false,
          "internalType": "uint256",
          "name": "allocPoint",
          "type": "uint256"
        },
        {
          "indexed": true,
          "internalType": "contract IRewarder",
          "name": "rewarder",
          "type": "address"
        },
        {
          "indexed": false,
          "internalType": "bool",
          "name": "overwrite",
          "type": "bool"
        }
      ],
      "name": "Set",
      "type": "event"
    },
    {
      "anonymous": false,
      "inputs": [
        {
          "indexed": true,
          "internalType": "address",
          "name": "oldAddress",
          "type": "address"
        },
        {
          "indexed": true,
          "internalType": "address",
          "name": "newAddress",
          "type": "address"
        }
      ],
      "name": "SetDevAddress",
      "type": "event"
    },
    {
      "anonymous": false,
      "inputs": [
        {
          "indexed": true,
          "internalType": "address",
          "name": "user",
          "type": "address"
        },
        {
          "indexed": false,
          "internalType": "uint256",
          "name": "_hermesPerSec",
          "type": "uint256"
        }
      ],
      "name": "UpdateEmissionRate",
      "type": "event"
    },
    {
      "anonymous": false,
      "inputs": [
        {
          "indexed": true,
          "internalType": "uint256",
          "name": "pid",
          "type": "uint256"
        },
        {
          "indexed": false,
          "internalType": "uint256",
          "name": "lastRewardTimestamp",
          "type": "uint256"
        },
        {
          "indexed": false,
          "internalType": "uint256",
          "name": "lpSupply",
          "type": "uint256"
        },
        {
          "indexed": false,
          "internalType": "uint256",
          "name": "accHermesPerShare",
          "type": "uint256"
        }
      ],
      "name": "UpdatePool",
      "type": "event"
    },
    {
      "anonymous": false,
      "inputs": [
        {
          "indexed": true,
          "internalType": "address",
          "name": "user",
          "type": "address"
        },
        {
          "indexed": true,
          "internalType": "uint256",
          "name": "pid",
          "type": "uint256"
        },
        {
          "indexed": false,
          "internalType": "uint256",
          "name": "amount",
          "type": "uint256"
        }
      ],
      "name": "Withdraw",
      "type": "event"
    },
    {
      "anonymous": false,
      "inputs": [
        {
          "indexed": false,
          "internalType": "address",
          "name": "to",
          "type": "address"
        },
        {
          "indexed": false,
          "internalType": "uint256",
          "name": "request",
          "type": "uint256"
        },
        {
          "indexed": false,
          "internalType": "uint256",
          "name": "sent",
          "type": "uint256"
        }
      ],
      "name": "hermesTransfer",
      "type": "event"
    },
    {
      "inputs": [
        {
          "internalType": "uint256",
          "name": "_allocPoint",
          "type": "uint256"
        },
        {
          "internalType": "contract IERC20",
          "name": "_lpToken",
          "type": "address"
        },
        {
          "internalType": "contract IRewarder",
          "name": "_rewarder",
          "type": "address"
        }
      ],
      "name": "add",
      "outputs": [],
      "stateMutability": "nonpayable",
      "type": "function"
    },
    {
      "inputs": [
        {
          "internalType": "uint256",
          "name": "",
          "type": "uint256"
        }
      ],
      "name": "blockDeltaEndStage",
      "outputs": [
        {
          "internalType": "uint256",
          "name": "",
          "type": "uint256"
        }
      ],
      "stateMutability": "view",
      "type": "function"
    },
    {
      "inputs": [
        {
          "internalType": "uint256",
          "name": "",
          "type": "uint256"
        }
      ],
      "name": "blockDeltaStartStage",
      "outputs": [
        {
          "internalType": "uint256",
          "name": "",
          "type": "uint256"
        }
      ],
      "stateMutability": "view",
      "type": "function"
    },
    {
      "inputs": [
        {
          "internalType": "uint256",
          "name": "_pid",
          "type": "uint256"
        },
        {
          "internalType": "uint256",
          "name": "_amount",
          "type": "uint256"
        }
      ],
      "name": "deposit",
      "outputs": [],
      "stateMutability": "nonpayable",
      "type": "function"
    },
    {
      "inputs": [
        {
          "internalType": "address",
          "name": "_devAddr",
          "type": "address"
        }
      ],
      "name": "dev",
      "outputs": [],
      "stateMutability": "nonpayable",
      "type": "function"
    },
    {
      "inputs": [],
      "name": "devAddr",
      "outputs": [
        {
          "internalType": "address",
          "name": "",
          "type": "address"
        }
      ],
      "stateMutability": "view",
      "type": "function"
    },
    {
      "inputs": [
        {
          "internalType": "uint256",
          "name": "",
          "type": "uint256"
        }
      ],
      "name": "devFeeStage",
      "outputs": [
        {
          "internalType": "uint256",
          "name": "",
          "type": "uint256"
        }
      ],
      "stateMutability": "view",
      "type": "function"
    },
    {
      "inputs": [],
      "name": "devPercent",
      "outputs": [
        {
          "internalType": "uint256",
          "name": "",
          "type": "uint256"
        }
      ],
      "stateMutability": "view",
      "type": "function"
    },
    {
      "inputs": [
        {
          "internalType": "uint256",
          "name": "_pid",
          "type": "uint256"
        }
      ],
      "name": "emergencyWithdraw",
      "outputs": [],
      "stateMutability": "nonpayable",
      "type": "function"
    },
    {
      "inputs": [],
      "name": "hermes",
      "outputs": [
        {
          "internalType": "contract IHermesToken",
          "name": "",
          "type": "address"
        }
      ],
      "stateMutability": "view",
      "type": "function"
    },
    {
      "inputs": [],
      "name": "hermesPerSec",
      "outputs": [
        {
          "internalType": "uint256",
          "name": "",
          "type": "uint256"
        }
      ],
      "stateMutability": "view",
      "type": "function"
    },
    {
      "inputs": [],
      "name": "investorAddr",
      "outputs": [
        {
          "internalType": "address",
          "name": "",
          "type": "address"
        }
      ],
      "stateMutability": "view",
      "type": "function"
    },
    {
      "inputs": [],
      "name": "investorPercent",
      "outputs": [
        {
          "internalType": "uint256",
          "name": "",
          "type": "uint256"
        }
      ],
      "stateMutability": "view",
      "type": "function"
    },
    {
      "inputs": [],
      "name": "massUpdatePools",
      "outputs": [],
      "stateMutability": "nonpayable",
      "type": "function"
    },
    {
      "inputs": [],
      "name": "owner",
      "outputs": [
        {
          "internalType": "address",
          "name": "",
          "type": "address"
        }
      ],
      "stateMutability": "view",
      "type": "function"
    },
    {
      "inputs": [
        {
          "internalType": "uint256",
          "name": "_pid",
          "type": "uint256"
        },
        {
          "internalType": "address",
          "name": "_user",
          "type": "address"
        }
      ],
      "name": "pendingTokens",
      "outputs": [
        {
          "internalType": "uint256",
          "name": "pendingHermes",
          "type": "uint256"
        },
        {
          "internalType": "address",
          "name": "bonusTokenAddress",
          "type": "address"
        },
        {
          "internalType": "string",
          "name": "bonusTokenSymbol",
          "type": "string"
        },
        {
          "internalType": "uint256",
          "name": "pendingBonusToken",
          "type": "uint256"
        }
      ],
      "stateMutability": "view",
      "type": "function"
    },
    {
      "inputs": [
        {
          "internalType": "uint256",
          "name": "",
          "type": "uint256"
        }
      ],
      "name": "poolInfo",
      "outputs": [
        {
          "internalType": "contract IERC20",
          "name": "lpToken",
          "type": "address"
        },
        {
          "internalType": "uint256",
          "name": "allocPoint",
          "type": "uint256"
        },
        {
          "internalType": "uint256",
          "name": "lastRewardTimestamp",
          "type": "uint256"
        },
        {
          "internalType": "uint256",
          "name": "accHermesPerShare",
          "type": "uint256"
        },
        {
          "internalType": "contract IRewarder",
          "name": "rewarder",
          "type": "address"
        }
      ],
      "stateMutability": "view",
      "type": "function"
    },
    {
      "inputs": [],
      "name": "poolLength",
      "outputs": [
        {
          "internalType": "uint256",
          "name": "",
          "type": "uint256"
        }
      ],
      "stateMutability": "view",
      "type": "function"
    },
    {
      "inputs": [],
      "name": "renounceOwnership",
      "outputs": [],
      "stateMutability": "nonpayable",
      "type": "function"
    },
    {
      "inputs": [
        {
          "internalType": "uint256",
          "name": "_pid",
          "type": "uint256"
        }
      ],
      "name": "rewarderBonusTokenInfo",
      "outputs": [
        {
          "internalType": "address",
          "name": "bonusTokenAddress",
          "type": "address"
        },
        {
          "internalType": "string",
          "name": "bonusTokenSymbol",
          "type": "string"
        }
      ],
      "stateMutability": "view",
      "type": "function"
    },
    {
      "inputs": [
        {
          "internalType": "uint256",
          "name": "_pid",
          "type": "uint256"
        },
        {
          "internalType": "uint256",
          "name": "_allocPoint",
          "type": "uint256"
        },
        {
          "internalType": "contract IRewarder",
          "name": "_rewarder",
          "type": "address"
        },
        {
          "internalType": "bool",
          "name": "overwrite",
          "type": "bool"
        }
      ],
      "name": "set",
      "outputs": [],
      "stateMutability": "nonpayable",
      "type": "function"
    },
    {
      "inputs": [
        {
          "internalType": "uint256",
          "name": "_newDevPercent",
          "type": "uint256"
        }
      ],
      "name": "setDevPercent",
      "outputs": [],
      "stateMutability": "nonpayable",
      "type": "function"
    },
    {
      "inputs": [
        {
          "internalType": "address",
          "name": "_investorAddr",
          "type": "address"
        }
      ],
      "name": "setInvestorAddr",
      "outputs": [],
      "stateMutability": "nonpayable",
      "type": "function"
    },
    {
      "inputs": [
        {
          "internalType": "uint256",
          "name": "_newInvestorPercent",
          "type": "uint256"
        }
      ],
      "name": "setInvestorPercent",
      "outputs": [],
      "stateMutability": "nonpayable",
      "type": "function"
    },
    {
      "inputs": [
        {
          "internalType": "uint256[]",
          "name": "_blockEnds",
          "type": "uint256[]"
        }
      ],
      "name": "setStageEnds",
      "outputs": [],
      "stateMutability": "nonpayable",
      "type": "function"
    },
    {
      "inputs": [
        {
          "internalType": "uint256[]",
          "name": "_blockStarts",
          "type": "uint256[]"
        }
      ],
      "name": "setStageStarts",
      "outputs": [],
      "stateMutability": "nonpayable",
      "type": "function"
    },
    {
      "inputs": [
        {
          "internalType": "address",
          "name": "_treasuryAddr",
          "type": "address"
        }
      ],
      "name": "setTreasuryAddr",
      "outputs": [],
      "stateMutability": "nonpayable",
      "type": "function"
    },
    {
      "inputs": [
        {
          "internalType": "uint256",
          "name": "_newTreasuryPercent",
          "type": "uint256"
        }
      ],
      "name": "setTreasuryPercent",
      "outputs": [],
      "stateMutability": "nonpayable",
      "type": "function"
    },
    {
      "inputs": [],
      "name": "startTimestamp",
      "outputs": [
        {
          "internalType": "uint256",
          "name": "",
          "type": "uint256"
        }
      ],
      "stateMutability": "view",
      "type": "function"
    },
    {
      "inputs": [],
      "name": "totalAllocPoint",
      "outputs": [
        {
          "internalType": "uint256",
          "name": "",
          "type": "uint256"
        }
      ],
      "stateMutability": "view",
      "type": "function"
    },
    {
      "inputs": [
        {
          "internalType": "address",
          "name": "newOwner",
          "type": "address"
        }
      ],
      "name": "transferOwnership",
      "outputs": [],
      "stateMutability": "nonpayable",
      "type": "function"
    },
    {
      "inputs": [],
      "name": "treasuryAddr",
      "outputs": [
        {
          "internalType": "address",
          "name": "",
          "type": "address"
        }
      ],
      "stateMutability": "view",
      "type": "function"
    },
    {
      "inputs": [],
      "name": "treasuryPercent",
      "outputs": [
        {
          "internalType": "uint256",
          "name": "",
          "type": "uint256"
        }
      ],
      "stateMutability": "view",
      "type": "function"
    },
    {
      "inputs": [
        {
          "internalType": "uint256",
          "name": "_hermesPerSec",
          "type": "uint256"
        }
      ],
      "name": "updateEmissionRate",
      "outputs": [],
      "stateMutability": "nonpayable",
      "type": "function"
    },
    {
      "inputs": [
        {
          "internalType": "uint256",
          "name": "_pid",
          "type": "uint256"
        }
      ],
      "name": "updatePool",
      "outputs": [],
      "stateMutability": "nonpayable",
      "type": "function"
    },
    {
      "inputs": [
        {
          "internalType": "uint256",
          "name": "_pid",
          "type": "uint256"
        },
        {
          "internalType": "address",
          "name": "_user",
          "type": "address"
        }
      ],
      "name": "userDelta",
      "outputs": [
        {
          "internalType": "uint256",
          "name": "",
          "type": "uint256"
        }
      ],
      "stateMutability": "view",
      "type": "function"
    },
    {
      "inputs": [
        {
          "internalType": "uint256",
          "name": "",
          "type": "uint256"
        }
      ],
      "name": "userFeeStage",
      "outputs": [
        {
          "internalType": "uint256",
          "name": "",
          "type": "uint256"
        }
      ],
      "stateMutability": "view",
      "type": "function"
    },
    {
      "inputs": [
        {
          "internalType": "uint256",
          "name": "",
          "type": "uint256"
        },
        {
          "internalType": "address",
          "name": "",
          "type": "address"
        }
      ],
      "name": "userInfo",
      "outputs": [
        {
          "internalType": "uint256",
          "name": "amount",
          "type": "uint256"
        },
        {
          "internalType": "uint256",
          "name": "rewardDebt",
          "type": "uint256"
        },
        {
          "internalType": "uint256",
          "name": "lastWithdrawBlock",
          "type": "uint256"
        },
        {
          "internalType": "uint256",
          "name": "firstDepositBlock",
          "type": "uint256"
        },
        {
          "internalType": "uint256",
          "name": "blockdelta",
          "type": "uint256"
        },
        {
          "internalType": "uint256",
          "name": "lastDepositBlock",
          "type": "uint256"
        }
      ],
      "stateMutability": "view",
      "type": "function"
    },
    {
      "inputs": [
        {
          "internalType": "uint256",
          "name": "_pid",
          "type": "uint256"
        },
        {
          "internalType": "uint256",
          "name": "_amount",
          "type": "uint256"
        }
      ],
      "name": "withdraw",
      "outputs": [],
      "stateMutability": "nonpayable",
      "type": "function"
    }
  ],
  "bytecode": "0x60c060405262093a8060809081526212750060a052620000249060109060026200024a565b506040805160208101909152621275008152620000469060119060016200024a565b5060408051606081018252606381526103e6602082015261270b9181019190915262000077906012906003620002a1565b50604080516060810182526001815260026020820152600591810191909152620000a6906013906003620002e5565b50348015620000b457600080fd5b5060405162003c1838038062003c18833981016040819052620000d7916200033f565b6000620000e362000246565b600080546001600160a01b0319166001600160a01b0383169081178255604051929350917f8be0079c531659141344cd1fd0a4f28419497f9722a3daafe3b4186f6b6457e0908290a350600180556103e88311156200015f5760405162461bcd60e51b8152600401620001569062000424565b60405180910390fd5b6103e8821115620001845760405162461bcd60e51b81526004016200015690620003d9565b6103e8811115620001a95760405162461bcd60e51b81526004016200015690620004ad565b6103e881838501011115620001d25760405162461bcd60e51b815260040162000156906200046a565b600280546001600160a01b039a8b166001600160a01b03199182161790915560038054998b169982169990991790985560048054978a169789169790971790965560058054959098169490961693909317909555600655600f939093556007929092556008556009556000600e5562000511565b3390565b8280548282559060005260206000209081019282156200028f579160200282015b828111156200028f578251829062ffffff169055916020019190600101906200026b565b506200029d92915062000328565b5090565b8280548282559060005260206000209081019282156200028f579160200282015b828111156200028f578251829061ffff16905591602001919060010190620002c2565b8280548282559060005260206000209081019282156200028f579160200282015b828111156200028f578251829060ff1690559160200191906001019062000306565b5b808211156200029d576000815560010162000329565b60008060008060008060008060006101208a8c0312156200035e578485fd5b89516200036b81620004f8565b60208b01519099506200037e81620004f8565b60408b01519098506200039181620004f8565b60608b0151909750620003a481620004f8565b8096505060808a0151945060a08a0151935060c08a0151925060e08a015191506101008a015190509295985092959850929598565b6020808252602b908201527f636f6e7374727563746f723a20696e76616c696420747265617375727920706560408201526a7263656e742076616c756560a81b606082015260800190565b60208082526026908201527f636f6e7374727563746f723a20696e76616c6964206465762070657263656e746040820152652076616c756560d01b606082015260800190565b60208082526023908201527f636f6e7374727563746f723a20746f74616c2070657263656e74206f766572206040820152620dac2f60eb1b606082015260800190565b6020808252602b908201527f636f6e7374727563746f723a20696e76616c696420696e766573746f7220706560408201526a7263656e742076616c756560a81b606082015260800190565b6001600160a01b03811681146200050e57600080fd5b50565b6136f780620005216000396000f3fe608060405234801561001057600080fd5b506004361061023d5760003560e01c806389a2bc251161013b578063cb0b8ca1116100b8578063e6fd48bc1161007c578063e6fd48bc1461049a578063f2fde38b146104a2578063fb39d1e3146104b5578063fc3c28af146104c8578063ffcd4263146104d05761023d565b8063cb0b8ca114610451578063d007db2914610464578063d8092c9214610477578063da09c72c1461047f578063e2bbb158146104875761023d565b8063aa3448ab116100ff578063aa3448ab146103fa578063ab7de09814610402578063acc4cc5014610415578063bc70fdbc1461041d578063beff2a531461043e5761023d565b806389a2bc25146103945780638d88a90e146103a75780638da5cb5b146103ba57806393f1a40b146103c2578063a7e05b9c146103e75761023d565b80634af0e3e1116101c95780636eaddad21161018d5780636eaddad214610340578063715018a614610353578063847bdaa41461035b578063876d3c9c1461036e57806388bba42f146103815761023d565b80634af0e3e1146102ec57806351eb05a6146102ff5780635312ea8e146103125780636245f08414610325578063630b5ba1146103385761023d565b80630f51f8ff116102105780630f51f8ff146102855780631526fe271461029857806317caf6f1146102bc57806330d9a62a146102c4578063441a3e70146102d95761023d565b806304ef9d58146102425780630735b20814610260578063081e3eda146102685780630ba84cd214610270575b600080fd5b61024a6104f3565b6040516102579190613596565b60405180910390f35b61024a6104f9565b61024a6104ff565b61028361027e366004612d83565b610505565b005b610283610293366004612c0e565b610597565b6102ab6102a6366004612d83565b61060b565b604051610257959493929190612fa1565b61024a610656565b6102cc61065c565b6040516102579190612f0b565b6102836102e7366004612e23565b61066b565b6102836102fa366004612c46565b6108be565b61028361030d366004612d83565b610952565b610283610320366004612d83565b610da8565b61024a610333366004612d83565b610ec3565b610283610ee1565b61028361034e366004612d83565b610f00565b610283610fbe565b610283610369366004612c46565b611047565b61028361037c366004612d83565b6110db565b61028361038f366004612e44565b611199565b6102836103a2366004612d83565b61136a565b6102836103b5366004612c0e565b611428565b6102cc61149e565b6103d56103d0366004612db3565b6114ad565b60405161025796959493929190613600565b6102836103f5366004612c0e565b6114ed565b61024a611561565b610283610410366004612de2565b611567565b6102cc611865565b61043061042b366004612d83565b611874565b604051610257929190612f5c565b61024a61044c366004612d83565b6119f3565b61024a61045f366004612d83565b611a00565b61024a610472366004612d83565b611a0d565b6102cc611a1a565b6102cc611a29565b610283610495366004612e23565b611a38565b61024a611e5b565b6102836104b0366004612c0e565b611e61565b61024a6104c3366004612db3565b611f21565b61024a611f90565b6104e36104de366004612db3565b611f96565b604051610257949392919061359f565b60085481565b60095481565b600a5490565b61050d61228d565b6001600160a01b031661051e61149e565b6001600160a01b03161461054d5760405162461bcd60e51b815260040161054490613290565b60405180910390fd5b610555610ee1565b600681905560405133907fe2492e003bbe8afa53088b406f0c1cb5d9e280370fc72a74cf116ffd343c40539061058c908490613596565b60405180910390a250565b6005546001600160a01b031633146105c15760405162461bcd60e51b8152600401610544906133c8565b600580546001600160a01b0319166001600160a01b0383169081179091556040517fcfaab8a6a9a692bbf38fdafc81b49d4f028c34f530390d9212054b0acfeae7d090600090a250565b600a818154811061061857fe5b6000918252602090912060059091020180546001820154600283015460038401546004909401546001600160a01b0393841695509193909290911685565b600e5481565b6004546001600160a01b031681565b6002600154141561068e5760405162461bcd60e51b81526004016105449061351b565b6002600155600a54829081106106b65760405162461bcd60e51b815260040161054490613199565b6000600a84815481106106c557fe5b60009182526020808320878452600d82526040808520338652909252922080546005909202909201925084111561070e5760405162461bcd60e51b81526004016105449061342e565b61071785610952565b6000610751826001015461074b64e8d4a510006107458760030154876000015461229190919063ffffffff16565b906122d4565b90612306565b905061075d338261232e565b85336001600160a01b03167f71bab65ced2e5750775a0613be067df48ef06cf92a496ebf7663ae0660924954836040516107979190613596565b60405180910390a381546107ab9086612306565b80835560038401546107c89164e8d4a51000916107459190612291565b82600101819055506000600a87815481106107df57fe5b60009182526020909120600460059092020101546001600160a01b031690508015610865578254604051633c84115360e11b81526001600160a01b0383169163790822a691610832913391600401612f1f565b600060405180830381600087803b15801561084c57600080fd5b505af1158015610860573d6000803e3d6000fd5b505050505b61086f8787612509565b86336001600160a01b03167ff279e6a1f5e320cca91135676d9cb6e44ca8a08c0b88342bcdb1144f6511b568886040516108a99190613596565b60405180910390a35050600180555050505050565b6108c661228d565b6001600160a01b03166108d761149e565b6001600160a01b0316146108fd5760405162461bcd60e51b815260040161054490613290565b8051610910906011906020840190612bae565b508060405161091f9190612eb9565b604051908190038120907fd88fce29c587fd22104b7f042f470dc9a25ba5adb19b1f39fd5bd136ab9957de90600090a250565b600a54819081106109755760405162461bcd60e51b815260040161054490613199565b6000600a838154811061098457fe5b90600052602060002090600502019050806002015442116109a55750610da4565b80546040516370a0823160e01b81526000916001600160a01b0316906370a08231906109d5903090600401612f0b565b60206040518083038186803b1580156109ed57600080fd5b505afa158015610a01573d6000803e3d6000fd5b505050506040513d601f19601f82011682018060405250810190610a259190612d9b565b905080610a39575042600290910155610da4565b600260009054906101000a90046001600160a01b03166001600160a01b031663c7ff1b606040518163ffffffff1660e01b815260040160206040518083038186803b158015610a8757600080fd5b505afa158015610a9b573d6000803e3d6000fd5b505050506040513d601f19601f82011682018060405250810190610abf9190612cdb565b15610ad1575042600290910155610da4565b6000610aea83600201544261230690919063ffffffff16565b90506000610b17600e546107458660010154610b116006548761229190919063ffffffff16565b90612291565b6009546008546007546002546003549495506103e88281039390930393909303936001600160a01b03938416936340c10f1993911691610b5d9190610745908890612291565b6040518363ffffffff1660e01b8152600401610b7a929190612f1f565b600060405180830381600087803b158015610b9457600080fd5b505af1158015610ba8573d6000803e3d6000fd5b50506002546004546008546001600160a01b0392831694506340c10f199350911690610bdd906103e890610745908890612291565b6040518363ffffffff1660e01b8152600401610bfa929190612f1f565b600060405180830381600087803b158015610c1457600080fd5b505af1158015610c28573d6000803e3d6000fd5b50506002546005546009546001600160a01b0392831694506340c10f199350911690610c5d906103e890610745908890612291565b6040518363ffffffff1660e01b8152600401610c7a929190612f1f565b600060405180830381600087803b158015610c9457600080fd5b505af1158015610ca8573d6000803e3d6000fd5b50506002546001600160a01b031691506340c10f19905030610cd06103e86107458787612291565b6040518363ffffffff1660e01b8152600401610ced929190612f1f565b600060405180830381600087803b158015610d0757600080fd5b505af1158015610d1b573d6000803e3d6000fd5b50505050610d53610d486103e861074584610b118961074564e8d4a510008a61229190919063ffffffff16565b6003870154906126db565b60038601819055426002870181905560405189927f3be3541fc42237d611b30329040bfa4569541d156560acdbbae57640d20b8f4692610d9692909189916135ea565b60405180910390a250505050505b5050565b600a5481908110610dcb5760405162461bcd60e51b815260040161054490613199565b6000600a8381548110610dda57fe5b60009182526020808320868452600d825260408085203386529092529083208054600590930290910193509190610e1990606490610745906063612291565b90506000610e3a60646107456001866000015461229190919063ffffffff16565b600080855560018501558454909150610e5d906001600160a01b03163384612700565b6004548454610e79916001600160a01b03918216911683612700565b85336001600160a01b03167fbb757047c2b5f3974fe26b7c10f732e7bce710b0952a71082702781e62ae059584604051610eb39190613596565b60405180910390a3505050505050565b60108181548110610ed057fe5b600091825260209091200154905081565b600a5460005b81811015610da457610ef881610952565b600101610ee7565b610f0861228d565b6001600160a01b0316610f1961149e565b6001600160a01b031614610f3f5760405162461bcd60e51b815260040161054490613290565b6103e8811115610f615760405162461bcd60e51b815260040161054490613552565b6103e86009548260085401011115610f8b5760405162461bcd60e51b8152600401610544906132f4565b600781905560405181907f9d1b620a27d3cff0611581df3c659ea0980d4b3db9428ca96559a1420fa3c7bb90600090a250565b610fc661228d565b6001600160a01b0316610fd761149e565b6001600160a01b031614610ffd5760405162461bcd60e51b815260040161054490613290565b600080546040516001600160a01b03909116907f8be0079c531659141344cd1fd0a4f28419497f9722a3daafe3b4186f6b6457e0908390a3600080546001600160a01b0319169055565b61104f61228d565b6001600160a01b031661106061149e565b6001600160a01b0316146110865760405162461bcd60e51b815260040161054490613290565b8051611099906010906020840190612bae565b50806040516110a89190612eb9565b604051908190038120907f57c31cb0b626d0819c0d830cd19bbb85e317d65710eda3756dc8fc7daa559d2290600090a250565b6110e361228d565b6001600160a01b03166110f461149e565b6001600160a01b03161461111a5760405162461bcd60e51b815260040161054490613290565b6103e881111561113c5760405162461bcd60e51b815260040161054490613339565b6103e860085482600754010111156111665760405162461bcd60e51b815260040161054490613052565b600981905560405181907f1b9620ae36755b5ca186d676e3fa9a6b2b901fbddee8d6945f49215f092a989790600090a250565b6111a161228d565b6001600160a01b03166111b261149e565b6001600160a01b0316146111d85760405162461bcd60e51b815260040161054490613290565b600a54849081106111fb5760405162461bcd60e51b815260040161054490613199565b611204836127f6565b8061121657506001600160a01b038316155b6112325760405162461bcd60e51b81526004016105449061345a565b61123a610ee1565b61127784611271600a888154811061124e57fe5b906000526020600020906005020160010154600e5461230690919063ffffffff16565b906126db565b600e8190555083600a868154811061128b57fe5b90600052602060002090600502016001018190555081156112ea5782600a86815481106112b457fe5b906000526020600020906005020160040160006101000a8154816001600160a01b0302191690836001600160a01b031602179055505b8161131e57600a85815481106112fc57fe5b60009182526020909120600460059092020101546001600160a01b0316611320565b825b6001600160a01b0316857fa54644aae5c48c5971516f334e4fe8ecbc7930e23f34877d4203c6551e67ffaa868560405161135b9291906135da565b60405180910390a35050505050565b61137261228d565b6001600160a01b031661138361149e565b6001600160a01b0316146113a95760405162461bcd60e51b815260040161054490613290565b6103e88111156113cb5760405162461bcd60e51b815260040161054490613119565b6103e860095482600754010111156113f55760405162461bcd60e51b815260040161054490612fd1565b600881905560405181907ffe5e84aed80bb66b1138901b54a3742364a3f72852272e991fda306412eb9da890600090a250565b6003546001600160a01b031633146114525760405162461bcd60e51b8152600401610544906131fd565b600380546001600160a01b0319166001600160a01b03831690811790915560405133907f618c54559e94f1499a808aad71ee8729f8e74e8c48e979616328ce493a1a52e790600090a350565b6000546001600160a01b031690565b600d602090815260009283526040808420909152908252902080546001820154600283015460038401546004850154600590950154939492939192909186565b6004546001600160a01b031633146115175760405162461bcd60e51b8152600401610544906132c5565b600480546001600160a01b0319166001600160a01b0383169081179091556040517ffed1fc22ed508d4b73d6979bf4919d01a7429d337a20d9838ae69a9fc1f5888690600090a250565b60065481565b61156f61228d565b6001600160a01b031661158061149e565b6001600160a01b0316146115a65760405162461bcd60e51b815260040161054490613290565b6115af826127f6565b6115cb5760405162461bcd60e51b815260040161054490613382565b6115d4816127f6565b806115e657506001600160a01b038116155b6116025760405162461bcd60e51b8152600401610544906134a0565b6040516370a0823160e01b81526001600160a01b038316906370a082319061162e903090600401612f0b565b60206040518083038186803b15801561164657600080fd5b505afa15801561165a573d6000803e3d6000fd5b505050506040513d601f19601f8201168201806040525081019061167e9190612d9b565b5061168a600b83612800565b156116a75760405162461bcd60e51b815260040161054490613261565b6116af610ee1565b6000600f5442116116c257600f546116c4565b425b600e549091506116d490856126db565b600e556040805160a0810182526001600160a01b0385811682526020820187815292820184815260006060840181815287841660808601908152600a8054600181018255935294517fc65a7bb8d6351c1cf70c95a316cc6a92839c986682d98bc35f958f4883f9d2a8600590930292830180546001600160a01b031990811692871692909217905595517fc65a7bb8d6351c1cf70c95a316cc6a92839c986682d98bc35f958f4883f9d2a983015591517fc65a7bb8d6351c1cf70c95a316cc6a92839c986682d98bc35f958f4883f9d2aa82015590517fc65a7bb8d6351c1cf70c95a316cc6a92839c986682d98bc35f958f4883f9d2ab82015591517fc65a7bb8d6351c1cf70c95a316cc6a92839c986682d98bc35f958f4883f9d2ac90920180549093169116179055611809600b84612815565b50600a546001600160a01b038084169190851690611828906001612306565b7f4b16bd2431ad24dc020ab0e1de7fcb6563dead6a24fb10089d6c23e97a70381f876040516118579190613596565b60405180910390a450505050565b6005546001600160a01b031681565b6000606082600a80549050811061189d5760405162461bcd60e51b815260040161054490613199565b6000600a85815481106118ac57fe5b6000918252602090912060059091020160048101549091506001600160a01b0316156119ec576004808201546040805163f7c618c160e01b815290516001600160a01b039092169263f7c618c1928282019260209290829003018186803b15801561191657600080fd5b505afa15801561192a573d6000803e3d6000fd5b505050506040513d601f19601f8201168201806040525081019061194e9190612c2a565b93506119e98160040160009054906101000a90046001600160a01b03166001600160a01b031663f7c618c16040518163ffffffff1660e01b815260040160206040518083038186803b1580156119a357600080fd5b505afa1580156119b7573d6000803e3d6000fd5b505050506040513d601f19601f820116820180604052508101906119db9190612c2a565b6001600160a01b031661282a565b92505b5050915091565b60138181548110610ed057fe5b60118181548110610ed057fe5b60128181548110610ed057fe5b6002546001600160a01b031681565b6003546001600160a01b031681565b60026001541415611a5b5760405162461bcd60e51b81526004016105449061351b565b6002600155600a5482908110611a835760405162461bcd60e51b815260040161054490613199565b6000600a8481548110611a9257fe5b60009182526020808320878452600d82526040808520338652909252922060059091029091019150611ac385610952565b805415611b48576000611af8826001015461074b64e8d4a510006107458760030154876000015461229190919063ffffffff16565b9050611b04338261232e565b85336001600160a01b03167f71bab65ced2e5750775a0613be067df48ef06cf92a496ebf7663ae066092495483604051611b3e9190613596565b60405180910390a3505b8054611b5490856126db565b8082556003830154611b719164e8d4a51000916107459190612291565b81600101819055506000600a8681548110611b8857fe5b60009182526020909120600460059092020101546001600160a01b031690508015611ca257806001600160a01b031663a561cef96040518163ffffffff1660e01b815260040160206040518083038186803b158015611be657600080fd5b505afa158015611bfa573d6000803e3d6000fd5b505050506040513d601f19601f82011682018060405250810190611c1e9190612cdb565b15611c88578154604051633c84115360e11b81526001600160a01b0383169163790822a691611c51913391600401612f1f565b600060405180830381600087803b158015611c6b57600080fd5b505af1158015611c7f573d6000803e3d6000fd5b50505050611ca2565b600183015415611ca25760006001840155611ca286610952565b600382015415611cb157611cb8565b4260038301555b82546040516370a0823160e01b81526000916001600160a01b0316906370a0823190611ce8903090600401612f0b565b60206040518083038186803b158015611d0057600080fd5b505afa158015611d14573d6000803e3d6000fd5b505050506040513d601f19601f82011682018060405250810190611d389190612d9b565b8454909150611d52906001600160a01b03163330896128ed565b83546040516370a0823160e01b81526000916001600160a01b0316906370a0823190611d82903090600401612f0b565b60206040518083038186803b158015611d9a57600080fd5b505afa158015611dae573d6000803e3d6000fd5b505050506040513d601f19601f82011682018060405250810190611dd29190612d9b565b90506000611de08284612306565b9050878114611e015760405162461bcd60e51b8152600401610544906133f7565b88336001600160a01b03167f90890809c654f11d6e72a28fa60149770a0d11ec6c92319d6ceb2bb0a4ea1a158a604051611e3b9190613596565b60405180910390a350504360059093019290925550506001805550505050565b600f5481565b611e6961228d565b6001600160a01b0316611e7a61149e565b6001600160a01b031614611ea05760405162461bcd60e51b815260040161054490613290565b6001600160a01b038116611ec65760405162461bcd60e51b81526004016105449061309c565b600080546040516001600160a01b03808516939216917f8be0079c531659141344cd1fd0a4f28419497f9722a3daafe3b4186f6b6457e091a3600080546001600160a01b0319166001600160a01b0392909216919091179055565b600a5460009083908110611f475760405162461bcd60e51b815260040161054490613199565b6000848152600d602090815260408083206001600160a01b03871684529091529020600281015415611f80576002015442039150611f89565b60030154420391505b5092915050565b60075481565b6000806060600085600a805490508110611fc25760405162461bcd60e51b815260040161054490613199565b6000600a8881548110611fd157fe5b600091825260208083208b8452600d825260408085206001600160a01b03808e16875293528085206003600590950290920193840154845491516370a0823160e01b815294965091949193919216906370a0823190612034903090600401612f0b565b60206040518083038186803b15801561204c57600080fd5b505afa158015612060573d6000803e3d6000fd5b505050506040513d601f19601f820116820180604052508101906120849190612d9b565b905083600201544211801561209857508015155b80156121275750600260009054906101000a90046001600160a01b03166001600160a01b031663c7ff1b606040518163ffffffff1660e01b815260040160206040518083038186803b1580156120ed57600080fd5b505afa158015612101573d6000803e3d6000fd5b505050506040513d601f19601f820116820180604052508101906121259190612cdb565b155b156121ae57600061214585600201544261230690919063ffffffff16565b905060006009546008546007546103e8030303905060006121896103e861074584610b11600e546107458d60010154610b116006548c61229190919063ffffffff16565b90506121a86121a1856107458464e8d4a51000612291565b86906126db565b94505050505b6121d6836001015461074b64e8d4a5100061074586886000015461229190919063ffffffff16565b60048501549099506001600160a01b03161561227f576121f58b611874565b60048087015460405163c031a66f60e01b8152939b509199506001600160a01b039091169163c031a66f9161222c918e9101612f0b565b60206040518083038186803b15801561224457600080fd5b505afa158015612258573d6000803e3d6000fd5b505050506040513d601f19601f8201168201806040525081019061227c9190612d9b565b95505b505050505092959194509250565b3390565b6000826122a0575060006122ce565b828202828482816122ad57fe5b04146122cb5760405162461bcd60e51b815260040161054490613220565b90505b92915050565b60008082116122f55760405162461bcd60e51b8152600401610544906131c6565b8183816122fe57fe5b049392505050565b6000828211156123285760405162461bcd60e51b815260040161054490613162565b50900390565b6002546040516370a0823160e01b81526000916001600160a01b0316906370a082319061235f903090600401612f0b565b60206040518083038186803b15801561237757600080fd5b505afa15801561238b573d6000803e3d6000fd5b505050506040513d601f19601f820116820180604052508101906123af9190612d9b565b90508082111561247e577f438d1f7557bf87a3502b45f261a0bc7ba72cb24b387d7ed74c4456e9768eac558383836040516123ec93929190612f80565b60405180910390a160025460405163a9059cbb60e01b81526001600160a01b039091169063a9059cbb906124269086908590600401612f1f565b602060405180830381600087803b15801561244057600080fd5b505af1158015612454573d6000803e3d6000fd5b505050506040513d601f19601f820116820180604052508101906124789190612cdb565b50612504565b60025460405163a9059cbb60e01b81526001600160a01b039091169063a9059cbb906124b09086908690600401612f1f565b602060405180830381600087803b1580156124ca57600080fd5b505af11580156124de573d6000803e3d6000fd5b505050506040513d601f19601f820116820180604052508101906125029190612cdb565b505b505050565b8061251357610da4565b6000600a838154811061252257fe5b60009182526020808320868452600d8252604080852033865290925292206002810154600590920290920192501561256557600281015442036004820155612572565b6003810154420360048201555b62093a8081600401541161261e576125c6336125b46064610745601260008154811061259a57fe5b90600052602060002001548861229190919063ffffffff16565b84546001600160a01b03169190612700565b612619600460009054906101000a90046001600160a01b03166125b4612612606461074560126000815481106125f857fe5b90600052602060002001548961229190919063ffffffff16565b8690612306565b6126cf565b62093a8081600401541015801561263c575062127500816004015411155b156126885761265c336125b46103e8610745601260018154811061259a57fe5b60045460138054612619926001600160a01b0316916125b4916103e89161074591600190811061259a57fe5b6126a3336125b4612710610745601260028154811061259a57fe5b600454601380546126cf926001600160a01b0316916125b4916127109161074591600290811061259a57fe5b42600290910155505050565b6000828201838110156122cb5760405162461bcd60e51b8152600401610544906130e2565b60006060846001600160a01b031663a9059cbb60e01b8585604051602401612729929190612f1f565b60408051601f198184030181529181526020820180516001600160e01b03166001600160e01b03199094169390931790925290516127679190612eef565b6000604051808303816000865af19150503d80600081146127a4576040519150601f19603f3d011682016040523d82523d6000602084013e6127a9565b606091505b50915091508180156127d35750805115806127d35750808060200190518101906127d39190612cdb565b6127ef5760405162461bcd60e51b81526004016105449061301b565b5050505050565b803b15155b919050565b60006122cb836001600160a01b0384166129e6565b60006122cb836001600160a01b0384166129fe565b60408051600481526024810182526020810180516001600160e01b03166395d89b4160e01b179052905160609160009183916001600160a01b038616916128719190612eef565b600060405180830381855afa9150503d80600081146128ac576040519150601f19603f3d011682016040523d82523d6000602084013e6128b1565b606091505b5091509150816128dc57604051806040016040528060038152602001623f3f3f60e81b8152506128e5565b6128e581612a48565b949350505050565b60006060856001600160a01b03166323b872dd60e01b86868660405160240161291893929190612f38565b60408051601f198184030181529181526020820180516001600160e01b03166001600160e01b03199094169390931790925290516129569190612eef565b6000604051808303816000865af19150503d8060008114612993576040519150601f19603f3d011682016040523d82523d6000602084013e612998565b606091505b50915091508180156129c25750805115806129c25750808060200190518101906129c29190612cdb565b6129de5760405162461bcd60e51b8152600401610544906134e6565b505050505050565b60009081526001919091016020526040902054151590565b6000612a0a83836129e6565b612a40575081546001818101845560008481526020808220909301849055845484825282860190935260409020919091556122ce565b5060006122ce565b60606040825110612a6e5781806020019051810190612a679190612cf7565b90506127fb565b815160201415612b8e5760005b60208160ff16108015612aaa5750828160ff1681518110612a9857fe5b01602001516001600160f81b03191615155b15612ab757600101612a7b565b60608160ff1667ffffffffffffffff81118015612ad357600080fd5b506040519080825280601f01601f191660200182016040528015612afe576020820181803683370190505b509050600091505b60208260ff16108015612b355750838260ff1681518110612b2357fe5b01602001516001600160f81b03191615155b15612b8557838260ff1681518110612b4957fe5b602001015160f81c60f81b818360ff1681518110612b6357fe5b60200101906001600160f81b031916908160001a905350600190910190612b06565b91506127fb9050565b506040805180820190915260038152623f3f3f60e81b60208201526127fb565b828054828255906000526020600020908101928215612be9579160200282015b82811115612be9578251825591602001919060010190612bce565b50612bf5929150612bf9565b5090565b5b80821115612bf55760008155600101612bfa565b600060208284031215612c1f578081fd5b81356122cb8161369b565b600060208284031215612c3b578081fd5b81516122cb8161369b565b60006020808385031215612c58578182fd5b823567ffffffffffffffff811115612c6e578283fd5b8301601f81018513612c7e578283fd5b8035612c91612c8c8261364f565b613628565b8181528381019083850185840285018601891015612cad578687fd5b8694505b83851015612ccf578035835260019490940193918501918501612cb1565b50979650505050505050565b600060208284031215612cec578081fd5b81516122cb816136b3565b600060208284031215612d08578081fd5b815167ffffffffffffffff80821115612d1f578283fd5b818401915084601f830112612d32578283fd5b815181811115612d40578384fd5b612d53601f8201601f1916602001613628565b9150808252856020828501011115612d69578384fd5b612d7a81602084016020860161366f565b50949350505050565b600060208284031215612d94578081fd5b5035919050565b600060208284031215612dac578081fd5b5051919050565b60008060408385031215612dc5578081fd5b823591506020830135612dd78161369b565b809150509250929050565b600080600060608486031215612df6578081fd5b833592506020840135612e088161369b565b91506040840135612e188161369b565b809150509250925092565b60008060408385031215612e35578182fd5b50508035926020909101359150565b60008060008060808587031215612e59578081fd5b84359350602085013592506040850135612e728161369b565b91506060850135612e82816136b3565b939692955090935050565b60008151808452612ea581602086016020860161366f565b601f01601f19169290920160200192915050565b815160009082906020808601845b83811015612ee357815185529382019390820190600101612ec7565b50929695505050505050565b60008251612f0181846020870161366f565b9190910192915050565b6001600160a01b0391909116815260200190565b6001600160a01b03929092168252602082015260400190565b6001600160a01b039384168152919092166020820152604081019190915260600190565b6001600160a01b03831681526040602082018190526000906128e590830184612e8d565b6001600160a01b039390931683526020830191909152604082015260600190565b6001600160a01b039586168152602081019490945260408401929092526060830152909116608082015260a00190565b6020808252602a908201527f736574547265617375727950657263656e743a20746f74616c2070657263656e6040820152690e840deeccae440dac2f60b31b606082015260800190565b6020808252601c908201527f426f72696e6745524332303a205472616e73666572206661696c656400000000604082015260600190565b6020808252602a908201527f736574496e766573746f7250657263656e743a20746f74616c2070657263656e6040820152690e840deeccae440dac2f60b31b606082015260800190565b60208082526026908201527f4f776e61626c653a206e6577206f776e657220697320746865207a65726f206160408201526564647265737360d01b606082015260800190565b6020808252601b908201527f536166654d6174683a206164646974696f6e206f766572666c6f770000000000604082015260600190565b60208082526029908201527f736574547265617375727950657263656e743a20696e76616c69642070657263604082015268656e742076616c756560b81b606082015260800190565b6020808252601e908201527f536166654d6174683a207375627472616374696f6e206f766572666c6f770000604082015260600190565b602080825260139082015272141bdbdb08191bd95cc81b9bdd08195e1a5cdd606a1b604082015260600190565b6020808252601a908201527f536166654d6174683a206469766973696f6e206279207a65726f000000000000604082015260600190565b6020808252600990820152686465763a207775743f60b81b604082015260600190565b60208082526021908201527f536166654d6174683a206d756c7469706c69636174696f6e206f766572666c6f6040820152607760f81b606082015260800190565b6020808252601590820152741859190e88131408185b1c9958591e481859191959605a1b604082015260600190565b6020808252818101527f4f776e61626c653a2063616c6c6572206973206e6f7420746865206f776e6572604082015260600190565b6020808252601590820152747365745472656173757279416464723a207775743f60581b604082015260600190565b60208082526025908201527f73657444657650657263656e743a20746f74616c2070657263656e74206f76656040820152640e440dac2f60db1b606082015260800190565b60208082526029908201527f736574496e766573746f7250657263656e743a20696e76616c69642070657263604082015268656e742076616c756560b81b606082015260800190565b60208082526026908201527f6164643a204c5020746f6b656e206d75737420626520612076616c696420636f6040820152651b9d1c9858dd60d21b606082015260800190565b602080825260159082015274736574496e766573746f72416464723a207775743f60581b604082015260600190565b6020808252601a908201527f696e76616c696420616d6f756e74207472616e73666572726564000000000000604082015260600190565b6020808252601290820152711dda5d1a191c985dce881b9bdd0819dbdbd960721b604082015260600190565b60208082526026908201527f7365743a207265776172646572206d75737420626520636f6e7472616374206f60408201526572207a65726f60d01b606082015260800190565b60208082526026908201527f6164643a207265776172646572206d75737420626520636f6e7472616374206f60408201526572207a65726f60d01b606082015260800190565b6020808252818101527f426f72696e6745524332303a205472616e7366657246726f6d206661696c6564604082015260600190565b6020808252601f908201527f5265656e7472616e637947756172643a207265656e7472616e742063616c6c00604082015260600190565b60208082526024908201527f73657444657650657263656e743a20696e76616c69642070657263656e742076604082015263616c756560e01b606082015260800190565b90815260200190565b8481526001600160a01b03841660208201526080604082018190526000906135c990830185612e8d565b905082606083015295945050505050565b9182521515602082015260400190565b9283526020830191909152604082015260600190565b958652602086019490945260408501929092526060840152608083015260a082015260c00190565b60405181810167ffffffffffffffff8111828210171561364757600080fd5b604052919050565b600067ffffffffffffffff821115613665578081fd5b5060209081020190565b60005b8381101561368a578181015183820152602001613672565b838111156125025750506000910152565b6001600160a01b03811681146136b057600080fd5b50565b80151581146136b057600080fdfea264697066735822122062e7cfc72af68acd8eba3d8b67ef02fa302e8799f2587599d35e4ffcee674d0d64736f6c634300060c0033",
  "linkReferences": {},
  "deployedLinkReferences": {}
}